:020000040001F9
:10F00000284E002015F401001DF401001FF401003A
:10F0100021F4010023F4010025F4010000000000A8
:10F0200000000000000000000000000027F40100C4
:10F0300029F40100000000002BF401002DF4010070
:10F040007DF701002FF40100BDFA01002FF401004B
:10F050002FF401002FF4010079F501002FF40100D5
:10F060002FF401002FF401002FF401002FF4010010
:10F070002FF401002FF401002FF401002FF4010000
:10F080002FF40100D5F701002FF401002FF4010047
:10F09000F9F701002FF40100FDF701002FF4010042
:10F0A0002FF401002FF401002FF401002FF40100D0
:10F0B0002FF401002FF40100000000000000000008
:10F0C0002FF401002FF401002FF401002FF40100B0
:10F0D0002FF401002FF401002FF4010000000000C4
:10F0E0000000000000000000000000000000000020
:10F0F0000000000000000000000000000000000010
:10F1000000000000000000000000000000000000FF
:10F1100000000000000000000000000000000000EF
:10F40000DFF80CD000F086F800480047CD1D020060
:10F41000284E00200648804706480047FEE7FEE7E2
:10F42000FEE7FEE7FEE7FEE7FEE7FEE7FEE7FEE7B4
:10F4300021F8010001F40100004870479C460200D9
:10F4400040EA01039B0703D009E008C9121F08C066
:10F45000042AFAD203E011F8013B00F8013B521EE6
:10F46000F9D27047D2B201E000F8012B491EFBD25D
:10F4700070470022F6E710B513460A4604461946BF
:10F48000FFF7F0FF204610BD421C10F8011B0029B9
:10F49000FBD1801A704730B504460020034600E0D7
:10F4A0005B1C934203D2E05CCD5C401BF8D030BDC6
:10F4B0002DE9F05F0546002092469B4688460646A9
:10F4C000814640241BE0284641464746224600F03C
:10F4D00042F853465A46C01A914110D31146184675
:10F4E000224600F029F82D1A67EB01084F46224604
:10F4F0000120002100F020F817EB00094E41201EEA
:10F50000A4F10104DFDC484631462A464346BDE803
:10F51000F09F0000064C074D06E0E06840F0010354
:10F5200094E8070098471034AC42F6D3FFF76CFF1D
:10F53000F046020010470200202A04DB203A00FABD
:10F5400002F1002070479140C2F1200320FA03F33A
:10F55000194390407047202A04DB203A21FA02F038
:10F560000021704721FA02F3D040C2F120029140FD
:10F5700008431946704700002DE9F04700268CB07B
:10F58000DFF86091B0464FF4807501243746069647
:10F59000284603F0EBF938B1D9F80403204203D030
:10F5A000284603F0D9F926432D1D64007F1CADB217
:10F5B000082FEDD34FF4BE74204603F0D7F948B1BD
:10F5C000204603F0C9F946F0004606AA01210020B2
:10F5D00003F0AEF9444D16F0FF0F15D001270024BB
:10F5E00037420DD009EB8401D1F81005D1F8101580
:10F5F000C0F3042055F82420C1F3014102B1904723
:10F600007F00641C082CEBD3002E67DA4FF0FF302C
:10F61000CDE9088000263446281910F8507F90F96B
:10F62000000027F0C008401C44D009A9404602F061
:10F6300031FD58B34FEA9719404601F065FE55F881
:10F6400020701FB1B9F1030F03D00FE0B9F1030F20
:10F6500030D108A84FEAD80208F00703815C4FF0C8
:10F66000010C0CFA03FC41EA0C0181544FF0A0415B
:10F6700001EB8800D0F8000706A9C0F3014A404614
:10F6800002F008FD18B1BAF1020F03D012E0BAF18E
:10F69000030F0FD1B9F1030F08D1BAF1020F1BD03C
:10F6A0000221404603F027F9761CF6B217B149460D
:10F6B0004046B847641C042CAED3002E0ED06A46D8
:10F6C0000121002003F034F906990098884205D002
:10F6D0000690089809909DE70321E2E70CB0BDE889
:10F6E000F087000000600040C426002000F01F02E8
:10F6F000012191404009800000F1E020C0F8801213
:10F70000704700F01F02012191404009800000F184
:10F71000E020C0F88011704700F01F0201219140E5
:10F720004009800000F1E020C0F80011704700F0AF
:10F730001F02012191404009800000F1E020C0F843
:10F740000011704700F01F02012191404009800024
:10F7500000F1E020C0F8001270474907090E0028A8
:10F7600006DA00F00F0000F1E02080F8141D704769
:10F7700000F1E02080F80014704700002DE9F0410E
:10F780004FF48077384602F08DFC0124104EA50717
:10F7900048B1384602F08DFC0120C5F808037470AA
:10F7A000002001F0C9FD4FF48277384602F07AFC60
:10F7B00000280BD0384602F07CFC0220C5F8080374
:10F7C000B470BDE8F041012001F0B6BDBDE8F081A4
:10F7D000B026002007480021C0F84011C0F84411AD
:10F7E000C0F84811C0F84C11C0F80011C0F804115D
:10F7F00004F010BB0010014004F084BA074810B5B3
:10F80000406830B18047002807D0BDE8104000F0C4
:10F810008BBDBDE8104002F093B910BDFC21002063
:10F82000F0B598480023021D01780125101D4FF006
:10F830008056062907D11478240704D10478C4F32C
:10F840000314032C02D0062904D00FE08F4F8E4CF6
:10F850007C670EE01478240708D10478C4F30314FD
:10F86000032C06D0042C04D0052C02D0062907D086
:10F870000EE0D6F84442864FC4F342343C6002E0C6
:10F880001478240704D10478C4F30314032C02D0A1
:10F89000062906D011E07F4C276827F08077276083
:10F8A0000EE01478240708D10478C4F30314032C61
:10F8B00006D0042C04D0052C02D006290AD011E071
:10F8C0004FF08044C4F80C31C4F81031704C241F40
:10F8D000236002E01478240704D10478C4F30314ED
:10F8E000032C02D0062905D00CE0694F03246437AD
:10F8F0003C600AE01478240704D10478C4F30314AC
:10F90000032C02D006290DD014E0634F05243C607F
:10F91000614C78342560604C083423603F243F1DDF
:10F920003C6002E01478240704D10478C4F3031483
:10F93000052C02D0062957D068E058490968584A72
:10F9400011605649091D0968121D1160534908319B
:10F950000968121D116051490C310968121D1160AE
:10F960004E4910310968121D11604C491431096863
:10F97000121D1160494918310968494A2032116045
:10F9800046491C310968121D11604449203109683B
:10F99000121D1160414924310968121D11603F494F
:10F9A00028310968121D11603C492C310968121D6B
:10F9B00011603A4930310968394A4032116037499B
:10F9C00034310968121D1160344938310968121D3B
:10F9D000116032493C310968121D11602F494031D4
:10F9E0000968121D116002E0117809070ED1007834
:10F9F000C0F30310032803D0042801D0052805D143
:10FA0000D6F85802274900F04F00086021487438A2
:10FA1000016841F470010160BFF34F8FBFF36F8F36
:10FA20004FF01021D1F80002002803DBD1F80402C6
:10FA3000002822DA1C4A15601C480468002CFCD0FF
:10FA40001524C1F800420568002DFCD0C1F804421D
:10FA500001680029FCD0136001680029FCD0BFF3C5
:10FA60004F8F0C48F0380168114A01F4E0611143EE
:10FA70000160BFF34F8F00BFFDE70F490D480860DD
:10FA8000F0BD0000E00F00F00DF0ADBA00C007407F
:10FA90003C050040FCED00E010560040040400105E
:10FAA00020C50040E40E004004E5014000E40140B0
:10FAB0000400FA050090D003102200200448017FC2
:10FAC00004480029024901D004F083BB04F0F2BAD3
:10FAD0001C270020002000400FB41CB50A46521E0F
:10FAE000CDE9000207A9054B6A46069800F02AF8FE
:10FAF000009A002111701CBC5DF814FBA7FF0100E7
:10FB000002E008C8121F08C1002AFAD170477047E6
:10FB1000002001E001C1121F002AFBD17047000044
:10FB20000121202803DA81400548014003E04028F4
:10FB300002DA2038814009B1012070470020704767
:10FB4000FC06FFBC2DE9FF4F8DB00F460546002691
:10FB500006E025280BD0DDE90F1290476D1C761CBE
:10FB600028780028F5D111B03046BDE8F08F002488
:10FB7000A246A1460122EC4900E0044315F8013FEA
:10FB8000203B02FA03F00842F7D128782A2810D047
:10FB90006FF02F022878A0F13001092914D80AEB60
:10FBA0008A0102EB410144F0020400EB010A6D1CE2
:10FBB000F0E701CF5FEA000A03D544F40054CAF12C
:10FBC000000A44F002046D1C28782E2817D115F87D
:10FBD000010F44F004042A280ED06FF02F02287879
:10FBE000A0F1300109290AD809EB890102EB410192
:10FBF00000EB01096D1CF2E757F8049B6D1C287897
:10FC00006C280FD006DC4C2817D068280DD06A2845
:10FC100014D104E0742810D07A280FD10DE044F4F8
:10FC200000140AE044F4801401E044F440146978BC
:10FC3000814202D104F580146D1C6D1C2A786E2A55
:10FC40001FD00CDC632A31D004DC002A8BD0582A68
:10FC500011D1A3E0642A68D0692A0CD165E0732A27
:10FC60002ED004DC6F2A73D0702A04D19BE0752A51
:10FC70006FD0782A6ED01046DDE90F129047761CBF
:10FC800050E1C4F30250022806D0032809D004280A
:10FC900001CF09D0066045E101CFF117C0E900614D
:10FCA00040E101CF06803DE106703BE117F8040B0F
:10FCB0008DF8000000208DF80100EB46012003E0E4
:10FCC00057F804BB4FF0FF3061074FF0000102D43A
:10FCD0000DE008F10101884649450FDA8045F8DB5F
:10FCE0001BF808100029F4D108E008F1010188464A
:10FCF0008142FADB1BF808100029F6D1DDE90F2359
:10FD0000AAEB08008146214600F036F9304400EBAA
:10FD1000080604E0DDE90F121BF8010B9047B8F16B
:10FD20000108F7D221464846F7E00A21C4F30253FE
:10FD30004FF0000B0891022B04D001CFC117032B09
:10FD400009D00AE0FF1D27F00707F7E8020108E0E5
:10FD500032E01FE020E000B2C117042B01D140B215
:10FD6000C117031E71F1000307DA4FF0000CD0EB4E
:10FD70000C006CEB01012D2302E0230504D52B239D
:10FD80008DF82430012303E0E30701D02023F7E7B7
:10FD9000984658E00A2110E010210EE010204FF0A4
:10FDA000000B08900CE010214FF0000B44F004040D
:10FDB0004FF00809089103E008214FF0000B08916B
:10FDC000C4F30253022B04D001CF0021032B06D031
:10FDD00006E0FF1D27F00707F7E8020103E080B205
:10FDE000042B00D1C0B24FF0000823072BD5702A96
:10FDF00007D0DDF820C08CF0100C5CEA0B0C05D0AD
:10FE00000EE040238DF82430012308E050EA01037E
:10FE100006D030238DF824308DF825200223984613
:10FE2000DDF820C08CF0080C5CEA0B0C0BD150EA1A
:10FE3000010301D1630706D530238DF824304FF03C
:10FE40000108A9F10109582A04D038A20B9208AA86
:10FE50000A920BE03AA2F9E75B46089AFFF728FB03
:10FE60000B9B9B5C0A9A521E0A92137050EA010285
:10FE7000F2D10A98ADEB000000F1200B600702D52B
:10FE800024F4803401E04FF00109D94502DDA9EBEB
:10FE90000B0000E0002000EB0B0141440890AAEBAE
:10FEA000010AE00306D4DDE90F232146504600F0A5
:10FEB00063F806444FF0000908E009A911F80900A9
:10FEC000DDE90F12904709F10109761CC145F4DB09
:10FED000E0030CD5DDE90F232146504600F04CF835
:10FEE000064404E0DDE90F1230209047761C0899A3
:10FEF000481E08900029F5DC08E00A980A99007865
:10FF0000491C0A91DDE90F129047761CBBF10001F4
:10FF1000ABF1010BF1DC21465046DDE90F2300F087
:10FF200019F806446D1C1BE60928010030313233F4
:10FF30003435363738396162636465660000000025
:10FF4000303132333435363738394142434445460F
:10FF5000000000002DE9F041044600251E4617462A
:10FF6000880404D405E039462020B0476D1C641E87
:10FF7000F9D52846BDE8F0812DE9F0410446002579
:10FF80001E469046C80301D5302700E0202788048C
:10FF900004D505E041463846B0476D1C641EF9D5CE
:10FFA0002846BDE8F0814A68002A06D00A68531C3A
:10FFB0000B6010704868401E486070472DE9FC4790
:10FFC000002517880646158090F82D0014468946AE
:10FFD00030B13A462146484600F086FD050009D179
:10FFE000B0784FF00C0A18B32088C846001DB842FC
:10FFF00002D95046BDE8FC87684679DF0028F9D170
:020000040002F8
:100000002088032108F8001020881921401C80B2A4
:10001000208008F800102088401C80B2208000EB6F
:100020000801BDF8000004F04CF921880844208044
:10003000F0780222C8B1218896F9033001F1030C4F
:100040004846BC45D5D8425421884FF0010C491C84
:1000500089B2218000F801C02188491C89B2218021
:1000600009F801302088401C20807068B8B12188D0
:1000700090F9003001F1030C4846BC45B9D8425410
:1000800021880A22491C89B2218042542188491CB6
:1000900089B2218009F801302088401C20803089F5
:1000A00050B1CDE900474B460622022106F1080077
:1000B00004F05CF905009DD1308A50B1CDE90047CC
:1000C0004B460722032106F1100004F04FF905000A
:1000D00090D1308B50B1CDE900474B461522142109
:1000E00006F1180004F042F9050083D1306A30B1FE
:1000F0003B462246494601F089F90500DBD1706A8A
:1001000030B13B462246494601F036FF0500D2D1C8
:1001100096F82C0038B13B4622464946304603F05B
:1001200071FC0500C7D1307838B13B4622464946BC
:10013000304601F061FF0500BDD128465AE70000B6
:10014000134A0021535C0BB1012203E0491C06292C
:10015000F8D300220F49012806D0022809D003282D
:100160000CD0042812D10DE0487810B10AB101205A
:100170007047887810B10AB102207047C87808B17A
:1001800003207047087908B10420704700207047A9
:1001900071210020C025002010B50122022100207D
:1001A00000F0F8FE08B1072810D107220221012033
:1001B00000F0F0FE08B1072808D100210A22084605
:1001C00000F0E8FE08B1072800D1002010BD0000B3
:1001D00030B5A7B03C2101A8FFF74BF902208DF8FC
:1001E000040000258DF8065005208DF807003C21FD
:1001F00010A8FFF73EF90F4801241590ADF85040C4
:1002000020211FA8FFF735F9402023908DF87F406B
:100210008DF87C40B4202490074B1FAA10A90095AC
:1002200001A800F095FA002801D000F07DF827B071
:1002300030BD00002E210020D52F0200022000F04A
:100240006BBD000070B50024064D06E06868012112
:1002500010F8340001F0E8FF641C28788442F5D3DC
:10026000002070BD8C210020F8B515460C460646CE
:10027000052A01D20720F8BD02F0BCF818B902F037
:100280008BF80028F7D1104900204E600C70C1E9AE
:1002900002500E4D08610DE006EBC4006968009144
:1002A00081788DF801100078094A694602F00EF84D
:1002B0000028E0D1641EE4B2EED2BDE8F840054A61
:1002C0000021024800F064B88C210020984502000B
:1002D000F1190200911502000BA1012002F056FD58
:1002E00002F0AEFC02F0B0FC0028FBD1BFF34F8F50
:1002F0000B4801680B4A01F4E06111430160BFF350
:100300004F8F00BFFDE700004150505F4552524FF4
:10031000523A4552524F523A466174616C0D0A008E
:100320000CED00E00400FA050EB500210091CDE9C6
:1003300001106A4644F20100FFF7CEFF0EBD10B572
:100340008268C368934203D001F0B8F9002010BD61
:10035000052010BD29B112B1531E134203D009204C
:1003600070470E2070470160838000218160C1606A
:100370000846704710B58268C3689A1A83889A4203
:1003800003D801F0A5F9002010BD042010BD000025
:10039000074B5B6823B12AB120B10068037C1BB115
:1003A0000820704707207047417442610020704761
:1003B000B02100202DE9F0470746984614468946AB
:1003C00090074FF0000526D12CB303F075F9134EBA
:1003D00006F11000C6F80C800570457080F8029098
:1003E00044607560357075701420FFF77FF9072140
:1003F0001420FFF7B2F91420FFF78EF908480760C0
:1004000007211120FFF7A9F90548001F0068B06017
:100410000020BDE8F0870720FBE70000A0210020B6
:10042000081501402DE9FC47DFF87890D9F8043031
:1004300073B368B3052902D20720BDE8FC8743697E
:1004400033B3437C012B25D0002704460025884682
:1004500016468DF80050684600F0ACF801A803F08D
:100460006DFFC8B1012101700F4944600968C0E9FE
:100470000218C0E904769DF8040089F801009DF88F
:10048000000000F0BBF81420FFF75CF92846D4E721
:100490000820D2E70F46D8E704259DF8000000F0B9
:1004A000ADF8F3E7B0210020041501400649496882
:1004B00039B130B1416921B100210174022103F049
:1004C00085BC082070470000B021002070B50A4E9E
:1004D00001460A48B578FFF732FF04464DB10020C7
:1004E000B070711C0122C81D01F0CAFF08B1FFF7EE
:1004F0001BFF204670BD0000C02100205C270020AB
:10050000F0B5284E89B01F460D00044672603BD0FE
:10051000A888296882B22448FFF71CFF002834D13C
:10052000A889A96882B220481030FFF713FF00287D
:100530002BD120221D496846FEF782FF6069069094
:10054000207C00B101208DF814008DF81C70607CB7
:1005500000B10E208DF81500E0680290A0680390AD
:1005600020680190606800900E48114A6946083082
:1005700001F052FF002808D1B0702068401C04D060
:100580009DF81D0018B106E0072009B0F0BD054830
:10059000083001F0CDFF03490122491CC81D01F0BC
:1005A0006FFFF2E7C02100205C270020A045020079
:1005B0000540020030B5EFF3108172B60D4A946821
:1005C000012324B10370002900D162B630BD9360CD
:1005D0004FF0E023D3F88051074C25401560C3F855
:1005E0008041D3F8844154605A17C3F88421002213
:1005F0000270E8E77C270020FC06FFBC0B498A68F4
:10060000002A11D000280FD1EFF3108072B60B68CA
:100610004FF0E022C2F800314B68C2F804310022EA
:100620008A60002800D162B6704700007C27002055
:100630002DE9F041064608680C46411C4FF0A047E2
:100640004FF0010506D005FA00F1C7F8081520683B
:1006500002F036F96068411C02D0002102F027F94F
:100660003079204901EB4010A169007F00283068F3
:10067000C0F8241525D0607D227D31681043C1F873
:100680006C05D4E900123068C0F80C15C0F81425C8
:1006900024E0A068411C02D0002102F008F9E068C3
:1006A000411C05D08540C7F80855E06802F008F9FC
:1006B000D4E902123068C0F80825C0F81015BDE86A
:1006C000F081607D217D32680843C2F86C05D4E971
:1006D00000123068C0F81425C0F80C15207D0128E0
:1006E000D7D0ECE71C270020F0B50C4693B01F21B3
:1006F0000726ADF80010ADF80410002750B1C178FE
:1007000049070DD56A4602A9FFF758FC002808D111
:1007100002AD02E00025ADF800706CB1E07810B1D8
:10072000304613B0F0BD01AA0AA92046FFF746FCE7
:100730000028F6D10AAA02E00022ADF80470BDF844
:100740000400C3B2BDF80000C1B2284672DFE8E77A
:100750002DE9F0471F46DDF8208013468946040046
:1007600042D0EBB3404D012000262870EE702022CD
:1007700019463E48FEF764FEC5E904784FF6FF705F
:100780002881AE613948AE83AE773C212030FEF738
:1007900070FE3648217820300170A1788170E178B0
:1007A000C170617841703149D4E90423C1E90C2357
:1007B000D4E90223C1E90A23D4E90623C1E90E23BF
:1007C000616AE1B100F13C0100F1480241628A60D6
:1007D000636A1B880B80616A436A8988998000E09C
:1007E00002E00021436A07E00E20BDE8F087656A59
:1007F000AD686D5C5554491C9D888D42F7D8A16A3F
:10080000D9B11A4A9432A2F10C018A608162A36ABA
:100810009B888B80A16A836A098819800021836A7A
:1008200004E0A56AAD686D5C5554491C9D888D42F5
:10083000F7D894F82C1080F82C10216A49B10A4995
:100840000A310162226A52884A80216A026A098852
:100850001180616801B141604946BDE8F047034835
:100860002030FFF741BF000058210020C0250020A4
:1008700010B50188144C102918D011291CD01B293F
:1008800019D1007A002816D1E0780521401CB0FB70
:10089000F1F201FB120000BF00F036F800280AD088
:1008A0006169002907D0BDE810400847C17B0129D4
:1008B00001D18088208110BD00216171808821894B
:1008C0008842F8D10120E7E75821002010B574DFF5
:1008D0000B4C01200B4960710020E0710620C870AC
:1008E00000210848FFF700FF002807D1E07800F05A
:1008F0000BF810B1616901B18847002010BD0000FC
:1009000058210020E02500202DE9F0413D4C804693
:1009100086B0207848B184F8038004A800F030FF46
:100920000498012628B1667067E0082006B0BDE88B
:10093000F0810025A561344FA583A577787810B1A3
:10094000E078012806D0B87858B1E078012801D0C5
:10095000022806D1216919B126710820884700E0D4
:1009600025714046FFF7ECFBE070216939B103289F
:1009700001D0042803D1387808B1607990B1A5710D
:1009800000950295019503958DF800508DF808505B
:100990001C48E1781830052925D2DFE801F030083D
:1009A000111D2100E571A67107208847E8E7A670B0
:1009B00001908DF80060ADF80C50ADF80A5014E0CD
:1009C0000221A17001908DF80060B889ADF80C008B
:1009D0003889ADF80A0008E0684603F057F802E0ED
:1009E000684603F077F8E07818B1684673DF0028AE
:1009F0009CD1216909B1A0788847002096E7A570AD
:100A0000F7E7000058210020C025002070B50546FA
:100A100001461C220F48FEF713FD0F4C00262670DE
:100A2000286830B1016861604068A060201D7ADFED
:100A300002E00948001D7BDF00280AD14FF6FF7055
:100A400060806670BDE87040044A00210448FFF7EA
:100A50009FBC70BD9426002078210020DD4202005A
:100A60008045020070B51E4C068800231B49E289B0
:100A7000102E15D01B4D112E1CD0122E29D0502E09
:100A800017D130F8061F914213D14189022910D1A4
:100A90000C3000F0F8F888B1BDE8704000F0FCBC04
:100AA00084884C800469CC60406908614B70002ADE
:100AB000F2D070BD4FF6FF7048804B702868FFF78A
:100AC000F5FC0028F5D0A1690029F2D0BDE87040FE
:100AD00008478268CA60C0680861DDE778210020A5
:100AE00094260020804502007CB5054608880C4607
:100AF0000930904201D90C207CBD68466DDF00288A
:100B0000FAD121880820685420881B21401C80B21B
:100B1000208029542088401C80B220802844DDF8A1
:100B200001100160BDF8051081802088801D80B211
:100B300020809DF80010490800D001212954208808
:100B4000401C208000207CBD10B50446FFF78AFFC2
:100B50002146084800F042F8204602F0B3FA204649
:100B6000FFF786FE204600F05FF9BDE8104001F077
:100B700035BA00003825002030B5174B0D4604006B
:100B80000FCB85B08DE80F0023D015B34FF6FF7063
:100B9000A0822868A0610020A0752146684663DF16
:100BA000002814D120788DF812000120ADF8100033
:100BB000A21C04A9A0DF002809D12946204602F082
:100BC000B2FD002803D12946204603F08FF905B075
:100BD00030BD0E20FBE700008445020010B5002860
:100BE00022D0002920D00A88102A18D0112A18D023
:100BF000502A19D104468A1DC888238A1231984286
:100C000002D15389022B10D0A38898420CD1A3693A
:100C1000002B09D052892046BDE81040184789882A
:100C200001E04FF6FF71818210BD084600F02BF8FD
:100C300000B10120A07510BD07B584B068B1828AEB
:100C4000A2F57F43FF3B0AD0827D42B1BDF8182058
:100C5000142A06D9072007B000BD0E20FBE70820A4
:100C6000F9E7002200920192029203928289039195
:100C700006A90291ADF8002001218DF80210808AAA
:100C80006946A6DFE7E7007800F001007047000042
:100C900000B5134889B000234068079050221149DD
:100CA00007A802F0DDFF08B1FFF73EFB6A4601210D
:100CB000002002F0BFFF08B1FFF736FB1720ADF8A8
:100CC0001000684602F046FF08B1FFF72DFB06480A
:100CD00002F036FF002801D0FFF726FB09B000BD67
:100CE0002445020044220020490B02000149085C0F
:100CF00070470000504502000649095C4FF0A040D3
:100D0000D0F81005C84010F0010000D0012080F09C
:100D1000010070475045020007490B5C4FF0A041AD
:100D2000D1F804250120984020EA0203C1F80835D3
:100D30001040C1F80C0570474C4502000249085CA0
:100D4000012101F0E9BD00004C4502000249085CA8
:100D5000002101F0E1BD00004C4502000649095C9C
:100D60004FF0A040D0F80405C84010F0010000D0BA
:100D7000012080F0010070474C4502007CB5002442
:100D8000084E25460122305D00950023114601954D
:100D900001F04EFD641C042CF4D3BDE87C4000F04F
:100DA00003B800004C45020010B500242046FFF7B0
:100DB000C5FF641C042CF9D310BD10B500242046D7
:100DC000FFF7C4FF641C042CF9D310BD10B5024614
:100DD000064B4FF0FF3000215C5C944201D1084685
:100DE00010BD491C0429F7D310BD00005045020076
:100DF00070B50C4E0C004FF0000530600BD0012098
:100E000000F0A4F808B1022004E0002000F09EF8F1
:100E100000B10B202070706810B9FFF7BDF90546CE
:100E2000284670BD5021002010B51A4C018860681A
:100E300010290ED011292BD1401E606028D1FFF758
:100E4000ABF9002824D02168002921D0BDE810404A
:100E50000847D0B900210122084600F09BF808B1EC
:100E600007280FD107220221012000F093F808B1D2
:100E7000072807D104220221002000F08BF820B1BE
:100E8000072802D0216801B188476068401C606073
:100E900010BD00005021002010B5002000F0AEF978
:100EA00008B1062806D1012000F0A8F908B10628EB
:100EB00000D1002010BD00002DE9F0470D4681460D
:100EC000FFF784FF0446042838D2DFF878801C48F6
:100ED0001D4EA8F1100735B3012D0ED0022D2DD1D6
:100EE00004EB440030444578002D27D0F9680029F0
:100EF00024D02846BDE8F047084704EB4401755C60
:100F00000E44717859B179680E4A01EB81014900AC
:100F10000E3A8068FFF786FA08B987F80290B17830
:100F200008F80410E0E78068FFF7C0FA04EB44011A
:100F3000314418F804008D78A842D5D0BDE8F08778
:100F4000544502004C21002094250020FFF7D4BE18
:100F500001460F4810B58088042907D007290ED014
:100F60000A2914D1BDE8104002F0D6BD132176DF66
:100F70000BE000280BD0BDE81040FFF7D5B9A0F575
:100F80007F41FF3903D1FFF7A1FC0828F1D110BD43
:100F90002821002070B50023042810D20D4D00EB4D
:100FA0004004012A02D101290CD00022094E00EB95
:100FB0004000304461B1012906D0022906D0072340
:100FC000184670BD0E30C2B22A55F9E74270F7E7F5
:100FD0008270F5E794250020044A01460020127A29
:100FE000D20702D0084600F04FB870473C210020DD
:100FF0002DE9F04106461F4800240F464160C0E934
:101000000262B0071FD50025012211462846FFF7CE
:10101000C1FF6D1C0446042D02D2002CF4D012E056
:101020008CB97A0804211448FFF71EF904000AD18C
:10103000FFF708F9040006D10F48104A0021001FED
:10104000FFF7A6F90446F00701D0FFF797FE74B941
:1010500009480B4A00210C38FFF79AF9040006D121
:101060000548084A01210838FFF792F9044620464E
:10107000BDE8F0813C210020604502009D12020085
:10108000591C02003D0202002DE9F047594C05466B
:101090000026607818B100206070FFF785FE0120FF
:1010A000554F4FF47A694FF4C87A4FF06408182D01
:1010B0002CD2DFE805F0890C0C2C3A4751565A61C6
:1010C0005A619B6969696969898C8F929B9B002031
:1010D000FFF744FE00284FF0000008D0FFF72EFE77
:1010E000022D02D14FF4E16006E0484604E0FFF72C
:1010F0002DFE022D2ED05046B0FBF8F12570606811
:10110000414300223868FFF78DF9064659E0002078
:10111000FFF724FE28B10020FFF710FE4FF44870BF
:10112000EAE70020FFF712FE14E00020FFF716FEAA
:1011300000284FF0000002D0FFF700FED5E7FFF7D0
:1011400005FED8E70020FFF709FE0028E9D00020BF
:10115000FFF7F4FDC820CFE70020FFF7DDFD257085
:1011600007E000203FE025702BE060700120FFF7D2
:10117000D3FD00226168C5E760700120FFF7CCFD58
:10118000606800EB8001BCE77868FFF78FF90646DE
:10119000D5F1110000D01EB10220FFF7CFFD10E005
:1011A00001280BD9C82110FB01F1B1FBF8F16068EF
:1011B000002241437868FFF735F906460220FFF721
:1011C000C5FD3046BDE8F087FFF7EEFDCBE7FFF742
:1011D000EBFDC6E7FFF7E8FD04E0FFF7E5FD0020C3
:1011E000FFF7B4FD0120FFF7B1FDBCE7FFF7E5FD18
:1011F000B9E700003C2100205445020010B5FFF77C
:1012000075FD032101F066FB002010BD002901DA05
:1012100000207047026811440160012070470000FF
:10122000F8B5461C00208DF800000D4601246846E4
:10123000FFF7C0F9114A10682860D2E900109568DC
:10124000081A2B1A701C5B1C98420FD963B10C480A
:101250000C4B294000681B6802EB810163F39F205F
:10126000C8601068401C1060002401E088191060FC
:101270009DF80000FFF7C2F92046F8BD0C2A0020B7
:10128000F4450200F8210020034803C8814201D13F
:1012900001207047002070470C2A002000780221AE
:1012A000FFF70ABE05494FF0FF32082841F8202019
:1012B00002D3084480F8482070470000C42600206C
:1012C000F0B54FF0FF3512B10023082601E00823E6
:1012D0000C260C4C05E000BF54F823707F1C04D092
:1012E0005B1CB342F8D32846F0BD26185DB286F8E1
:1012F000305044F82310002AF5D1E11881F8480055
:10130000F1E70000C42600200249084490F93000AB
:1013100070470000C426002038B10549814204D836
:101320000449814201D90120704700207047000024
:10133000142200202422002070B5084C050009D09A
:1013400010342168002907D00868206049682846C1
:101350008847F6E70834F4E770BD0000B0260020A7
:101360002DE9F05F26484168F1B3DFF898B00E68C8
:101370008146DBF8004087688078E11B21F07F45DB
:10138000ED1CB0B9DFF880804FF48030C8F844031A
:10139000C8F804031120FEF7A9F91120FEF7BCF9E3
:1013A0004FF0010AC8F800A02F2000F08BFE89F84A
:1013B00002A0B54200D23546124BE8193C3320F06A
:1013C0007F401860DBF800105A46091B21F07F416E
:1013D000001B20F07F40C91C81420FD910681860A3
:1013E0002F2000F06FFE00E004E0BDE8F05F112068
:1013F000FEF7A8B9BDE8F05F02F05EB9BDE8F09F66
:10140000A021002004150140001001402DE9F04109
:1014100017880646B81D14460D46984202D90C207E
:10142000BDE8F0813188072206290AD34FF4486CC1
:101430004FF6FF73614501D9994202D170880628A1
:1014400001D21046ECE7604501D99842F9D19942A2
:1014500003D0984201D08142F3D80520E855208876
:101460001221401C80B2208029542088401C80B268
:1014700020804119308802F024FF2188084480B27E
:1014800020804119708802F01CFF218808442080C8
:101490000020C5E7FEF748BFF8B5134800F0C8FBC9
:1014A000114D0026114C0C3D30B16169B9B10120DC
:1014B0008DF80000684611E0287820B1616971B1AB
:1014C0008DF80060F6E7687858B1A16808480022F6
:1014D0000068FEF7A7FF10B1A16901B188472E701F
:1014E000F8BD6168F2E70000842100209426002006
:1014F000804502002DE9FF410C4618B1012004B0DF
:10150000BDE8F08120790027DFF87C80012638B122
:1015100041F61D5501281ED0022829D00F20EEE7E4
:1015200002970397E0680190694601A802F010F85D
:1015300068B102988188E18000882081029802F0D9
:101540007BF8BDF8002008EB02118E7300E00A2042
:1015500002212171D3E70D4B6A460021A01D01F045
:10156000B3FF38B1094908398F60CF600A28C6D166
:101570002846C4E7019802F05FF804498A8808EB1E
:1015800002118E73F2E70000DC280020DC2100202D
:101590002DE9F04100260125144C22E06068226903
:1015A00000EBC607387805FA00F1114217D08A43DC
:1015B000226100F0E7FE02463878E36805FA00F1A0
:1015C000194002FA00F3994209D17978012901D032
:1015D000012100E0002151407A6802B19047761C59
:1015E000F6B220788642D9D3BDE8F0818C21002064
:1015F0000E4910B50A784C780023A24212D0521C32
:10160000D2B20A70022A00D10B70084A0B78183245
:1016100052F8232002608868104420F07F408860E0
:10162000012010BD0360002010BD0000A02100209B
:1016300010B503780022072B06D2DFE803F005047B
:10164000060C1C252B000A7010BD01220A700289AD
:101650008A81828814E002220A7002898A81828843
:10166000CA81C2688A60007C062802D00020087403
:1016700010BD0120FBE703220A70C2888A8102891B
:10168000CA81C068886010BD04230B70C08888813F
:10169000CA8110BD0520087010BD000070B5064D50
:1016A0000646002455F8241009B130468847641CCA
:1016B000082CF7D370BD0000FC27002082688388C7
:1016C0001A4003689A5C0A708168491C81607047FF
:1016D000C26883881A4003689954C168491CC16074
:1016E0007047000002490A7882430A707047000080
:1016F000D421002002490A7802430A707047000092
:10170000D4210020F8B506461A481F461546007831
:101710000C46C00708D03046FFF7FEFD30B13CB1A3
:10172000200507D00620F8BD0120F8BD0220F8BD35
:101730000320F8BD3068A04204D8716804EB05307E
:10174000884201D90520F8BD7DB1684601F0F4FD5D
:1017500068B100980221C0E900670172210B818104
:10176000058201F09BFE0020F8BD0420F8BD072093
:10177000F8BD0000D0210020084601F031BE000075
:1017800020B10349496E0160002070470320704773
:10179000882700202DE9F84307461D48DDF8208002
:1017A0001E46007815460C46C0070CD03846FFF799
:1017B000B3FD50B15DB154B145EA0400800708D0D3
:1017C0000620BDE8F8830120FBE70220F9E70320AB
:1017D000F7E73868A04204D8786804EB86018842AD
:1017E00001D20520EDE77EB1684601F0A5FD68B1A4
:1017F00000980121C0E900780172C0E90354868293
:1018000001F04CFE0020DCE70420DAE70720D8E7EF
:10181000D021002070B508B1012070BD184C002502
:10182000207B08B1257301E000F0A2F82078082899
:1018300024D2DFE800F02304080C1023141EBDE8B6
:10184000704000F01FB8BDE8704000F07FB8BDE800
:10185000704000F061B8BDE8704000F037B808494A
:101860006088203901EB00104068BDE8704001F04D
:10187000EFBC6560BDE8704001F0F8BC0F2070BDA2
:10188000FC2800201049F0B48A1C00200346A1F176
:1018900020050C18A67A3EB1A37205EB0014A689A8
:1018A00016B9A47B012C0AD0401C80B20228F0D3C8
:1018B0000B704B804B60F0BC41F61D5070471080A0
:1018C000F0BC00F043B80000FC28002010B50F4C1D
:1018D000A4F12001608801EB0010818961B105202D
:1018E00020700B480221002381800168BDE8104070
:1018F00001220848FFF706BF41680023012205487E
:10190000FFF700FF0421217010BD0000FC2800201B
:10191000E42100201422002038B50A490848032495
:101920000B684268898803EB8101538804700020AA
:10193000DB1C00909BB20448FFF72CFF38BD000071
:10194000FC280020E421002014220020074910B5C3
:101950004888091D01F04AFE18B1BDE81040FFF7A4
:10196000DBBFBDE81040FFF7B1BF0000FC2800203E
:10197000F0B51D481D490125067802248B88A0F189
:101980002002082E18D2DFE806F00417171A212CBF
:101990002C160189491C01810021418080F80C101E
:1019A00002EB01131B7843B100234418491C89B290
:1019B000A3720229F4D30570F0BD0123F5E7426854
:1019C0005288D21C1A448A800470F0BD46880D6883
:1019D00002EB061256680E60556013818C8006215A
:1019E00000E007210170F0BDFC280020E421002068
:1019F0002DE9F041124E07460125BD403068FEF743
:101A000055FD00280DD10F4C2069284207D13846DA
:101A100000F0B8FC0028E06805D0284304E0A843A3
:101A20002061BDE8F081A843E0602069284320617F
:101A3000A1683068BDE8F0410022FEF7F3BC000069
:101A4000984502008C2100208188A1F57F42FF3A51
:101A500003D0008808B101207047002070470000C3
:101A60000648622144220170FF2141708270C170DA
:101A700001714171142181717047000032210020F1
:101A80002DE9F0410F4628B10120FFF72BFE012080
:101A9000BDE8F081397961B10026264D01290DD0CC
:101AA000254C4FF002080229206822D003293CD19E
:101AB00028E001F0DBFB0121397134E05FF0000028
:101AC00005EB0011097802290CD0401C80B20228D5
:101AD000F6D30220FFF70EFE0120FFF703FE41F6CA
:101AE0001D50D5E705EB0014606801F0B1FB2670CE
:101AF00019E00146002301221048FFF703FEA4F875
:101B000004800FE001F0A4FB0A49226820314988D3
:101B100005EB01114B6823604A60A2880A81A4F892
:101B200004800E703E710028B2D00120FFF7DAFD6C
:101B30000E20ADE7DC280020E42100201422002044
:101B4000F8B51C4C2078002832D0E068002658B147
:101B50000025607800282BD1684648DF052805D08D
:101B600030B1FEF7E1FB0AE00125F2E7012606E0CD
:101B7000009800F029FB216909B1009888479DB9B8
:101B80006078002814D16088ADF800006946A0682C
:101B900061DF052803D020B1FEF7C6FB04E0012574
:101BA00002E0D4E902018847002ED2D0002DE6D011
:101BB000F8BD0000FC21002070B50E4604460079F7
:101BC00018494FF4A27501EB4010017F2068A1B1C4
:101BD0004FF4887101F05CF94FF49071206801F0C6
:101BE00057F94FF49271206801F052F929462068A4
:101BF00001F04EF90C49206809E04FF48E7101F0B4
:101C000036F92946206801F032F908492068C0F801
:101C10000413206800F004FB3146BDE8704000F07A
:101C2000E3BA00001C27002010030200800002001D
:101C3000054940880A88904204D34988884201D8DF
:101C400001207047002070477C210020800701D0D0
:101C500000207047012070470348017AC90702D06D
:101C60000078FFF711BA70473C2100202DE9F043BE
:101C7000264CA4F110092278D9F8048099F8035071
:101C8000404694F801C0D9F8086031E002EB420305
:101C90006168521C01EBC301A378D2B2934200D118
:101CA00000220B78022B02D0032B21D11DE003462A
:101CB0004F68194603E0B94203D00B46C969B9B170
:101CC000F9E7A9B18B4205D1C06918B9104E0125B9
:101CD000B56000260F68C969D96149B10B683B44FA
:101CE0000B6005E00174C06900E000210028F9D113
:101CF0009445CBD1C9E9010689F80350404502D08B
:101D00000120BDE8F0830020FBE70000B0210020A7
:101D1000001001402DE9F0412A4F0446002607F14A
:101D20001005D7F804803EE002D02046E4691DE0AB
:101D30002878696800EB4002401CC0B201EBC20188
:101D40002870AA78904200D12E700A784868012A3B
:101D50002BD1027C4ABB8A684260CA6882600A69E9
:101D6000C26049698161F97801B146604368BA6827
:101D7000DFF854C0991A21F07F41614502D2826890
:101D8000114406E0D11A826821F07F418A4202D9CB
:101D9000511A016000E0066046600121866001740E
:101DA000C66101F0F5FF002CBED128786978884221
:101DB000BED17968414502D00120BDE8F081002004
:101DC000FBE70000A0210020FFFF7F008AB0002376
:101DD000554A06210320FEF7EDFA08B1FEF7A4FAF2
:101DE000524A01215248FEF7D3FA08B1FEF79CFA95
:101DF0004F4800224FF420310068FEF713FB4C4996
:101E0000182210316846FDF71BFB4A4806904A49E4
:101E10004FF48070CDE9070109900723474A06A9CE
:101E20006846FEF76DFB08B1FEF77EFA444A40F2C1
:101E300033310320FFF7DCF808B1FEF775FA694685
:101E40000020FEF7D5FF08B1FEF76EFA002000F083
:101E5000F7FF08B1FEF768FAFEF71AFF9DF80800D1
:101E600038A120F00F00401C20F0F00010308DF859
:101E700008000B2202A87CDF08B1FEF755FA002407
:101E800000941020ADF800003C200194ADF8020051
:101E9000ADF804404FF4C870ADF8060068467ADF2C
:101EA00008B1FEF741FA2A4800901F486946903071
:101EB000FEF762FE08B1FEF737FAFEF789F91C213A
:101EC0006846FDF7D6FA4FF42040CDE900404FF4C4
:101ED0007030029003208DF80C001E4805901E48BB
:101EE0000690ADF80E408DF810406846FEF78EFD66
:101EF00008B1FEF719FAFFF7B3FD18A1032000F0AF
:101F000045FF0320FEF700FD041E03D0FEF70CFA88
:101F1000204606E000F098FE0028FBD13EDF0028B6
:101F2000F8D0FEF701FAF5E7A8240020D13C020022
:101F300024450200A8220020A8230020A93F020077
:101F4000510F02004E6F726469635F554152540035
:101F50009D2E020021320200951402004150503A99
:101F6000494E464F3A6E5541525420537461727433
:101F70002121210D0A00000070B5144682880E460A
:101F800005462088111D0144921C994201D8FE2A61
:101F900001D90C2070BD521C32542088FF21401CF6
:101FA00080B2208031542088401C80B2208081196A
:101FB000288802F086F92188084480B22080AA8807
:101FC00042B1A96841B13044FDF73AFA2088A988A6
:101FD00008442080002070BD072070BD10B5054C5E
:101FE0002078002805D101F061FC002801D00120F3
:101FF000207010BD28210020F8B50E460178144647
:102000000546012901D1687830B12088821C9A42A6
:102010002DD8012902D006E00720F8BD69780144D7
:10202000891C994223D8181A801E87B2ADF8007017
:102030002188B01C084469467DDF0028EDD128784E
:10204000022805D1BDF80010B94201D809210AE0E3
:102050000821012805D16878B84202D8ADF80000FF
:1020600001E0ADF80070BDF80000FE2801D90C2099
:10207000F8BD2288401CB0542088401C80B22080CB
:1020800031542088401C2080BDF800100844208076
:102090000020F8BDC20800F007030120895C9840C9
:1020A0000840704700F180400068002800D00120FF
:1020B000704708B500F18040002101600068009081
:1020C00008BD000000283ED01F49204A096800BF13
:1020D00000BF00BF00BF00BF00BF00BF00BF9142F4
:1020E0002FD000BF00BF00BF00BF00BF00BF00BFB8
:1020F00000BF00BF00BF00BF00BF00BF00BF00BFE8
:1021000000BF00BF00BF00BF00BF00BF00BF00BFD7
:1021100000BF00BF00BF00BF00BF00BF00BF00BFC7
:1021200000BF00BF00BF00BF00BF00BF00BF00BFB7
:1021300000BF00BF00BF00BF00BF00BF00BF00BFA7
:1021400000BF401EC3D17047102200200024F400BD
:1021500070B50F4C0025207808B1852516E00021C8
:10216000A16061602161E1604FF0E020D0F80001E2
:10217000012610F0010F03D10721002000F034F8F0
:1021800001F0A0FD08B9034806602670284670BD1E
:10219000B02600201805004038B500208DF800005A
:1021A0006846FEF707FA074C207808B9FFF7D0FF1A
:1021B000E068401CE0600120A0709DF80000FEF780
:1021C0001DFA38BDB0260020002801D1FFF7B4B8B1
:1021D000704700F01F02012191404009800000F18A
:1021E000E020C0F8801170474907090E002806DA80
:1021F00000F00F0202F1E02282F8141D03E000F16A
:10220000E02282F8001400F01F02012191404009F1
:10221000800000F1E020C0F88012C0F80011704783
:10222000000B40B2704700002DE9F041884605469A
:1022300001F02EF8234E002828461AD0FFF764F844
:10224000304490F848008009032802D001280ED0BD
:1022500007E04FF0A040D0F81005E84010F0010F63
:1022600005D003212846BDE8F04100F044BB02211F
:10227000F8E701F019F8002822D02846FFF744F8C3
:1022800004464FF4807000EB84000F4F81B207EBDF
:102290008400D0F8102542F00102C0F8102508464D
:1022A00000F05AFBB8F1000F0AD02846FFF72CF8CF
:1022B00056F82000002803D00120A040C7F80403EE
:1022C000BDE8F081C4260020006000402DE9FC41FB
:1022D000DFF8A480044608EB0400002790F93000E2
:1022E0001346C0170E46401C01D0082741E0F27883
:1022F00019462046FEF7E4FF0546401C38D0B0786A
:1023000050B14FF0A04000EB8400D0F8001721F04E
:102310000201C0F8001707E0002173782046009101
:102320000A46019100F096FAF078C0B1134831786E
:1023300000EB8500D0F81025114B1A40C0F810258D
:102340004FF4F8524FF4403302EA042203EA014109
:102350000A43D0F810150A43C0F8102509E008EB2D
:102360000500327810F8481F41EA8211017000E040
:1023700004273846BDE8FC81C426002000600040E8
:10238000FFE0FCFF4FF0A041D1F81015C14011F063
:10239000010000D00120704770B5144D95F854002D
:1023A00008B1082070BD0020411E2A18401CC0B290
:1023B00082F830102028F8D300242046FEF772FF60
:1023C000641CE4B20C2CF8D307210620FFF70CFFA5
:1023D0004FF4BE7000F0C0FA05494FF00040C1F85C
:1023E0000403012085F85400002070BDC42600209D
:1023F00000600040034890F85400002800D00120FD
:1024000070470000C42600200121B1EB507F01D1AC
:1024100001207047002070472DE9F0410546007902
:10242000164F904607EB40140E46E07E10B1082090
:10243000BDE8F081707F20772846FEF7F9F85FEA63
:10244000080060603169216003D0317F2846FFF7C2
:10245000B3FB287907EB4010007F0028286801D0E3
:10246000082100E00421C0F800150020E075207666
:10247000A0750121E176A076DAE700001C27002094
:102480002DE9F04105460079284E904606EB4014B0
:102490000F46207F18B10846FFF7B6FF80B162688B
:1024A00000234FF404704FF4017172B12A7906EBE6
:1024B0004212127F002A2A6805D0C2F8080304E0FD
:1024C0001020BDE8F081C2F80813E27DB2B1227E8F
:1024D0007AB162685AB12A7906EB4212127F1AB1B8
:1024E0002968C1F8040302E02868C0F80413112029
:1024F000E7E72761012384F8188005E084F8178056
:102500000020E760607620762879424606EB40108E
:102510003946007F0028284603D0BDE8F04100F08E
:1025200073B8BDE8F04100F01BB800001C27002084
:1025300070B504460079094D05EB4010017F002974
:102540000AD1807E002807D1204601F066F9217962
:10255000012005EB4111887670BD00001C2700208A
:102560002DE9F05F04460079264901EB4015A87E6D
:10257000184302D1204601F050F96868002820680D
:1025800006D04FF40171C0F804130020BDE8F09F9D
:102590004FF4A276314600F06AFCB1464FF4927ACD
:1025A0004FF4847B5146206800F05CFC0646594697
:1025B000206800F057FC80464946206800F052FC35
:1025C000074648EA07003043ECD056EA070007D137
:1025D0002946206801F08EF8E87D697E8842E1D8BE
:1025E0000020E8750EB10320D0E70FB10F20CDE732
:1025F000A97E01200029216801D00860C5E7486054
:10260000C3E700001C2700202DE9F05F894604463F
:102610004FF488759A46904600260068294600F0D7
:1026200037FC4FF4A2773946206800F031FC20686F
:10263000C0F83495C0F838852068BAF1000F14D07E
:10264000D0F8001241F02001C0F800122179DFF823
:10265000648008EB4110406850B120684FF4047169
:10266000C0F804133046BDE8F09F01210160EDE79A
:10267000AA46B9464FF4927B5146206800F003FC0D
:1026800007464946206800F0FEFB0546594620688B
:1026900000F0F9FB014647EA05000843ECD0237936
:1026A000002208EB4310C27501B10326002DD9D0DA
:1026B0000F26D7E71C2700202DE9F04705460079B3
:1026C0003F4E904606EB40140F46207F18B1084657
:1026D000FFF79AFE30B1284600F074F820B11120BF
:1026E000BDE8F0871020FBE784F81680A76000277C
:1026F000A78228794FF0010806EB40143E46207F60
:102700000028286825D04FF49079494600F0C0FB96
:102710004FF4AC7A5146286800F0BAFB2868A17DD6
:10272000A268C0F84425C0F848152868C0F8088099
:102730006068F0B94946286800F0A5FB804651461C
:10274000286800F0A0FB58EA0001F3D058BBA77539
:102750000FE04FF48E7A514600F089FB2868C0F8EC
:1027600008802146286801F0B1FB61684FF4807051
:1027700089B13046B4E75146286800F073FB10B9C0
:10278000A08A4845F7D1A08A484505D02146286847
:1027900001F09CFB00E08146A08AA17D8842EAD33B
:1027A000A08A484501D10F26D1E75146286800F09C
:1027B00059FB0028F9D02868C0F80C80C7E7000052
:1027C0001C2700200079044901EB4010807D00287F
:1027D00000D00120704700001C27002070B504467F
:1027E00000791149002601EB401520682A7FC0F8C6
:1027F0000065686888B1207901EB4010007F0028EF
:10280000206801D0094901E008498C39C0F8081353
:102810002068FFF705FDFFF7DCFC204600F050FDC7
:10282000EE766E6070BD00001C27002010030200D1
:1028300070B541EA4201DDE904564FF0A04441EA97
:10284000830141EA052104EB800041EA0641C0F81A
:10285000001770BD70B541EA4201DDE904564FF042
:10286000A04441EA830141EA052104EB800041EAEA
:102870000641C0F8001770BD70B541EA4201DDE9BC
:1028800004564FF0A04441EA830141EA052104EBDC
:10289000800041EA0641C0F8001770BD1CB5002158
:1028A00000910B4601220191FFF7E6FF1CBD1CB50C
:1028B00000220B46009211460192FFF7DDFF1CBD7E
:1028C0001CB5002100910B46012201911146FFF732
:1028D000D3FF1CBD4FF0A04202EB8000D0F80027D0
:1028E00022F44032C0F80027D0F8002742EA014124
:1028F000C0F8001770474FF0A04202EB8000D0F8FC
:10290000002722F44032C0F80027D0F8002742EA1E
:102910000141C0F80017704701224FF0A0438240E8
:1029200011B1C3F808257047C3F80C2570470000A3
:1029300018B5084B6C4601441B68009306E000BFC5
:1029400054F82030D3F81035401C08C28142F7D823
:1029500018BD000094450200034908B50844002151
:1029600001600068009008BD0060004002494058C6
:10297000012800D0002070470060004000487047E8
:10298000F529020030B5184C054689B0207828B1E9
:102990006078854202D1002009B030BD2022134961
:1029A0006846FCF74DFD00208DF8140006200090CD
:1029B0000820019005200390072002904FF0EB7053
:1029C00006900948001DFFF709FF0DB1002200E045
:1029D000074A05486946001DFFF71EFD0028DBD1A8
:1029E000012020706570D6E7EC210020D44502005C
:1029F000A54002002DE9F04FC1B00D004FF00001DD
:102A000040914D984B991C46174601EB000B01D0A5
:102A10000A2000E00020804600F0D8FF00287CD18A
:102A20006E46BCB9409840AA3118284601F034FAE5
:102A3000002872D03846FCF727FDC22800D9C220F2
:102A4000054640982A4630443946FCF7F9FC409840
:102A5000284440904FF0200A409901EB080231329F
:102A60000DEB01050DEB0206002002E005F801ABBD
:102A7000401C4045FAD300275C4508D305F801AB5C
:102A800005F801AB05F801AB06F801AB2DE04B985A
:102A9000844202D24A98005D02E0211A4C98405CC0
:102AA0002B46814602460121880022FA00F000F000
:102AB0000F00092801D9373000E03030C1F1010C96
:102AC000491E03F80C00EFD29D1C05F801ABFCF782
:102AD000B3FC016811F8090010F03E0F01D0484620
:102AE00000E02E2006F8010B641C7F1C102FC3D3BE
:102AF0000D2030700A20707085F800A0409968465B
:102B000041444331409100F067FF30B100F05EFF77
:102B100018B9002040905C459ED341B02046BDE8E6
:102B2000F08F2DE9F043C7B000251C46904689463A
:102B30004E9F459500F04AFF00287AD1459805AE92
:102B4000311845AA484601F0A7F9002835D0072FCB
:102B500027D2DFE807F004121B35424F5D004046E4
:102B6000FCF792FC054645982918FF2919D83044EE
:102B70002A464146FCF764FC13E045982368C0F5FB
:102B8000807130444246FCF7A7FF09E0606800907E
:102B900045982368C0F5807130444246FCF79CFF9D
:102BA0000546294645A8FEF731FB459978B3B1F5AE
:102BB000807F3ED805A800F00FFF47B0BDE8F08346
:102BC000D4E90101CDE9000145982368C0F5807181
:102BD00030444246FCF780FFE2E7201D07C88DE83D
:102BE000070045982368C0F5807130444246FCF7E1
:102BF00073FFD5E7201D0FC88DE80F0045982368A7
:102C0000C0F5807130444246FCF766FFC8E710E02B
:102C100004F1080001AD0FC885E80F00606800905E
:102C200045982368C0F5807130444246FCF754FF54
:102C3000B6E70020C1E7000000487047232B0200E0
:102C40000120FFF79FBE00002DE9F04F87B0FEF78F
:102C50001BFB18B1002007B0BDE8F08F454ED6E948
:102C6000014704EA070006EB8000A146641CC56822
:102C70000CE000BFC5F3891000EB9550044404EA52
:102C8000070006EB8000A146C568641CA807F1D0C8
:102C900005F003004FF0000B022805D0AA0A01A896
:102CA000C5F38313002153E004EA070006EB80001C
:102CB00004F1010A0AEA0704C268381B80004FEADF
:102CC0009558001DC5F38913804521D929490C3138
:102CD00038B106EB840400F0FF0CA8EB00000C34C4
:102CE00004E00C46002108F0FF0C0846C0B2CDE914
:102CF0000210CDE9004CD6F81444C5F3C200594681
:102D0000A047404511D108F103080AEB98042AE0D6
:102D1000002106EB84000C300090CDE90181039185
:102D2000C5F3C200D6F81444EAE760F38F1509EA48
:102D3000070006EB8000C56016E000BF04EA070C40
:102D400006EB8C0C491CDCF80CC040F804CB641C6E
:102D50009942F3D3C5F3C2000093D6F8105401ABE7
:102D60005946A84700B17460FEF78EFA80F0010062
:102D700071E700000C2A0020034AFF239360002320
:102D80001360536000F054B80C2A00202DE9F8437A
:102D90000F4F88460446002569462846BE68FEF760
:102DA0003FFA002812D00B480021406861F38200EE
:102DB000009964F3C50001EA060265F3891007EB88
:102DC000820268F39F20491CD0600091BDE8F8831F
:102DD0000C2A0020F44502002DE9F843124D8846E4
:102DE00004460127914669463846AE68FEF718FA50
:102DF000002817D00D480021806861F382000099F7
:102E000064F3C50001EA060267F3891005EB82024C
:102E100068F39F20491CD0600091314005EB81018F
:102E2000C1F80C90BDE8F8830C2A0020F44502009C
:102E3000024A02F5826203C2704700000C2A002099
:102E400070B506460020FFF79DFD040008D1FFF78E
:102E500095FD0546FFF7F0FE32462946FFF78CFF49
:102E6000204670BD4058002800D00120704708B5AA
:102E7000002242504058009008BDD0F8040308409A
:102E800000D0012070474058002800D00120704732
:102E900008B5002242504058009008BD10B51648B1
:102EA0000C4649784170A1788170E178C170227830
:102EB00012A10320FFF790FF62781AA10320FFF709
:102EC0008BFFA27821A10320FFF786FFE2781FA1E4
:102ED0000320FFF781FF227923A10320FFF77CFF66
:102EE00062792AA10320FFF777FFA279BDE810409D
:102EF00030A10320FFF770BF322100204150503A2B
:102F0000494E464F3A0A09547970652072656369E3
:102F1000657665643A0909093078253032780A0DFA
:102F2000000000004150503A494E464F3A09416472
:102F300064726573732072656369657665643A09C6
:102F4000093078253032780A0D0000004150503A9F
:102F5000494E464F3A096574633A090909093078C0
:102F6000253032780A0D00004150503A494E464F04
:102F70003A0974656D702072656369657665643AB7
:102F80000909093078253032780A0D004150503A4D
:102F9000494E464F3A0974656D705F6465632072EF
:102FA000656369657665643A090930782530327859
:102FB0000A0D00004150503A494E464F3A0970728E
:102FC000696F726974793A09090930782530327865
:102FD0000A0A0D0010B509282FD2DFE800F0140509
:102FE0002E0B2E181E2E280014A10320FFF7CEFE54
:102FF000052000E00220FDF7EFFF00281DD0BDE80E
:103000001040FDF791B9BDE8104000F085BD13A157
:103010000320FFF7BBFE11A104E01AA10320FFF774
:10302000B5FE18A10320FFF7B1FE0320E3E7BDE8DA
:1030300010401EA10320FFF7A9BE10BD4150503A19
:10304000494E464F3A424C455F4144565F455654BF
:103050005F44495245435445440D0A004150503A9B
:10306000494E464F3A424C455F4144565F4556549F
:103070005F464153545F57484954454C4953540D9A
:103080000A0000004150503A494E464F3A424C45E2
:103090005F4144565F4556545F534C4F575F574806
:1030A0004954454C4953540D0A0000004150503AD0
:1030B000494E464F3A414444525F7265717565739B
:1030C000740A0D00F0B5484D0446011D0088012624
:1030D000AF8889B03B2855D02BDC112835D00BDCCC
:1030E000022853D0102839D10720FDF775FF08B109
:1030F000FDF71AF9A08830E0132831D01D282DD112
:10310000687800282AD0394811F8043F027852081C
:10311000B2EB530F22D10622401C491CFCF7BBF92D
:1031200000281BD109B032A1BDE8F0400320FFF711
:103130002DBE51282ED0522818D0552850D05628B0
:103140000CD1A088132176DF15E00020FDF744FFA5
:1031500008B1FDF7E9F84FF6FF70A88009B0F0BD9F
:1031600000231A46852138467FDF04E000231A46F3
:1031700019463846A9DF0028F0D009B0BDE8F04074
:10318000FDF7D2B8A088132176DFF4E7A0880021EC
:1031900067DFF0E71022A11D04A8FCF751F99DF8A4
:1031A00010100029DAD09DF81800042803D0062852
:1031B00001D00528D2D102290ED08DF8006000BFC1
:1031C0004FF4C170ADF80400A0886946A8DF00285C
:1031D000C4D0FDF7A9F8C1E702208DF80000EFE7A1
:1031E000A0881721ADDFC6E7282100202C4502006A
:1031F0004150503A494E464F3A4164647265737388
:10320000206D617463682073656E6420636F6E6EF9
:103210006563745F726571756573742E0D0A0000C5
:103220000078002807D104483B21808876DF0028F9
:1032300001D0FDF779B87047282100200389CA1C06
:103240001A4402814289511AC91E41817047000007
:1032500008B50021009101460223024A0248FEF708
:1032600099FA08BDCC4502001422002008B50020C0
:10327000009004480223044A01680448FEF78AFAD1
:1032800008BD0000E4210020C445020014220020F3
:103290000449084490F93000082801DB01207047F8
:1032A00000207047C42600200449084490F93000EB
:1032B000082801D20120704700207047C426002052
:1032C00070B5034600791B4901EB40101968027F75
:1032D0004FF0FF30002AD1F80C25D1F81465D1F851
:1032E0000855D1F8104504D0C1F80C05C1F81405F3
:1032F00003E0C1F81405C1F80C051968C1F8080508
:10330000C1F81005501C02D01046FFF7C7FA701C18
:1033100002D03046FFF7C2FA601C02D02046FFF709
:10332000BDFA681C04D02846BDE87040FFF7B6BA65
:1033300070BD00001C27002070B50C490446486E83
:10334000042811D00A6E0244042A00D3121F401C24
:10335000486602EB420001EBC00005461821FCF76D
:1033600088F80120256070BD002070BD88270020EE
:10337000194830B4016E01EB410100EBC104406E0D
:10338000002827D0207A012802D0022816D10FE089
:10339000A18AE08A4FF48062091A914200DA8AB267
:1033A000E168236901EB800103EB800029DF01E084
:1033B000A08928DF112806D000280BD0204630BC79
:1033C000092100F0DDBA0549087820F0020040F03C
:1033D0000400087030BC704788270020D0210020EE
:1033E000F0B52D4C002785B0216F41F61D56C1EB7D
:1033F000C10104EB81052978072919D2DFE801F022
:10340000180408080C0C10002946FEF739FB09E0E7
:10341000294601F013F805E02946FEF76BF801E0B4
:10342000FEF7F8F9002831D0B04202D1019710E040
:103430000F2001902878022801D0032809D11648CE
:10344000AA7D7830016C11440164AA7D416C891A0F
:10345000416469462846FEF7EBF86846FEF71EF918
:10346000206F1C21C0EBC00004EB8000FCF701F8CA
:10347000606F68B194F87010491C01F00301401EA0
:10348000C4E91C1004D00020FFF7AAFF05B0F0BD6E
:103490000420FEF727F9F9E71C28002005490878E1
:1034A00010F0060F04D140F002000870FFF760BF73
:1034B00070470000D02100204FF08050D0F80C0160
:1034C000800200F1005070472DE9F04707461E4882
:1034D0001C46154600780E46800702D40220BDE83F
:1034E000F08765B15CB1DFF864804FF00009A08817
:1034F000022827D208EB00100078F8B916E0052062
:10350000EDE720681FB181883A8891420ED11EB143
:1035100001883288914209D18068286020686860FB
:103520000A482030008928810020D8E7A088214659
:1035300000F05CF80028E4D1C4F80090A088401C9A
:10354000A080D4E70A20CAE7D4210020DC2800208C
:10355000F8B505464068234F0C46002638B322498B
:103560000A68824223D84968814220D3FEF76EFB65
:10357000E8B128893989884219D1D5E900018A68DA
:10358000904214D10020A7F1200300BF03EB0012EA
:1035900052688A4205D202F580528A4201D92080BF
:1035A00011E0401C80B20228F0D30020F8BD268034
:1035B00000960AE0009829688068884205D1009842
:1035C0006860388928810120F8BD2088694600F0AC
:1035D0000DF80028EED12088401C80B220800228FF
:1035E000E6D3E2E7FC2800201422002070B50E4646
:1035F0000A68104901EB00151AB1508802EB8004EB
:103600000CE06C6808340AE02046FEF71DFA10B1A1
:103610000120346070BD608804EB80040C3468685D
:1036200000F58050A04202D92068401CECD1002057
:1036300070BD0000DC28002008B500210091014683
:103640000123044A0448FEF7A5F8002800D00E2004
:1036500008BD0000C04502001422002038B5044611
:1036600013480025426C42B1036C00EBC3055B1CA0
:1036700003F00703521EC0E9103200200090A08A18
:10368000AB8801EB80010B482A68FEF783F8A18A1A
:10369000AA881144A182A17D491E11F0FF01A175E4
:1036A00001D101212174002800D00E2038BD000076
:1036B000942800201422002070B5012670044FF0D9
:1036C000E0210025C1F88001084C4010C4F84803EF
:1036D000C4F8080366602F20FEF7F4FCA660044CD3
:1036E0002F20A560FEF7EEFCA57070BD0010014014
:1036F000A021002070B50546C87D0C4600284FF477
:10370000847128460AD0FFF7B2FBD5F81805627E0F
:10371000E1688854607E401C607670BDFFF7A7FBAF
:10372000D5F8180570BD30B58FB000240546079454
:103730009DF81C001C2120F00F00401C20F0F00020
:1037400010308DF81C009DF81D0020F00F00401C6B
:1037500020F0F00010308DF81D009DF81E0020F0C4
:103760000600801C8DF81E006846FBF782FE9DF85F
:103770000000019440F010008DF8000007A8CDE98A
:1037800004400394069428788DF83A000320ADF89D
:1037900038000D949DF83400142120F00F00401CD7
:1037A00020F0F00010308DF834009DF8350020F046
:1037B0000F00401C20F0F00010308DF835009DF80F
:1037C000360020F00600801C20F0180040F00100B8
:1037D0008DF8360008A8FBF74CFE0EA808900DA83F
:1037E00009900120ADF828001420ADF82A40ADF86A
:1037F0002C00688805F10C0308AA6946A2DF0FB007
:1038000030BD1FB501238DF800308DF808100192EE
:10381000D0E90012684690471FBD10B50446006805
:103820004FF49271FFF723FB4FF484712068FFF788
:103830001EFB20680121016010BD000010B5044688
:10384000FCF76EF940B1002C09DA04F00F0000F12A
:10385000E02090F8140D06E042F2010010BD04F1E2
:10386000E02090F800044109082914D299B10129F7
:1038700011D004290FD005290DD00B4801228168F1
:1038800061B1610950F8213004F01F04A2401343D4
:1038900040F8213005E042F2020010BD2046FBF75F
:1038A00046FF002010BD00007C2700201CB516A19B
:1038B0000320FFF76BFA1C48072201788DF80010EF
:1038C00041788DF8011081788DF80210C1788DF85B
:1038D000031001798DF8041041798DF80510807975
:1038E0008DF8060069461148FDF7A6F9020005D0DB
:1038F0000FA10320FFF770FA00201CBD18A10320C0
:10390000FFF744FA01201CBD4150503A494E464F42
:103910003A736B616C2074696C20E52073656E648A
:10392000653A200D0A0000003221002038250020D1
:103930004150503A494E464F3A0973656E64696E7C
:1039400067206E6F7420636F6D706C6574652C20DA
:103950006572726F723A202569200A0D000000001E
:103960004150503A494E464F3A0973656E64696E4C
:103970006720636F6D706C657465200A0D00000030
:103980001FB500220092019202920392037A012B4A
:1039900002D0022B13D107E08DF8002002690292B9
:1039A000828AADF80C200AE001228DF8002082897D
:1039B000C389D21AADF808208289ADF80A2042687E
:1039C000019200688268684690471FBD0148FEF773
:1039D000F9BE0000F021002070B50D460A460146F0
:1039E00001240648FBF72CFDEAB204490448FEF71F
:1039F00063FE00B10024204670BD00000C290020A9
:103A0000F02100202DE9F0410746806A14468846DF
:103A1000C8B3002531E000BFB96A05EB450001EBF2
:103A20008006B088801CFE2802D90C20BDE8F081F9
:103A30002288401C08F8020020881622401C80B210
:103A4000208008F800202088401C80B2208000EBF5
:103A50000801308800F035FC2188084480B22080BD
:103A6000B28842B1B16871B14044FBF7E9FC2088EB
:103A7000B188084420806D1CEDB297F82C00A84254
:103A8000CAD80020D2E7FFE70720CFE710B50F49DB
:103A90000F4C0A8A42818A8A8281097891B16179C0
:103AA00081B9E17971B10221017208490420203104
:103AB000C870064800212030FCF716FE002804D10B
:103AC000052000E00320A070002010BDC0250020CC
:103AD0005821002010B50E490E4C0A8B42818A8B6A
:103AE00082810A78042182B1627972B9E27962B185
:103AF0000222027206482030C1700021FCF7F4FD5A
:103B0000002804D10620A07000E0A170002010BDA4
:103B1000C02500205821002010B50020FDF75CFAD8
:103B200008B1FCF701FCFDF7B7F908B1FCF7FCFBA5
:103B300032DF002803D0BDE81040FCF7F5BB10BD14
:103B400018B10349C860002070470E20704700007C
:103B5000FC2100201CB5044611480190024600904B
:103B600010A10420FFF738F96946204660DF0446BB
:103B7000DDE9002082420AD016490220FFF72CF925
:103B8000FFF79AFC0099421A13A1022003E024B126
:103B900022461EA10120FFF71FF920461CBD000090
:103BA000282100205344483A44454255473A73641B
:103BB0005F626C655F656E61626C653A2052414D73
:103BC00020737461727420617420307825780D0A36
:103BD00000000000AC4602005344483A5741524EA0
:103BE000494E473A52414D2073697A652073686F98
:103BF000756C642062652061646A75737465642005
:103C0000746F2030782578200D0A00005344483A1C
:103C10004552524F523A73645F626C655F656E61E4
:103C2000626C653A206572726F7220307825780D6B
:103C30000A00000070B50E46054614461C211046C9
:103C4000FBF717FC012020800021A161217526725D
:103C5000657205B1A072002070BDFCF73DBB00008D
:103C60002DE9F041074619B188074FF0000402D052
:103C70000720BDE8F081114D4FF0E0200126A9603A
:103C80006A806B60D0F8000110F0010F03D0344659
:103C90000020FBF736FD0A49384610DF070005D043
:103CA00014B10020FBF743FD3846E2E72E70FEF723
:103CB00073FABDE8F0411620FFF7C0BDFC210020DB
:103CC0005B3C02000148007870470000FC210020A6
:103CD00010B500F0FBFA054900200870FFF7E6FD7B
:103CE000BDE8104002A10320FFF750B828210020B2
:103CF0004150503A494E464F3A093130207365637E
:103D00000A0D00002DE9F84F204C00256846D4E943
:103D100001B6FDF76DFC8046FDF7A8FF0746A946F2
:103D2000B8F1000F25D00023009ACC46606819E056
:103D300007680146974202D9BA1A026014E0C1F836
:103D400000C0D1F80C80D21BC8693B448A46B8F148
:103D5000000F07D0F71827F07F47C1E90178CAF8AC
:103D60001C500D460028E3D160602846FDF7D2FFC5
:103D700004E02846FDF7CEFF00B917B15846FDF71D
:103D8000EFFA84F80390BDE8F88F0000A02100202E
:103D90000D4B10B5596831B102680C68A24204D8C5
:103DA000A21A0A60C161586010BD0B4603E00B46C1
:103DB000C969121B21B10C689442F8D3A41A0C6093
:103DC0000260C161D86110BDA02100207CB506460B
:103DD00000240D468DF800406846FCF7EBFB01A877
:103DE00000F0ACFA70B10570094946609DF8040016
:103DF00048709DF80000FCF701FC1420FBF7A2FCC2
:103E000020467CBD04249DF80000FCF7F7FBF7E793
:103E1000B02100202DE9F0411D4D6C68002C35D0FB
:103E20001C4800270068A968B846401A20F07F4661
:103E30002068B04215D82246361A0744E469107C3F
:103E400068B182F81080EB6833B1D2E90501984778
:103E500028B1FCF769FA02E0D2E905108847002C86
:103E6000E6D129786878814206D1401CC0B26870DA
:103E7000022801D185F8018005486978183040F89A
:103E80002170BDE8F0411420FBF75CBCBDE8F08177
:103E9000A02100200415014010B5144602004FF087
:103EA00001000CD00846136806A24FF48071FBF79E
:103EB00013FE01462046BDE81040FDF7A7B90021DA
:103EC000216010BD5B253038645D000070B50C4684
:103ED00005464FF48E71FEF7CAFFA18AA068415CC7
:103EE000A08A401CA082C5F81C1570BD30B58FB0EB
:103EF00005461C216846FBF7BCFA00249DF800002B
:103F0000019440F00C008DF8000003940494059493
:103F1000069428788DF836000220ADF834000C9411
:103F20009DF83000142120F00F00401C20F0F0001C
:103F300010308DF830009DF8310020F00F00401C4B
:103F400020F0F00010308DF831009DF8320020F0A4
:103F50000600801C20F0180040F001008DF83200AF
:103F600007A8FBF786FA0DA807900CA80890012077
:103F7000ADF824001420ADF82640ADF8280068887C
:103F80002B1D07AA6946A2DF0FB030BD1FB5002266
:103F90008DF800208DF80810816801918275D0E9B4
:103FA0000012684690471FBD70B5017841B10129E4
:103FB00001D0022921D14068BDE87040FCF7B4B9B6
:103FC0000F4C0E4DA0782844FCF780FAA078401CD6
:103FD000C2B2A818A27010F8010C0A2801D0142A45
:103FE0000BD3064901F52970FCF726FE082802D0FC
:103FF00008B1FCF799F90020A07070BD9422002050
:10400000282100207CB50178244D81B301290BD0F3
:1040100002292BD18DF80010C068691C0190012283
:10402000C81DFEF72DFA2EE0406801781C48FCF709
:10403000A1F91B4C012618B18DF80060019006E033
:10404000A068E168814205D000208DF80000696811
:1040500068468847A068E168081AA188884207D89E
:104060000E490122491CC81DFEF70AFA7CBD01E079
:10407000AE70FBE70A4809491030FCF760F930B12F
:1040800003208DF80000696868468847EEE7034919
:10409000012201F10800FEF70FFBE7E7C021002035
:1040A0005C2700200078012801D101498870704701
:1040B000EC2100202DE9FF470C4605464FF4007126
:1040C000FEF7DBFE01274FF40178002618B34FF40A
:1040D000927949462846FEF7C5FEE0B14946284692
:1040E000FEF7C5FEC5F80883A07E00B96F60022008
:1040F0008DF80000D5F88004C5F880040390E07DB9
:104100008DF80800E0680190E6752676D4E9001283
:104110006846904727E004212846FEF7AEFE10B31C
:104120004FF484712846FEF79DFEE0B121462846F3
:10413000FFF7E0FAE07D617E884214D1207E38B13D
:10414000617EE268E0752069E0602676667607E0C9
:10415000A07E00B96F60C5F80883E675617EE268ED
:104160002046FFF74EFB4FF48E7841462846FEF777
:1041700079FE88B1A08AA17D884204D221462846D2
:10418000FFF7A4FE08E041462846FEF770FEA17D39
:1041900011B12046FFF7FAFE4FF4A27841462846B7
:1041A000FEF760FE002812D041462846FEF75FFE6B
:1041B000A07E00B12F60E07D002808D0E675617E0A
:1041C000E26804B02046BDE8F047FFF71ABBBDE83F
:1041D000FF872DE9FF410C464FF49277054639469B
:1041E000FEF751FE0026C0B139462846FEF750FEC4
:1041F00002208DF80000D5F88004C5F880040390F3
:10420000D5F83C058DF80800E0680190E675267643
:10421000D4E900126846904724E04FF48877394685
:104220002846FEF730FEE8B139462846FEF730FE54
:10423000D5F83C05C1B2E07D884213D1207E60B143
:10424000E268D5F8000220F02000C5F80002207EC8
:10425000E0752069E060267601E0E675E2682046B8
:10426000FFF7CFFA4FF4A27739462846FEF70BFE48
:1042700068B139462846FEF70BFEE07D38B1E67599
:10428000D5F83C05E268C1B22046FFF7BAFA4FF410
:10429000907631462846FEF7F6FD00280FD03146CD
:1042A0002846FEF7F5FDA07D002808D0D5F84C057E
:1042B00004B0C1B22046BDE8F041FFF767BEBDE8DB
:1042C000FF810870000A48700220704702482021D0
:1042D00001710021417170473221002038B5154924
:1042E0004888A0F57F42FF3A23D04A78124C521CEE
:1042F000D2B24A70237B93420AD3091D75DF00288E
:1043000017D0A169002914D001B0BDE8304008479A
:1043100000254D70217C29B13B2176DF10B1A169C8
:1043200001B188476169002903D08DF800506846C3
:10433000884738BD78210020942600200A4A10B50D
:1043400053789478591CC9B28C4200D1002114785A
:104350008C4201D1002010BD0170506803EB430175
:1043600000EBC10010BD0000B02100202DE9FC4190
:104370001646DDE90854CDE900541F468046022266
:1043800000F00CF8002807D1CDE900543B4610227C
:104390003146404600F002F8BDE8FC812DE9FC5FA3
:1043A0000026DDE90C4B994692468E4680462788CA
:1043B000354630E0D8F80400002200EB850069465D
:1043C0000068019001A865DF002830D19DF8000049
:1043D00050451FD10EB1002100E00221228808447F
:1043E0001118594522D846B9521C90B2208009F8BC
:1043F00000E02088401C20800126218801A801EBD4
:104400000902694665DF002811D120889DF8001057
:10441000084420806D1CB8F80000A842CADC56B1E0
:104420002088C01B401E80B2FF2802D90C20BDE8A6
:10443000FC9F09F807000020F9E700002DE9F84388
:104440000D46498A354A02EB011730B1E9883846F2
:10445000FEF7F4FE0120BDE8F8833989786800246E
:1044600000EB81062D48297CEC384FF00E08072917
:1044700051D2DFE801F00D2E192804404D004460B0
:10448000A969016025486946EC38FFF761F848B131
:10449000314601232A1D22480094FDF77BF90221B1
:1044A000297423E00A20D6E7012305F10C0206F166
:1044B00008011B480094FDF76DF9A97D09B103229D
:1044C00013E0012211E031462846FFF7C7F8044601
:1044D00017E0012305F10802311D11480094FDF792
:1044E00059F92978032904D006222A7470B1444668
:1044F00008E00522F9E74068FFF79EF80446062029
:1045000028741CB1E9883846FEF798FE2046A2E7D9
:1045100041F61D54F6E70F24F4E70000DC280020E4
:104520001422002024220020010000070240B83796
:10453000649C4A000800000006000000050000001E
:10454000070000000000000000E0D7011112131462
:104550000D0E0F105425002074250020A0250020EA
:104560000D000300B90E02000E000300B90E020098
:104570000F000300B90E020010000300B90E020084
:10458000742600209ECADC240EE5A9E093F3A3B5AF
:104590000000406E000000503C2700200300000097
:1045A000FFFFFFFFFFFFFFFFFFFFFFFFFFFFFFFF1B
:1045B00000000000000000000000D601070100001C
:1045C0000000FFFFDEC0ADDEFF011EF1DEC0ADDE8C
:1045D000FE011EF1FFFFFFFFFFFFFFFFFFFFFFFFD9
:1045E000FFFFFFFF00000000000000000000D601F8
:1045F0000701000029000000010000000100000088
:1046000001000000010000000100000001000000A6
:1046100001000000020000000040404040404040D7
:104620004040414141414140404040404040404085
:104630004040404040404040400502020202020229
:104640000202020202020202022020202020202078
:10465000202020020202020202029090909090908C
:10466000101010101010101010101010101010104A
:1046700010101010020202020202888888888888BE
:1046800008080808080808080808080808080808AA
:104690000808080802020202400000001946020051
:1046A0004F766572666C6F770D0A00005344483A86
:1046B0005741524E494E473A73645F626C655F657D
:1046C0006E61626C653A2052414D20737461727460
:1046D0002073686F756C642062652061646A75730D
:1046E00074656420746F20307825780D0A0000000E
:1046F0001047020028210020FC00000000FB010000
:104700000C48020024220020042C000010FB0100B1
:1047100000010000FFFF0100020000000000000097
:104720000000000000000000000000000000000089
:104730000000000000000000000000000000000079
:104740000000000000000000000000000000000069
:104750000000000000000000000000000000000059
:104760000000000000000000000000000000000049
:104770000000000000000000000000000000000039
:104780000000000000000000000000000000000029
:104790000000000000000000000000000000000019
:1047A0000000000000000000000000000000000009
:1047B0000020004000000000000000000000000099
:1047C00000000000000000000000000000000000E9
:1047D0000000000000000000002000400000000079
:1047E000A0460200000000000000000000000000E1
:1047F00000000000000000000090D0030000000056
:0C480000000000007917020003FF000018
:040000050001F40101
:00000001FF
