:020000040001F9
:10F00000B84D002015F401001DF401001FF40100AB
:10F0100021F4010023F4010025F4010000000000A8
:10F0200000000000000000000000000027F40100C4
:10F0300029F40100000000002BF401002DF4010070
:10F0400049F701002FF4010089FA01002FF40100B3
:10F050002FF401002FF4010045F501002FF4010009
:10F060002FF401002FF401002FF401002FF4010010
:10F070002FF401002FF401002FF401002FF4010000
:10F080002FF40100A1F701002FF401002FF401007B
:10F09000C5F701002FF40100C9F701002FF40100AA
:10F0A0002FF401002FF401002FF401002FF40100D0
:10F0B0002FF401002FF40100000000000000000008
:10F0C0002FF401002FF401002FF401002FF40100B0
:10F0D0002FF401002FF401002FF4010000000000C4
:10F0E0000000000000000000000000000000000020
:10F0F0000000000000000000000000000000000010
:10F1000000000000000000000000000000000000FF
:10F1100000000000000000000000000000000000EF
:10F40000DFF80CD000F060F800480047752D0200CE
:10F41000B84D00200648804706480047FEE7FEE753
:10F42000FEE7FEE7FEE7FEE7FEE7FEE7FEE7FEE7B4
:10F43000EDF7010001F4010040EA01039B0703D04E
:10F4400009E008C9121F08C0042AFAD203E011F823
:10F45000013B00F8013B521EF9D27047D2B201E0E5
:10F4600000F8012B491EFBD270470022F6E710B5C9
:10F4700013460A4604461946FFF7F0FF204610BD22
:10F4800030B504460020034600E05B1C934203D2E3
:10F49000E05CCD5C401BF8D030BD30B50B4601467A
:10F4A00000202022012409E021FA02F59D4205D323
:10F4B00003FA02F5491B04FA02F52844151EA2F1CD
:10F4C0000102F1DC30BD0000064C074D06E0E068AB
:10F4D00040F0010394E8070098471034AC42F6D39B
:10F4E000FFF792FFA8680200C868020070B58C1888
:10F4F00010F8015B15F0070301D110F8013B2A1148
:10F5000006D110F8012B03E010F8016B01F8016B34
:10F510005B1EF9D12B0705D40023521E0DD401F830
:10F52000013BFAE710F8013BCB1A921C03E013F8F9
:10F53000015B01F8015B521EF9D5A142D8D300202E
:10F5400070BD00002DE9F04700268CB0DFF8609117
:10F55000B0464FF48075012437460696284604F0DD
:10F56000F1F938B1D9F80403204203D0284604F059
:10F57000DFF926432D1D64007F1CADB2082FEDD3AB
:10F580004FF4BE74204604F0DDF948B1204604F083
:10F59000CFF946F0004606AA0121002004F0B4F994
:10F5A000444D16F0FF0F15D00127002437420DD02F
:10F5B00009EB8401D1F81005D1F81015C0F304202F
:10F5C00055F82420C1F3014102B190477F00641C2B
:10F5D000082CEBD3002E67DA4FF0FF30CDE908801E
:10F5E00000263446281910F8507F90F9000027F0C3
:10F5F000C008401C44D009A9404603F077FD58B329
:10F600004FEA9719404601F097FD55F820701FB159
:10F61000B9F1030F03D00FE0B9F1030F30D108A8FF
:10F620004FEAD80208F00703815C4FF0010C0CFA96
:10F6300003FC41EA0C0181544FF0A04101EB88002A
:10F64000D0F8000706A9C0F3014A404603F04EFD7A
:10F6500018B1BAF1020F03D012E0BAF1030F0FD1C3
:10F66000B9F1030F08D1BAF1020F1BD002214046B5
:10F6700004F02EF9761CF6B217B149464046B84759
:10F68000641C042CAED3002E0ED06A46012100204B
:10F6900004F03AF906990098884205D00690089837
:10F6A00009909DE70321E2E70CB0BDE8F087000078
:10F6B00000600040702B002000F01F0201219140EB
:10F6C0004009800000F1E020C0F88012704700F08F
:10F6D0001F02012191404009800000F1E020C0F8A4
:10F6E0008011704700F01F02012191404009800005
:10F6F00000F1E020C0F80011704700F01F02012166
:10F7000091404009800000F1E020C0F800117047EE
:10F7100000F01F02012191404009800000F1E0202B
:10F72000C0F8001270474907090E002806DA00F0F9
:10F730000F0000F1E02080F8141D704700F1E02078
:10F7400080F80014704700002DE9F0414FF48077F5
:10F75000384603F0D3FC0124104EA50748B13846C3
:10F7600003F0D3FC0120C5F808037470002001F0F9
:10F7700023FD4FF48277384603F0C0FC00280BD0FD
:10F78000384603F0C2FC0220C5F80803B470BDE897
:10F79000F041012001F010BDBDE8F0815C2B00209C
:10F7A00007480021C0F84011C0F84411C0F84811C2
:10F7B000C0F84C11C0F80011C0F8041106F048BBA5
:10F7C0000010014006F0BCBA074810B5406830B1DF
:10F7D0008047002807D0BDE8104000F019BCBDE804
:10F7E000104002F063BF10BD48220020F0B59848D9
:10F7F0000023021D01780125101D4FF080560629B7
:10F8000007D11478240704D10478C4F30314032C1B
:10F8100002D0062904D00FE08F4F8E4C7C670EE09B
:10F820001478240708D10478C4F30314032C06D0F9
:10F83000042C04D0052C02D0062907D00EE0D6F8FF
:10F840004442864FC4F342343C6002E014782407FB
:10F8500004D10478C4F30314032C02D0062906D083
:10F8600011E07F4C276827F0807727600EE014783E
:10F87000240708D10478C4F30314032C06D0042C05
:10F8800004D0052C02D006290AD011E04FF08044A4
:10F89000C4F80C31C4F81031704C241F236002E00E
:10F8A0001478240704D10478C4F30314032C02D081
:10F8B000062905D00CE0694F032464373C600AE058
:10F8C0001478240704D10478C4F30314032C02D061
:10F8D00006290DD014E0634F05243C60614C783458
:10F8E0002560604C083423603F243F1D3C6002E0EB
:10F8F0001478240704D10478C4F30314052C02D02F
:10F90000062957D068E058490968584A1160564995
:10F91000091D0968121D1160534908310968121D3B
:10F92000116051490C310968121D11604E491031A6
:10F930000968121D11604C4914310968121D1160CB
:10F94000494918310968494A2032116046491C3139
:10F950000968121D1160444920310968121D1160A7
:10F96000414924310968121D11603F492831096855
:10F97000121D11603C492C310968121D11603A4971
:10F9800030310968394A40321160374934310968E9
:10F99000121D1160344938310968121D1160324955
:10F9A0003C310968121D11602F4940310968121D50
:10F9B000116002E0117809070ED10078C0F303103E
:10F9C000032803D0042801D0052805D1D6F8580211
:10F9D000274900F04F00086021487438016841F45D
:10F9E00070010160BFF34F8FBFF36F8F4FF0102195
:10F9F000D1F80002002803DBD1F80402002822DA43
:10FA00001C4A15601C480468002CFCD01524C1F861
:10FA100000420568002DFCD0C1F8044201680029AD
:10FA2000FCD0136001680029FCD0BFF34F8F0C4855
:10FA3000F0380168114A01F4E06111430160BFF33D
:10FA40004F8F00BFFDE70F490D480860F0BD000073
:10FA5000E00F00F00DF0ADBA00C007403C050040DB
:10FA6000FCED00E0105600400404001020C50040EA
:10FA7000E40E004004E5014000E401400400FA0502
:10FA80000090D0035C2200200448017F0448002934
:10FA9000024901D006F099BB06F008BBC82B002034
:10FAA000002000400FB4054B10B503A9044A02988A
:10FAB00000F02AF810BC5DF814FB0000411A0200A7
:10FAC0002C22002002E008C8121F08C1002AFAD127
:10FAD00070477047002001E001C1121F002AFBD1CE
:10FAE000704700000121202803DA814005480140C9
:10FAF00003E0402802DA2038814009B10120704734
:10FB000000207047FC06FFBC2DE9FF4F89B09B46E3
:10FB10000446002506E025280BD05A460B9990474D
:10FB2000641C6D1C20780028F5D10DB02846BDE876
:10FB3000F08F0027B8460122474900E0074314F838
:10FB4000013F203B02FA03F00842F7D120782E282B
:10FB500019D114F8010F47F004072A280ED06FF0CE
:10FB60002F022078A0F1300109290CD808EB880178
:10FB700002EB410100EB0108641CF2E70A98641CE7
:10FB800050F8048B0A9020780028CED0642808D042
:10FB9000692806D075281ED05A460B9990476D1CCF
:10FBA00058E00A994FF00A0901C90A91002802DABF
:10FBB00040422D2102E0390504D52B218DF820107B
:10FBC000012103E0F90704D02021F7E78A4608AEB7
:10FBD0000DE00021FAE70A994FF00A0901C90A91DC
:10FBE000F7E74946FFF759FC303106F8011D0028B8
:10FBF000F7D1ADEB060000F12009780701D44FF0F2
:10FC00000108C84502DDA8EB090000E0002080469D
:10FC1000002706E008A85A46C05D0B9990476D1C66
:10FC20007F1C5745F6DB04E030205A460B9990477D
:10FC30006D1CB8F10001A8F10108F5DC05E016F82B
:10FC4000010B5A460B9990476D1CB9F10001A9F1BF
:10FC50000109F4DC641C65E70928010010B560B1F6
:10FC600059B102780B785208B2EB530F05D1062236
:10FC7000401C491CFFF704FC08B1002010BD012006
:10FC800010BD2DE9FC47002517880646158090F821
:10FC90002D001446894630B13A462146484600F0C8
:10FCA00081FE050009D1B0784FF00C0A18B3208806
:10FCB000C846001DB84202D95046BDE8FC876846D8
:10FCC00079DF0028F9D12088032108F80010208866
:10FCD0001921401C80B2208008F800102088401CA8
:10FCE00080B2208000EB0801BDF8000006F0E5FAC4
:10FCF000218808442080F0780222C8B1218896F932
:10FD0000033001F1030C4846BC45D5D84254218844
:10FD10004FF0010C491C89B2218000F801C02188F4
:10FD2000491C89B2218009F801302088401C2080BC
:10FD30007068B8B1218890F9003001F1030C484691
:10FD4000BC45B9D8425421880A22491C89B2218075
:10FD500042542188491C89B2218009F80130208849
:10FD6000401C2080308950B1CDE900474B46062227
:10FD7000022106F1080006F001FB05009DD1308A42
:10FD800050B1CDE900474B460722032106F1100090
:10FD900006F0F4FA050090D1308B50B1CDE9004760
:10FDA0004B461522142106F1180006F0E7FA05006B
:10FDB00083D1306A30B13B462246494601F066FAAB
:10FDC0000500DBD1706A30B13B462246494603F05C
:10FDD000AFF80500D2D196F82C0038B13B46224648
:10FDE0004946304605F07CFC0500C7D1307838B173
:10FDF0003B4622464946304603F0E6F80500BDD1B1
:10FE000028465AE7134A0021535C0BB1012203E054
:10FE1000491C0629F8D300220F49012806D00228E0
:10FE200009D003280CD0042812D10DE0487810B175
:10FE30000AB101207047887810B10AB102207047DA
:10FE4000C87808B103207047087908B104207047CA
:10FE5000002070476D2100200C26002010B50122E3
:10FE60000221002000F0F6FF08B1072810D1072278
:10FE70000221012000F0EEFF08B1072808D100217F
:10FE80000A22084600F0E6FF08B1072800D100204A
:10FE900010BD000030B5A7B03C2101A8FFF7E5FA7E
:10FEA00002208DF8040000258DF8065005208DF8FD
:10FEB00007003C2110A8FFF7D8FA0F48012415903D
:10FEC000ADF8504020211FA8FFF7CFFA4020239023
:10FED0008DF87F408DF87C40B4202490074B1FAAFA
:10FEE00010A9009501A800F015FB002801D000F032
:10FEF0008FF827B030BD00002C210020BD39020052
:10FF000070B58CB015460E4600236C46C3F10F0148
:10FF1000415CE1545B1C102BF8D30D2104F110005F
:10FF2000FFF7A3FA0020C0F10F02315C2244401C0D
:10FF300011740328F7D3684643DF0020C0F10F0196
:10FF4000214491F820102954401C0328F6D30CB00A
:10FF500070BD022000F040BE70B50024064D06E0E2
:10FF60006868012110F8340003F07EF9641C2878D9
:10FF70008442F5D3002070BDE4210020F8B5154679
:10FF80000C460646052A01D20720F8BD03F052FAB6
:10FF900018B903F021FA0028F7D1104900204E606B
:10FFA0000C70C1E902500E4D08610DE006EBC40073
:10FFB0006968009181788DF801100078094A6946D6
:10FFC00003F0A4F90028E0D1641EE4B2EED2BDE84B
:10FFD000F840054A0021024800F04EB8E421002014
:10FFE0006C6802008920020011140200BFF34F8FD9
:10FFF00005480168054A01F4E06111430160BFF35F
:020000040002F8
:100000004F8F00BFFDE700000CED00E00400FA0593
:100010000EB500210091CDE901106A4644F20100BD
:10002000FFF7E4FF0EBD10B58268C368934203D0AA
:1000300001F09AFC002010BD052010BD29B112B1BD
:10004000531E134203D0092070470E2070470160F1
:10005000838000218160C1600846704710B58268C6
:10006000C3689A1A83889A4203D801F087FC00205B
:1000700010BD042010BD0000074B5B6823B12AB1FE
:1000800020B10068037C1BB108207047072070472F
:100090004174426100207047082200202DE9F0479A
:1000A000074698461446894690074FF0000526D12A
:1000B0002CB305F017F8134E06F11000C6F80C80AB
:1000C0000570457080F802904460756035707570F9
:1000D0001420FFF7F1FA07211420FFF724FB142066
:1000E000FFF700FB0848076007211120FFF71BFB03
:1000F0000548001F0068B0600020BDE8F0870720B9
:10010000FBE70000F8210020081501402DE9FC471D
:10011000DFF87890D9F8043073B368B3052902D2B8
:100120000720BDE8FC87436933B3437C012B25D00E
:10013000002704460025884616468DF8005068467C
:1001400000F0CAF801A806F001F9C8B10121017058
:100150000F4944600968C0E90218C0E904769DF8B7
:10016000040089F801009DF8000000F0D9F814207F
:10017000FFF7CEFA2846D4E70820D2E70F46D8E7A3
:1001800004259DF8000000F0CBF8F3E708220020DA
:10019000041501400649496839B130B1416921B1BE
:1001A00000210174022105F02FBE082070470000D5
:1001B0000822002070B50A4E01460A48B578FFF7BC
:1001C00032FF04464DB10020B070711C0122C81DE1
:1001D00003F076F908B1FFF71BFF204670BD000061
:1001E00018220020082C0020F0B5284E89B01F46A8
:1001F0000D00044672603BD0A888296882B224486A
:10020000FFF71CFF002834D1A889A96882B22048D2
:100210001030FFF713FF00282BD120221D4968461C
:10022000FFF70AF960690690207C00B101208DF883
:1002300014008DF81C70607C00B10E208DF8150044
:10024000E0680290A06803902068019060680090C8
:100250000E48114A6946083003F0FEF8002808D11C
:10026000B0702068401C04D09DF81D0018B106E055
:10027000072009B0F0BD0548083003F079F90349BB
:100280000122491CC81D03F01BF9F2E718220020C7
:10029000082C0020746802000D60020010B50146B1
:1002A0000B48FFF7DBFE040010D10A4803F0AAFA5E
:1002B00060B9084906480839FFF7B5FE30B9054965
:1002C00001220839034803F017FA0446204610BDFE
:1002D000182C00202022002030B5EFF3108172B6D8
:1002E0000D4A9468012324B10370002900D162B63D
:1002F00030BD93604FF0E023D3F88051074C254088
:100300001560C3F88041D3F8844154605A17C3F88C
:10031000842100220270E8E7282C0020FC06FFBCA4
:100320000B498A68002A11D000280FD1EFF3108002
:1003300072B60B684FF0E022C2F800314B68C2F889
:10034000043100228A60002800D162B670470000A4
:10035000282C00202DE9F041064608680C46411C77
:100360004FF0A0474FF0010506D005FA00F1C7F89D
:100370000815206803F091FA6068411C02D0002142
:1003800003F082FA3079204901EB4010A169007F27
:1003900000283068C0F8241525D0607D227D3168A2
:1003A0001043C1F86C05D4E900123068C0F80C1590
:1003B000C0F8142524E0A068411C02D0002103F0FD
:1003C00063FAE068411C05D08540C7F80855E0682D
:1003D00003F063FAD4E902123068C0F80825C0F8C7
:1003E0001015BDE8F081607D217D32680843C2F8B8
:1003F0006C05D4E900123068C0F81425C0F80C155B
:10040000207D0128D7D0ECE7C82B00202DE9F04350
:10041000044687B0008800F061FA8146208802F027
:10042000A7F8214F8046667A208800223978A5688F
:1004300000F0A2FAB9F1000F33D06079400711D56E
:100440000721404603F050FEA0B108218DF80C10A2
:1004500021880590ADF80E10ADF8108003A801F0CA
:10046000CFF807E02088B97800F072FA10B1404662
:1004700002F06AF803208DF800002088ADF8020031
:100480006079C0F380008DF80400A079C0F380008B
:100490008DF805008DF806508DF80760684601F06C
:1004A000AFF807B0BDE8F083C5210020F0B50C46D9
:1004B00093B01F210726ADF80010ADF804100027F7
:1004C00050B1C17849070DD56A4602A9FFF7D9FB9B
:1004D000002808D102AD02E00025ADF800706CB133
:1004E000E07810B1304613B0F0BD01AA0AA9204649
:1004F000FFF7C7FB0028F6D10AAA02E00022ADF8F8
:100500000470BDF80400C3B2BDF80000C1B22846B3
:1005100072DFE8E72DE9F0471F46DDF8208013463B
:100520008946040042D0EBB3404D012000262870DC
:10053000EE70202219463E48FEF77EFFC5E904789A
:100540004FF6FF702881AE613948AE83AE773C210B
:100550002030FEF78AFF3648217820300170A178DC
:100560008170E178C170617841703149D4E9042328
:10057000C1E90C23D4E90223C1E90A23D4E9062303
:10058000C1E90E23616AE1B100F13C0100F14802CA
:1005900041628A60636A1B880B80616A436A89884A
:1005A000998000E002E00021436A07E00E20BDE8E8
:1005B000F087656AAD686D5C5554491C9D888D4215
:1005C000F7D8A16AD9B11A4A9432A2F10C018A6013
:1005D0008162A36A9B888B80A16A836A09881980DB
:1005E0000021836A04E0A56AAD686D5C5554491C1E
:1005F0009D888D42F7D894F82C1080F82C10216A31
:1006000049B10A490A310162226A52884A80216A44
:10061000026A09881180616801B141604946BDE8FC
:10062000F04703482030FFF741BF0000542100206D
:100630000C26002010B50188144C102918D011295F
:100640001CD01B2919D1007A002816D1E078052189
:10065000401CB0FBF1F201FB120000BF00F036F8C5
:1006600000280AD06169002907D0BDE8104008477A
:10067000C17B012901D18088208110BD00216171D9
:10068000808821898842F8D10120E7E754210020A1
:1006900010B574DF0B4C01200B4960710020E07134
:1006A0000620C87000210848FFF700FF002807D186
:1006B000E07800F00BF810B1616901B188470020C3
:1006C00010BD0000542100202C2600202DE9F0410F
:1006D0003D4C804686B0207848B184F8038004A859
:1006E00001F04CFA0498012628B1667067E00820F2
:1006F00006B0BDE8F0810025A561344FA583A5773C
:10070000787810B1E078012806D0B87858B1E07850
:10071000012801D0022806D1216919B126710820CB
:10072000884700E025714046FFF76CFBE0702169C7
:1007300039B1032801D0042803D1387808B1607991
:1007400090B1A57100950295019503958DF8005023
:100750008DF808501C48E1781830052925D2DFE8CB
:1007600001F03008111D2100E571A67107208847AE
:10077000E8E7A67001908DF80060ADF80C50ADF878
:100780000A5014E00221A17001908DF80060B88930
:10079000ADF80C003889ADF80A0008E0684604F0AE
:1007A000E3FF02E0684605F003F8E07818B1684618
:1007B00073DF00289CD1216909B1A0788847002007
:1007C00096E7A570F7E70000542100200C260020D2
:1007D00070B5054601461C220F48FEF72DFE0F4C52
:1007E00000262670286830B1016861604068A0600A
:1007F000201D7ADF02E00948001D7BDF00280AD1B6
:100800004FF6FF7060806670BDE87040044A0021BA
:100810000448FFF731BC70BDE026002074210020A1
:10082000D5620200D467020070B51E4C0688002312
:100830001B49E289102E15D01B4D112E1CD0122EF3
:1008400029D0502E17D130F8061F914213D141897B
:10085000022910D10C3000F076F988B1BDE8704063
:1008600000F05ABD84884C800469CC6040690861FE
:100870004B70002AF2D070BD4FF6FF7048804B706D
:100880002868FFF787FC0028F5D0A1690029F2D07D
:10089000BDE8704008478268CA60C0680861DDE74B
:1008A00074210020E0260020D467020002490A7D5E
:1008B000091D04F04EBD0000282B0020024602480E
:1008C000C17D001D04F032BD282B002002460248E5
:1008D000017E001D04F02ABD282B002070B50A4EB1
:1008E00005460024317D2A46301D04F01FFD40B12D
:1008F000B17D2A46301D04F019FD08B1022400E044
:100900000124204670BD0000282B002010B50024D3
:10091000204605F00FFD28B1641CE4B2182CF7D373
:10092000182010BD03480122A24001681143016054
:10093000204610BD282B002010B5044605F0FAFC17
:10094000002802D001482044407E10BD282B002002
:1009500070B505460C46084605F0ECFC002808D0AA
:1009600004482A460119001D497EBDE8704004F084
:10097000DDBC70BD282B002070B5064615460C4620
:10098000084605F0D7FC002809D005482B46011978
:100990003246BDE87040001D193104F0FFBC70BD47
:1009A000282B00207CB5054608880C46093090426B
:1009B00001D90C207CBD68466DDF0028FAD1218862
:1009C0000820685420881B21401C80B220802954B4
:1009D0002088401C80B220802844DDF8011001608E
:1009E000BDF8051081802088801D80B220809DF890
:1009F0000010490800D0012129542088401C208083
:100A000000207CBD10B50446FFF70EFF204603F022
:100A1000DDFF2146074800F041F8204602F0E0FFE4
:100A20002046FFF707FE204600F05EF9BDE81040C3
:100A300002F0B0BA8425002030B5174B0D460400F3
:100A40000FCB85B08DE80F0023D015B34FF6FF70A4
:100A5000A0822868A0610020A0752146684663DF57
:100A6000002814D120788DF812000120ADF8100074
:100A7000A21C04A9A0DF002809D12946204604F0C1
:100A800068FB002803D12946204605F033FA05B05B
:100A900030BD0E20FBE700005868020010B50028AA
:100AA00022D0002920D00A88102A18D0112A18D064
:100AB000502A19D104468A1DC888238A12319842C7
:100AC00002D15389022B10D0A38898420CD1A3697C
:100AD000002B09D052892046BDE81040184789886C
:100AE00001E04FF6FF71818210BD084600F02BF83F
:100AF00000B10120A07510BD07B584B068B1828A2D
:100B0000A2F57F43FF3B0AD0827D42B1BDF8182099
:100B1000142A06D9072007B000BD0E20FBE70820E5
:100B2000F9E70022009201920292039282890391D6
:100B300006A90291ADF8002001218DF80210808AEB
:100B40006946A6DFE7E7007800F001007047000083
:100B500000B5134889B0002340680790502211491E
:100B600007A805F0A7F808B1FFF752FA6A46012175
:100B7000002005F089F808B1FFF74AFA1720ADF810
:100B80001000684605F076F808B1FFF741FA06480C
:100B900005F066F8002801D0FFF73AFA09B000BD69
:100BA0008067020090220020050A02000149085CCB
:100BB00070470000A46702000649095C4FF0A0409E
:100BC000D0F81005C84010F0010000D0012080F0DE
:100BD00001007047A467020007490B5C4FF0A04179
:100BE000D1F804250120984020EA0203C1F8083515
:100BF0001040C1F80C057047A06702000249085C6C
:100C0000012102F076BE0000A06702000249085CE4
:100C1000002102F06EBE0000A06702000649095CD8
:100C20004FF0A040D0F80405C84010F0010000D0FB
:100C3000012080F001007047A06702007CB500240D
:100C4000084E25460122305D00950023114601958E
:100C500002F0E4FD641C042CF4D3BDE87C4000F0F9
:100C600003B80000A067020010B500242046FFF77B
:100C7000C5FF641C042CF9D310BD10B50024204618
:100C8000FFF7C4FF641C042CF9D310BD10B5024655
:100C9000064B4FF0FF3000215C5C944201D10846C6
:100CA00010BD491C0429F7D310BD0000A467020041
:100CB00070B50C4E0C004FF0000530600BD00120D9
:100CC00000F0A4F808B1022004E0002000F09EF833
:100CD00000B10B202070706810B9FFF7BFF805460F
:100CE000284670BD4C21002010B51A4C0188606860
:100CF00010290ED011292BD1401E606028D1FFF79A
:100D0000ADF8002824D02168002921D0BDE810408A
:100D10000847D0B900210122084600F09BF808B12D
:100D200007280FD107220221012000F093F808B113
:100D3000072807D104220221002000F08BF820B1FF
:100D4000072802D0216801B188476068401C6060B4
:100D500010BD00004C21002010B5002000F0AEF9BD
:100D600008B1062806D1012000F0A8F908B106282C
:100D700000D1002010BD00002DE9F0470D4681464E
:100D8000FFF784FF0446042838D2DFF878801C4837
:100D90001D4EA8F1100735B3012D0ED0022D2DD117
:100DA00004EB440030444578002D27D0F968002931
:100DB00024D02846BDE8F047084704EB4401755CA1
:100DC0000E44717859B179680E4A01EB81014900EE
:100DD0000E3A8068FFF79AF908B987F80290B1785F
:100DE00008F80410E0E78068FFF7D4F904EB440149
:100DF000314418F804008D78A842D5D0BDE8F087BA
:100E0000A867020048210020E0250020FFF7D4BE9B
:100E100001460F4810B54088042907D007290ED095
:100E20000A2914D1BDE8104004F0E4BC132176DF98
:100E30000BE000280BD0BDE81040FFF7E9B8A0F5A3
:100E40007F41FF3903D1FFF723FC0828F1D110BD02
:100E50002821002070B50023042810D20D4D00EB8E
:100E60004004012A02D101290CD00022094E00EBD6
:100E70004000304461B1012906D0022906D0072381
:100E8000184670BD0E30C2B22A55F9E74270F7E736
:100E90008270F5E7E0250020044A01460020127A1E
:100EA000D20702D0084600F04FB870473821002022
:100EB0002DE9F04106461F4800240F464160C0E975
:100EC0000262B0071FD50025012211462846FFF710
:100ED000C1FF6D1C0446042D02D2002CF4D012E098
:100EE0008CB97A0804211448FFF748F804000AD1A5
:100EF000FFF732F8040006D10F48104A0021001F06
:100F0000FFF7BAF80446F00701D0FFF797FE74B96F
:100F100009480B4A00210C38FFF7AEF8040006D14F
:100F20000548084A01210838FFF7A6F8044620467C
:100F3000BDE8F08138210020B4670200CD10020026
:100F4000D927020053FF01002DE9F047594C05460F
:100F50000026607818B100206070FFF785FE012040
:100F6000554F4FF47A694FF4C87A4FF06408182D42
:100F70002CD2DFE805F0890C0C2C3A4751565A6107
:100F80005A619B6969696969898C8F929B9B002072
:100F9000FFF744FE00284FF0000008D0FFF72EFEB8
:100FA000022D02D14FF4E16006E0484604E0FFF76D
:100FB0002DFE022D2ED05046B0FBF8F12570606852
:100FC000414300223868FFF7A1F8064659E00020A7
:100FD000FFF724FE28B10020FFF710FE4FF4487001
:100FE000EAE70020FFF712FE14E00020FFF716FEEC
:100FF00000284FF0000002D0FFF700FED5E7FFF712
:1010000005FED8E70020FFF709FE0028E9D0002000
:10101000FFF7F4FDC820CFE70020FFF7DDFD2570C6
:1010200007E000203FE025702BE060700120FFF713
:10103000D3FD00226168C5E760700120FFF7CCFD99
:10104000606800EB8001BCE77868FFF7A3F806460C
:10105000D5F1110000D01EB10220FFF7CFFD10E046
:1010600001280BD9C82110FB01F1B1FBF8F1606830
:10107000002241437868FFF749F806460220FFF74F
:10108000C5FD3046BDE8F087FFF7EEFDCBE7FFF783
:10109000EBFDC6E7FFF7E8FD04E0FFF7E5FD002004
:1010A000FFF7B4FD0120FFF7B1FDBCE7FFF7E5FD59
:1010B000B9E7000038210020A867020010B5FFF74B
:1010C00075FD032102F0F3FB002010BD0078022122
:1010D000FFF752BE05494FF0FF32082841F82020A3
:1010E00002D3084480F8482070470000702B00208D
:1010F000F0B54FF0FF3512B10023082601E00823B8
:101100000C260C4C05E000BF54F823707F1C04D063
:101110005B1CB342F8D32846F0BD26185DB286F8B2
:10112000305044F82310002AF5D1E11881F8480026
:10113000F1E70000702B00200249084490F93000CC
:1011400070470000702B002038B10549814204D857
:101150000449814201D901207047002070470000F6
:101160006022002070220020044A0168914201D0D0
:10117000083101E00149383901607047782D0020BD
:1011800070B504464FF6FF750A462846AC4208D1B2
:101190004FF480742146104603F0D4FBA04209D0DE
:1011A00070BDFF2CFCD82146104603F0BEFB08B1F1
:1011B000204670BD284670BD70B5084C050009D0AA
:1011C00010342168002907D0086820604968284643
:1011D0008847F6E70834F4E770BD00005C2B002078
:1011E0002DE9F05F26484168F1B3DFF898B00E684A
:1011F0008146DBF8004087688078E11B21F07F455D
:10120000ED1CB0B9DFF880804FF48030C8F844039B
:10121000C8F804031120FEF74FFA1120FEF762FA16
:101220004FF0010AC8F800A02F2001F077FF89F8DD
:1012300002A0B54200D23546124BE8193C3320F0EB
:101240007F401860DBF800105A46091B21F07F41EF
:10125000001B20F07F40C91C81420FD91068186024
:101260002F2001F05BFF00E004E0BDE8F05F1120FB
:10127000FEF74EBABDE8F05F03F034BFBDE8F09F63
:10128000F821002004150140001001402DE9F04133
:1012900017880646B81D14460D46984202D90C2000
:1012A000BDE8F0813188072206290AD34FF4486C43
:1012B0004FF6FF73614501D9994202D17088062823
:1012C00001D21046ECE7604501D99842F9D1994224
:1012D00003D0984201D08142F3D80520E8552088F8
:1012E0001221401C80B2208029542088401C80B2EA
:1012F00020804119308804F0E0FF2188084480B242
:1013000020804119708804F0D8FF2188084420808B
:101310000020C5E7FEF77CBEF8B5134801F03EFAA1
:10132000114D0026114C0C3D30B16169B9B101205D
:101330008DF80000684611E0287820B1616971B12C
:101340008DF80060F6E7687858B1A1680848002277
:101350000068FEF7DBFE10B1A16901B188472E706D
:10136000F8BD6168F2E7000080210020E02600203F
:10137000D46702002DE9FF410C4618B1012004B0EA
:10138000BDE8F08120790027DFF87C80012638B1A4
:1013900041F61D5501281ED0022829D00F20EEE766
:1013A00002970397E0680190694601A803F0D4FD15
:1013B00068B102988188E18000882081029803F05A
:1013C0003FFEBDF8002008EB02118E7300E00A20FA
:1013D00002212171D3E70D4B6A460021A01D03F0C5
:1013E00077FD38B1094908398F60CF600A28C6D126
:1013F0002846C4E7019803F023FE04498A8808EBD5
:1014000002118E73F2E70000882D002038220020A0
:101410002DE9F04100260125144C22E06068226984
:1014200000EBC607387805FA00F1114217D08A435D
:10143000226101F0C7FF02463878E36805FA00F13F
:10144000194002FA00F3994209D17978012901D0B3
:10145000012100E0002151407A6802B19047761CDA
:10146000F6B220788642D9D3BDE8F081E42100208D
:101470000E4910B50A784C780023A24212D0521CB3
:10148000D2B20A70022A00D10B70084A0B781832C7
:1014900052F8232002608868104420F07F40886062
:1014A000012010BD0360002010BD0000F8210020C5
:1014B0003EB5094D38CD8DE83800ADF80410074928
:1014C0008DF80620ADF8020000220978FFF754FAE3
:1014D000684600F095F83EBD30680200C521002046
:1014E00010B503780022072B06D2DFE803F00504CD
:1014F000060C1C252B000A7010BD01220A700289FF
:101500008A81828814E002220A7002898A81828894
:10151000CA81C2688A60007C062802D00020087454
:1015200010BD0120FBE703220A70C2888A8102896C
:10153000CA81C068886010BD04230B70C088888190
:10154000CA8110BD0520087010BD000070B5064DA1
:101550000646002455F8241009B130468847641C1B
:10156000082CF7D370BD0000A82C00200EB5002970
:1015700011D011290FD0002200920292ADF8020082
:1015800001910D2908D0862908D009208DF8000086
:10159000684600F02FF80EBD0B20F7E70A20F5E7AC
:1015A00070B5054D06460024304655F8241088478E
:1015B000641C022CF8D370BDD86702000149096889
:1015C00008470000942100202DE9F041074600243F
:1015D000064E074D05E000BF56F8241038468847F0
:1015E000641CE8788442F7DBBDE8F081DC2A002047
:1015F000A02100200149096808470000F4670200A3
:1016000070B5054D06460024304655F8241088472D
:10161000641C022CF8D370BDF86702007FB5044645
:10162000406858B10020039020780026384D0628E5
:101630005DD2DFE800F05C05052641690120F2E794
:10164000A08900F0A4F918B9E08903F00BFD80B37C
:10165000A089A0F54040ADF80200A07B8DF8040001
:1016600020780128606806D048B104208DF8000079
:10167000606803901AE00028F8D00320F6E7012004
:10168000F4E7A08900F083F918B9E08903F0EAFCD7
:1016900078B1A089A0F54040ADF80200A07B8DF89C
:1016A0000400606830B105208DF80000A068029049
:1016B0001AE01CE00220F7E7A08900F068F9B0B159
:1016C000E089A0B9A089FF21A0F5404080B2ADF823
:1016D00002008DF80410616881B107208DF80000C8
:1016E0006E70AE7002F0BEFE684602F093FD687840
:1016F000002802D06E7002F0B5FE7FBD06218DF885
:10170000001002F03DFFEBE708208DF80000EBE74A
:10171000CC21002000B5114987B00978890702D48F
:10172000022007B000BDA0F57F41FF3911D005218F
:101730008DF8001001218DF80410ADF8060000228C
:101740001146684602F0CEF928B103F0B1FB002043
:10175000E7E70420E5E70820E3E700003022002067
:1017600000B58DB014216846FDF77FFE1E48007855
:10177000810703D56846FFF7E9FE33E0C00731D1A2
:10178000012000F029F900F0A1F902F047FA70B148
:1017900006280FD001218DF814100C281BD2DFE889
:1017A00000F01A101A101A181A181A1216120B2012
:1017B0000DB000BD022000F00FF9012000F0F2F89A
:1017C000D8E7002000E003208DF8180003E0022095
:1017D000FAE78DF818100022114605A802F082F9E8
:1017E00003F066FB0020E3E73022002038B5040058
:1017F00011D0694603F0B0FB88B10A48BDF800106B
:1018000000EB0110818941B1A27A32B1491E818178
:101810000020A07238BD052038BD062038BD0A2042
:1018200038BD0000882D00201FB501A9684603F0CF
:101830004FFB04B010BD07B513460A4669460020A9
:1018400003F046FB0EBD07B513460A460021684665
:1018500003F03EFB0EBD20B119B100680860002006
:10186000704705207047000038B50D46040015D0BC
:10187000A5B1694603F070FB90B10A49BDF800209C
:10188000606801EB02129189491C918128606068AF
:101890000C3068600120A072002038BD052038BDE2
:1018A0000A2038BD882D002018B10323002204F03F
:1018B0002DBE052070470223002204F027BE12B17E
:1018C000022304F023BE052070470000064A517829
:1018D000082906D0054B43F82100491C517000200F
:1018E00070470C207047000030220020A82C0020F8
:1018F00038B504460A480D460078800701D4022016
:1019000038BD54B16946284604F010FF0028F7D1CD
:10191000BDF800102180658038BD052038BD00006D
:101920003022002010B504460D480078800701D40D
:10193000022010BD84B1218802290FD8094800EB8C
:10194000011042896088121A032A07D404F0E4FEC9
:1019500000202080608010BD052010BD042010BD37
:1019600030220020882D0020826883881A40036876
:101970009A5C0A708168491C81607047C2688388DC
:101980001A4003689954C168491CC160704743F606
:10199000FE71A0F54040884201D801207047002028
:1019A0007047000002490A7882430A7070470000BD
:1019B0003022002010B504460078182802D1FEF726
:1019C000A5FF207010BD10B504460078182802D17C
:1019D000FEF79CFF207010BD02490A7802430A708E
:1019E000704700003022002070B5134600220646E2
:1019F0001546862905D0112901D019B170BD0125E0
:101A000000E001220D4C73B16179FEF7B5FF2A4663
:101A100021793046FEF7B0FF002261783046FEF7AC
:101A2000ABFF002203E06178FEF7A6FF2A4621788B
:101A30003046BDE87040FEF79FBF0000B021002097
:101A400010B50446C0B2FEF729FC204610BD0000C8
:101A5000F8B506461A481F46154600780C46C007DA
:101A600008D03046FFF770FB30B13CB1200507D0FD
:101A70000620F8BD0120F8BD0220F8BD0320F8BD06
:101A80003068A04204D8716804EB0530884201D95F
:101A90000520F8BD7DB1684603F04AF968B10098A9
:101AA0000221C0E900670172210B8181058203F0E8
:101AB000F1F90020F8BD0420F8BD0720F8BD0000B2
:101AC00028220020084603F087B900002DE9F047DE
:101AD0002748284C4FF01021001B02094969104685
:101AE0004B1C03D14FF0805149690903DFF888A0EE
:101AF0009AF80070FB0702D00020BDE8F0870023B1
:101B0000A14607E009EB0314256815B1646804B128
:101B1000401E5B1C9342F5D3002422E0002504F014
:101B2000FF0C2B4613E000BF09EB0316D6F800802C
:101B3000B8F1000F04D0D6F80480B8F1000F05D139
:101B4000767BAE4202D9354603F0FF0C5B1C934214
:101B5000EAD309EB0C13641C59601D7BA1EB053122
:101B600019608442DAD347F001018AF80010C3E714
:101B700070220020602200202822002020B103498A
:101B8000496E01600020704703207047342C00200C
:101B90002DE9F84307461D48DDF820801E460078F1
:101BA00015460C46C0070CD03846FFF7CDFA50B1A9
:101BB0005DB154B145EA0400800708D00620BDE8B5
:101BC000F8830120FBE70220F9E70320F7E73868F4
:101BD000A04204D8786804EB8601884201D205202F
:101BE000EDE77EB1684603F0A3F868B100980121E3
:101BF000C0E900780172C0E90354868203F04AF913
:101C00000020DCE70420DAE70720D8E728220020BC
:101C100070B508B1012070BD184C0025207B08B1BB
:101C2000257301E000F0A2F82078082824D2DFE82C
:101C300000F02304080C1023141EBDE8704000F0CF
:101C40001FB8BDE8704000F07FB8BDE8704000F0FC
:101C500061B8BDE8704000F037B8084960882039A5
:101C600001EB00104068BDE8704001F0B7BF65604F
:101C7000BDE8704001F0C0BF0F2070BDA82D00204E
:101C80001049F0B48A1C00200346A1F120050C186D
:101C9000A67A3EB1A37205EB0014A68916B9A47BFF
:101CA000012C0AD0401C80B20228F0D30B704B806C
:101CB0004B60F0BC41F61D5070471080F0BC00F046
:101CC00043B80000A82D002010B50F4CA4F120014E
:101CD000608801EB0010818961B1052020700B48FC
:101CE0000221002381800168BDE8104001220848DC
:101CF000FFF7AEBE4168002301220548FFF7A8FEAA
:101D00000421217010BD0000A82D002040220020D9
:101D10006022002038B50A49084803240B6842684D
:101D2000898803EB8101538804700020DB1C00903C
:101D30009BB20448FFF72CFF38BD0000A82D0020FF
:101D40004022002060220020074910B54888091D64
:101D500003F050F918B1BDE81040FFF7DBBFBDE854
:101D60001040FFF7B1BF0000A82D0020F0B51D48BE
:101D70001D490125067802248B88A0F12002082E37
:101D800018D2DFE806F00417171A212C2C16018947
:101D9000491C01810021418080F80C1002EB0113E5
:101DA0001B7843B100234418491C89B2A37202294D
:101DB000F4D30570F0BD0123F5E742685288D21CC8
:101DC0001A448A800470F0BD46880D6802EB061242
:101DD00056680E60556013818C80062100E0072153
:101DE0000170F0BDA82D002040220020F0B504466F
:101DF0000088384D8DB050281ED0522802D054286B
:101E000028D103E0A08800F025FF23E006208DF80C
:101E10001400A08800F0ACFBADF81600A188ADF866
:101E2000181000F05DF9A0880022E978FEF7A4FD03
:101E300005A8FFF7C3FB0DE0207B01280AD1A07A9B
:101E4000012807D12089A0F52451023902D1A088A8
:101E500000F03AFFA878FEF76FFDC8B108A8FEF7BA
:101E600025FD142208A96846FDF7E6FA00246E460F
:101E70000BE000BF06EB4407A978B888FEF768FDC1
:101E800010B1B88800F0E6FE641C0098A042F1D8BA
:101E90006878FEF751FDC8B108A8FEF707FD1422C7
:101EA00008A96846FDF7C8FA00246E460BE000BF9B
:101EB00006EB44076978B888FEF74AFD10B1B88888
:101EC00000F002FF641C0098A042F1D803F070FB00
:101ED0000DB0F0BD8C2100203EB504464088ADF821
:101EE00002002078A8B101281FD0022810D1207943
:101EF00000280DD0608800F07BFAA0F57F41FF3903
:101F000006D00F490122C978FEF736FD03F050FBD9
:101F10003EBD00208DF800006846FFF74FFB60884B
:101F200000F066FA00F096FE3EBD01208DF800003C
:101F3000A088ADF804006846FFF740FB3EBD0000F6
:101F40008C21002010B50446007801280FD160884C
:101F500000F080FE608800F089F9002807D004496D
:101F600060880122C978BDE81040FEF705BD10BDAC
:101F70008C21002010B5104C00202070FEF7C6FC0C
:101F80006070FEF7C3FCA070FEF7C0FCE070FEF7C7
:101F9000BDFC2071617818290BD0A178182908D0D0
:101FA000E178182905D0182803D0012020700020DE
:101FB00010BD032010BD00008C2100202DE9F04150
:101FC00086B000F0A5F86846FEF770FC00246D4668
:101FD0004FF6FF77DFF834800FE000BF05EB4406D3
:101FE000B08800F0C5FAB84205D1B088012298F84F
:101FF0000310FEF7C1FC641CA4B20098A042EDD807
:1020000003F0D6FA06B0BDE8F08100008C21002074
:102010000178072902D1408800F056BE70470000C1
:1020200010B504460A4841782046FEF791FC68B195
:102030000848002101EB410200EB82025288A242D3
:1020400001D1C8B210BD491C0829F3D3FF2010BD2F
:1020500088210020FC26002070B5094D094E00247F
:1020600004EB440005EB800071784088FEF770FCBB
:1020700020B1641C082CF3D3FF2070BDE0B270BD0A
:10208000FC260020882100202DE9F041124E074651
:102090000125BD403068FEF77DF800280DD10F4CBA
:1020A0002069284207D1384601F08CF90028E06801
:1020B00005D0284304E0A8432061BDE8F081A8438F
:1020C000E060206928432061A1683068BDE8F041E4
:1020D0000022FEF71BB800006C680200E42100201B
:1020E0001CB5054AD2E90212CDE900120022694668
:1020F00001F05DFF1CBD00004468020003484FF67C
:10210000FF7181800121017000207047D8210020DB
:1021100010B54FF6FF7001F089FE03498880BDE8D5
:10212000104003F071BA0000D82100202DE9FC41D5
:10213000804600F01DFA002403250127A0F57F4109
:102140002646FF3908D06A46082101F00BFF18B96E
:102150000198841D8688056832462B4621464046F4
:10216000A9DF042804D0082804D00B2808D002E0F6
:10217000112000E00020002F00D10B20BDE8FC81E1
:102180000027A80701D50125E6E73443F5D0002450
:1021900026460325E0E72DE9FC41804600F0E8F9FA
:1021A0000746A0F57F40FF380ED001252A466D1C5A
:1021B0000026ADB26B460821384601F0FDFE040052
:1021C00006D0072C24D024E043F20200BDE8FC81B5
:1021D000019903230A1D0B604046891DAADF0400F4
:1021E00004D00C2C08D0052C08D008E00821384673
:1021F00001F07AFF04460CE0012600E000240821EB
:10220000384601F05DFF00B10324002ECED100E07E
:102210000C242046DAE700001FB5044600780128A8
:1022200015D12079012812D1608802AA012101F07C
:1022300099FE60B902208DF800006088ADF80200B8
:10224000094901208DF80400096868468847064856
:1022500008388088A0F57F41FF3903D0BDE81F40D2
:1022600003F0D2B91FBD0000E02100201CB500F032
:102270007FF96A46012101F075FE08B100201CBDFE
:10228000019800781CBD00002DE9F041084C07467C
:102290004FF6FF7643F20305324661883846A7DFE2
:1022A000A84203D16088401C6080F5E7BDE8F0815A
:1022B000D82100208188A1F57F42FF3A03D0008811
:1022C00008B101207047002070473EB50278022314
:1022D0000C46B3EB520F17D1B0F80110ADF8001057
:1022E000C1788DF802108188ADF8041080798DF8DE
:1022F000060002AA01A92046FDF702FE032202A958
:102300006846FDF7BDF808B100203EBD01203EBD86
:1023100010B50C46FFF784FEFF280CD0074900EBF0
:10232000400001EB8000416821600189A180807A32
:10233000A071002010BD052010BD0000FC2600206B
:1023400070B5018890B010294FD1011D3422684624
:10235000FDF772F89DF804004FF6FF76032134462E
:102360006D46B1EB500F2AD001F0BCFF9DF8040080
:1023700040080ED001280CD0022820D118E00F9977
:10238000281D1131FDF76AFC18B100BFBDF83440BB
:1023900015E00EAA0DA9072001F07CFF0028EED160
:1023A0000DE00F99281D491CFFF78FFF0028EDD184
:1023B0000EAA0DA9072001F06DFF0028F1D1BDF88C
:1023C0000000291D00F04EFEB4420ED0BDF8000002
:1023D000214600F07EF8BDF80000ADF8360001207F
:1023E0008DF834000DA8FFF7DBF810B070BD0000C9
:1023F000094A002101EB410332F82330834205D121
:1024000001EB410002EB800040887047491C08291D
:10241000F0D34FF6FF707047FC26002010B50D4C2E
:1024200018200D4A607000204FF6FF7100EB40034A
:1024300002EB8303401C59800828F7D3FEF766FAA5
:102440006070182803D001202070002010BD0320E8
:1024500010BD000088210020FC26002070B5044635
:102460000D46401C00F0A8F900280ED01022691C6F
:10247000601CFDF705F848B15FF0000605F1110199
:1024800004F11100FDF7EAFB304370BD0126F5E7CA
:10249000018811B9421892780AB101207047491C8D
:1024A0000829F7D30020704710B50C460346FFF704
:1024B000EFFF00280AD018882188884205D1082219
:1024C000A11C981CFCF7DCFF08B1002010BD012006
:1024D00010BD02F0A9B810B50446007888B00028F5
:1024E00028D12079072825D1608801AA072101F089
:1024F00039FD00281ED101F0F5FE1DE06088BDF811
:102500000010884218D004990298FFF7A7FF98B1ED
:102510006088FFF76DFFADF8160000208DF81400FD
:102520006088ADF81800BDF80000ADF81A0005A8E5
:10253000FFF736F808B010BD03AA6946072001F07E
:10254000A9FE0028DAD1F5E770B50446FFF750FF81
:102550000546204601F009FD4FF6FF7104468D4205
:1025600003D014B9284602F05FF8204670BD000081
:1025700010B5FFF755FDFF2805D0044900EB4000DA
:1025800031F8200010BD4FF6FF7010BDFC26002072
:102590003EB5044601F0A6FE0EE001992046463104
:1025A000FFF782FF28B9019920462A31FFF77CFF07
:1025B00010B1BDF808003EBD6A4602A9072001F02F
:1025C00069FE0028E9D14FF6FF703EBD0648622142
:1025D0000170002141708170C170FF210171417152
:1025E0000F21817170470000302100202DE9F0415A
:1025F0000F4628B10120FFF7D5F90120BDE8F08191
:10260000397961B10026264D01290DD0254C4FF0B6
:1026100002080229206822D003293CD128E001F0D9
:10262000EBFA0121397134E05FF0000005EB001195
:10263000097802290CD0401C80B20228F6D302206F
:10264000FFF7CAF90120FFF7ADF941F61D50D5E7B4
:1026500005EB0014606801F0C1FA267019E001462C
:10266000002301221048FFF7F3F9A4F804800FE0DB
:1026700001F0B4FA0A4922682031498805EB0111BA
:102680004B6823604A60A2880A81A4F804800E7017
:102690003E710028B2D00120FFF784F90E20ADE78B
:1026A000882D00204022002060220020F8B51C4C1C
:1026B0002078002832D0E068002658B100256078E4
:1026C00000282BD1684648DF052805D030B1FDF73A
:1026D0009FFC0AE00125F2E7012606E0009800F0E1
:1026E0009FFD216909B1009888479DB9607800284D
:1026F00014D16088ADF800006946A06861DF052844
:1027000003D020B1FDF784FC04E0012502E0D4E908
:1027100002018847002ED2D0002DE6D0F8BD00007F
:102720004822002070B50E460446007918494FF43F
:10273000A27501EB4010017F2068A1B14FF48871B0
:1027400001F01EF94FF49071206801F019F94FF46F
:102750009271206801F014F92946206801F010F9FF
:102760000C49206809E04FF48E7101F0F8F8294611
:10277000206801F0F4F808492068C0F804132068C4
:1027800000F06FFD3146BDE8704000F04EBD000026
:10279000C82B002010030200800002000549408879
:1027A0000A88904204D34988884201D801207047A2
:1027B00000207047782100200021425C0AB10120EE
:1027C0007047491C1029F8D300207047800701D0BA
:1027D00000207047012070470348017AC90702D0E2
:1027E0000078FEF7B1BB7047382100202DE9F04793
:1027F000234D81461F46287A0E469046084302D054
:1028000026B1002104E00520BDE8F0871C49103105
:10281000484603F029F90446014600224846FFF7DE
:10282000E3F81FB121464846FEF7A0FE112C0FD059
:1028300005DC5CB1082C09D00D2C06D106E0862CF5
:1028400012D0A4F54050023800D003242046DBE724
:102850003246E9784846FEF78FF84246A97848465E
:10286000FEF78AF80024F1E73246E9784846FEF799
:1028700083F84246A9784846FEF77EF8E6E700006E
:10288000B02100202DE9FC4117460C00064604D07B
:102890002078C00705D0012004E000217EDFBDE8DC
:1028A000FC8102208DF804003046FFF761FE0546EA
:1028B000A0F57F40FF3808D001A800902B463A468B
:1028C0002146304600F021F806E020782146C00776
:1028D000304603D000F07DF804460BE07EDF0400B4
:1028E0004FF00000009007D0002201232946304617
:1028F00002F0B4FD14B106E00122F6E79DF80410E1
:10290000304602F0D5FD2046C9E72DE9F04F85B0ED
:1029100090468946834600259A462E4601AA0721FD
:1029200018460E9F01F01EFB040008D1029D95F889
:102930004400183510F0010601D0029D343558EAE4
:1029400004004FF000080FD175B126B905F112004F
:10295000FFF79EFD40B12A4605F11201584685DF7A
:10296000044687F8008021E00CB1052C1ED199F8AF
:102970000000C0070DD003AB01220721504601F033
:102980001BFB04000AD10721504601F00FFC040094
:1029900004D1494658467EDF040007D0072150463F
:1029A00001F08EFB10B1052800D00324CDF8008083
:1029B000387808B1012300E0002344B100225146D9
:1029C000584602F04BFD05B02046BDE8F08F0122CD
:1029D000F5E7FEB50F46064601F0C2FA0546A0F53A
:1029E0007F40FF381ED001AB01220721284601F0AD
:1029F000E3FA04000AD10721284601F0D7FB0400BE
:102A000004D1394630467EDF040007D0072128462E
:102A100001F056FB10B1052800D0032401200090DE
:102A20005CB102E00324002000900022012329462B
:102A3000304602F013FD2046FEBD0122F6E70000FD
:102A40002DE9F041134D0F46164680462978FDF7D3
:102A50007FFF00281BD04046FFF78AFD0446A0F503
:102A60007F40FF3813D069784046FDF771FF38B1D9
:102A700033463A4621464046BDE8F04101F04AB9A6
:102A8000324639464046BDE8F041FEF711BDBDE88B
:102A9000F0810000C52100202DE9F04385B081467A
:102AA000FDF74AFF002820D06846FDF7FFFE00240E
:102AB0006E4617E006EB44054946A888FDF748FF37
:102AC00078B10B4FA888B978FDF742FF8046A888F7
:102AD000F978FDF73DFF0146A88801234246FFF73C
:102AE00085FE641C0098A042E4D805B0BDE8F083E0
:102AF000B02100202DE9F043264CA4F110092278E2
:102B0000D9F8048099F80350404694F801C0D9F8E8
:102B1000086031E002EB42036168521C01EBC30123
:102B2000A378D2B2934200D100220B78022B02D0BC
:102B3000032B21D11DE003464F68194603E0B9423B
:102B400003D00B46C969B9B1F9E7A9B18B4205D1E8
:102B5000C06918B9104E0125B56000260F68C96913
:102B6000D96149B10B683B440B6005E00174C06951
:102B700000E000210028F9D19445CBD1C9E9010634
:102B800089F80350404502D00120BDE8F0830020C1
:102B9000FBE7000008220020001001402DE9F04171
:102BA0002A4F0446002607F11005D7F804803EE0BE
:102BB00002D02046E4691DE02878696800EB4002F5
:102BC000401CC0B201EBC2012870AA78904200D12B
:102BD0002E700A784868012A2BD1027C4ABB8A6889
:102BE0004260CA6882600A69C26049698161F97895
:102BF00001B146604368BA68DFF854C0991A21F001
:102C00007F41614502D28268114406E0D11A826890
:102C100021F07F418A4202D9511A016000E006602A
:102C20004660012186600174C66103F0CFF8002C74
:102C3000BED1287869788842BED17968414502D0F2
:102C40000120BDE8F0810020FBE70000F821002012
:102C5000FFFF7F00FEB504460026A0F57F40FF3849
:102C60002FD02046FFF762FA050013D00B2D15D0A8
:102C7000112D11D0A5F5405002381CD009208DF837
:102C800000002046FFF774FCADF80200ADF80440E8
:102C900002950DE0022002E001260CE003208DF8F1
:102CA00000002046FFF764FCADF80200ADF80440D8
:102CB0006846FEF783FC0348324681782046FDF7DC
:102CC0005BFEFEBD8C210020FEB504460026FFF70A
:102CD00062FA0546112818D003DCA5B10C2D06D1E7
:102CE00015E0862D27D0A5F5405002381CD00920CC
:102CF0008DF800002046FFF73BFCADF80200ADF870
:102D0000044002950DE0012002E001260CE00720BE
:102D10008DF80000ADF804402046FFF729FCADF81F
:102D200002006846FEF74AFC0448324641782046D5
:102D3000FDF722FEFEBD0820EAE700008C210020FE
:102D4000F8B5054600780C46002620420FD1002039
:102D50008DF800006846FDF7BFFA2878204202D1BE
:102D60002043287001269DF80000FDF7D9FA30466F
:102D7000F8BD00008AB000235A4A06210320FDF75F
:102D80008DF908B1FDF744F9574A01215748FDF77D
:102D900073F908B1FDF73CF9544800224FF4A03113
:102DA0000068FDF7B3F95149182208316846FCF76D
:102DB00043FB4F4806904F494FF48070CDE907011F
:102DC000099007234C4A06A96846FDF70DFA08B199
:102DD000FDF71EF9494A40F233310320FEF768F847
:102DE00008B1FDF715F969460020FDF761FF08B14C
:102DF000FDF70EF99DF80000022870D05FF0000486
:102E000001F050FD08B1FDF703F924B101F0A8FE6F
:102E100008B1FDF7FDF83A4801F0BEFE08B1FDF734
:102E2000F7F8FDF795FE9DF8080036A120F00F0099
:102E3000401C20F0F00010308DF808000B2202A892
:102E40007CDF08B1FDF7E4F8002400941020ADF811
:102E500000003C200194ADF80200ADF804404FF4AE
:102E6000C870ADF8060068467ADF08B1FDF7D0F803
:102E7000274800901B4869469030FDF7DDFD08B1FA
:102E8000FDF7C6F8FDF706F81C216846FCF7EDFAD9
:102E90004FF42040CDE900404FF470300290032001
:102EA0008DF80C001B4805901B480690ADF80E40AD
:102EB0008DF810406846FDF78BFC08B1FDF7A8F8C7
:102EC000FFF784FB15A0FCF7EDFD0320FDF7FEFBEB
:102ED00008B1FDF79DF801F025FFFCE7FFE70124AD
:102EE0008EE70000F4240020255D020080670200C8
:102EF000F4220020F4230020B15F0200110E020032
:102F00007D4702004E6F726469635F554152540001
:102F10008D390200C93A0200151302000D0A55410D
:102F200052542053746172742121210D0A00000053
:102F300070B5144682880E4605462088111D01444E
:102F4000921C994201D8FE2A01D90C2070BD521C56
:102F500032542088FF21401C80B2208031542088C8
:102F6000401C80B220808119288803F0A6F92188AE
:102F7000084480B22080AA8842B1A96841B1304497
:102F8000FCF75AFA2088A98808442080002070BDE8
:102F9000072070BD10B502F09BFA002807D021462B
:102FA00003A0FCF77FFDBDE8104001F0BBBE10BDE3
:102FB0000D206572725F636F6465206D7920707299
:102FC0006F3A202569200A00F8B50E4601781446AC
:102FD0000546012901D1687830B12088821C9A42C7
:102FE0002DD8012902D006E00720F8BD69780144F8
:102FF000891C994223D8181A801E87B2ADF8007038
:103000002188B01C084469467DDF0028EDD128786E
:10301000022805D1BDF80010B94201D809210AE003
:103020000821012805D16878B84202D8ADF800001F
:1030300001E0ADF80070BDF80000FE2801D90C20B9
:10304000F8BD2288401CB0542088401C80B22080EB
:1030500031542088401C2080BDF800100844208096
:103060000020F8BD70B505460C004FF0FF0020D0E1
:103070004FF6FF76B5421CD00E4801224178284613
:10308000FDF77AFC2846FEF7CBFFFF2803D1FEF7B9
:10309000E3FFFF280DD0084B00EB400203EB820159
:1030A0004D8023F8226022684A60A2880A81A279B2
:1030B0008A7270BD88210020FC26002070B54FF672
:1030C000FF750E46A84201D1002000E0401C84B2EA
:1030D00008E02146304601F050FC08B1204670BDA2
:1030E000641CA4B2FF2CF4D9284670BDC20800F0BD
:1030F00007030120895C98400840704700F1804038
:103100000068002800D00120704708B500F1804019
:10311000002101600068009008BD000000283ED03A
:103120001F49204A096800BF00BF00BF00BF00BFA1
:1031300000BF00BF00BF91422FD000BF00BF00BF43
:1031400000BF00BF00BF00BF00BF00BF00BF00BF87
:1031500000BF00BF00BF00BF00BF00BF00BF00BF77
:1031600000BF00BF00BF00BF00BF00BF00BF00BF67
:1031700000BF00BF00BF00BF00BF00BF00BF00BF57
:1031800000BF00BF00BF00BF00BF00BF00BF00BF47
:1031900000BF00BF00BF00BF00BF401EC3D17047CB
:1031A0005C2200200024F40070B50F4C002520782C
:1031B00008B1852516E00021A16061602161E16010
:1031C0004FF0E020D0F80001012610F0010F03D1EC
:1031D0000721002000F029F802F09EFD08B90348FD
:1031E00006602670284670BD5C2B00201805004044
:1031F00038B500208DF800006846FDF76DF8074CE3
:10320000207808B9FFF7D0FFE068401CE06001209B
:10321000A0709DF80000FDF783F838BD5C2B0020FE
:10322000002801D1FDF7C8BF70474907090E0028E3
:1032300006DA00F00F0202F1E02282F8141D03E02A
:1032400000F1E02282F8001400F01F0201219140F9
:103250004009800000F1E020C0F88012C0F80011A1
:103260007047000B40B270472DE9F0418846054693
:1032700001F0E8F9234E002828461AD0FDF75CFF3C
:10328000304490F848008009032802D001280ED06D
:1032900007E04FF0A040D0F81005E84010F0010F13
:1032A00005D003212846BDE8F04100F011BB022102
:1032B000F8E701F0D3F9002822D02846FDF73CFFBB
:1032C00004464FF4807000EB84000F4F81B207EB8F
:1032D0008400D0F8102542F00102C0F810250846FD
:1032E00000F026FBB8F1000F0AD02846FDF724FFB6
:1032F00056F82000002803D00120A040C7F804039E
:10330000BDE8F081702B0020006000402DE9FC41F9
:10331000DFF8A480044608EB0400002790F9300091
:103320001346C0170E46401C01D0082741E0F27832
:1033300019462046FDF7DCFE0546401C38D0B07823
:1033400050B14FF0A04000EB8400D0F8001721F0FE
:103350000201C0F8001707E00021737820460091B1
:103360000A46019100F06CFAF078C0B11348317848
:1033700000EB8500D0F81025114B1A40C0F810253D
:103380004FF4F8524FF4403302EA042203EA0141B9
:103390000A43D0F810150A43C0F8102509E008EBDD
:1033A0000500327810F8481F41EA8211017000E0F0
:1033B00004273846BDE8FC81702B002000600040E7
:1033C000FFE0FCFF4FF0A041D1F81015C14011F013
:1033D000010000D00120704770B5144D95F85400DD
:1033E00008B1082070BD0020411E2A18401CC0B240
:1033F00082F830102028F8D300242046FDF76AFE1A
:10340000641CE4B20C2CF8D307210620FFF70DFF53
:103410004FF4BE7000F08CFA05494FF00040C1F83F
:103420000403012085F85400002070BD702B00209B
:1034300000600040034890F85400002800D00120AC
:1034400070470000702B00200121B1EB507F01D1AB
:1034500001207047002070472DE9F04105460079B2
:10346000164F904607EB40140E46E07E10B1082040
:10347000BDE8F081707F20772846FCF76BFF5FEA9C
:10348000080060603169216003D0317F2846FFF772
:1034900049F9287907EB4010007F0028286801D0FF
:1034A000082100E00421C0F800150020E075207616
:1034B000A0750121E176A076DAE70000C82B002094
:1034C0002DE9F04105460079284E904606EB401460
:1034D0000F46207F18B10846FFF7B6FF80B162683B
:1034E00000234FF404704FF4017172B12A7906EB96
:1034F0004212127F002A2A6805D0C2F8080304E0AD
:103500001020BDE8F081C2F80813E27DB2B1227E3E
:103510007AB162685AB12A7906EB4212127F1AB167
:103520002968C1F8040302E02868C0F804131120D8
:10353000E7E72761012384F8188005E084F8178005
:103540000020E760607620762879424606EB40103E
:103550003946007F0028284603D0BDE8F04100F03E
:1035600073B8BDE8F04100F01BB80000C82B002084
:1035700070B504460079094D05EB4010017F002924
:103580000AD1807E002807D1204601F05CFE217917
:10359000012005EB4111887670BD0000C82B00208A
:1035A0002DE9F05F04460079264901EB4015A87E1D
:1035B000184302D1204601F046FE686800282068C2
:1035C00006D04FF40171C0F804130020BDE8F09F4D
:1035D0004FF4A276314600F0C2F9B1464FF4927A28
:1035E0004FF4847B5146206800F0B4F906465946F2
:1035F000206800F0AFF980464946206800F0AAF93B
:10360000074648EA07003043ECD056EA070007D1E6
:103610002946206801F084FDE87D697E8842E1D872
:103620000020E8750EB10320D0E70FB10F20CDE7E1
:10363000A97E01200029216801D00860C5E7486003
:10364000C3E70000C82B00202DE9F05F894604463F
:103650004FF488759A46904600260068294600F087
:103660008FF94FF4A2773946206800F089F9206875
:10367000C0F83495C0F838852068BAF1000F14D02E
:10368000D0F8001241F02001C0F800122179DFF8D3
:10369000648008EB4110406850B120684FF4047119
:1036A000C0F804133046BDE8F09F01210160EDE74A
:1036B000AA46B9464FF4927B5146206800F05BF968
:1036C00007464946206800F056F9054659462068E5
:1036D00000F051F9014647EA05000843ECD0237990
:1036E000002208EB4310C27501B10326002DD9D08A
:1036F0000F26D7E7C82B00202DE9F04705460079B3
:103700003F4E904606EB40140F46207F18B1084606
:10371000FFF79AFE30B1284600F074F820B111206E
:10372000BDE8F0871020FBE784F81680A76000272B
:10373000A78228794FF0010806EB40143E46207F0F
:103740000028286825D04FF49079494600F018F9F0
:103750004FF4AC7A5146286800F012F92868A17D30
:10376000A268C0F84425C0F848152868C0F8088049
:103770006068F0B94946286800F0FDF88046514677
:10378000286800F0F8F858EA0001F3D058BBA77594
:103790000FE04FF48E7A514600F0E1F82868C0F847
:1037A00008802146286802F095FB61684FF480701C
:1037B00089B13046B4E75146286800F0CBF810B91B
:1037C000A08A4845F7D1A08A484505D021462868F7
:1037D00002F080FB00E08146A08AA17D8842EAD306
:1037E000A08A484501D10F26D1E75146286800F04C
:1037F000B1F80028F9D02868C0F80C80C7E70000AD
:10380000C82B00200079044901EB4010807D00287E
:1038100000D0012070470000C82B002070B541EA9D
:103820004201DDE904564FF0A04441EA830141EA38
:10383000052104EB800041EA0641C0F8001770BD85
:1038400070B541EA4201DDE904564FF0A04441EA77
:10385000830141EA052104EB800041EA0641C0F8FA
:10386000001770BD70B541EA4201DDE904564FF022
:10387000A04441EA830141EA052104EB800041EACA
:103880000641C0F8001770BD1CB500220B4600921F
:1038900011460192FFF7E6FF1CBD1CB50021009107
:1038A0000B46012201911146FFF7DCFF1CBD4FF0D2
:1038B000A04202EB8000D0F8002722F44032C0F88A
:1038C0000027D0F8002742EA0141C0F800177047EE
:1038D0004FF0A04202EB8000D0F8002722F44032E3
:1038E000C0F80027D0F8002742EA0141C0F80017CD
:1038F000704701224FF0A043824011B1C3F8082560
:103900007047C3F80C25704718B5084B6C46014446
:103910001B68009306E000BF54F82030D3F8103540
:10392000401C08C28142F7D818BD00006868020038
:10393000034908B50844002101600068009008BDF3
:103940000060004002494058012800D00020704724
:10395000006000404058002800D00120704708B5A2
:10396000002242504058009008BDD0F8040308409F
:1039700000D0012070474058002800D00120704737
:1039800008B5002242504058009008BD70B5164658
:103990000D46002405E0285DFCF780FC0028FAD1E4
:1039A000641CB442F7D30D20FCF778FC0028FAD150
:1039B0000A20FCF773FC0028FAD170BD10B550B195
:1039C00003280CD10220FDF767FA002807D0BDE8D4
:1039D0001040FCF71DBBBDE8104001F00BBF10BD4F
:1039E00070B5384D044600886E8888B03B2839D0C1
:1039F0000DDC02283AD0102815D011281BD013282E
:103A000022D100231A46852130467FDF23E051284A
:103A100030D052281AD0552850D0562814D1A0881A
:103A2000132176DF17E00720FDF736FA08B1FCF71F
:103A3000EFFAA08807E00020FDF72EFA08B1FCF7A6
:103A4000E7FA4FF6FF70688008B070BD00231A4691
:103A500019463046A9DF0028F6D008B0BDE870400E
:103A6000FCF7D6BAA088132176DFF4E7A0880021FE
:103A700067DFF0E71022A11D04A8FBF7DDFC9DF82D
:103A800010100029E0D09DF81800042803D0062863
:103A900001D00528D8D102290ED001208DF80000D0
:103AA0004FF4C170ADF80400A0886946A8DF002873
:103AB000CAD0FCF7ADFAC7E70220EFE7A0881721CC
:103AC000ADDFC8E7282100200078002807D104488E
:103AD0003B21408876DF002801D0FCF799BA704777
:103AE00028210020F8B51E4D17460E4601466A6F84
:103AF0000020032A33D805F17804C6F1080C636C62
:103B000063452CD895F87000104400F00300C0EB1A
:103B1000C00005EB80001C22FBF78EFC686F401C88
:103B20006867DEB194F8440094F84010002308441C
:103B300000F0070004EBC00000900AE007EBC302AE
:103B40000098D2E90012C0E900126846FDF70CFBAC
:103B50005B1CB342F2D3606C304460640120F8BD5A
:103B6000C82C00200389CA1C1A4402814289511AB8
:103B7000C91E4181704700002DE9F04700F58055CE
:103B8000002700F10804022090460E460880DFF866
:103B9000489012E02046FEF78DFBD0B1A068D9F81E
:103BA0000420904201D9C9F804006088318804EBF0
:103BB00080040844C01C30800C34AC4202D220681F
:103BC000401CE7D1B8F1000F01D088F80070BDE8C3
:103BD000F0870127E9E700003022002008B5002126
:103BE000009101460223024A0248FDF7D1FF08BDB9
:103BF000A06802006022002008B500200090044860
:103C00000223044A01680448FDF7C2FF08BD000012
:103C10004022002098680200602200202DE9F05F19
:103C20000025374FDFF8DC80DFF8DC90DFF8DCB010
:103C30002C46AA462E46386800EB063002684245FC
:103C400005D1334A4168891830D001290DD00021AF
:103C50004FF4806250F821305B1C33D009EB041123
:103C600003200870641CA4B219E0BAF1000F09D057
:103C7000022209EB0411641C0A70DBF800304B606F
:103C80000A81A4B200220BF10401CBF80000FFF777
:103C900073FFBBF80400022830D008200543761CCF
:103CA000B6B2032EC7D3E8B2BDE8F09F09EB04110A
:103CB000002201F8042B01C18A1DFFF75DFF45F0CA
:103CC0000205CFE7491C9142C4D3DBF800205946D6
:103CD0005AB109EB041102220A7048600A480A81AD
:103CE00020304480641CA4B205E008600220ABF8D8
:103CF00004004FF0010A45F00105D0E70420CDE7AC
:103D000060220020DEC0ADDE882D00204022002091
:103D100002FEE10E70B5184D0E46044623CD86B066
:103D20008DE82300154DADF80420ADF802408DF864
:103D30000630A9782046FCF70BFE18B13046FEF796
:103D400003FC0FE00721304600F0BAF950B1052816
:103D500008D109218DF80C100490ADF80E4003A88D
:103D6000FDF74EFC002229782046FCF705FE684648
:103D7000FDF746FC06B070BD24680200C521002096
:103D8000F0B585B00746FCF7D7FD002814D068468B
:103D9000FCF78CFD00246D460BE000BF05EB4406EC
:103DA0003946B088FCF7D4FD10B1B08801F0FAFEB6
:103DB000641C0098A042F1D805B0F0BD70B5054D67
:103DC00006460024304655F824108847641C052C0C
:103DD000F8D370BDE06702003EB5104D002400BF6F
:103DE00004EB840005EB800002F06AFB641C082CE5
:103DF000F6D30124502008210094CDE9011009498F
:103E0000C200074B01F5207000F062FC08B10320EE
:103E10003EBD0348447000203EBD0000FC29002048
:103E2000982100206C27002000F030BA00F030BA52
:103E30002DE9FF410026044600960196029603965E
:103E40004088ADF8020020798DF8040037462179CA
:103E5000608802F00CFB21783F4D0A2947D2DFE849
:103E600001F005053319193537393F4468B1417CF4
:103E7000C9070AD002F034FB8DF8007020780128C1
:103E800000D000208DF808001AE001208DF8000015
:103E9000A06823E078B18168A26891420BD1417C8F
:103EA000CA0708D06A6821F00101521C41F00401E0
:103EB0006A6041741BE002208DF80000E068039006
:103EC0006846FFF77BFF12E003200BE0042002E0CE
:103ED000052007E006208DF80000E0680290EFE77B
:103EE000012607208DF80000EAE7E0680290686884
:103EF000002826D0194C002505EB850704EB870028
:103F0000417C4A0703D4C1F3400131421FD081787C
:103F100034F8270000F0E8F8C8B105EB85018628E1
:103F200034F82110ADF8021004EB870189788DF880
:103F3000041008D009218DF8001002906846FFF7A0
:103F40003DFFBDE8FF8108208DF80000F6E76D1CFD
:103F5000082DD1D3F5E7000098210020FC2900208E
:103F600000F04CBA002300F0C5B938B5054600246E
:103F7000204609E08178284600F0A2F810B1052813
:103F800000D003240098401C00906946284602F0A7
:103F900081FA0028EED134B9284600F033FA10B186
:103FA000072802D00324204638BD0724FBE7134628
:103FB000002200F0D3B900002DE9F0475FEA0308C2
:103FC00015460E46824604D0072E05D0082E17D17E
:103FD00002E00E20BDE8F08795B1082D10D85046BC
:103FE00000F01BFA60B14FF000093146504602F074
:103FF0003EFA041E25D0E068A84213D24F460AE0DC
:104000004FF00700E6E7207C3844C1B22B4800F0AF
:1040100093FB7F1CFFB2E068B842F4D8204602F060
:104020004FFA0EE017D9EFB207E0207C3844C1B256
:10403000224800F081FB7F1CFFB2E068B842F4D850
:104040004CB95746FF214FF6FF7002F010FA041EDC
:1040500005D00780A670207CFF2802D00CE011203C
:10406000B8E72946154800F005FB014620462174B3
:10407000FF2913D04FF00109E560217C0F4800F0C3
:1040800047FB02000DD0ABB23146404600F052FA79
:10409000B9F1000F10D0082E05D00DE002F010FA93
:1040A000DDE7032096E7B8F800006FF0050101EBAB
:1040B0008000D8F80410888000208BE7EC290020CD
:1040C00070B5002402F0D3F905000BD0686820B168
:1040D00000F0BCF9040000D00324284602F000FAE6
:1040E000204670BD052070BD7CB50D4606460729EB
:1040F00003D0082D01D007207CBD00200090019046
:104100008DF802502946304602F0B1F9040004D07F
:10411000607CC00703D000207CBD05207CBD217CD5
:10412000204800F0F5FA020022D029466846E368EC
:1041300000F094F9684602F088F904F10803694632
:104140003046626800F00AF90146627C164853075F
:1041500004D5930702D543685B1E436051B1112912
:104160000DD0862915D0072900D0032108467CBD33
:1041700003207CBD22F0060040F0010010E0416801
:10418000491C416022F0020040F0040060740021EC
:10419000ECE743685B1C436022F0040040F002003F
:1041A0006074E3E7EC290020982100207CB50D46DF
:1041B000072903D0082D01D007207CBD002602F07E
:1041C00056F9040002D0606810B11CE005207CBDE7
:1041D000217C0F4800F09CFA02004FF00000009094
:1041E00001908DF8025010D029466846E36800F02F
:1041F00035F9684602F029F9211D684600F00FF9EB
:104200000646092801D030467CBD03207CBD000055
:10421000EC29002001490968084700003C680200B9
:1042200030B587B01748FDF751FB10B1032007B038
:1042300030BDFDF795FA08B18620F8E700F0CCF91B
:10424000002002904CF2070403900EE0694604A897
:10425000FDF70AFB00988088A0F5404085B204A8CD
:10426000FDF7C4FA284600F073F902AA04A9204613
:10427000FDF7E1FA0028E9D0034901200870002089
:10428000D5E700001D160200CC21002000F086B901
:1042900000F08AB970B5054686B014460E4600F5A2
:1042A000404080B20E4A6946FDF7C5FA20B903A91D
:1042B0006846FDF7D9FA10B1002006B070BDA570B0
:1042C0000398408820800498606003988088A0F557
:1042D000404030806846FDF789FA0120EDE7000094
:1042E000D021002002480021416081607047000019
:1042F000CC210020F0B587B01D46144607460E4677
:10430000FF280AD8084600F005F930B103AA314663
:10431000384600F0E7F840B902E0072007B0F0BDEA
:1043200001A903A8FDF7A0FA08B10520F6E7A670D9
:1043300001984088208055B182002868904204D8B6
:1043400002996068FBF778F803E00420E6E702983A
:10435000606003A8FDF74AFA0020DFE77FB588B068
:104360001E460D460446FF282ED8A87800F0D2F845
:1043700050B3686806902888ADF81C0004F54040EA
:10438000ADF80000A87803AA00F54040ADF802009F
:1043900006A801900120ADF80800A978204600F099
:1043A000A1F8052812D00AA8FDF7BCFA694603A8AF
:1043B000FDF77AFAB8B107281ED008281AD00E28BF
:1043C00018D003200CB070BD0720FBE70A9828B175
:1043D0000AAA694603A8FDF772FAEBE7694603A843
:1043E000FDF769FAE6E71EB1314603A8FDF733FA97
:1043F0000020E7E71120E5E78620E3E74FF6FF70AE
:1044000000F0A6B810B5FF2801D9072010BD00F0B4
:10441000A5F800F027F8002010BD00F0F1B870B545
:1044200004460D46807800F075F858B1218828467A
:10443000FDF75EFA002804D0072805D0092800D02F
:10444000032070BD072070BD862070BD01B5684691
:10445000FDF768FA002800D0032008BD9BB200F0E9
:1044600069B80000F0B589B000264FF6FF770496D2
:104470003846059603E0204600F082F8204600F01A
:104480008DF80446B84208D004F5404080B204AA32
:1044900006A9FDF7D8F90A28EDD0114DA878002813
:1044A0001AD1BC4218D0012704F54040AF7080B249
:1044B000FDF730F9082811D000280DD0AE70092181
:1044C0008DF80010CDE90260FF21ADF802408DF8B3
:1044D00004106846FFF79EFE09B0F0BD6F70FBE761
:1044E000CC2100207CB5054616460C46084600F057
:1044F00011F80020009005F54045019004F5404476
:10450000A8B2A1B26B463246FDF78EF9002800D062
:1045100005207CBD07280BD0012809D0082807D02A
:10452000052805D0062803D0042801D000207047B4
:104530000120704710B503EB83034FF6FF7404EAC4
:1045400003138170DB1C99084260018010BD0000DC
:104550000149FCF715BE00009C2A002010B5044656
:10456000A0F57F40FF3807D004492046FCF708FE3D
:10457000A04201D1012010BD002010BDBC2A0020A6
:1045800010B50446044900F0A5FD03492046BDE8E6
:104590001040203100F09EBD9C2A00200149FEF70A
:1045A0008DBD0000BC2A002070B50A49FEF786FDCB
:1045B00004464FF6FF7507E000F02CF838B10549C6
:1045C0002046FEF77BFD0446AC42F5D170BD204687
:1045D00070BD00009C2A002010B508484021FAF761
:1045E00044FF4FF480742146044800F097F92146B7
:1045F0000248BDE81040203000F090B99C2A00200D
:10460000FF2803D80146024800F0B7B900207047E0
:104610009C2A0020FF2803D80146024800F0ADB9CB
:1046200000207047BC2A002010B50C46FDF7F8FCAE
:10463000FF2804D0024900EB400021F8204010BDC3
:10464000FC2600200449084490F93000082801DBCA
:104650000120704700207047702B00200449084457
:1046600090F93000082801D20120704700207047DF
:10467000702B00202DE9F0410F46060026D030684F
:1046800020B3706810B3FF2400251CE02946706831
:1046900000F04BF948B1FF2C00D12C46281B401CE0
:1046A000B8420ED12046BDE8F081FF2C06D108E0CB
:1046B0002146304600F040F8641CE4B2AC42F7D327
:1046C000FF246D1CEDB2B068A842DFD8FF20EAE7F6
:1046D0002DE9F0410400DDE90705069E16D0A9B1D9
:1046E000A3B100FB05F7974210D8C21DB6EBD20F5D
:1046F0000CD358B155B1E5602160C4E9013081B2F5
:10470000184600F00BF90020BDE8F0810720FBE718
:1047100070B504000D460DD0206858B1606848B1EE
:10472000FF2D07D000F029F920B1E168206805FBD2
:10473000010070BD002070BD70B504000D4611D0A1
:10474000206800280ED0606800280BD0FF2D09D00B
:1047500000F013F9002805D029466068BDE87040D4
:1047600000F017B970BD0000034A12780AB101F0D9
:1047700089B8082070470000A021002010B50178FA
:104780000F2916D2DFE801F01515150815151B15B0
:1047900016151B151B151D00418901F6FA71B1F59F
:1047A000005F06D140880121FFF7DEFF082800D016
:1047B00008B910BD0020BDE81040FBF729BC806897
:1047C000F6E7BDE8104000F09FB870B586B004462B
:1047D00014216846FAF749FE6088ADF80400FDF739
:1047E00007FEADF8020025780020082207210523E6
:1047F0000A2D29D2DFE805F005050C0E1017192B3C
:104800001D208DF809008DF800108DF808201BE0A0
:104810000D200BE00E2009E08DF809008DF8001046
:104820008DF8083010E00F2000E010208DF8000017
:104830000AE08DF8003007E006208DF80000A0683F
:104840000290A088ADF802006846FCF7BDFE06B0F5
:1048500070BD000010B50446007886B0D8B10128BC
:1048600017D10F49608801224979FCF785F8142196
:104870006846FAF7FAFD6088ADF802006088FDF737
:1048800077FEADF8040000208DF800006846FCF7C4
:104890009BFE06B010BDE08800F058F9F9E7000073
:1048A000A021002070B5FFF7BBFC48BBFFF794FACE
:1048B00030BB00F0BFFF18BB01F0B8F800BBFDF73C
:1048C00059FBE8B9FDF71AFCD0B9FDF7A7FDB8B957
:1048D0000C4C4FF6FF700025E0801820A560207179
:1048E0006071FCF713F82071182809D0FCF70EF856
:1048F0006071182804D0657001202070002070BD00
:10490000032070BDA021002003480078002801D0BA
:10491000FDF754BB70470000A0210020002803D001
:10492000C91DC908FAF7A1BD7047002809D001F0D8
:10493000070301229A40D2B200EBD1001146FEF7E4
:10494000FFB970472DE9F0410D46060013D0002451
:1049500001270EE004F0070007FA00F0C1B206EBF1
:10496000D400FEF7EDF910B12046BDE8F081641CDB
:10497000A4B2AC42EED32846F7E740B100EBD10039
:1049800001F00702007801219140084000D0012089
:104990007047F8B50400C1F3C70501F007014FF0F7
:1049A000010000FA01F0C6B20FD0605D30420CD0B9
:1049B00000208DF800006846FBF78EFC605DB04378
:1049C00060559DF80000FBF7ABFCF8BD10B5044640
:1049D0000748007800280AD02046FDF7B1FC2046A1
:1049E00000F01CFF2046BDE81040FDF7FFB910BDE8
:1049F000A0210020F0B58BB0044614216846FAF7D8
:104A000034FD6088ADF80400FDF7F2FCADF802005B
:104A1000237801200822072100264B4D4FF6FF770F
:104A20000A2B6CD2DFE803F00510263C444E6C8D57
:104A300085878DF8001021798DF808108DF80960B0
:104A400003968DF80A0079E08DF8001021798DF831
:104A500008108DF80960A16803918DF80A00A86814
:104A600000286BD0A168814268D1AE60BDF8040017
:104A7000E88013E08DF8002020798DF808008DF88B
:104A80000960A0680390E0680490A868B0B3A168CA
:104A9000814253D1AE60E868401EE86003964DE065
:104AA0008DF8001021798DF808108DF80900F5E7D0
:104AB0008DF8002021798DF808108DF80900A06884
:104AC00004903BE009208DF80000A878B0B138468A
:104AD000FFF7ACF9B84231D13846FFF7A5F9B84233
:104AE0002CD1AE70142105A8FAF7BFFC0B208DF86D
:104AF0001400ADF81870ADF8167016E01EE020E056
:104B00000A208DF80000A0680290A878B0B1AE70BD
:104B1000142105A8FAF7A9FC0C208DF81400ADF8B3
:104B20001870ADF81670A068079005A8FCF74CFD4A
:104B300004E0052000E006208DF800006846FCF740
:104B400043FD0BB0F0BD0000A0210020034909780F
:104B500009B1FDF7F9BC082070470000A021002032
:104B600070B50C48017829B1012181704FF6FF75AD
:104B7000284607E0082070BDFFF7E8FF08B10320D2
:104B800070BD2046FFF752F90446A842F4D1002038
:104B900070BD0000A0210020084A117821B1D17811
:104BA000032903D30420704708207047044B43F8BF
:104BB0002100491CD170002070470000A021002076
:104BC000DC2A00202DE9F04385B00446012714219A
:104BD0006846FAF74AFC6088ADF80200504E94F837
:104BE00000C0002507200322317973794FF00209B4
:104BF000BCF10D0F76D2DFE80CF0848F071A2D3E42
:104C0000484D57646A6C800001208DF800002079BF
:104C100008B1012200E00022012806D000256088AA
:104C2000FBF7AAFE60882A4610E00125F7E78DF819
:104C30000090207908B1012000E002208DF80800E2
:104C400060880122FBF798FE227960887179FBF772
:104C500093FE57E08DF8002060881946FBF778FE38
:104C600008B1012000E002208DF80800A0798DF83D
:104C70000C00A0883EE06088FBF76AFE00284BD15C
:104C80008DF800908DF808503CE08DF800208DF8EC
:104C90000850EBE78DF80000A1888DF80800ADF80A
:104CA00004108DF8095034E008218DF80010A18817
:104CB0008DF80800ADF804108DF80950A068049034
:104CC00027E006208DF80000606802901AE00520B9
:104CD00014E08DF8002060881946FBF739FE10B10A
:104CE000012001E00DE002208DF808008DF80C5045
:104CF00041F20110ADF80A0004E004208DF8000034
:104D000000E000276088FDF733FCADF80400002FB9
:104D100002D06846FCF758FC05B0BDE8F0830000FF
:104D2000A02100203EDF002801D0FBF771B97047B9
:104D300070B50C490446486E042811D00A6E02442E
:104D4000042A00D3121F401C486602EB420001EB0C
:104D5000C00005461821FAF788FB0120256070BDC8
:104D6000002070BD342C0020194830B4016E01EBD6
:104D7000410100EBC104406E002827D0207A0128B1
:104D800002D0022816D10FE0A18AE08A4FF4806297
:104D9000091A914200DA8AB2E168236901EB8001C5
:104DA00003EB800029DF01E0A08928DF112806D06D
