:020000040001F9
:10F00000284C002015F401001DF401001FF401003C
:10F0100021F4010023F4010025F4010000000000A8
:10F0200000000000000000000000000027F40100C4
:10F0300029F40100000000002BF401002DF4010070
:10F04000D1F701002FF4010021FB01004DF8010070
:10F050002FF401002FF4010079F501002FF40100D5
:10F060002FF401002FF401002FF401002FF4010010
:10F070002FF401002FF401002FF401002FF4010000
:10F080002FF4010029F801002FF401002FF40100F2
:10F090005DF801002FF4010061F801002FF4010078
:10F0A0002FF401002FF401002FF401002FF40100D0
:10F0B0002FF401002FF40100000000000000000008
:10F0C0002FF401002FF401002FF401002FF40100B0
:10F0D0002FF401002FF401002FF4010000000000C4
:10F0E0000000000000000000000000000000000020
:10F0F0000000000000000000000000000000000010
:10F1000000000000000000000000000000000000FF
:10F1100000000000000000000000000000000000EF
:10F40000DFF80CD000F086F800480047591E0200D3
:10F41000284C00200648804706480047FEE7FEE7E4
:10F42000FEE7FEE7FEE7FEE7FEE7FEE7FEE7FEE7B4
:10F4300085F8010001F4010000487047F44A020019
:10F4400040EA01039B0703D009E008C9121F08C066
:10F45000042AFAD203E011F8013B00F8013B521EE6
:10F46000F9D27047D2B201E000F8012B491EFBD25D
:10F4700070470022F6E710B513460A4604461946BF
:10F48000FFF7F0FF204610BD421C10F8011B0029B9
:10F49000FBD1801A704730B504460020034600E0D7
:10F4A0005B1C934203D2E05CCD5C401BF8D030BDC6
:10F4B0002DE9F05F0546002092469B4688460646A9
:10F4C000814640241BE0284641464746224600F03C
:10F4D00042F853465A46C01A914110D31146184675
:10F4E000224600F029F82D1A67EB01084F46224604
:10F4F0000120002100F020F817EB00094E41201EEA
:10F50000A4F10104DFDC484631462A464346BDE803
:10F51000F09F0000064C074D06E0E06840F0010354
:10F5200094E8070098471034AC42F6D3FFF76CFF1D
:10F53000484B0200684B0200202A04DB203A00FA04
:10F5400002F1002070479140C2F1200320FA03F33A
:10F55000194390407047202A04DB203A21FA02F038
:10F560000021704721FA02F3D040C2F120029140FD
:10F5700008431946704700002DE9F04700268CB07B
:10F58000DFF86091B0464FF4807501243746069647
:10F59000284603F00DFA38B1D9F80403204203D00D
:10F5A000284603F0FBF926432D1D64007F1CADB2F5
:10F5B000082FEDD34FF4BE74204603F0F9F948B19B
:10F5C000204603F0EBF946F0004606AA0121002090
:10F5D00003F0D0F9444D16F0FF0F15D00127002499
:10F5E00037420DD009EB8401D1F81005D1F8101580
:10F5F000C0F3042055F82420C1F3014102B1904723
:10F600007F00641C082CEBD3002E67DA4FF0FF302C
:10F61000CDE9088000263446281910F8507F90F96B
:10F62000000027F0C008401C44D009A9404602F061
:10F630008FFD58B34FEA9719404601F015FE55F873
:10F6400020701FB1B9F1030F03D00FE0B9F1030F20
:10F6500030D108A84FEAD80208F00703815C4FF0C8
:10F66000010C0CFA03FC41EA0C0181544FF0A0415B
:10F6700001EB8800D0F8000706A9C0F3014A404614
:10F6800002F066FD18B1BAF1020F03D012E0BAF130
:10F69000030F0FD1B9F1030F08D1BAF1020F1BD03C
:10F6A0000221404603F043F9761CF6B217B14946F1
:10F6B0004046B847641C042CAED3002E0ED06A46D8
:10F6C0000121002003F056F906990098884205D0E0
:10F6D0000690089809909DE70321E2E70CB0BDE889
:10F6E000F087000000600040BC2400207CB511A021
:10F6F000002500680223CDE9005001AA49210E48E7
:10F7000002F09EFF08B100F043FE0C4C6078002828
:10F71000FCD08DF804506570012301AA49210648E8
:10F72000009502F08DFF08B100F032FE60780028ED
:10F73000FCD07CBD01000000A0490200282100206F
:10F7400000F01F02012191404009800000F1E020FB
:10F75000C0F88012704700F01F020121914040095B
:10F76000800000F1E020C0F88011704700F01F0217
:10F77000012191404009800000F1E020C0F8001113
:10F78000704700F01F02012191404009800000F104
:10F79000E020C0F80011704700F01F0201219140E5
:10F7A0004009800000F1E020C0F8001270474907CE
:10F7B000090E002806DA00F00F0000F1E02080F8C2
:10F7C000141D704700F1E02080F80014704700001D
:10F7D0002DE9F0414FF48077384602F0C1FC012456
:10F7E000104EA50748B1384602F0C1FC0120C5F80B
:10F7F00008037470002001F04FFD4FF48277384603
:10F8000002F0AEFC00280BD0384602F0B0FC02201B
:10F81000C5F80803B470BDE8F041012001F03CBD1B
:10F82000BDE8F081A824002007480021C0F840115D
:10F83000C0F84411C0F84811C0F84C11C0F80011CC
:10F84000C0F8041104F0AABB0010014001490248AD
:10F8500002F08CB9342500200030004004F016BBC3
:10F86000074810B5406830B18047002807D0BDE890
:10F87000104000F08DBDBDE8104002F0FFB810BD93
:10F88000E8210020F0B598480023021D01780125E9
:10F89000101D4FF08056062907D11478240704D193
:10F8A0000478C4F30314032C02D0062904D00FE01B
:10F8B0008F4F8E4C7C670EE01478240708D10478B3
:10F8C000C4F30314032C06D0042C04D0052C02D05E
:10F8D000062907D00EE0D6F84442864FC4F34234DE
:10F8E0003C6002E01478240704D10478C4F30314C4
:10F8F000032C02D0062906D011E07F4C276827F0A0
:10F90000807727600EE01478240708D10478C4F3C8
:10F910000314032C06D0042C04D0052C02D0062995
:10F920000AD011E04FF08044C4F80C31C4F8103113
:10F93000704C241F236002E01478240704D104785B
:10F94000C4F30314032C02D0062905D00CE0694F40
:10F95000032464373C600AE01478240704D1047857
:10F96000C4F30314032C02D006290DD014E0634F16
:10F9700005243C60614C78342560604C0834236079
:10F980003F243F1D3C6002E01478240704D1047832
:10F99000C4F30314052C02D0062957D068E0584957
:10F9A0000968584A11605649091D0968121D1160FD
:10F9B000534908310968121D116051490C31096819
:10F9C000121D11604E4910310968121D11604C4919
:10F9D00014310968121D1160494918310968494AF2
:10F9E0002032116046491C310968121D11604449DA
:10F9F00020310968121D1160414924310968121D26
:10FA000011603F4928310968121D11603C492C31B1
:10FA10000968121D11603A4930310968394A40328B
:10FA20001160374934310968121D11603449383189
:10FA30000968121D116032493C310968121D1160BC
:10FA40002F4940310968121D116002E01178090741
:10FA50000ED10078C0F30310032803D0042801D08E
:10FA6000052805D1D6F85802274900F04F00086054
:10FA700021487438016841F470010160BFF34F8F71
:10FA8000BFF36F8F4FF01021D1F80002002803DB85
:10FA9000D1F80402002822DA1C4A15601C480468C8
:10FAA000002CFCD01524C1F800420568002DFCD0C4
:10FAB000C1F8044201680029FCD0136001680029E4
:10FAC000FCD0BFF34F8F0C48F0380168114A01F4A5
:10FAD000E06111430160BFF34F8F00BFFDE70F49A5
:10FAE0000D480860F0BD0000E00F00F00DF0ADBA69
:10FAF00000C007403C050040FCED00E0105600400F
:10FB00000404001020C50040E40E004004E501405C
:10FB100000E401400400FA050090D003FC2100201D
:10FB20000448017F04480029024901D004F03DBD8A
:10FB300004F0ACBC14250020002000400FB41CB51C
:10FB40000A46521ECDE9000207A9054B6A460698EF
:10FB500000F02AF8009A002111701CBC5DF814FB1B
:10FB60000B00020002E008C8121F08C1002AFAD1E7
:10FB700070477047002001E001C1121F002AFBD12D
:10FB8000704700000121202803DA81400548014028
:10FB900003E0402802DA2038814009B10120704793
:10FBA00000207047FC06FFBC2DE9FF4F8DB00F46CB
:10FBB0000546002606E025280BD0DDE90F12904708
:10FBC0006D1C761C28780028F5D111B03046BDE8B0
:10FBD000F08F0024A246A1460122EC4900E0044334
:10FBE00015F8013F203B02FA03F00842F7D12878CC
:10FBF0002A2810D06FF02F022878A0F130010929AF
:10FC000014D80AEB8A0102EB410144F0020400EB34
:10FC1000010A6D1CF0E701CF5FEA000A03D544F446
:10FC20000054CAF1000A44F002046D1C28782E2802
:10FC300017D115F8010F44F004042A280ED06FF0F4
:10FC40002F022878A0F1300109290AD809EB89018F
:10FC500002EB410100EB01096D1CF2E757F8049B30
:10FC60006D1C28786C280FD006DC4C2817D068282B
:10FC70000DD06A2814D104E0742810D07A280FD14E
:10FC80000DE044F400140AE044F4801401E044F46C
:10FC900040146978814202D104F580146D1C6D1CFA
:10FCA0002A786E2A1FD00CDC632A31D004DC002AAB
:10FCB0008BD0582A11D1A3E0642A68D0692A0CD1CC
:10FCC00065E0732A2ED004DC6F2A73D0702A04D129
:10FCD0009BE0752A6FD0782A6ED01046DDE90F12AE
:10FCE0009047761C50E1C4F30250022806D0032846
:10FCF00009D0042801CF09D0066045E101CFF117F2
:10FD0000C0E9006140E101CF06803DE106703BE1C2
:10FD100017F8040B8DF8000000208DF80100EB4669
:10FD2000012003E057F804BB4FF0FF3061074FF0AC
:10FD3000000102D40DE008F10101884649450FDABF
:10FD40008045F8DB1BF808100029F4D108E008F121
:10FD5000010188468142FADB1BF808100029F6D120
:10FD6000DDE90F23AAEB08008146214600F036F9B1
:10FD7000304400EB080604E0DDE90F121BF8010B2C
:10FD80009047B8F10108F7D221464846F7E00A212A
:10FD9000C4F302534FF0000B0891022B04D001CFA3
:10FDA000C117032B09D00AE0FF1D27F00707F7E86A
:10FDB000020108E032E01FE020E000B2C117042B8E
:10FDC00001D140B2C117031E71F1000307DA4FF0F1
:10FDD000000CD0EB0C006CEB01012D2302E023059D
:10FDE00004D52B238DF82430012303E0E30701D051
:10FDF0002023F7E7984658E00A2110E010210EE092
:10FE000010204FF0000B08900CE010214FF0000B79
:10FE100044F004044FF00809089103E008214FF072
:10FE2000000B0891C4F30253022B04D001CF002130
:10FE3000032B06D006E0FF1D27F00707F7E80201B5
:10FE400003E080B2042B00D1C0B24FF000082307BA
:10FE50002BD5702A07D0DDF820C08CF0100C5CEA9E
:10FE60000B0C05D00EE040238DF82430012308E070
:10FE700050EA010306D030238DF824308DF8252078
:10FE800002239846DDF820C08CF0080C5CEA0B0CCD
:10FE90000BD150EA010301D1630706D530238DF859
:10FEA00024304FF00108A9F10109582A04D038A2E2
:10FEB0000B9208AA0A920BE03AA2F9E75B46089A6D
:10FEC000FFF7F6FA0B9B9B5C0A9A521E0A9213707C
:10FED00050EA0102F2D10A98ADEB000000F1200BCC
:10FEE000600702D524F4803401E04FF00109D945C0
:10FEF00002DDA9EB0B0000E0002000EB0B01414408
:10FF00000890AAEB010AE00306D4DDE90F2321469D
:10FF1000504600F063F806444FF0000908E009A9D4
:10FF200011F80900DDE90F12904709F10109761C6B
:10FF3000C145F4DBE0030CD5DDE90F232146504633
:10FF400000F04CF8064404E0DDE90F123020904741
:10FF5000761C0899481E08900029F5DC08E00A98EC
:10FF60000A990078491C0A91DDE90F129047761C26
:10FF7000BBF10001ABF1010BF1DC21465046DDE99C
:10FF80000F2300F019F806446D1C1BE60928010038
:10FF900030313233343536373839616263646566FF
:10FFA00000000000303132333435363738394142C1
:10FFB00043444546000000002DE9F0410446002579
:10FFC0001E461746880404D405E039462020B04771
:10FFD0006D1C641EF9D52846BDE8F0812DE9F0417D
:10FFE000044600251E469046C80301D5302700E090
:10FFF0002027880404D505E041463846B0476D1CEB
:020000040002F8
:10000000641EF9D52846BDE8F0814A68002A06D06A
:100010000A68531C0B6010704868401E48607047A7
:1000200003F0DEBC2DE9FC47002517880646158045
:1000300090F82D001446894630B13A46214648468C
:1000400000F0EAFC050009D1B0784FF00C0A18B3B3
:100050002088C846001DB84202D95046BDE8FC873A
:10006000684679DF0028F9D12088032108F80010BC
:1000700020881921401C80B2208008F800102088B8
:10008000401C80B2208000EB0801BDF8000004F0A5
:1000900004FB218808442080F0780222C8B121881E
:1000A00096F9033001F1030C4846BC45D5D84254BB
:1000B00021884FF0010C491C89B2218000F801C051
:1000C0002188491C89B2218009F801302088401C10
:1000D00020807068B8B1218890F9003001F1030CDC
:1000E0004846BC45B9D8425421880A22491C89B2E5
:1000F000218042542188491C89B2218009F80130AD
:100100002088401C2080308950B1CDE900474B4603
:100110000622022106F1080004F05CFB05009DD1D7
:10012000308A50B1CDE900474B460722032106F142
:10013000100004F04FFB050090D1308B50B1CDE999
:1001400000474B461522142106F1180004F042FB2B
:10015000050083D1306A30B13B462246494601F062
:1001600005F90500DBD1706A30B13B4622464946AD
:1001700001F06EFF0500D2D196F82C0038B13B4655
:1001800022464946304603F0D1FC0500C7D13078FD
:1001900038B13B4622464946304601F08BFF050008
:1001A000BDD128465AE70000134A0021535C0BB129
:1001B000012203E0491C0629F8D300220F49012837
:1001C00006D0022809D003280CD0042812D10DE053
:1001D000487810B10AB101207047887810B10AB18F
:1001E00002207047C87808B103207047087908B129
:1001F00004207047002070476D210020B8230020A4
:1002000010B501220221002000F074FE08B1072879
:1002100010D107220221012000F06CFE08B107284E
:1002200008D100210A22084600F064FE08B1072820
:1002300000D1002010BD000030B5A7B03C2101A8BE
:10024000FFF717F902208DF8040000258DF80650FD
:1002500005208DF807003C2110A8FFF70AF90F4888
:1002600001241590ADF8504020211FA8FFF701F997
:10027000402023908DF87F408DF87C40B42024905E
:10028000074B1FAA10A9009501A800F0F9F9002852
:1002900001D000F07DF827B030BD00002E210020F5
:1002A00065300200022000F0CDBC000070B50024D3
:1002B000064D06E06868012110F8340002F058F895
:1002C000641C28788442F5D3002070BD882100206A
:1002D000F8B515460C460646052A01D20720F8BD9A
:1002E00002F02CF918B902F0FBF80028F7D11049F8
:1002F00000204E600C70C1E902500E4D08610DE007
:1003000006EBC4006968009181788DF801100078CF
:10031000094A694602F07EF80028E0D1641EE4B282
:10032000EED2BDE8F840054A0021024800F03CB892
:1003300088210020104A020029190200F11402004D
:100340000BA1012002F044FD02F09CFC02F09EFC97
:100350000028FBD1BFF34F8F0B4801680B4A01F413
:10036000E06111430160BFF34F8F00BFFDE7000064
:100370004150505F4552524F523A4552524F523AB5
:10038000466174616C0D0A000CED00E00400FA0592
:100390000EB500210091CDE901106A4644F201003A
:1003A000FFF7CEFF0EBD0000074B5B6823B12AB1FB
:1003B00020B10068037C1BB10820704707207047FC
:1003C0004174426100207047AC2100202DE9F047C4
:1003D000074698461446894690074FF0000526D1F7
:1003E0002CB303F0C7F9134E06F11000C6F80C80C9
:1003F0000570457080F802904460756035707570C6
:100400001420FFF79DF907211420FFF7D0F91420DD
:10041000FFF7ACF90848076007211120FFF7C7F97B
:100420000548001F0068B0600020BDE8F087072085
:10043000FBE700009C210020081501402DE9FC4746
:10044000DFF87890D9F8043073B368B3052902D285
:100450000720BDE8FC87436933B3437C012B25D0DB
:10046000002704460025884616468DF80050684649
:1004700000F038F801A804F095F9C8B10121017025
:100480000F4944600968C0E90218C0E904769DF884
:10049000040089F801009DF8000000F047F81420DE
:1004A000FFF77AF92846D4E70820D2E70F46D8E7C5
:1004B00004259DF8000000F039F8F3E7AC21002096
:1004C000041501400649496839B130B1416921B18B
:1004D00000210174022103F03DBD08207047000097
:1004E000AC21002030B5EFF3108172B60D4A94684C
:1004F000012324B10370002900D162B630BD93609E
:100500004FF0E023D3F88051074C25401560C3F825
:100510008041D3F8844154605A17C3F884210022E3
:100520000270E8E77C250020FC06FFBC0B498A68C6
:10053000002A11D000280FD1EFF3108072B60B689B
:100540004FF0E022C2F800314B68C2F804310022BB
:100550008A60002800D162B6704700007C25002028
:100560002DE9F041064608680C46411C4FF0A047B3
:100570004FF0010506D005FA00F1C7F8081520680C
:1005800002F0BAF96068411C02D0002102F0ABF918
:100590003079204901EB4010A169007F00283068C4
:1005A000C0F8241525D0607D227D31681043C1F844
:1005B0006C05D4E900123068C0F80C15C0F8142599
:1005C00024E0A068411C02D0002102F08CF9E06810
:1005D000411C05D08540C7F80855E06802F08CF949
:1005E000D4E902123068C0F80825C0F81015BDE83B
:1005F000F081607D217D32680843C2F86C05D4E942
:1006000000123068C0F81425C0F80C15207D0128B0
:10061000D7D0ECE714250020F0B50C4693B01F218D
:100620000726ADF80010ADF80410002750B1C178CE
:1006300049070DD56A4602A9FFF7F4FC002808D146
:1006400002AD02E00025ADF800706CB1E07810B1A9
:10065000304613B0F0BD01AA0AA92046FFF7E2FC1C
:100660000028F6D10AAA02E00022ADF80470BDF815
:100670000400C3B2BDF80000C1B2284672DFE8E74B
:100680002DE9F0471F46DDF8208013468946040017
:1006900042D0EBB3404D012000262870EE7020229E
:1006A00019463E48FEF7CCFEC5E904784FF6FF70C8
:1006B0002881AE613948AE83AE773C212030FEF709
:1006C000D8FE3648217820300170A1788170E17819
:1006D000C170617841703149D4E90423C1E90C2328
:1006E000D4E90223C1E90A23D4E90623C1E90E2390
:1006F000616AE1B100F13C0100F1480241628A60A7
:10070000636A1B880B80616A436A8988998000E06C
:1007100002E00021436A07E00E20BDE8F087656A29
:10072000AD686D5C5554491C9D888D42F7D8A16A0F
:10073000D9B11A4A9432A2F10C018A608162A36A8B
:100740009B888B80A16A836A098819800021836A4B
:1007500004E0A56AAD686D5C5554491C9D888D42C6
:10076000F7D894F82C1080F82C10216A49B10A4966
:100770000A310162226A52884A80216A026A098823
:100780001180616801B141604946BDE8F047034806
:100790002030FFF741BF000054210020B823002083
:1007A00010B50188144C102918D011291CD01B2910
:1007B00019D1007A002816D1E0780521401CB0FB41
:1007C000F1F201FB120000BF00F036F800280AD059
:1007D0006169002907D0BDE810400847C17B0129A5
:1007E00001D18088208110BD00216171808821891C
:1007F0008842F8D10120E7E75421002010B574DFCA
:100800000B4C01200B4960710020E0710620C8707C
:1008100000210848FFF700FF002807D1E07800F02A
:100820000BF810B1616901B18847002010BD0000CC
:1008300054210020D82300202DE9F0413D4C804672
:1008400086B0207848B184F8038004A800F034FF13
:100850000498012628B1667067E0082006B0BDE85C
:10086000F0810025A561344FA583A577787810B174
:10087000E078012806D0B87858B1E078012801D096
:10088000022806D1216919B126710820884700E0A5
:1008900025714046FFF788FCE070216939B10328D3
:1008A00001D0042803D1387808B1607990B1A571DE
:1008B00000950295019503958DF800508DF808502C
:1008C0001C48E1781830052925D2DFE801F030080E
:1008D000111D2100E571A67107208847E8E7A67081
:1008E00001908DF80060ADF80C50ADF80A5014E09E
:1008F0000221A17001908DF80060B889ADF80C005C
:100900003889ADF80A0008E0684603F053F902E0C0
:10091000684603F073F9E07818B1684673DF002881
:100920009CD1216909B1A0788847002096E7A5707D
:10093000F7E7000054210020B823002070B50546D9
:1009400001461C220F48FEF77BFD0F4C0026267047
:10095000286830B1016861604068A060201D7ADFBE
:1009600002E00948001D7BDF00280AD14FF6FF7026
:1009700060806670BDE87040044A00210448FFF7BB
:1009800013BD70BD8C240020742100204547020057
:10099000EC49020070B51E4C068800231B49E28911
:1009A000102E15D01B4D112E1CD0122E29D0502EDA
:1009B00017D130F8061F914213D14189022910D175
:1009C0000C3000F0F6F888B1BDE8704000F014BDBE
:1009D00084884C800469CC60406908614B70002AAF
:1009E000F2D070BD4FF6FF7048804B702868FFF75B
:1009F00069FD0028F5D0A1690029F2D0BDE870405A
:100A000008478268CA60C0680861DDE77421002079
:100A10008C240020EC4902007CB5054608880C4671
:100A20000930904201D90C207CBD68466DDF00285A
:100A3000FAD121880820685420881B21401C80B2EC
:100A4000208029542088401C80B220802844DDF872
:100A500001100160BDF8051081802088801D80B2E2
:100A600020809DF80010490800D0012129542088D9
:100A7000401C208000207CBD10B50446FFF78AFF93
:100A80002146074800F040F8204602F063FB20466C
:100A9000FFF786FE2046BDE8104000F05BB900007D
:100AA0003023002030B5174B0D4604000FCB85B026
:100AB0008DE80F0023D015B34FF6FF70A082286891
:100AC000A0610020A0752146684663DF002814D18C
:100AD00020788DF812000120ADF81000A21C04A9A6
:100AE000A0DF002809D12946204602F07AFE00281E
:100AF00003D12946204603F063FC05B030BD0E202B
:100B0000FBE70000F049020010B5002822D00029C0
:100B100020D00A88102A18D0112A18D0502A19D1AA
:100B200004468A1DC888238A1231984202D153890B
:100B3000022B10D0A38898420CD1A369002B09D0B6
:100B400052892046BDE810401847898801E04FF6D9
:100B5000FF71818210BD084600F02BF800B1012022
:100B6000A07510BD07B584B068B1828AA2F57F4335
:100B7000FF3B0AD0827D42B1BDF81820142A06D965
:100B8000072007B000BD0E20FBE70820F9E7002290
:100B900000920192029203928289039106A9029126
:100BA000ADF8002001218DF80210808A6946A6DF89
:100BB000E7E7007800F001007047000000B5134837
:100BC00089B00023806807905022114907A803F0DC
:100BD000DBF808B1FFF7DCFB6A460121002003F0D7
:100BE000BDF808B1FFF7D4FB1720ADF81000684638
:100BF00003F044F808B1FFF7CBFB064803F034F8E4
:100C0000002801D0FFF7C4FB09B000BD8C490200E9
:100C100050220020790A02000149085C7047000058
:100C2000BC4902000649095C4FF0A040D0F810050D
:100C3000C84010F0010000D0012080F00100704792
:100C4000BC49020007490B5C4FF0A041D1F80425D4
:100C50000120984020EA0203C1F808351040C1F88D
:100C60000C057047B84902000249085C012101F0F7
:100C700076BE0000B84902000249085C002101F07C
:100C80006EBE0000B84902000649095C4FF0A04062
:100C9000D0F80405C84010F0010000D0012080F019
:100CA00001007047B84902007CB50024084E254673
:100CB0000122305D009500231146019501F0D4FD1D
:100CC000641C042CF4D3BDE87C4000F003B80000A1
:100CD000B849020010B500242046FFF7C5FF641C88
:100CE000042CF9D310BD10B500242046FFF7C4FF33
:100CF000641C042CF9D310BD10B50246064B4FF00E
:100D0000FF3000215C5C944201D1084610BD491CB3
:100D10000429F7D310BD0000BC49020070B50C4E89
:100D20000C004FF0000530600BD0012000F0A4F85B
:100D300008B1022004E0002000F09EF800B10B2072
:100D40002070706810B9FFF75BFA0546284670BD41
:100D50004C21002010B51A4C0188606810290ED073
:100D600011292BD1401E606028D1FFF749FA0028D5
:100D700024D02168002921D0BDE810400847D0B90F
:100D800000210122084600F0B5F808B107280FD16C
:100D900007220221012000F0ADF808B1072807D191
:100DA00004220221002000F0A5F820B1072802D07B
:100DB000216801B188476068401C606010BD000078
:100DC0004C21002010B5002000F0C8F908B1062819
:100DD00006D1012000F0C2F908B1062800D1002098
:100DE00010BD00002DE9F0470D468146FFF784FF56
:100DF0000446042838D2DFF878801C481D4EA8F13C
:100E0000100735B3012D0ED0022D2DD104EB440077
:100E100030444578002D27D0F968002924D0284691
:100E2000BDE8F047084704EB4401755C0E44717857
:100E300059B179680E4A01EB810149000E3A806888
:100E4000FFF7FCFA08B987F80290B17808F80410A7
:100E5000E0E78068FFF736FB04EB4401314418F803
:100E600004008D78A842D5D0BDE8F087C0490200C3
:100E7000482100208C230020FFF7D4BE01461348F0
:100E800010B58088042907D0072910D00A291CD161
:100E9000BDE8104002F0D4BE132176DF04460CA159
:100EA000032001F095FF082C0FD0204607E0A0F5A5
:100EB0007F41FF3909D1FFF7A1FC082805D00028A0
:100EC00003D0BDE81040FFF763BA10BD2821002011
:100ED0004150503A494E464F3A0944697373636F23
:100EE0006E6E65637465645F206270735F457665DE
:100EF0006E74000070B50023042810D20D4D00EB75
:100F00004004012A02D101290CD00022094E00EB35
:100F10004000304461B1012906D0022906D00723E0
:100F2000184670BD0E30C2B22A55F9E74270F7E795
:100F30008270F5E78C230020044A01460020127AD3
:100F4000D20702D0084600F04FB870473821002081
:100F50002DE9F04106461F4800240F464160C0E9D4
:100F60000262B0071FD50025012211462846FFF76F
:100F7000C1FF6D1C0446042D02D2002CF4D012E0F7
:100F80008CB97A0804211448FFF7A2F904000AD1A9
:100F9000FFF78CF9040006D10F48104A0021001F0A
:100FA000FFF702FA0446F00701D0FFF77DFE74B99F
:100FB00009480B4A00210C38FFF7F6F9040006D166
:100FC0000548084A01210838FFF7EEF90446204693
:100FD000BDE8F08138210020CC490200FD1102005B
:100FE000E51C0200A50202002DE9F047594C054618
:100FF0000026607818B100206070FFF76BFE0120BA
:10100000554F4FF47A694FF4C87A4FF06408182DA1
:101010002CD2DFE805F0890C0C2C3A4751565A6166
:101020005A619B6969696969898C8F929B9B0020D1
:10103000FFF72AFE00284FF0000008D0FFF714FE4B
:10104000022D02D14FF4E16006E0484604E0FFF7CC
:1010500013FE022D2ED05046B0FBF8F125706068CB
:10106000414300223868FFF7E9F9064659E00020BD
:10107000FFF70AFE28B10020FFF7F6FD4FF4487095
:10108000EAE70020FFF7F8FD14E00020FFF7FCFD81
:1010900000284FF0000002D0FFF7E6FDD5E7FFF78C
:1010A000EBFDD8E70020FFF7EFFD0028E9D0002096
:1010B000FFF7DAFDC820CFE70020FFF7C3FD25705A
:1010C00007E000203FE025702BE060700120FFF773
:1010D000B9FD00226168C5E760700120FFF7B2FD2D
:1010E000606800EB8001BCE77868FFF7EBF9064623
:1010F000D5F1110000D01EB10220FFF7B5FD10E0C0
:1011000001280BD9C82110FB01F1B1FBF8F160688F
:10111000002241437868FFF791F906460220FFF765
:10112000ABFD3046BDE8F087FFF7D4FDCBE7FFF716
:10113000D1FDC6E7FFF7CEFD04E0FFF7CBFD0020B1
:10114000FFF79AFD0120FFF797FDBCE7FFF7CBFD06
:10115000B9E7000038210020C049020010B5FFF7B0
:101160005BFD032101F0D2FB002010BD002901DA54
:1011700000207047026811440160012070470000A0
:10118000F8B5461C00208DF800000D460124684685
:10119000FFF7A8F9114A10682860D2E90010956895
:1011A000081A2B1A701C5B1C98420FD963B10C48AB
:1011B0000C4B294000681B6802EB810163F39F2000
:1011C000C8601068401C1060002401E0881910609D
:1011D0009DF80000FFF7AAF92046F8BD0C28002072
:1011E0004C4A0200E4210020034803C8814201D197
:1011F00001207047002070470C2800200078022151
:10120000FFF7F0BD05494FF0FF32082841F82020D4
:1012100002D3084480F8482070470000BC24002016
:10122000F0B54FF0FF3512B10023082601E0082386
:101230000C260C4C05E000BF54F823707F1C04D032
:101240005B1CB342F8D32846F0BD26185DB286F881
:10125000305044F82310002AF5D1E11881F84800F5
:10126000F1E70000BC2400200249084490F9300056
:1012700070470000BC24002038B10549814204D8E1
:101280000449814201D901207047002070470000C5
:10129000002200201022002070B5084C050009D063
:1012A00010342168002907D0086820604968284662
:1012B0008847F6E70834F4E770BD0000A824002052
:1012C0002DE9F05F26484168F1B3DFF898B00E6869
:1012D0008146DBF8004087688078E11B21F07F457C
:1012E000ED1CB0B9DFF880804FF48030C8F84403BB
:1012F000C8F804031120FEF723FA1120FEF736FA8E
:101300004FF0010AC8F800A02F2000F07FFF89F8F5
:1013100002A0B54200D23546124BE8193C3320F00A
:101320007F401860DBF800105A46091B21F07F410E
:10133000001B20F07F40C91C81420FD91068186043
:101340002F2000F063FF00E004E0BDE8F05F112013
:10135000FEF722BABDE8F05F02F00CBABDE8F09FDC
:101360009C21002004150140001001402DE9F041AE
:1013700017880646B81D14460D46984202D90C201F
:10138000BDE8F0813188072206290AD34FF4486C62
:101390004FF6FF73614501D9994202D17088062842
:1013A00001D21046ECE7604501D99842F9D1994243
:1013B00003D0984201D08142F3D80520E855208817
:1013C0001221401C80B2208029542088401C80B209
:1013D00020804119308803F060F92188084480B2E8
:1013E00020804119708803F058F921880844208032
:1013F0000020C5E7FEF7CCBFF8B5134800F05EFC4F
:10140000114D0026114C0C3D30B16169B9B101207C
:101410008DF80000684611E0287820B1616971B14B
:101420008DF80060F6E7687858B1A1680848002296
:101430000068FFF703F810B1A16901B188472E7069
:10144000F8BD6168F2E70000802100208C240020B4
:10145000EC4902002DE9FF410C4618B1012004B00F
:10146000BDE8F08120790027DFF87C80012638B1C3
:1014700041F61D5501281ED0022829D00F20EEE785
:1014800002970397E0680190694601A802F0BEF850
:1014900068B102988188E18000882081029802F07A
:1014A00029F9BDF8002008EB02118E7300E00A2034
:1014B00002212171D3E70D4B6A460021A01D02F0E5
:1014C00061F838B1094908398F60CF600A28C6D160
:1014D0002846C4E7019802F00DF904498A8808EB10
:1014E00002118E73F2E70000DC260020C8210020E4
:1014F0002DE9F04100260125144C22E060682269A4
:1015000000EBC607387805FA00F1114217D08A437C
:10151000226100F0DBFF02463878E36805FA00F14B
:10152000194002FA00F3994209D17978012901D0D2
:10153000012100E0002151407A6802B19047761CF9
:10154000F6B220788642D9D3BDE8F0818821002008
:101550000E4910B50A784C780023A24212D0521CD2
:10156000D2B20A70022A00D10B70084A0B781832E6
:1015700052F8232002608868104420F07F40886081
:10158000012010BD0360002010BD00009C21002040
:1015900010B503780022072B06D2DFE803F005041C
:1015A000060C1C252B000A7010BD01220A7002894E
:1015B0008A81828814E002220A7002898A818288E4
:1015C000CA81C2688A60007C062802D000200874A4
:1015D00010BD0120FBE703220A70C2888A810289BC
:1015E000CA81C068886010BD04230B70C0888881E0
:1015F000CA8110BD0520087010BD000070B5064DF1
:101600000646002455F8241009B130468847641C6A
:10161000082CF7D370BD0000FC25002002490A7891
:1016200082430A7070470000C021002002490A78F6
:1016300002430A7070470000C0210020F8B506463A
:101640001A481F46154600780C46C00708D0304699
:10165000FFF712FE30B13CB1200507D00620F8BDDF
:101660000120F8BD0220F8BD0320F8BD3068A0427B
:1016700004D8716804EB0530884201D90520F8BD13
:101680007DB1684601F0B6FE68B100980221C0E95C
:1016900000670172210B8181058201F05DFF00204E
:1016A000F8BD0420F8BD0720F8BD0000BC210020D3
:1016B000084601F0F3BE000020B10349496E016005
:1016C0000020704703207047882500202DE9F8434B
:1016D00007461D48DDF820801E46007815460C465A
:1016E000C0070CD03846FFF7C7FD50B15DB154B10B
:1016F00045EA0400800708D00620BDE8F8830120F1
:10170000FBE70220F9E70320F7E73868A04204D896
:10171000786804EB8601884201D20520EDE77EB1AE
:10172000684601F067FE68B100980121C0E90078C1
:101730000172C0E90354868201F00EFF0020DCE74D
:101740000420DAE70720D8E7BC21002070B508B1F3
:10175000012070BD184C0025207B08B1257301E0E5
:1017600000F0A2F82078082824D2DFE800F0230453
:10177000080C1023141EBDE8704000F01FB8BDE82F
:10178000704000F07FB8BDE8704000F061B8BDE87F
:10179000704000F037B808496088203901EB00102C
:1017A0004068BDE8704001F0B1BD6560BDE87040C3
:1017B00001F0BABD0F2070BDFC2600201049F0B426
:1017C0008A1C00200346A1F120050C18A67A3EB120
:1017D000A37205EB0014A68916B9A47B012C0AD0CC
:1017E000401C80B20228F0D30B704B804B60F0BCE1
:1017F00041F61D5070471080F0BC00F043B8000067
:10180000FC26002010B50F4CA4F12001608801EBEC
:101810000010818961B1052020700B48022100234E
:1018200081800168BDE8104001220848FFF706BF2B
:101830004168002301220548FFF700FF04212170C1
:1018400010BD0000FC260020D02100200022002036
:1018500038B50A49084803240B684268898803EBB5
:101860008101538804700020DB1C00909BB2044867
:10187000FFF72CFF38BD0000FC260020D0210020FF
:1018800000220020074910B54888091D01F00CFF0F
:1018900018B1BDE81040FFF7DBBFBDE81040FFF70F
:1018A000B1BF0000FC260020F0B51D481D490125F0
:1018B000067802248B88A0F12002082E18D2DFE8D7
:1018C00006F00417171A212C2C160189491C0181D6
:1018D0000021418080F80C1002EB01131B7843B10A
:1018E00000234418491C89B2A3720229F4D305705D
:1018F000F0BD0123F5E742685288D21C1A448A8061
:101900000470F0BD46880D6802EB061256680E6042
:10191000556013818C80062100E007210170F0BD25
:10192000FC260020D02100202DE9F041124E074670
:101930000125BD403068FEF7C5FD00280DD10F4CD4
:101940002069284207D1384600F0C0FD0028E06831
:1019500005D0284304E0A8432061BDE8F081A843F6
:10196000E060206928432061A1683068BDE8F0414B
:101970000022FEF763BD0000104A0200882100200B
:101980008188A1F57F42FF3A03D0008808B1012089
:101990007047002070470000074842210022C068BD
:1019A0000170FF21417082706422C2700171417127
:1019B0001921817170470000282100202DE9F04194
:1019C0000F4628B10120FFF729FE0120BDE8F08174
:1019D000397961B10026264D01290DD0254C4FF0F3
:1019E00002080229206822D003293CD128E001F016
:1019F0009BFC0121397134E05FF0000005EB001120
:101A0000097802290CD0401C80B20228F6D30220AB
:101A1000FFF70CFE0120FFF701FE41F61D50D5E750
:101A200005EB0014606801F071FC267019E00146B6
:101A3000002301221048FFF701FEA4F804800FE004
:101A400001F064FC0A4922682031498805EB011144
:101A50004B6823604A60A2880A81A4F804800E7053
:101A60003E710028B2D00120FFF7D8FD0E20ADE76F
:101A7000DC260020D021002000220020F8B51C4CDC
:101A80002078002832D0E068002658B10025607820
:101A900000282BD1684648DF052805D030B1FEF775
:101AA00077FC0AE00125F2E7012606E0009800F045
:101AB0002FFC216909B1009888479DB960780028FA
:101AC00014D16088ADF800006946A06861DF052880
:101AD00003D020B1FEF75CFC04E0012502E0D4E96C
:101AE00002018847002ED2D0002DE6D0F8BD0000BC
:101AF000E821002070B50E460446007918494FF4DD
:101B0000A27501EB4010017F2068A1B14FF48871EC
:101B100001F0EBF94FF49071206801F0E6F94FF411
:101B20009271206801F0E1F92946206801F0DDF9A1
:101B30000C49206809E04FF48E7101F0C5F929467F
:101B4000206801F0C1F908492068C0F80413206832
:101B500000F00AFC3146BDE8704000F0E9BB00002F
:101B60001425002010030200800002002DE9FF4729
:101B70000D464FF492770446394601F095F94FF03F
:101B800002094FF001084FF4827640B139462046F1
:101B900001F08FF93146204601F086F9B0B3B24624
:101BA0003146204601F080F94FF0FF36002770B330
:101BB0005146204601F07DF905F10C0001AB07C844
:101BC00083E8070095F8230078B1287B01282DD001
:101BD000D4F84C05C0B28DF80600287B022828D026
:101BE000D4F84C05C0B28DF807004FF4B071204610
:101BF00001F05FF94FF4AE71204601F05AF995F803
:101C0000250080B395F8230068BB3CE000E013E0BA
:101C1000A868C4F80803C5F80890A868C4F80403C5
:101C2000C4F82080C4F81480BDE8FF87D4F83C05D0
:101C3000D0E7D4F83C05D5E74FF4A471204601F075
:101C400038F9287B80B14FF40070C4F80002801C82
:101C5000A860C4F80863A868C4F80403C4F808803E
:101C6000C4F82080E0E708E005F10C0001AB07C8EC
:101C700083E8070095F8250028B90020C4F8000281
:101C8000AF60C4F80863D4F8C404C4F8C40481077E
:101C900002D58DF8008006E0400702D58DF800904F
:101CA00001E08DF8007095F8250008B985F82470DA
:101CB000D5E9002168469047B6E70000054940880D
:101CC0000A88904204D34988884201D8012070478D
:101CD0000020704778210020800701D00020704745
:101CE000012070470348017AC90702D00078FFF746
:101CF0007BB97047382100202DE9F043264CA4F130
:101D000010092278D9F8048099F80350404694F8D5
:101D100001C0D9F8086031E002EB42036168521C4F
:101D200001EBC301A378D2B2934200D100220B7819
:101D3000022B02D0032B21D11DE003464F68194628
:101D400003E0B94203D00B46C969B9B1F9E7A9B1BB
:101D50008B4205D1C06918B9104E0125B560002627
:101D60000F68C969D96149B10B683B440B6005E054
:101D70000174C06900E000210028F9D19445CBD15D
:101D8000C9E9010689F80350404502D00120BDE8A9
:101D9000F0830020FBE70000AC2100200010014090
:101DA0002DE9F0412A4F0446002607F11005D7F827
:101DB00004803EE002D02046E4691DE0287869688E
:101DC00000EB4002401CC0B201EBC2012870AA78AF
:101DD000904200D12E700A784868012A2BD1027CEB
:101DE0004ABB8A684260CA6882600A69C2604969FF
:101DF0008161F97801B146604368BA68DFF854C080
:101E0000991A21F07F41614502D28268114406E0AF
:101E1000D11A826821F07F418A4202D9511A0160A9
:101E200000E006604660012186600174C66102F030
:101E300073F8002CBED1287869788842BED17968C1
:101E4000414502D00120BDE8F0810020FBE7000001
:101E50009C210020FFFF7F0088B00023624A0621FA
:101E60000320FEF7B3FA08B1FEF792FA5F4A0121A8
:101E70005F48FEF799FA08B1FEF78AFA5C485D4AB6
:101E80000021001DFEF790FA08B1FEF781FA5848CC
:101E900000224FF420310068FEF7D0FA02F048F932
:101EA000FDF724FC544A40F233310320FFF750F889
:101EB00008B1FEF76DFA69460020FEF72FFF08B162
:101EC000FEF766FA9DF8000002287DD05FF000045E
:101ED000FEF7EAFE002000F0D5FF08B1FEF758FA41
:101EE0001CB146A1042000F073FFFEF767FE9DF8C9
:101EF000080049A120F00F00401C20F0F000103035
:101F00008DF808000B2202A87CDF08B1FEF740FA2A
:101F1000002400941020ADF800003C200194ADF89E
:101F20000200ADF804404FF4C870ADF806006846F2
:101F30007ADF08B1FEF72CFA3A4800902A48694641
:101F40009030FEF7AFFD08B1FEF722FAFEF774F904
:101F50001C216846FDF78DFA4FF42040CDE9004082
:101F60004FF47030029003208DF80C002E4805903D
:101F70002E480690ADF80E408DF810406846FEF7EA
:101F8000DDFC08B1FEF704FAFFF706FD02F0CCFB1A
:101F900027A1032000F01CFF0320FEF74DFC051EC7
:101FA00004D0FEF7F5F92846FEF7F2F9274D3EDF9B
:101FB00008B1FEF7EDF900F069FE0028FBD1687862
:101FC0000028F4D06C7000E00CE0204A084801239F
:101FD000D21C4921143000F021FB0028E7D0FEF785
:101FE000D7F9E4E7012473E7A02200201D3E020098
:101FF0008C490200210002007D0E02004150503A3F
:1020000044454255473A426F6E647320657261736E
:102010006564210D0A0000004E6F726469635F55AC
:1020200041525400F92E0200DD320200F513020085
:102030004150503A494E464F3A0955415254205367
:10204000746172742121210D0A00000028210020F2
:1020500070B5144682880E4605462088111D01443D
:10206000921C994201D8FE2A01D90C2070BD521C45
:1020700032542088FF21401C80B2208031542088B7
:10208000401C80B220808119288802F006FB21883C
:10209000084480B22080AA8842B1A96841B1304486
:1020A000FDF7CEF92088A98808442080002070BD63
:1020B000072070BDF8B50E46017814460546012983
:1020C00001D1687830B12088821C9A422DD801292C
:1020D00002D006E00720F8BD69780144891C9942C6
:1020E00023D8181A801E87B2ADF800702188B01C62
:1020F000084469467DDF0028EDD12878022805D103
:10210000BDF80010B94201D809210AE008210128D0
:1021100005D16878B84202D8ADF8000001E0ADF80A
:102120000070BDF80000FE2801D90C20F8BD2288FF
:10213000401CB0542088401C80B22080315420883C
:10214000401C2080BDF80010084420800020F8BD0D
:10215000C20800F007030120895C984008407047DE
:1021600000F180400068002800D00120704708B5C9
:1021700000F18040002101600068009008BD00006F
:1021800000283ED01F49204A096800BF00BF00BF99
:1021900000BF00BF00BF00BF00BF91422FD000BFF3
:1021A00000BF00BF00BF00BF00BF00BF00BF00BF37
:1021B00000BF00BF00BF00BF00BF00BF00BF00BF27
:1021C00000BF00BF00BF00BF00BF00BF00BF00BF17
:1021D00000BF00BF00BF00BF00BF00BF00BF00BF07
:1021E00000BF00BF00BF00BF00BF00BF00BF00BFF7
:1021F00000BF00BF00BF00BF00BF00BF00BF401E48
:10220000C3D17047FC2100200024F40000283ED0F8
:102210001F49204A096800BF00BF00BF00BF00BFC0
:1022200000BF00BF00BF91422FD000BF00BF00BF62
:1022300000BF00BF00BF00BF00BF00BF00BF00BFA6
:1022400000BF00BF00BF00BF00BF00BF00BF00BF96
:1022500000BF00BF00BF00BF00BF00BF00BF00BF86
:1022600000BF00BF00BF00BF00BF00BF00BF00BF76
:1022700000BF00BF00BF00BF00BF00BF00BF00BF66
:1022800000BF00BF00BF00BF00BF401EC3D17047EA
:10229000FC2100200024F40070B50F4C00252078AC
:1022A00008B1852516E00021A16061602161E1602F
:1022B0004FF0E020D0F80001012610F0010F03D10B
:1022C0000721002000F034F801F090FD08B9034820
:1022D00006602670284670BDA8240020180500401E
:1022E00038B500208DF800006846FEF7FBF8074C73
:1022F000207808B9FFF7D0FFE068401CE0600120BB
:10230000A0709DF80000FEF711F938BDA824002048
:10231000002801D1FEF7C0BF704700F01F02012165
:1023200091404009800000F1E020C0F88011704722
:102330004907090E002806DA00F00F0202F1E02238
:1023400082F8141D03E000F1E02282F8001400F08E
:102350001F02012191404009800000F1E020C0F8F7
:102360008012C0F800117047000B40B270470000A7
:102370002DE9F0418846054600F0E8FF234E00288D
:1023800028461AD0FEF770FF304490F848008009C4
:10239000032802D001280ED007E04FF0A040D0F86B
:1023A0001005E84010F0010F05D003212846BDE8D4
:1023B000F04100F0BCBA0221F8E700F0D3FF00289A
:1023C00022D02846FEF750FF04464FF4807000EB01
:1023D00084000F4F81B207EB8400D0F8102542F043
:1023E0000102C0F81025084600F0D8FAB8F1000F35
:1023F0000AD02846FEF738FF56F82000002803D000
:102400000120A040C7F80403BDE8F081BC240020EF
:10241000006000402DE9FC41DFF8A480044608EB91
:102420000400002790F930001346C0170E46401CE8
:1024300001D0082741E0F27819462046FEF7F0FE69
:102440000546401C38D0B07850B14FF0A04000EBAA
:102450008400D0F8001721F00201C0F8001707E04F
:1024600000217378204600910A46019100F00EFA8F
:10247000F078C0B11348317800EB8500D0F8102512
:10248000114B1A40C0F810254FF4F8524FF4403366
:1024900002EA042203EA01410A43D0F810150A4374
:1024A000C0F8102509E008EB0500327810F8481F45
:1024B00041EA8211017000E004273846BDE8FC8142
:1024C000BC24002000600040FFE0FCFF4FF0A04172
:1024D000D1F81015C14011F0010000D00120704763
:1024E00070B5144D95F8540008B1082070BD002057
:1024F000411E2A18401CC0B282F830102028F8D3A0
:1025000000242046FEF77EFE641CE4B20C2CF8D3B7
:1025100007210620FFF70CFF4FF4BE7000F03EFAD3
:1025200005494FF00040C1F80403012085F854002C
:10253000002070BDBC24002000600040034890F8DB
:102540005400002800D0012070470000BC24002067
:102550000121B1EB507F01D101207047002070476D
:102560000121B1EB507F01D101207047002070475D
:102570000179064A01EB8101006802EBC1010622E4
:10258000C0F80025022081F8220070473425002081
:1025900070B506460D4600791F4900EB800001EB3F
:1025A000C00494F8220008B1082070BD0020C4E9DE
:1025B0000023A06084F8250084F82400A87B84F818
:1025C0002700687B10B1284601F044FD296840F2DD
:1025D0000C60890001F1A041C1F800076968890019
:1025E00001F1A041C1F80007D5E900123068C0F838
:1025F0000815C0F80C25A968C0F82415206828B172
:102600003068297B000B40B2FFF792FE012084F86E
:102610002200002070BD0000342500203EB5074D8B
:102620002C68AD6800948DF80110019202958DF828
:1026300002300022694600F015F83EBD044A02004F
:102640003EB500250095069C8DF8011002958DF889
:10265000023001920CB1202200E00022694600F015
:1026600001F83EBD30B40379064C03EB830304EB61
:10267000C304006813460A460146204630BC01F0F8
:102680006FBD0000342500202DE9F041054600799A
:10269000164F904607EB40140E46E07E10B108201E
:1026A000BDE8F081707F20772846FDF759FF5FEA8B
:1026B000080060603169216003D0317F2846FFF750
:1026C00019FA287907EB4010007F0028286801D00C
:1026D000082100E00421C0F800150020E0752076F4
:1026E000A0750121E176A076DAE70000142500202C
:1026F0002DE9F047054600793F4E904606EB401421
:102700000F46207F18B10846FFF722FF30B1284658
:1027100000F074F820B11120BDE8F0871020FBE72D
:1027200084F81680A7600027A78228794FF0010857
:1027300006EB40143E46207F0028286825D04FF441
:102740009079494600F0D1FB4FF4AC7A51462868A5
:1027500000F0CBFB2868A17DA268C0F84425C0F832
:1027600048152868C0F808806068F0B949462868AC
:1027700000F0B6FB80465146286800F0B1FB58EAED
:102780000001F3D058BBA7750FE04FF48E7A514685
:1027900000F09AFB2868C0F808802146286801F0FC
:1027A000FFFD61684FF4807089B13046B4E751464F
:1027B000286800F084FB10B9A08A4845F7D1A08AA8
:1027C000484505D02146286801F0EAFD00E0814631
:1027D000A08AA17D8842EAD3A08A484501D10F266C
:1027E000D1E75146286800F06AFB0028F9D0286834
:1027F000C0F80C80C7E700001425002000790449C8
:1028000001EB4010807D002800D0012070470000BF
:102810001425002070B5044600791149002601EB0B
:10282000401520682A7FC0F80065686888B1207963
:1028300001EB4010007F0028206801D0094901E029
:1028400008498C39C0F808132068FFF78DFDFFF7A1
:1028500064FD204600F092FDEE766E6070BD0000D3
:10286000142500201003020070B541EA4201DDE9A1
:1028700004564FF0A04441EA830141EA052104EBEC
:10288000800041EA0641C0F8001770BD70B541EA0A
:102890004201DDE904564FF0A04441EA830141EAD8
:1028A000052104EB800041EA0641C0F8001770BD25
:1028B00070B541EA4201DDE904564FF0A04441EA17
:1028C000830141EA052104EB800041EA0641C0F89A
:1028D000001770BD1CB5002100910B46012201912B
:1028E000FFF7E6FF1CBD1CB500220B460092114607
:1028F0000192FFF7DDFF1CBD1CB5002100910B46C6
:10290000012201911146FFF7D3FF1CBD4FF0A042F9
:1029100002EB8000D0F8002722F44032C0F80027F4
:10292000D0F8002742EA0141C0F8001770474FF085
:10293000A04202EB8000D0F8002722F44032C0F819
:102940000027D0F8002742EA0141C0F8001770477D
:102950004FF0A04201218140C2F8081570470122C2
:102960004FF0A043824011B1C3F808257047C3F867
:102970000C25704718B5084B6C4601441B68009342
:1029800006E000BF54F82030D3F81035401C08C2D0
:102990008142F7D818BD0000004A0200034908B57B
:1029A0000844002101600068009008BD00600040FC
:1029B00002494058012800D00020704700600040C4
:1029C00000487047392A020030B5184C054689B0D6
:1029D000207828B16078854202D1002009B030BD4E
:1029E000202213496846FCF72BFD00208DF81400C7
:1029F00006200090082001900520039007200290F7
:102A00004FF0EB7006900948001DFFF703FF0DB172
:102A1000002200E0074A05486946001DFFF734FE22
:102A20000028DBD1012020706570D6E7D821002076
:102A30002C4A02007D4402002DE9F04FC1B00D0088
:102A40004FF0000140914D984B991C46174601EB01
:102A5000000B01D00A2000E00020804601F04AF877
:102A600000287CD16E46BCB9409840AA311828464F
:102A700001F0D6FA002872D03846FCF705FDC228CE
:102A800000D9C220054640982A4630443946FCF712
:102A9000D7FC4098284440904FF0200A409901EB21
:102AA000080231320DEB01050DEB0206002002E0B9
:102AB00005F801AB401C4045FAD300275C4508D31C
:102AC00005F801AB05F801AB05F801AB06F801AB61
:102AD0002DE04B98844202D24A98005D02E0211A10
:102AE0004C98405C2B46814602460121880022FA20
:102AF00000F000F00F00092801D9373000E0303035
:102B0000C1F1010C491E03F80C00EFD29D1C05F821
:102B100001ABFCF791FC016811F8090010F03E0FC1
:102B200001D0484600E02E2006F8010B641C7F1CF3
:102B3000102FC3D30D2030700A20707085F800A0CC
:102B40004099684641444331409100F0D9FF30B18B
:102B500000F0D0FF18B9002040905C459ED341B0F2
:102B60002046BDE8F08F2DE9F043C7B000251C4694
:102B7000904689464E9F459500F0BCFF00287AD1CB
:102B8000459805AE311845AA484601F049FA002893
:102B900035D0072F27D2DFE807F004121B35424F4C
:102BA0005D004046FCF770FC054645982918FF2952
:102BB00019D830442A464146FCF742FC13E04598B8
:102BC0002368C0F5807130444246FCF7B7FF09E046
:102BD0006068009045982368C0F580713044424693
:102BE000FCF7ACFF0546294645A8FEF7BFFA459914
:102BF00078B3B1F5807F3ED805A800F081FF47B0DB
:102C0000BDE8F083D4E90101CDE9000145982368CE
:102C1000C0F5807130444246FCF790FFE2E7201D8A
:102C200007C88DE8070045982368C0F580713044D7
:102C30004246FCF783FFD5E7201D0FC88DE80F0043
:102C400045982368C0F5807130444246FCF776FF12
:102C5000C8E710E004F1080001AD0FC885E80F00D7
:102C60006068009045982368C0F580713044424602
:102C7000FCF764FFB6E70020C1E70000004870479A
:102C8000672B02000120FFF79FBE00002DE9F04FE7
:102C900087B0FEF7A9FA18B1002007B0BDE8F08FA1
:102CA000454ED6E9014704EA070006EB8000A1463D
:102CB000641CC5680CE000BFC5F3891000EB95509B
:102CC000044404EA070006EB8000A146C568641CC2
:102CD000A807F1D005F003004FF0000B022805D043
:102CE000AA0A01A8C5F38313002153E004EA0700F0
:102CF00006EB800004F1010A0AEA0704C268381BE7
:102D000080004FEA9558001DC5F38913804521D9ED
:102D100029490C3138B106EB840400F0FF0CA8EB14
:102D200000000C3404E00C46002108F0FF0C0846BB
:102D3000C0B2CDE90210CDE9004CD6F81444C5F379
:102D4000C2005946A047404511D108F103080AEBDB
:102D500098042AE0002106EB84000C300090CDE9B5
:102D600001810391C5F3C200D6F81444EAE760F389
:102D70008F1509EA070006EB8000C56016E000BF6A
:102D800004EA070C06EB8C0C491CDCF80CC040F87C
:102D900004CB641C9942F3D3C5F3C2000093D6F868
:102DA000105401AB5946A84700B17460FEF71CFAF5
:102DB00080F0010071E700000C280020034AFF2387
:102DC000936000231360536000F054B80C28002077
:102DD0002DE9F8430F4F88460446002569462846EA
:102DE000BE68FEF7CDF9002812D00B4800214068DC
:102DF00061F38200009964F3C50001EA060265F3FD
:102E0000891007EB820268F39F20491CD060009173
:102E1000BDE8F8830C2800204C4A02002DE9F84355
:102E2000124D884604460127914669463846AE68E9
:102E3000FEF7A6F9002817D00D480021806861F33D
:102E40008200009964F3C50001EA060267F3891065
:102E500005EB820268F39F20491CD060009131404D
:102E600005EB8101C1F80C90BDE8F8830C28002027
:102E70004C4A0200024A02F5826203C27047000017
:102E80000C28002070B506460020FFF79DFD0400C9
:102E900008D1FFF795FD0546FFF7F0FE32462946BB
:102EA000FFF78CFF204670BD4058002800D001205D
:102EB000704708B5002242504058009008BD405865
:102EC000002800D00120704708B500224250405829
:102ED000009008BDD0F80403084000D001207047DE
:102EE0004058002800D00120704708B50022425009
:102EF0004058009008BD000070B5234D0C4649783D
:102F0000E8684170E178C17021790171A07810B151
:102F1000012803D008E000F017FD05E01B484068D9
:102F2000FDF7D0FA00202870E968E078CA7890426E
:102F300004D0FF2802D0C87001F0F6FB227814A15B
:102F40000320FFF76BFF627817A10320FFF766FFEE
:102F5000A2781EA10320FFF761FFE27823A10320DE
:102F6000FFF75CFF227928A10320FFF757FF627962
:102F70002DA10320FFF752FFA279BDE8704032A1D6
:102F80000320FFF74BBF0000282100208C490200DE
:102F90004150503A494E464F3A09547970653A09C2
:102FA00009090925630A0D004150503A494E464F20
:102FB0003A0941646472657373207265636965766A
:102FC00065643A090925640A0D0000004150503A31
:102FD000494E464F3A0961636B20726563696576B5
:102FE00065643A09090925640A0D00004150503A08
:102FF000494E464F3A0973746174653A09090909E3
:1030000025640A0D000000004150503A494E464FD9
:103010003A0957616E7465642074656D703A0909E8
:103020000925640A0D0000004150503A494E464FB0
:103030003A0943757272656E745F74656D703A0912
:10304000090925640A0D00004150503A494E464F87
:103050003A097072696F726974793A0909092564CD
:103060000A0A0D0010B509282FD2DFE800F0140578
:103070002E0B2E181E2E280014A10320FFF7A8FEE9
:10308000052000E00220FDF757FF00281DD0BDE815
:103090001040FDF77DB9BDE8104000F0D1BD13A18F
:1030A0000320FFF795FE11A104E01AA10320FFF70A
:1030B0008FFE18A10320FFF78BFE0320E3E7BDE896
:1030C00010401EA10320FFF783BE10BD4150503AAF
:1030D000494E464F3A424C455F4144565F4556542F
:1030E0005F44495245435445440D0A004150503A0B
:1030F000494E464F3A424C455F4144565F4556540F
:103100005F464153545F57484954454C4953540D09
:103110000A0000004150503A494E464F3A424C4551
:103120005F4144565F4556545F534C4F575F574875
:103130004954454C4953540D0A0000004150503A3F
:10314000494E464F3A414444525F7265717565730A
:10315000740A0D00F0B54A4D0446011D0088012691
:10316000AF8889B03B2859D02FDC112839D00FDC2B
:10317000022857D010283DD142A10320FFF728FE96
:103180000720FDF7D9FE08B1FDF702F9A08830E06D
:10319000132831D01D282DD1A87800282AD04248E4
:1031A00011F8043F02785208B2EB530F22D10622E5
:1031B000401C491CFCF76FF900281BD109B03BA14A
:1031C000BDE8F0400320FFF703BE51282ED052285F
:1031D00018D0552850D056280CD1A088132176DF5E
:1031E00015E00020FDF7A8FE08B1FDF7D1F84FF675
:1031F000FF70A88009B0F0BD00231A46852138462B
:103200007FDF04E000231A4619463846A9DF00286C
:10321000F0D009B0BDE8F040FDF7BAB8A08813219E
:1032200076DFF4E7A088002167DFF0E71022A11D18
:1032300004A8FCF705F99DF810100029DAD09DF8D4
:103240001800042803D0062801D00528D2D102296D
:103250000ED08DF8006000BF4FF4C170ADF80400CF
:10326000A0886946A8DF0028C4D0FDF791F8C1E71F
:1032700002208DF80000EFE7A0881721ADDFC6E738
:10328000282100204150503A494E464F3A09636F79
:103290006E6E65637465642067617020636F6E6E27
:1032A000200A0D2000000000984902004150503AC9
:1032B000494E464F3A41646472657373206D617480
:1032C00063682073656E6420636F6E6E6563745F00
:1032D000726571756573742E0D0A00000078002800
:1032E00007D104483B21808876DF002801D0FDF714
:1032F0004FB87047282100200389CA1C1A44028154
:103300004289511AC91E41817047000008B5002149
:10331000009101460223024A0248FEF7D7F908BD90
:10332000244A02000022002008B500200090044832
:103330000223044A01680448FEF7C8F908BD0000EA
:10334000D02100201C4A0200002200200449084429
:1033500090F93000082801DB0120704700207047F9
:10336000BC2400200449084490F93000082801D208
:103370000120704700207047BC24002070B5034630
:1033800000791B4901EB40101968027F4FF0FF30B4
:10339000002AD1F80C25D1F81465D1F80855D1F8D8
:1033A000104504D0C1F80C05C1F8140503E0C1F8BC
:1033B0001405C1F80C051968C1F80805C1F8100515
:1033C000501C02D01046FFF785FA701C02D0304620
:1033D000FFF780FA601C02D02046FFF77BFA681CDA
:1033E00004D02846BDE87040FFF774BA70BD0000F5
:1033F0001425002070B50C490446486E042811D0ED
:103400000A6E0244042A00D3121F401C486602EBD5
:10341000420001EBC00005461821FCF72AF8012004
:10342000256070BD002070BD88250020194830B48B
:10343000016E01EB410100EBC104406E002827D072
:10344000207A012802D0022816D10FE0A18AE08A52
:103450004FF48062091A914200DA8AB2E168236966
:1034600001EB800103EB800029DF01E0A08928DF68
:10347000112806D000280BD0204630BC092100F0CE
:1034800013BB0549087820F0020040F004000870E2
:1034900030BC704788250020BC210020F0B52D4CA1
:1034A000002785B0216F41F61D56C1EBC10104EB29
:1034B00081052978072919D2DFE801F018040808E6
:1034C0000C0C10002946FEF779FA09E0294601F0B4
:1034D000E9F905E02946FDF7BDFF01E0FEF736F901
:1034E000002831D0B04202D1019710E00F200190A6
:1034F0002878022801D0032809D11648AA7D7830FF
:10350000016C11440164AA7D416C891A41646946C9
:103510002846FEF73DF86846FEF770F8206F1C213C
:10352000C0EBC00004EB8000FBF7A3FF606F68B145
:1035300094F87010491C01F00301401EC4E91C10EE
:1035400004D00020FFF7AAFF05B0F0BD0420FEF76D
:1035500065F8F9E71C2600200549087810F0060FE9
:1035600004D140F002000870FFF760BF7047000010
:10357000BC2100204FF08050D0F80C01800200F1F7
:10358000005070472DE9F04707461E481C46154677
:1035900000780E46800702D40220BDE8F08765B1AE
:1035A0005CB1DFF864804FF00009A088022827D2C0
:1035B00008EB00100078F8B916E00520EDE7206868
:1035C0001FB181883A8891420ED11EB1018832889C
:1035D000914209D180682860206868600A482030DC
:1035E000008928810020D8E7A088214600F05CF8F7
:1035F0000028E4D1C4F80090A088401CA080D4E743
:103600000A20CAE7C0210020DC260020F8B50546C4
:103610004068234F0C46002638B322490A6882428C
:1036200023D84968814220D3FEF756FBE8B12889A8
:103630003989884219D1D5E900018A68904214D1AC
:103640000020A7F1200300BF03EB001252688A425A
:1036500005D202F580528A4201D9208011E0401C37
:1036600080B20228F0D30020F8BD268000960AE040
:10367000009829688068884205D100986860388978
:1036800028810120F8BD2088694600F00DF8002847
:10369000EED12088401C80B220800228E6D3E2E7E9
:1036A000FC2600200022002070B50E460A68104952
:1036B00001EB00151AB1508802EB80040CE06C6835
:1036C00008340AE02046FEF75BF910B101203460AF
:1036D00070BD608804EB80040C34686800F580508D
:1036E000A04202D92068401CECD1002070BD00002F
:1036F000DC26002008B50021009101460123044A80
:103700000448FDF7E3FF002800D00E2008BD0000AC
:10371000184A02000022002038B50446134800254C
:10372000426C42B1036C00EBC3055B1C03F0070362
:10373000521EC0E9103200200090A08AAB8801EB35
:1037400080010B482A68FDF7C1FFA18AAA881144AD
:10375000A182A17D491E11F0FF01A17501D10121B6
:103760002174002800D00E2038BD000094260020CF
:103770000022002070B5012670044FF0E0210025E2
:10378000C1F88001084C4010C4F84803C4F808038D
:1037900066602F20FEF73AFDA660044C2F20A5603E
:1037A000FEF734FDA57070BD001001409C21002083
:1037B00070B50546C87D0C4600284FF48471284634
:1037C0000AD0FFF781FBD5F81805627EE1688854BE
:1037D000607E401C607670BDFFF776FBD5F818055B
:1037E00070BD30B58FB00024054607949DF81C00CD
:1037F0001C2120F00F00401C20F0F00010308DF84C
:103800001C009DF81D0020F00F00401C20F0F0006F
:1038100010308DF81D009DF81E0020F00600801C61
:103820008DF81E006846FBF724FE9DF80000019409
:1038300040F010008DF8000007A8CDE90440039483
:10384000069428788DF83A000320ADF838000D94DE
:103850009DF83400142120F00F00401C20F0F000EF
:1038600010308DF834009DF8350020F00F00401C1A
:1038700020F0F00010308DF835009DF8360020F073
:103880000600801C20F0180040F001008DF8360082
:1038900008A8FBF7EEFD0EA808900DA809900120DE
:1038A000ADF828001420ADF82A40ADF82C00688847
:1038B00005F10C0308AA6946A2DF0FB030BD1FB5A1
:1038C00001238DF800308DF808100192D0E9001224
:1038D000684690471FBD000010B50446FCF752F93A
:1038E00040B1002C09DA04F00F0000F1E02090F85C
:1038F000140D06E042F2010010BD04F1E02090F842
:1039000000044109082914D299B1012911D00429D0
:103910000FD005290DD00B480122816861B16109E2
:1039200050F8213004F01F04A240134340F8213026
:1039300005E042F2020010BD2046FBF722FF002006
:1039400010BD00007C2500201CB515480722C0686A
:1039500001788DF8001041788DF8011001218DF863
:103960000210C1788DF8031001798DF804104179A7
:103970008DF8051080798DF8060069460948FDF735
:10398000F1F8020005D008A10320FFF747FA002054
:103990001CBD0DA10320FFF71BFA01201CBD000078
:1039A00028210020302300204150503A494E464FF4
:1039B0003A0961636B206665696C656420746F20E9
:1039C00073656E64206E0D004150503A494E464F6B
:1039D0003A0961636B2073656E74200A0D00000064
:1039E0001CB51A4CE16808788DF8000048788DF80D
:1039F000010000208DF80200C8788DF803000879D6
:103A00008DF8040048798DF8050088798DF8060056
:103A1000207838B9072269460D48FDF7A3F8024619
:103A2000012020702AB10BA10320FFF7F7F9002035
:103A30001CBD14A10320FFF7CBF91A4800224FF454
:103A400020414068FCF7FAFC01201CBD2821002021
:103A5000302300204150503A494E464F3A09736591
:103A60006E64696E67206E6F7420636F6D706C6535
:103A700074652C206572726F723A202569200A0DD8
:103A8000000000004150503A494E464F3A097365D4
:103A90006E64696E6720636F6D706C657465200A73
:103AA0000D0000008C4902001FB500220092019217
:103AB00002920392037A012B02D0022B13D107E06A
:103AC0008DF8002002690292828AADF80C200AE08B
:103AD00001228DF800208289C389D21AADF808200E
:103AE0008289ADF80A2042680192006882686846BF
:103AF00090471FBD0148FEF781BE0000DC21002079
:103B000070B50D460A46014601240648FBF798FCAD
:103B1000EAB204490448FEF7EBFD00B10024204658
:103B200070BD00000C270020DC2100202DE9F041B1
:103B30000746806A14468846C8B3002531E000BFB6
:103B4000B96A05EB450001EB8006B088801CFE28B1
:103B500002D90C20BDE8F0812288401C08F8020040
:103B600020881622401C80B2208008F8002020887F
:103B7000401C80B2208000EB0801308800F08DFDF1
:103B80002188084480B22080B28842B1B16871B106
:103B90004044FBF755FC2088B188084420806D1C08
:103BA000EDB297F82C00A842CAD80020D2E7FFE770
:103BB0000720CFE710B50F490F4C0A8A42818A8A45
:103BC0008281097891B1617981B9E17971B102217C
:103BD0000172084904202031C870064800212030B5
:103BE000FCF71AFD002804D1052000E00320A07096
:103BF000002010BDB82300205421002010B50E492C
:103C00000E4C0A8B42818A8B82810A78042182B110
:103C1000627972B9E27962B10222027206482030FA
:103C2000C1700021FCF7F8FC002804D10620A07028
:103C300000E0A170002010BDB82300205421002016
:103C400010B50020FDF778F908B1FCF7A1FBFDF7EE
:103C5000B9F808B1FCF79CFB32DF002803D0BDE8BF
:103C60001040FCF795BB10BD18B10349C860002097
:103C700070470E2070470000E82100201CB5044664
:103C8000114801900246009010A10420FFF7C6F8E9
:103C90006946204660DF0446DDE9002082420AD002
:103CA00016490220FFF7BAF8FFF764FC0099421AA0
:103CB00013A1022003E024B122461EA10120FFF738
:103CC000ADF820461CBD0000282100205344483A8E
:103CD00044454255473A73645F626C655F656E6147
:103CE000626C653A2052414D207374617274206198
:103CF0007420307825780D0A00000000044B020083
:103D00005344483A5741524E494E473A52414D204A
:103D100073697A652073686F756C642062652061D1
:103D2000646A757374656420746F20307825782018
:103D30000D0A00005344483A4552524F523A7364B8
:103D40005F626C655F656E61626C653A2065727278
:103D50006F7220307825780D0A00000070B50E468D
:103D6000054614461C211046FBF783FB01202080EA
:103D70000021A16121752672657205B1A072002033
:103D800070BDFCF7DDBA00002DE9F041074619B11E
:103D900088074FF0000402D00720BDE8F081114DE4
:103DA0004FF0E0200126A9606A806B60D0F8000126
:103DB00010F0010F03D034460020FBF7CCFC0A4979
:103DC000384610DF070005D014B10020FBF7D9FCFE
:103DD0003846E2E72E70FEF783FABDE8F041162080
:103DE000FFF77ABDE8210020833D020001480078FA
:103DF00070470000E82100200748C0680179427937
:103E0000914202D9C078642802D00220FCF72CBF6E
:103E10000220FCF731BF00002821002010B5094C1A
:103E2000E0684078FF2805D107A10320FEF7D0FF06
:103E3000FFF7D6FDE278BDE810400BA10320FEF7A6
:103E4000EDBF0000282100204150503A494E464F16
:103E50003A0957686174206973206D792061646440
:103E600072203F200D0A00004150503A494E464F03
:103E70003A09726561645F73656E736F725F646146
:103E800074613A202569200D0A0000002DE9F84FE1
:103E9000204C00256846D4E901B6FDF759FB804661
:103EA000FDF72AFF0746A946B8F1000F25D00023E9
:103EB000009ACC46606819E007680146974202D92B
:103EC000BA1A026014E0C1F800C0D1F80C80D21B0D
:103ED000C8693B448A46B8F1000F07D0F71827F0AD
:103EE0007F47C1E90178CAF81C500D460028E3D18C
:103EF00060602846FDF754FF04E02846FDF750FFB8
:103F000000B917B15846FDF7DBF984F80390BDE816
:103F1000F88F00009C2100200D4B10B5596831B17D
:103F200002680C68A24204D8A21A0A60C1615860F3
:103F300010BD0B4603E00B46C969121B21B10C688A
:103F40009442F8D3A41A0C600260C161D86110BD1C
:103F50009C2100207CB5064600240D468DF80040CB
:103F60006846FCF7BFFA01A800F01CFC70B10570B0
:103F7000094946609DF8040048709DF80000FCF770
:103F8000D5FA1420FBF708FC20467CBD04249DF8DC
:103F90000000FCF7CBFAF7E7AC2100202DE9F04157
:103FA0001D4D6C68002C35D01C4800270068A9689E
:103FB000B846401A20F07F462068B04215D8224605
:103FC000361A0744E469107C68B182F81080EB6807
:103FD00033B1D2E90501984728B1FCF7D9F902E0DD
:103FE000D2E905108847002CE6D12978687881420B
:103FF00006D1401CC0B26870022801D185F801804A
:1040000005486978183040F82170BDE8F041142067
:10401000FBF7C2BBBDE8F0819C21002004150140E4
:1040200010B5144602004FF001000CD0084613688A
:1040300006A24FF48071FBF781FD01462046BDE8E2
:104040001040FDF793B80021216010BD5B2530388A
:10405000645D00002DE9F041044640F20C602168E7
:10406000890001F1A041C1F800076168890001F1F0
:10407000A041C1F800072068FEF76AFC6068FEF7FF
:1040800067FC216840F20D60890001F1A041C1F890
:1040900000076168890001F1A041C1F80007042010
:1040A000FEF76EF800274FF0A04601252179D6F8DB
:1040B0001005C84010F0010F02D0002F1DD010E0F5
:1040C000217805FA01F0C6F80C050420FEF758F82F
:1040D0002068FEF73DFC0420FEF752F87F1C092FF4
:1040E000E4DB20798540C6F80C550420FEF748F83B
:1040F0006068BDE8F041FEF72BBCBDE8F081000030
:1041000010B5017800290FD10079084C012809D198
:10411000E168E0784A79824204D0487100F0C2FA3E
:10412000FFF76AFE0120607010BD0000282100200A
:104130001FB5094B0FCB8DE80F0007480023074A36
:1041400069460838FEF724FA08B1FCF721F902485D
:104150000838FEF70DFA1FBDA84902000141020010
:104160002DE9F05F06461F4615460C464FF0000A43
:104170004FF0080B4FF482795068FEF7F1F90028F0
:104180007ED04FF0FF30C4F8080396F8240028B121
:10419000B068C4F804031120BDE8F09F780703D489
:1041A000F80601D4012000E0002086F8240095E8FC
:1041B000070006F10C0383E80700C7F3001086F838
:1041C00025006878C4F888054FF482712046FEF710
:1041D00070FE4FF492712046FEF76BFEF8074FF029
:1041E000010800D04046C4F85005B80701D5404644
:1041F00000E00020C4F84005287800286CD0012891
:104200007DD002284ED0032814D04FF0070A38077B
:1042100004D42878032801D044F80B8030680028A3
:104220006ED0780702D54FF40070B060B068C4F863
:104230000403B0E0A868FEF793F908B34FF4807068
:10424000C4F80002A9786868C4F84405C4F84815A1
:104250004FF4A8712046FEF72CFE4FF4B0712046B3
:10426000FEF727FE4FF4A4712046FEF722FEC4F8A5
:104270002080C4F8088000BF4FF4A871204600E0F9
:1042800028E0FEF711FE0028F6D04FF4A871204672
:10429000FEF70FFEE878A968C4F84415C4F848058D
:1042A0003E4815E0A8786968C4F84415C4F8480584
:1042B000A868FEF755F968B1E878A968C4F834151C
:1042C000C4F838054FF48450C4F8000240F20220CC
:1042D000B0609CE710205FE7A8786968C4F84415CF
:1042E000C4F84805B8060FD54FF48070C4F8000232
:1042F0002A48B0604FF4A4794946204601E00CE01A
:104300001BE0FEF7D6FD05E04FF40070C4F8000294
:10431000801CB060C4F8208079E7A8786968C4F888
:104320003415C4F838054FF48050C4F8000240F248
:104330000220B0604FF0000BECE745464FF4827767
:104340004FF492780BE041462046FEF7ADFD30B1C8
:1043500041462046FEF7ADFD25626561B9464946F6
:104360002046FEF7A1FD0028EDD0D4F8C404C4F81F
:10437000C404002186F8241068B10321C20701D0CB
:104380004FF40241820701D548F20121400701D5CF
:1043900048F202218A465046FEE600000002040070
:1043A00070B50C4605464FF48E71FEF78DFDA18A5F
:1043B000A068415CA08A401CA082C5F81C1570BD95
:1043C00030B58FB005461C216846FBF752F8002433
:1043D0009DF80000019440F00C008DF8000003945B
:1043E00004940594069428788DF836000220ADF8E0
:1043F00034000C949DF83000142120F00F00401C74
:1044000020F0F00010308DF830009DF8310020F0E1
:104410000F00401C20F0F00010308DF831009DF8A6
:10442000320020F00600801C20F0180040F001004F
:104430008DF8320007A8FBF71CF80DA807900CA810
:1044400008900120ADF824001420ADF82640ADF806
:10445000280068882B1D07AA6946A2DF0FB030BD6F
:104460001FB500228DF800208DF808108168019199
:104470008275D0E90012684690471FBD0078012878
:1044800001D1014988707047D82100202DE9FF47EC
:104490000C4605464FF40071FEF71CFD01274FF452
:1044A0000178002618B34FF4927949462846FEF762
:1044B00006FDE0B149462846FEF706FDC5F808832B
:1044C000A07E00B96F6002208DF80000D5F880044E
:1044D000C5F880040390E07D8DF80800E068019045
:1044E000E6752676D4E900126846904727E0042155
:1044F0002846FEF7EFFC10B34FF484712846FEF710
:10450000DEFCE0B121462846FFF752F9E07D617EEE
:10451000884214D1207E38B1617EE268E07520695E
:10452000E0602676667607E0A07E00B96F60C5F889
:104530000883E675617EE2682046FFF7C0F94FF414
:104540008E7841462846FEF7BAFC88B1A08AA17D44
:10455000884204D221462846FFF722FF08E0414660
:104560002846FEF7B1FCA17D11B12046FFF778FF88
:104570004FF4A27841462846FEF7A1FC002812D04D
:1045800041462846FEF7A0FCA07E00B12F60E07DEA
:10459000002808D0E675617EE26804B02046BDE8D8
:1045A000F047FFF78CB9BDE8FF872DE9FF410C46C6
:1045B0004FF4927705463946FEF792FC0026C0B1CB
:1045C00039462846FEF791FC02208DF80000D5F808
:1045D0008004C5F880040390D5F83C058DF80800E8
:1045E000E0680190E6752676D4E9001268469047A7
:1045F00024E04FF4887739462846FEF771FCE8B18D
:1046000039462846FEF771FCD5F83C05C1B2E07D7D
:10461000884213D1207E60B1E268D5F8000220F014
:104620002000C5F80002207EE0752069E060267653
:1046300001E0E675E2682046FFF741F94FF4A27702
:1046400039462846FEF74CFC68B139462846FEF745
:104650004CFCE07D38B1E675D5F83C05E268C1B2A6
:104660002046FFF72CF94FF4907631462846FEF7A6
:1046700037FC00280FD031462846FEF736FCA07DD7
:10468000002808D0D5F84C0504B0C1B22046BDE8DA
:10469000F041FFF7E5BEBDE8FF810870000A4870F1
:1046A0000220704770B50E4C1925E06841790279F7
:1046B000807991420BD2511A022908DD192803D0C2
:1046C000FFF78EF907A107E0E068857170BD0F283C
:1046D000FAD0FFF785F90BA10320FEF779FBF3E78A
:1046E000282100204150503A494E464F3A094E6524
:1046F00077207072696F726974793A204C4F570D48
:104700000A0000004150503A494E464F3A094E6562
:1047100077207072696F726974793A204E4F524DEA
:10472000414C0D0A000000000548C068C0786428AC
:104730004FF0020001D0FCF797BAFCF79DBA0000D9
:104740002821002038B515494888A0F57F42FF3A56
:1047500023D04A78124C521CD2B24A70237B934227
:104760000AD3091D75DF002817D0A169002914D0CC
:1047700001B0BDE83040084700254D70217C29B1CB
:104780003B2176DF10B1A16901B188476169002939
:1047900003D08DF800506846884738BD742100204A
:1047A0008C2400200A4A10B553789478591CC9B259
:1047B0008C4200D1002114788C4201D1002010BD20
:1047C0000170506803EB430100EBC10010BD000015
:1047D000AC2100202DE9FC411646DDE90854CDE965
:1047E00000541F468046022200F00CF8002807D132
:1047F000CDE900543B4610223146404600F002F815
:10480000BDE8FC812DE9FC5F0026DDE90C4B9946F3
:1048100092468E4680462788354630E0D8F8040018
:10482000002200EB850069460068019001A865DF61
:10483000002830D19DF8000050451FD10EB1002155
:1048400000E00221228808441118594522D846B9AF
:10485000521C90B2208009F800E02088401C208083
:104860000126218801A801EB0902694665DF0028BD
:1048700011D120889DF80010084420806D1CB8F8E4
:104880000000A842CADC56B12088C01B401E80B27E
:10489000FF2802D90C20BDE8FC9F09F80700002082
:1048A000F9E700002DE9F8430D46498A354A02EB45
:1048B000011730B1E9883846FEF71EFD0120BDE83A
:1048C000F88339897868002400EB81062D48297C1B
:1048D000EC384FF00E08072951D2DFE801F00D2E19
:1048E000192804404D004460A969016025486946C3
:1048F000EC38FEF78BFE48B1314601232A1D2248D1
:104900000094FCF7E3FE0221297423E00A20D6E795
:10491000012305F10C0206F108011B480094FCF785
:10492000D5FEA97D09B1032213E0012211E0314631
:104930002846FEF7F1FE044617E0012305F10802C0
:10494000311D11480094FCF7C1FE2978032904D0D9
:1049500006222A7470B1444608E00522F9E740684F
:10496000FEF7C8FE0446062028741CB1E9883846C4
:10497000FEF7C2FC2046A2E741F61D54F6E70F24DD
:10498000F4E70000DC260020002200201022002096
:1049900030220020010000070240B837649C4A0022
:1049A00000300040000100001B0000001A00000061
:1049B0000000980102000000111213140D0E0F10D8
:1049C0004C2300206C230020982300200D000300BE
:1049D000E50D02000E000300E50D02000F000300CC
:1049E000E50D020010000300E50D02006C2400201C
:1049F0009ECADC240EE5A9E093F3A3B50000406E47
:104A00000000005001000000000000000000000055
:104A10005C250020030000000000FFFFDEC0ADDECB
:104A2000FF011EF1DEC0ADDEFE011EF1FFFFFFFF44
:104A3000FFFFFFFFFFFFFFFFFFFFFFFF0000000082
:104A4000000000000000D60107010000290000005E
:104A50000100000001000000010000000100000052
:104A60000100000001000000010000000200000041
:104A70000040404040404040404041414141414071
:104A80004040404040404040404040404040404026
:104A900040050202020202020202020202020202B5
:104AA00002202020202020202020200202020202BA
:104AB0000202909090909090101010101010101012
:104AC000101010101010101010101010020202021E
:104AD0000202888888888888080808080808080862
:104AE000080808080808080808080808020202025E
:104AF00040000000714A02004F766572666C6F7765
:104B00000D0A00005344483A5741524E494E473A25
:104B100073645F626C655F656E61626C653A2052BA
:104B2000414D2073746172742073686F756C6420DA
:104B300062652061646A757374656420746F2030E7
:104B40007825780D0A000000684B0200282100201B
:104B5000E800000064FB0100504C0200102200201D
:104B6000182A000074FB010000000100FFFF010093
:104B70000200000000000000000000000000000033
:104B80000000000000000000000000000000000025
:104B90000000000000000000000000000000000015
:104BA0000000000000000000000000000000000005
:104BB00000000000000000000000000000000000F5
:104BC00000000000000000000000000000000000E5
:104BD00000000000000000000000000000000000D5
:104BE00000000000000000000000000000000000C5
:104BF00000000000000000000000000000000000B5
:104C000000000000000000000000000000000000A4
:104C10000000000000000000000000000020004034
:104C200000000000F84A0200000000000000000040
:104C30000000000000000000000000000090D00311
:104C40000000000000000000B116020003FF000099
:040000050001F40101
:00000001FF
