:020000040001F9
:10F00000084C002015F401001DF401001FF401005C
:10F0100021F4010023F4010025F4010000000000A8
:10F0200000000000000000000000000027F40100C4
:10F0300029F40100000000002BF401002DF4010070
:10F04000D1F701002FF4010021FB01004DF8010070
:10F050002FF401002FF4010079F501002FF40100D5
:10F060002FF401002FF401002FF401002FF4010010
:10F070002FF401002FF401002FF401002FF4010000
:10F080002FF4010029F801002FF401002FF40100F2
:10F090005DF801002FF4010061F801002FF4010078
:10F0A0002FF401002FF401002FF401002FF40100D0
:10F0B0002FF401002FF40100000000000000000008
:10F0C0002FF401002FF401002FF401002FF40100B0
:10F0D0002FF401002FF401002FF4010000000000C4
:10F0E0000000000000000000000000000000000020
:10F0F0000000000000000000000000000000000010
:10F1000000000000000000000000000000000000FF
:10F1100000000000000000000000000000000000EF
:10F40000DFF80CD000F086F800480047551E0200D7
:10F41000084C00200648804706480047FEE7FEE704
:10F42000FEE7FEE7FEE7FEE7FEE7FEE7FEE7FEE7B4
:10F4300085F8010001F401000048704748490200C6
:10F4400040EA01039B0703D009E008C9121F08C066
:10F45000042AFAD203E011F8013B00F8013B521EE6
:10F46000F9D27047D2B201E000F8012B491EFBD25D
:10F4700070470022F6E710B513460A4604461946BF
:10F48000FFF7F0FF204610BD421C10F8011B0029B9
:10F49000FBD1801A704730B504460020034600E0D7
:10F4A0005B1C934203D2E05CCD5C401BF8D030BDC6
:10F4B0002DE9F05F0546002092469B4688460646A9
:10F4C000814640241BE0284641464746224600F03C
:10F4D00042F853465A46C01A914110D31146184675
:10F4E000224600F029F82D1A67EB01084F46224604
:10F4F0000120002100F020F817EB00094E41201EEA
:10F50000A4F10104DFDC484631462A464346BDE803
:10F51000F09F0000064C074D06E0E06840F0010354
:10F5200094E8070098471034AC42F6D3FFF76CFF1D
:10F530009C490200BC490200202A04DB203A00FA60
:10F5400002F1002070479140C2F1200320FA03F33A
:10F55000194390407047202A04DB203A21FA02F038
:10F560000021704721FA02F3D040C2F120029140FD
:10F5700008431946704700002DE9F04700268CB07B
:10F58000DFF86091B0464FF4807501243746069647
:10F59000284603F009FA38B1D9F80403204203D011
:10F5A000284603F0F7F926432D1D64007F1CADB2F9
:10F5B000082FEDD34FF4BE74204603F0F5F948B19F
:10F5C000204603F0E7F946F0004606AA0121002094
:10F5D00003F0CCF9444D16F0FF0F15D0012700249D
:10F5E00037420DD009EB8401D1F81005D1F8101580
:10F5F000C0F3042055F82420C1F3014102B1904723
:10F600007F00641C082CEBD3002E67DA4FF0FF302C
:10F61000CDE9088000263446281910F8507F90F96B
:10F62000000027F0C008401C44D009A9404602F061
:10F630008BFD58B34FEA9719404601F015FE55F877
:10F6400020701FB1B9F1030F03D00FE0B9F1030F20
:10F6500030D108A84FEAD80208F00703815C4FF0C8
:10F66000010C0CFA03FC41EA0C0181544FF0A0415B
:10F6700001EB8800D0F8000706A9C0F3014A404614
:10F6800002F062FD18B1BAF1020F03D012E0BAF134
:10F69000030F0FD1B9F1030F08D1BAF1020F1BD03C
:10F6A0000221404603F03FF9761CF6B217B14946F5
:10F6B0004046B847641C042CAED3002E0ED06A46D8
:10F6C0000121002003F052F906990098884205D0E4
:10F6D0000690089809909DE70321E2E70CB0BDE889
:10F6E000F087000000600040A02400207CB511A03D
:10F6F000002500680223CDE9005001AA49210E48E7
:10F7000002F09AFF08B100F041FE0C4C607800282E
:10F71000FCD08DF804506570012301AA49210648E8
:10F72000009502F089FF08B100F030FE60780028F3
:10F73000FCD07CBD01000000F4470200282100201D
:10F7400000F01F02012191404009800000F1E020FB
:10F75000C0F88012704700F01F020121914040095B
:10F76000800000F1E020C0F88011704700F01F0217
:10F77000012191404009800000F1E020C0F8001113
:10F78000704700F01F02012191404009800000F104
:10F79000E020C0F80011704700F01F0201219140E5
:10F7A0004009800000F1E020C0F8001270474907CE
:10F7B000090E002806DA00F00F0000F1E02080F8C2
:10F7C000141D704700F1E02080F80014704700001D
:10F7D0002DE9F0414FF48077384602F0BDFC01245A
:10F7E000104EA50748B1384602F0BDFC0120C5F80F
:10F7F00008037470002001F04FFD4FF48277384603
:10F8000002F0AAFC00280BD0384602F0ACFC022023
:10F81000C5F80803B470BDE8F041012001F03CBD1B
:10F82000BDE8F0818C24002007480021C0F8401179
:10F83000C0F84411C0F84811C0F84C11C0F80011CC
:10F84000C0F8041104F02EBB001001400149024829
:10F8500002F08AB9182500200030004004F09ABA5E
:10F86000074810B5406830B18047002807D0BDE890
:10F87000104000F08BBDBDE8104002F0FDB810BD97
:10F88000EC210020F0B598480023021D01780125E5
:10F89000101D4FF08056062907D11478240704D193
:10F8A0000478C4F30314032C02D0062904D00FE01B
:10F8B0008F4F8E4C7C670EE01478240708D10478B3
:10F8C000C4F30314032C06D0042C04D0052C02D05E
:10F8D000062907D00EE0D6F84442864FC4F34234DE
:10F8E0003C6002E01478240704D10478C4F30314C4
:10F8F000032C02D0062906D011E07F4C276827F0A0
:10F90000807727600EE01478240708D10478C4F3C8
:10F910000314032C06D0042C04D0052C02D0062995
:10F920000AD011E04FF08044C4F80C31C4F8103113
:10F93000704C241F236002E01478240704D104785B
:10F94000C4F30314032C02D0062905D00CE0694F40
:10F95000032464373C600AE01478240704D1047857
:10F96000C4F30314032C02D006290DD014E0634F16
:10F9700005243C60614C78342560604C0834236079
:10F980003F243F1D3C6002E01478240704D1047832
:10F99000C4F30314052C02D0062957D068E0584957
:10F9A0000968584A11605649091D0968121D1160FD
:10F9B000534908310968121D116051490C31096819
:10F9C000121D11604E4910310968121D11604C4919
:10F9D00014310968121D1160494918310968494AF2
:10F9E0002032116046491C310968121D11604449DA
:10F9F00020310968121D1160414924310968121D26
:10FA000011603F4928310968121D11603C492C31B1
:10FA10000968121D11603A4930310968394A40328B
:10FA20001160374934310968121D11603449383189
:10FA30000968121D116032493C310968121D1160BC
:10FA40002F4940310968121D116002E01178090741
:10FA50000ED10078C0F30310032803D0042801D08E
:10FA6000052805D1D6F85802274900F04F00086054
:10FA700021487438016841F470010160BFF34F8F71
:10FA8000BFF36F8F4FF01021D1F80002002803DB85
:10FA9000D1F80402002822DA1C4A15601C480468C8
:10FAA000002CFCD01524C1F800420568002DFCD0C4
:10FAB000C1F8044201680029FCD0136001680029E4
:10FAC000FCD0BFF34F8F0C48F0380168114A01F4A5
:10FAD000E06111430160BFF34F8F00BFFDE70F49A5
:10FAE0000D480860F0BD0000E00F00F00DF0ADBA69
:10FAF00000C007403C050040FCED00E0105600400F
:10FB00000404001020C50040E40E004004E501405C
:10FB100000E401400400FA050090D0030022002018
:10FB20000448017F04480029024901D004F0B9BC0F
:10FB300004F028BCF8240020002000400FB41CB5BD
:10FB40000A46521ECDE9000207A9054B6A460698EF
:10FB500000F02AF8009A002111701CBC5DF814FB1B
:10FB60000B00020002E008C8121F08C1002AFAD1E7
:10FB700070477047002001E001C1121F002AFBD12D
:10FB8000704700000121202803DA81400548014028
:10FB900003E0402802DA2038814009B10120704793
:10FBA00000207047FC06FFBC2DE9FF4F8DB00F46CB
:10FBB0000546002606E025280BD0DDE90F12904708
:10FBC0006D1C761C28780028F5D111B03046BDE8B0
:10FBD000F08F0024A246A1460122EC4900E0044334
:10FBE00015F8013F203B02FA03F00842F7D12878CC
:10FBF0002A2810D06FF02F022878A0F130010929AF
:10FC000014D80AEB8A0102EB410144F0020400EB34
:10FC1000010A6D1CF0E701CF5FEA000A03D544F446
:10FC20000054CAF1000A44F002046D1C28782E2802
:10FC300017D115F8010F44F004042A280ED06FF0F4
:10FC40002F022878A0F1300109290AD809EB89018F
:10FC500002EB410100EB01096D1CF2E757F8049B30
:10FC60006D1C28786C280FD006DC4C2817D068282B
:10FC70000DD06A2814D104E0742810D07A280FD14E
:10FC80000DE044F400140AE044F4801401E044F46C
:10FC900040146978814202D104F580146D1C6D1CFA
:10FCA0002A786E2A1FD00CDC632A31D004DC002AAB
:10FCB0008BD0582A11D1A3E0642A68D0692A0CD1CC
:10FCC00065E0732A2ED004DC6F2A73D0702A04D129
:10FCD0009BE0752A6FD0782A6ED01046DDE90F12AE
:10FCE0009047761C50E1C4F30250022806D0032846
:10FCF00009D0042801CF09D0066045E101CFF117F2
:10FD0000C0E9006140E101CF06803DE106703BE1C2
:10FD100017F8040B8DF8000000208DF80100EB4669
:10FD2000012003E057F804BB4FF0FF3061074FF0AC
:10FD3000000102D40DE008F10101884649450FDABF
:10FD40008045F8DB1BF808100029F4D108E008F121
:10FD5000010188468142FADB1BF808100029F6D120
:10FD6000DDE90F23AAEB08008146214600F036F9B1
:10FD7000304400EB080604E0DDE90F121BF8010B2C
:10FD80009047B8F10108F7D221464846F7E00A212A
:10FD9000C4F302534FF0000B0891022B04D001CFA3
:10FDA000C117032B09D00AE0FF1D27F00707F7E86A
:10FDB000020108E032E01FE020E000B2C117042B8E
:10FDC00001D140B2C117031E71F1000307DA4FF0F1
:10FDD000000CD0EB0C006CEB01012D2302E023059D
:10FDE00004D52B238DF82430012303E0E30701D051
:10FDF0002023F7E7984658E00A2110E010210EE092
:10FE000010204FF0000B08900CE010214FF0000B79
:10FE100044F004044FF00809089103E008214FF072
:10FE2000000B0891C4F30253022B04D001CF002130
:10FE3000032B06D006E0FF1D27F00707F7E80201B5
:10FE400003E080B2042B00D1C0B24FF000082307BA
:10FE50002BD5702A07D0DDF820C08CF0100C5CEA9E
:10FE60000B0C05D00EE040238DF82430012308E070
:10FE700050EA010306D030238DF824308DF8252078
:10FE800002239846DDF820C08CF0080C5CEA0B0CCD
:10FE90000BD150EA010301D1630706D530238DF859
:10FEA00024304FF00108A9F10109582A04D038A2E2
:10FEB0000B9208AA0A920BE03AA2F9E75B46089A6D
:10FEC000FFF7F6FA0B9B9B5C0A9A521E0A9213707C
:10FED00050EA0102F2D10A98ADEB000000F1200BCC
:10FEE000600702D524F4803401E04FF00109D945C0
:10FEF00002DDA9EB0B0000E0002000EB0B01414408
:10FF00000890AAEB010AE00306D4DDE90F2321469D
:10FF1000504600F063F806444FF0000908E009A9D4
:10FF200011F80900DDE90F12904709F10109761C6B
:10FF3000C145F4DBE0030CD5DDE90F232146504633
:10FF400000F04CF8064404E0DDE90F123020904741
:10FF5000761C0899481E08900029F5DC08E00A98EC
:10FF60000A990078491C0A91DDE90F129047761C26
:10FF7000BBF10001ABF1010BF1DC21465046DDE99C
:10FF80000F2300F019F806446D1C1BE60928010038
:10FF900030313233343536373839616263646566FF
:10FFA00000000000303132333435363738394142C1
:10FFB00043444546000000002DE9F0410446002579
:10FFC0001E461746880404D405E039462020B04771
:10FFD0006D1C641EF9D52846BDE8F0812DE9F0417D
:10FFE000044600251E469046C80301D5302700E090
:10FFF0002027880404D505E041463846B0476D1CEB
:020000040002F8
:10000000641EF9D52846BDE8F0814A68002A06D06A
:100010000A68531C0B6010704868401E48607047A7
:100020002DE9FC47002517880646158090F82D001D
:100030001446894630B13A462146484600F0EAFC6B
:10004000050009D1B0784FF00C0A18B32088C846D3
:10005000001DB84202D95046BDE8FC87684679DFEA
:100060000028F9D12088032108F8001020881921E0
:10007000401C80B2208008F800102088401C80B20C
:10008000208000EB0801BDF8000004F082FA21880E
:1000900008442080F0780222C8B1218896F9033004
:1000A00001F1030C4846BC45D5D8425421884FF095
:1000B000010C491C89B2218000F801C02188491C2B
:1000C00089B2218009F801302088401C20807068A6
:1000D000B8B1218890F9003001F1030C4846BC45C5
:1000E000B9D8425421880A22491C89B2218042543D
:1000F0002188491C89B2218009F801302088401CE0
:100100002080308950B1CDE900474B4606220221BC
:1001100006F1080004F08AFA05009DD1308A50B13A
:10012000CDE900474B460722032106F1100004F0F9
:100130007DFA050090D1308B50B1CDE900474B4698
:100140001522142106F1180004F070FA050083D17D
:10015000306A30B13B462246494601F007F90500B6
:10016000DBD1706A30B13B462246494601F05EFF62
:100170000500D2D196F82C0038B13B4622464946BC
:10018000304603F059FC0500C7D1307838B13B4602
:1001900022464946304601F089FF0500BDD1284678
:1001A0005AE70000134A0021535C0BB1012203E01F
:1001B000491C0629F8D300220F49012806D002283D
:1001C00009D003280CD0042812D10DE0487810B1D2
:1001D0000AB101207047887810B10AB10220704737
:1001E000C87808B103207047087908B10420704727
:1001F00000207047712100209C23002010B50122AF
:100200000221002000F076FE08B1072810D1072255
:100210000221012000F06EFE08B1072808D100215C
:100220000A22084600F066FE08B1072800D1002027
:1002300010BD000030B5A7B03C2101A8FFF719F9A7
:1002400002208DF8040000258DF8065005208DF859
:1002500007003C2110A8FFF70CF90F480124159066
:10026000ADF8504020211FA8FFF703F9402023904C
:100270008DF87F408DF87C40B4202490074B1FAA56
:1002800010A9009501A800F0F9F9002801D000F0AC
:100290007DF827B030BD00002E210020253002005F
:1002A000022000F0CFBC000070B50024064D06E02F
:1002B0006868012110F8340002F056F8641C2878B0
:1002C0008442F5D3002070BD8C210020F8B515467E
:1002D0000C460646052A01D20720F8BD02F02AF98D
:1002E00018B902F0F9F80028F7D1104900204E6043
:1002F0000C70C1E902500E4D08610DE006EBC40020
:100300006968009181788DF801100078094A694682
:1003100002F07CF80028E0D1641EE4B2EED2BDE821
:10032000F840054A0021024800F03CB88C2100202A
:100330006448020029190200F11402000BA10120F7
:1003400002F042FD02F09AFC02F09CFC0028FBD176
:10035000BFF34F8F0B4801680B4A01F4E061114372
:100360000160BFF34F8F00BFFDE700004150505FB9
:100370004552524F523A4552524F523A4661746179
:100380006C0D0A000CED00E00400FA050EB500212A
:100390000091CDE901106A4644F20100FFF7CEFF5B
:1003A0000EBD0000074B5B6823B12AB120B1006885
:1003B000037C1BB1082070470720704741744261DD
:1003C00000207047B02100202DE9F04707469846ED
:1003D0001446894690074FF0000526D12CB303F050
:1003E000A9F9134E06F11000C6F80C80057045708F
:1003F00080F8029044607560357075701420FFF7C6
:100400009FF907211420FFF7D2F91420FFF7AEF966
:100410000848076007211120FFF7C9F90548001FA8
:100420000068B0600020BDE8F0870720FBE700000F
:10043000A0210020081501402DE9FC47DFF8789045
:10044000D9F8043073B368B3052902D20720BDE898
:10045000FC87436933B3437C012B25D00027044636
:100460000025884616468DF80050684600F038F89A
:1004700001A804F0C3F8C8B1012101700F4944601C
:100480000968C0E90218C0E904769DF8040089F8FB
:1004900001009DF8000000F047F81420FFF77CF9F8
:1004A0002846D4E70820D2E70F46D8E704259DF870
:1004B000000000F039F8F3E7B021002004150140F6
:1004C0000649496839B130B1416921B1002101744F
:1004D000022103F0C3BC082070470000B0210020B7
:1004E00030B5EFF3108172B60D4A9468012324B140
:1004F0000370002900D162B630BD93604FF0E02355
:10050000D3F88051074C25401560C3F88041D3F8DB
:10051000844154605A17C3F8842100220270E8E72E
:1005200060250020FC06FFBC0B498A68002A11D018
:1005300000280FD1EFF3108072B60B684FF0E02265
:10054000C2F800314B68C2F8043100228A600028EA
:1005500000D162B670470000602500202DE9F0410F
:10056000064608680C46411C4FF0A0474FF00105B5
:1005700006D005FA00F1C7F80815206802F0B8F9AE
:100580006068411C02D0002102F0A9F930792049AD
:1005900001EB4010A169007F00283068C0F82415E5
:1005A00025D0607D227D31681043C1F86C05D4E907
:1005B00000123068C0F80C15C0F8142524E0A068BB
:1005C000411C02D0002102F08AF9E068411C05D0EC
:1005D0008540C7F80855E06802F08AF9D4E90212AC
:1005E0003068C0F80825C0F81015BDE8F081607DBE
:1005F000217D32680843C2F86C05D4E900123068E6
:10060000C0F81425C0F80C15207D0128D7D0ECE7E0
:10061000F8240020F0B50C4693B01F210726ADF852
:100620000010ADF80410002750B1C17849070DD56E
:100630006A4602A9FFF7F4FC002808D102AD02E0E7
:100640000025ADF800706CB1E07810B1304613B001
:10065000F0BD01AA0AA92046FFF7E2FC0028F6D166
:100660000AAA02E00022ADF80470BDF80400C3B28B
:10067000BDF80000C1B2284672DFE8E72DE9F04777
:100680001F46DDF8208013468946040042D0EBB3B4
:10069000404D012000262870EE70202219463E4869
:1006A000FEF7CEFEC5E904784FF6FF702881AE61F3
:1006B0003948AE83AE773C212030FEF7DAFE36486B
:1006C000217820300170A1788170E178C170617863
:1006D00041703149D4E90423C1E90C23D4E9022350
:1006E000C1E90A23D4E90623C1E90E23616AE1B115
:1006F00000F13C0100F1480241628A60636A1B8894
:100700000B80616A436A8988998000E002E00021D9
:10071000436A07E00E20BDE8F087656AAD686D5C4E
:100720005554491C9D888D42F7D8A16AD9B11A4AFF
:100730009432A2F10C018A608162A36A9B888B804B
:10074000A16A836A098819800021836A04E0A56A86
:10075000AD686D5C5554491C9D888D42F7D894F85E
:100760002C1080F82C10216A49B10A490A31016223
:10077000226A52884A80216A026A09881180616867
:1007800001B141604946BDE8F04703482030FFF71A
:1007900041BF0000582100209C23002010B5018893
:1007A000144C102918D011291CD01B2919D1007AFA
:1007B000002816D1E0780521401CB0FBF1F201FBC6
:1007C000120000BF00F036F800280AD06169002945
:1007D00007D0BDE810400847C17B012901D18088BE
:1007E000208110BD00216171808821898842F8D163
:1007F0000120E7E75821002010B574DF0B4C0120E1
:100800000B4960710020E0710620C8700021084883
:10081000FFF700FF002807D1E07800F00BF810B1D7
:10082000616901B18847002010BD000058210020F7
:10083000BC2300202DE9F0413D4C804686B0207855
:1008400048B184F8038004A800F036FF049801261C
:1008500028B1667067E0082006B0BDE8F081002589
:10086000A561344FA583A577787810B1E078012889
:1008700006D0B87858B1E078012801D0022806D116
:10088000216919B126710820884700E0257140468A
:10089000FFF788FCE070216939B1032801D00428F2
:1008A00003D1387808B1607990B1A57100950295AF
:1008B000019503958DF800508DF808501C48E1789B
:1008C0001830052925D2DFE801F03008111D21007C
:1008D000E571A67107208847E8E7A67001908DF8BA
:1008E0000060ADF80C50ADF80A5014E00221A17080
:1008F00001908DF80060B889ADF80C003889ADF82A
:100900000A0008E0684603F0DBF802E0684603F0FE
:10091000FBF8E07818B1684673DF00289CD12169A4
:1009200009B1A0788847002096E7A570F7E7000096
:10093000582100209C23002070B5054601461C224A
:100940000F48FEF77DFD0F4C00262670286830B159
:10095000016861604068A060201D7ADF02E00948FC
:10096000001D7BDF00280AD14FF6FF7060806670A3
:10097000BDE87040044A00210448FFF713BD70BD74
:1009800070240020782100209D450200404802008C
:1009900070B51E4C068800231B49E289102E15D025
:1009A0001B4D112E1CD0122E29D0502E17D130F8ED
:1009B000061F914213D14189022910D10C3000F059
:1009C000F8F888B1BDE8704000F016BD84884C800E
:1009D0000469CC60406908614B70002AF2D070BD98
:1009E0004FF6FF7048804B702868FFF769FD0028BC
:1009F000F5D0A1690029F2D0BDE8704008478268AF
:100A0000CA60C0680861DDE77821002070240020FA
:100A1000404802007CB5054608880C4609309042E3
:100A200001D90C207CBD68466DDF0028FAD12188F1
:100A30000820685420881B21401C80B22080295443
:100A40002088401C80B220802844DDF8011001601D
:100A5000BDF8051081802088801D80B220809DF81F
:100A60000010490800D0012129542088401C208012
:100A700000207CBD10B50446FFF78AFF21460848D8
:100A800000F042F8204602F045FB2046FFF786FEC4
:100A9000204600F05FF9BDE8104001F0F9BA00000F
:100AA0001423002030B5174B0D4604000FCB85B042
:100AB0008DE80F0023D015B34FF6FF70A082286891
:100AC000A0610020A0752146684663DF002814D18C
:100AD00020788DF812000120ADF81000A21C04A9A6
:100AE000A0DF002809D12946204602F05AFE00283E
:100AF00003D12946204603F0DFFB05B030BD0E20B0
:100B0000FBE700004448020010B5002822D000296D
:100B100020D00A88102A18D0112A18D0502A19D1AA
:100B200004468A1DC888238A1231984202D153890B
:100B3000022B10D0A38898420CD1A369002B09D0B6
:100B400052892046BDE810401847898801E04FF6D9
:100B5000FF71818210BD084600F02BF800B1012022
:100B6000A07510BD07B584B068B1828AA2F57F4335
:100B7000FF3B0AD0827D42B1BDF81820142A06D965
:100B8000072007B000BD0E20FBE70820F9E7002290
:100B900000920192029203928289039106A9029126
:100BA000ADF8002001218DF80210808A6946A6DF89
:100BB000E7E7007800F001007047000000B5134837
:100BC00089B00023406807905022114907A803F01C
:100BD00061F808B1FFF7DAFB6A460121002003F053
:100BE00043F808B1FFF7D2FB1720ADF810006846B4
:100BF00002F0CAFF08B1FFF7C9FB064802F0BAFFCE
:100C0000002801D0FFF7C2FB09B000BDE447020095
:100C100034220020750A02000149085C7047000078
:100C2000104802000649095C4FF0A040D0F81005BA
:100C3000C84010F0010000D0012080F00100704792
:100C40001048020007490B5C4FF0A041D1F8042581
:100C50000120984020EA0203C1F808351040C1F88D
:100C60000C0570470C4802000249085C012101F0A4
:100C700072BE00000C4802000249085C002101F02D
:100C80006ABE00000C4802000649095C4FF0A04013
:100C9000D0F80405C84010F0010000D0012080F019
:100CA000010070470C4802007CB50024084E254620
:100CB0000122305D009500231146019501F0D0FD21
:100CC000641C042CF4D3BDE87C4000F003B80000A1
:100CD0000C48020010B500242046FFF7C5FF641C35
:100CE000042CF9D310BD10B500242046FFF7C4FF33
:100CF000641C042CF9D310BD10B50246064B4FF00E
:100D0000FF3000215C5C944201D1084610BD491CB3
:100D10000429F7D310BD00001048020070B50C4E36
:100D20000C004FF0000530600BD0012000F0A4F85B
:100D300008B1022004E0002000F09EF800B10B2072
:100D40002070706810B9FFF759FA0546284670BD43
:100D50005021002010B51A4C0188606810290ED06F
:100D600011292BD1401E606028D1FFF747FA0028D7
:100D700024D02168002921D0BDE810400847D0B90F
:100D800000210122084600F0B5F808B107280FD16C
:100D900007220221012000F0ADF808B1072807D191
:100DA00004220221002000F0A5F820B1072802D07B
:100DB000216801B188476068401C606010BD000078
:100DC0005021002010B5002000F0C8F908B1062815
:100DD00006D1012000F0C2F908B1062800D1002098
:100DE00010BD00002DE9F0470D468146FFF784FF56
:100DF0000446042838D2DFF878801C481D4EA8F13C
:100E0000100735B3012D0ED0022D2DD104EB440077
:100E100030444578002D27D0F968002924D0284691
:100E2000BDE8F047084704EB4401755C0E44717857
:100E300059B179680E4A01EB810149000E3A806888
:100E4000FFF7FAFA08B987F80290B17808F80410A9
:100E5000E0E78068FFF734FB04EB4401314418F805
:100E600004008D78A842D5D0BDE8F0871448020070
:100E70004C21002070230020FFF7D4BE0146134808
:100E800010B58088042907D0072910D00A291CD161
:100E9000BDE8104002F05ABE132176DF04460CA1D3
:100EA000032001F091FF082C0FD0204607E0A0F5A9
:100EB0007F41FF3909D1FFF79FFC082805D00028A2
:100EC00003D0BDE81040FFF761BA10BD2821002013
:100ED0004150503A494E464F3A0944697373636F23
:100EE0006E6E65637465645F206270735F457665DE
:100EF0006E74000070B50023042810D20D4D00EB75
:100F00004004012A02D101290CD00022094E00EB35
:100F10004000304461B1012906D0022906D00723E0
:100F2000184670BD0E30C2B22A55F9E74270F7E795
:100F30008270F5E770230020044A01460020127AEF
:100F4000D20702D0084600F04FB870473C2100207D
:100F50002DE9F04106461F4800240F464160C0E9D4
:100F60000262B0071FD50025012211462846FFF76F
:100F7000C1FF6D1C0446042D02D2002CF4D012E0F7
:100F80008CB97A0804211448FFF7A0F904000AD1AB
:100F9000FFF78AF9040006D10F48104A0021001F0C
:100FA000FFF700FA0446F00701D0FFF77DFE74B9A1
:100FB00009480B4A00210C38FFF7F4F9040006D168
:100FC0000548084A01210838FFF7ECF90446204695
:100FD000BDE8F0813C21002020480200FD11020004
:100FE000E11C0200A10202002DE9F047594C054620
:100FF0000026607818B100206070FFF76BFE0120BA
:10100000554F4FF47A694FF4C87A4FF06408182DA1
:101010002CD2DFE805F0890C0C2C3A4751565A6166
:101020005A619B6969696969898C8F929B9B0020D1
:10103000FFF72AFE00284FF0000008D0FFF714FE4B
:10104000022D02D14FF4E16006E0484604E0FFF7CC
:1010500013FE022D2ED05046B0FBF8F125706068CB
:10106000414300223868FFF7E7F9064659E00020BF
:10107000FFF70AFE28B10020FFF7F6FD4FF4487095
:10108000EAE70020FFF7F8FD14E00020FFF7FCFD81
:1010900000284FF0000002D0FFF7E6FDD5E7FFF78C
:1010A000EBFDD8E70020FFF7EFFD0028E9D0002096
:1010B000FFF7DAFDC820CFE70020FFF7C3FD25705A
:1010C00007E000203FE025702BE060700120FFF773
:1010D000B9FD00226168C5E760700120FFF7B2FD2D
:1010E000606800EB8001BCE77868FFF7E9F9064625
:1010F000D5F1110000D01EB10220FFF7B5FD10E0C0
:1011000001280BD9C82110FB01F1B1FBF8F160688F
:10111000002241437868FFF78FF906460220FFF767
:10112000ABFD3046BDE8F087FFF7D4FDCBE7FFF716
:10113000D1FDC6E7FFF7CEFD04E0FFF7CBFD0020B1
:10114000FFF79AFD0120FFF797FDBCE7FFF7CBFD06
:10115000B9E700003C2100201448020010B5FFF759
:101160005BFD032101F0CEFB002010BD002901DA58
:1011700000207047026811440160012070470000A0
:10118000F8B5461C00208DF800000D460124684685
:10119000FFF7A6F9114A10682860D2E90010956897
:1011A000081A2B1A701C5B1C98420FD963B10C48AB
:1011B0000C4B294000681B6802EB810163F39F2000
:1011C000C8601068401C1060002401E0881910609D
:1011D0009DF80000FFF7A8F92046F8BDF027002091
:1011E000A0480200E8210020034803C8814201D141
:1011F0000120704700207047F0270020007802216E
:10120000FFF7F0BD05494FF0FF32082841F82020D4
:1012100002D3084480F8482070470000A024002032
:10122000F0B54FF0FF3512B10023082601E0082386
:101230000C260C4C05E000BF54F823707F1C04D032
:101240005B1CB342F8D32846F0BD26185DB286F881
:10125000305044F82310002AF5D1E11881F84800F5
:10126000F1E70000A02400200249084490F9300072
:1012700070470000A024002038B10549814204D8FD
:101280000449814201D901207047002070470000C5
:10129000042200201422002070B5084C050009D05B
:1012A00010342168002907D0086820604968284662
:1012B0008847F6E70834F4E770BD00008C2400206E
:1012C0002DE9F05F26484168F1B3DFF898B00E6869
:1012D0008146DBF8004087688078E11B21F07F457C
:1012E000ED1CB0B9DFF880804FF48030C8F84403BB
:1012F000C8F804031120FEF723FA1120FEF736FA8E
:101300004FF0010AC8F800A02F2000F07BFF89F8F9
:1013100002A0B54200D23546124BE8193C3320F00A
:101320007F401860DBF800105A46091B21F07F410E
:10133000001B20F07F40C91C81420FD91068186043
:101340002F2000F05FFF00E004E0BDE8F05F112017
:10135000FEF722BABDE8F05F02F0ECB9BDE8F09FFD
:10136000A021002004150140001001402DE9F041AA
:1013700017880646B81D14460D46984202D90C201F
:10138000BDE8F0813188072206290AD34FF4486C62
:101390004FF6FF73614501D9994202D17088062842
:1013A00001D21046ECE7604501D99842F9D1994243
:1013B00003D0984201D08142F3D80520E855208817
:1013C0001221401C80B2208029542088401C80B209
:1013D00020804119308803F0DCF82188084480B26D
:1013E00020804119708803F0D4F8218808442080B7
:1013F0000020C5E7FEF7CABFF8B5134800F05CFC53
:10140000114D0026114C0C3D30B16169B9B101207C
:101410008DF80000684611E0287820B1616971B14B
:101420008DF80060F6E7687858B1A1680848002296
:101430000068FFF701F810B1A16901B188472E706B
:10144000F8BD6168F2E700008421002070240020CC
:10145000404802002DE9FF410C4618B1012004B0BC
:10146000BDE8F08120790027DFF87C80012638B1C3
:1014700041F61D5501281ED0022829D00F20EEE785
:1014800002970397E0680190694601A802F09EF870
:1014900068B102988188E18000882081029802F07A
:1014A00009F9BDF8002008EB02118E7300E00A2054
:1014B00002212171D3E70D4B6A460021A01D02F0E5
:1014C00041F838B1094908398F60CF600A28C6D180
:1014D0002846C4E7019802F0EDF804498A8808EB31
:1014E00002118E73F2E70000C0260020CC210020FC
:1014F0002DE9F04100260125144C22E060682269A4
:1015000000EBC607387805FA00F1114217D08A437C
:10151000226100F0D7FF02463878E36805FA00F14F
:10152000194002FA00F3994209D17978012901D0D2
:10153000012100E0002151407A6802B19047761CF9
:10154000F6B220788642D9D3BDE8F0818C21002004
:101550000E4910B50A784C780023A24212D0521CD2
:10156000D2B20A70022A00D10B70084A0B781832E6
:1015700052F8232002608868104420F07F40886081
:10158000012010BD0360002010BD0000A02100203C
:1015900010B503780022072B06D2DFE803F005041C
:1015A000060C1C252B000A7010BD01220A7002894E
:1015B0008A81828814E002220A7002898A818288E4
:1015C000CA81C2688A60007C062802D000200874A4
:1015D00010BD0120FBE703220A70C2888A810289BC
:1015E000CA81C068886010BD04230B70C0888881E0
:1015F000CA8110BD0520087010BD000070B5064DF1
:101600000646002455F8241009B130468847641C6A
:10161000082CF7D370BD0000E025002002490A78AD
:1016200082430A7070470000C421002002490A78F2
:1016300002430A7070470000C4210020F8B5064636
:101640001A481F46154600780C46C00708D0304699
:10165000FFF712FE30B13CB1200507D00620F8BDDF
:101660000120F8BD0220F8BD0320F8BD3068A0427B
:1016700004D8716804EB0530884201D90520F8BD13
:101680007DB1684601F096FE68B100980221C0E97C
:1016900000670172210B8181058201F03DFF00206E
:1016A000F8BD0420F8BD0720F8BD0000C0210020CF
:1016B000084601F0D3BE000020B10349496E016025
:1016C00000207047032070476C2500202DE9F84367
:1016D00007461D48DDF820801E46007815460C465A
:1016E000C0070CD03846FFF7C7FD50B15DB154B10B
:1016F00045EA0400800708D00620BDE8F8830120F1
:10170000FBE70220F9E70320F7E73868A04204D896
:10171000786804EB8601884201D20520EDE77EB1AE
:10172000684601F047FE68B100980121C0E90078E1
:101730000172C0E90354868201F0EEFE0020DCE76E
:101740000420DAE70720D8E7C021002070B508B1EF
:10175000012070BD184C0025207B08B1257301E0E5
:1017600000F0A2F82078082824D2DFE800F0230453
:10177000080C1023141EBDE8704000F01FB8BDE82F
:10178000704000F07FB8BDE8704000F061B8BDE87F
:10179000704000F037B808496088203901EB00102C
:1017A0004068BDE8704001F091BD6560BDE87040E3
:1017B00001F09ABD0F2070BDE02600201049F0B462
:1017C0008A1C00200346A1F120050C18A67A3EB120
:1017D000A37205EB0014A68916B9A47B012C0AD0CC
:1017E000401C80B20228F0D30B704B804B60F0BCE1
:1017F00041F61D5070471080F0BC00F043B8000067
:10180000E026002010B50F4CA4F12001608801EB08
:101810000010818961B1052020700B48022100234E
:1018200081800168BDE8104001220848FFF706BF2B
:101830004168002301220548FFF700FF04212170C1
:1018400010BD0000E0260020D4210020042200204A
:1018500038B50A49084803240B684268898803EBB5
:101860008101538804700020DB1C00909BB2044867
:10187000FFF72CFF38BD0000E0260020D421002017
:1018800004220020074910B54888091D01F0ECFE2C
:1018900018B1BDE81040FFF7DBBFBDE81040FFF70F
:1018A000B1BF0000E0260020F0B51D481D4901250C
:1018B000067802248B88A0F12002082E18D2DFE8D7
:1018C00006F00417171A212C2C160189491C0181D6
:1018D0000021418080F80C1002EB01131B7843B10A
:1018E00000234418491C89B2A3720229F4D305705D
:1018F000F0BD0123F5E742685288D21C1A448A8061
:101900000470F0BD46880D6802EB061256680E6042
:10191000556013818C80062100E007210170F0BD25
:10192000E0260020D42100202DE9F041124E074688
:101930000125BD403068FEF7C3FD00280DD10F4CD6
:101940002069284207D1384600F0BCFD0028E06835
:1019500005D0284304E0A8432061BDE8F081A843F6
:10196000E060206928432061A1683068BDE8F0414B
:101970000022FEF761BD0000644802008C210020B7
:101980008188A1F57F42FF3A03D0008808B1012089
:101990007047002070470000064842214422017031
:1019A000FF2141708270C1700171417114218171F8
:1019B00070470000322100202DE9F0410F4628B188
:1019C0000120FFF72BFE0120BDE8F081397961B1DC
:1019D0000026264D01290DD0254C4FF00208022982
:1019E000206822D003293CD128E001F07DFC0121B0
:1019F000397134E05FF0000005EB0011097802292D
:101A00000CD0401C80B20228F6D30220FFF70EFE55
:101A10000120FFF703FE41F61D50D5E705EB00144A
:101A2000606801F053FC267019E001460023012292
:101A30001048FFF703FEA4F804800FE001F046FC15
:101A40000A4922682031498805EB01114B6823605F
:101A50004A60A2880A81A4F804800E703E710028B2
:101A6000B2D00120FFF7DAFD0E20ADE7C02600203E
:101A7000D421002004220020F8B51C4C2078002836
:101A800032D0E068002658B10025607800282BD1BC
:101A9000684648DF052805D030B1FEF777FC0AE03C
:101AA0000125F2E7012606E0009800F02DFC2169EF
:101AB00009B1009888479DB96078002814D16088E2
:101AC000ADF800006946A06861DF052803D020B1A9
:101AD000FEF75CFC04E0012502E0D4E9020188473E
:101AE000002ED2D0002DE6D0F8BD0000EC21002061
:101AF00070B50E460446007918494FF4A27501EB03
:101B00004010017F2068A1B14FF4887101F0E9F91C
:101B10004FF49071206801F0E4F94FF4927120685D
:101B200001F0DFF92946206801F0DBF90C49206853
:101B300009E04FF48E7101F0C3F92946206801F0E5
:101B4000BFF908492068C0F80413206800F008FCB9
:101B50003146BDE8704000F0E7BB0000F8240020EB
:101B600010030200800002002DE9FF470D464FF4EC
:101B700092770446394601F093F94FF002094FF08D
:101B800001084FF4827640B13946204601F08DF9C4
:101B90003146204601F084F9B0B3B24631462046C2
:101BA00001F07EF94FF0FF36002770B35146204612
:101BB00001F07BF905F10C0001AB07C883E80700D1
:101BC00095F8230078B1287B01282DD0D4F84C0556
:101BD000C0B28DF80600287B022828D0D4F84C0526
:101BE000C0B28DF807004FF4B071204601F05DF9E6
:101BF0004FF4AE71204601F058F995F8250080B3F6
:101C000095F8230068BB3CE000E013E0A868C4F846
:101C10000803C5F80890A868C4F80403C4F8208035
:101C2000C4F81480BDE8FF87D4F83C05D0E7D4F8A9
:101C30003C05D5E74FF4A471204601F036F9287B26
:101C400080B14FF40070C4F80002801CA860C4F892
:101C50000863A868C4F80403C4F80880C4F82080A6
:101C6000E0E708E005F10C0001AB07C883E80700D6
:101C700095F8250028B90020C4F80002AF60C4F828
:101C80000863D4F8C404C4F8C404810702D58DF8ED
:101C9000008006E0400702D58DF8009001E08DF845
:101CA000007095F8250008B985F82470D5E9002161
:101CB00068469047B6E70000054940880A88904288
:101CC00004D34988884201D801207047002070471A
:101CD0007C210020800701D0002070470120704740
:101CE0000348017AC90702D00078FFF77DB9704731
:101CF0003C2100202DE9F043264CA4F11009227864
:101D0000D9F8048099F80350404694F801C0D9F8F6
:101D1000086031E002EB42036168521C01EBC30131
:101D2000A378D2B2934200D100220B78022B02D0CA
:101D3000032B21D11DE003464F68194603E0B94249
:101D400003D00B46C969B9B1F9E7A9B18B4205D1F6
:101D5000C06918B9104E0125B56000260F68C96921
:101D6000D96149B10B683B440B6005E00174C0695F
:101D700000E000210028F9D19445CBD1C9E9010642
:101D800089F80350404502D00120BDE8F0830020CF
:101D9000FBE70000B0210020001001402DE9F041D8
:101DA0002A4F0446002607F11005D7F804803EE0CC
:101DB00002D02046E4691DE02878696800EB400203
:101DC000401CC0B201EBC2012870AA78904200D139
:101DD0002E700A784868012A2BD1027C4ABB8A6897
:101DE0004260CA6882600A69C26049698161F978A3
:101DF00001B146604368BA68DFF854C0991A21F00F
:101E00007F41614502D28268114406E0D11A82689E
:101E100021F07F418A4202D9511A016000E0066038
:101E20004660012186600174C66101F0F9FF002C53
:101E3000BED1287869788842BED17968414502D000
:101E40000120BDE8F0810020FBE70000A021002078
:101E5000FFFF7F0088B000235B4A06210320FEF7C6
:101E6000B3FA08B1FEF792FA584A01215848FEF732
:101E700099FA08B1FEF78AFA554800224FF420314A
:101E80000068FEF7D9FA02F0CFF8FDF72FFC514AAF
:101E900040F233310320FFF75BF808B1FEF776FA22
:101EA00069460020FEF73AFF08B1FEF76FFA9DF889
:101EB000000002287ED00024002000F0DFFF08B1DF
:101EC000FEF764FA1CB144A1042000F07DFFFEF788
:101ED00075FE9DF8080047A120F00F00401C20F07F
:101EE000F00010308DF808000B2202A87CDF08B14A
:101EF000FEF74CFA002400941020ADF800003C20BE
:101F00000194ADF80200ADF804404FF4C870ADF88C
:101F1000060068467ADF08B1FEF738FA38480090C4
:101F2000294869469030FEF7BDFD08B1FEF72EFA4C
:101F3000FEF780F91C216846FDF79BFA4FF420401C
:101F4000CDE900404FF47030029003208DF80C0072
:101F50002C4805902C480690ADF80E408DF81040A6
:101F60006846FEF7E9FC08B1FEF710FAFFF714FD2A
:101F700026A1032000F028FF0320FEF75BFC051ECE
:101F800004D0FEF703FA2846FEF700FA264D3EDF9E
:101F900008B1FEF7FBF900F075FE0028FBD1687868
:101FA0000028F4D06C70204A09480123D21C492132
:101FB000103000E006E000F02DFB0028E7D0FEF72F
:101FC000E5F9E4E7012477E784220020053D0200DB
:101FD000E44702007D0E02004150503A444542550C
:101FE000473A426F6E647320657261736564210DB8
:101FF0000A0000004E6F726469635F5541525400DD
:10200000F12E02009D320200F51302004150503AB9
:10201000494E464F3A0955415254205374617274E7
:102020002121210D0A0000002821002070B514464E
:1020300082880E4605462088111D0144921C994253
:1020400001D8FE2A01D90C2070BD521C32542088C0
:10205000FF21401C80B2208031542088401C80B277
:1020600020808119288802F094FA2188084480B2DF
:102070002080AA8842B1A96841B13044FDF7E0F957
:102080002088A98808442080002070BD072070BDEA
:1020900010B5054C2078002805D101F035FC00284A
:1020A00001D00120207010BD28210020F8B50E4677
:1020B000017814460546012901D1687830B120889D
:1020C000821C9A422DD8012902D006E00720F8BDD3
:1020D00069780144891C994223D8181A801E87B256
:1020E000ADF800702188B01C084469467DDF0028E7
:1020F000EDD12878022805D1BDF80010B94201D8E9
:1021000009210AE00821012805D16878B84202D8DF
:10211000ADF8000001E0ADF80070BDF80000FE2849
:1021200001D90C20F8BD2288401CB0542088401CE6
:1021300080B2208031542088401C2080BDF80010DF
:10214000084420800020F8BDC20800F007030120E9
:10215000895C98400840704700F180400068002882
:1021600000D00120704708B500F1804000210160D7
:102170000068009008BD000000283ED01F49204A9A
:10218000096800BF00BF00BF00BF00BF00BF00BFA5
:1021900000BF91422FD000BF00BF00BF00BF00BFF3
:1021A00000BF00BF00BF00BF00BF00BF00BF00BF37
:1021B00000BF00BF00BF00BF00BF00BF00BF00BF27
:1021C00000BF00BF00BF00BF00BF00BF00BF00BF17
:1021D00000BF00BF00BF00BF00BF00BF00BF00BF07
:1021E00000BF00BF00BF00BF00BF00BF00BF00BFF7
:1021F00000BF00BF00BF401EC3D1704700220020B7
:102200000024F40000283ED01F49204A096800BF7E
:1022100000BF00BF00BF00BF00BF00BF00BF9142B2
:102220002FD000BF00BF00BF00BF00BF00BF00BF76
:1022300000BF00BF00BF00BF00BF00BF00BF00BFA6
:1022400000BF00BF00BF00BF00BF00BF00BF00BF96
:1022500000BF00BF00BF00BF00BF00BF00BF00BF86
:1022600000BF00BF00BF00BF00BF00BF00BF00BF76
:1022700000BF00BF00BF00BF00BF00BF00BF00BF66
:1022800000BF401EC3D17047002200200024F4008C
:1022900070B50F4C0025207808B1852516E0002187
:1022A000A16061602161E1604FF0E020D0F80001A1
:1022B000012610F0010F03D10721002000F034F8AF
:1022C00001F01AFD08B9034806602670284670BD63
:1022D0008C2400201805004038B500208DF800003F
:1022E0006846FEF7FDF8074C207808B9FFF7D0FFE5
:1022F000E068401CE0600120A0709DF80000FEF73F
:1023000013F938BD8C240020002801D1FEF7C4BF8A
:10231000704700F01F02012191404009800000F148
:10232000E020C0F8801170474907090E002806DA3E
:1023300000F00F0202F1E02282F8141D03E000F128
:10234000E02282F8001400F01F02012191404009B0
:10235000800000F1E020C0F88012C0F80011704742
:10236000000B40B2704700002DE9F0418846054659
:1023700000F0CCFF234E002828461AD0FEF774FF49
:10238000304490F848008009032802D001280ED07C
:1023900007E04FF0A040D0F81005E84010F0010F22
:1023A00005D003212846BDE8F04100F0BCBA022167
:1023B000F8E700F0B7FF002822D02846FEF754FFC8
:1023C00004464FF4807000EB84000F4F81B207EB9E
:1023D0008400D0F8102542F00102C0F8102508460C
:1023E00000F0D8FAB8F1000F0AD02846FEF73CFFFB
:1023F00056F82000002803D00120A040C7F80403AD
:10240000BDE8F081A0240020006000402DE9FC41DF
:10241000DFF8A480044608EB0400002790F93000A0
:102420001346C0170E46401C01D0082741E0F27841
:1024300019462046FEF7F4FE0546401C38D0B07819
:1024400050B14FF0A04000EB8400D0F8001721F00D
:102450000201C0F8001707E00021737820460091C0
:102460000A46019100F00EFAF078C0B113483178B5
:1024700000EB8500D0F81025114B1A40C0F810254C
:102480004FF4F8524FF4403302EA042203EA0141C8
:102490000A43D0F810150A43C0F8102509E008EBEC
:1024A0000500327810F8481F41EA8211017000E0FF
:1024B00004273846BDE8FC81A024002000600040CD
:1024C000FFE0FCFF4FF0A041D1F81015C14011F022
:1024D000010000D00120704770B5144D95F85400EC
:1024E00008B1082070BD0020411E2A18401CC0B24F
:1024F00082F830102028F8D300242046FEF782FE10
:10250000641CE4B20C2CF8D307210620FFF70CFF63
:102510004FF4BE7000F03EFA05494FF00040C1F89C
:102520000403012085F85400002070BDA024002081
:1025300000600040034890F85400002800D00120BB
:1025400070470000A02400200121B1EB507F01D191
:1025500001207047002070470121B1EB507F01D16D
:1025600001207047002070470179064A01EB810184
:10257000006802EBC1010622C0F80025022081F8A4
:10258000220070471825002070B506460D460079D8
:102590001F4900EB800001EBC00494F8220008B151
:1025A000082070BD0020C4E90023A06084F8250045
:1025B00084F82400A87B84F82700687B10B12846A3
:1025C00001F0CCFC296840F20C60890001F1A041C7
:1025D000C1F800076968890001F1A041C1F800074E
:1025E000D5E900123068C0F80815C0F80C25A968B4
:1025F000C0F82415206828B13068297B000B40B250
:10260000FFF792FE012084F82200002070BD000038
:10261000182500203EB5074D2C68AD6800948DF854
:102620000110019202958DF802300022694600F0F7
:1026300015F83EBD584802003EB500250095069CA1
:102640008DF8011002958DF8023001920CB1202214
:1026500000E00022694600F001F83EBD30B4037985
:10266000064C03EB830304EBC304006813460A46DD
:102670000146204630BC01F0EFBC000018250020C8
:102680002DE9F04105460079164F904607EB4014BE
:102690000E46E07E10B10820BDE8F081707F207703
:1026A0002846FDF75BFF5FEA080060603169216042
:1026B00003D0317F2846FFF71BFA287907EB40103B
:1026C000007F0028286801D0082100E00421C0F81C
:1026D00000150020E0752076A0750121E176A07636
:1026E000DAE70000F82400202DE9F04705460079DC
:1026F0003F4E904606EB40140F46207F18B1084627
:10270000FFF722FF30B1284600F074F820B1112005
:10271000BDE8F0871020FBE784F81680A76000274B
:10272000A78228794FF0010806EB40143E46207F2F
:102730000028286825D04FF49079494600F0D1FB55
:102740004FF4AC7A5146286800F0CBFB2868A17D95
:10275000A268C0F84425C0F848152868C0F8088069
:102760006068F0B94946286800F0B6FB80465146DB
:10277000286800F0B1FB58EA0001F3D058BBA775F8
:102780000FE04FF48E7A514600F09AFB2868C0F8AB
:1027900008802146286801F07FFD61684FF4807051
:1027A00089B13046B4E75146286800F084FB10B97F
:1027B000A08A4845F7D1A08A484505D02146286817
:1027C00001F06AFD00E08146A08AA17D8842EAD33B
:1027D000A08A484501D10F26D1E75146286800F06C
:1027E0006AFB0028F9D02868C0F80C80C7E7000011
:1027F000F82400200079044901EB4010807D002876
:1028000000D0012070470000F824002070B5044675
:1028100000791149002601EB401520682A7FC0F895
:102820000065686888B1207901EB4010007F0028BE
:10283000206801D0094901E008498C39C0F8081323
:102840002068FFF78DFDFFF764FD204600F076FD60
:10285000EE766E6070BD0000F824002010030200C8
:1028600070B541EA4201DDE904564FF0A04441EA67
:10287000830141EA052104EB800041EA0641C0F8EA
:10288000001770BD70B541EA4201DDE904564FF012
:10289000A04441EA830141EA052104EB800041EABA
:1028A0000641C0F8001770BD70B541EA4201DDE98C
:1028B00004564FF0A04441EA830141EA052104EBAC
:1028C000800041EA0641C0F8001770BD1CB5002128
:1028D00000910B4601220191FFF7E6FF1CBD1CB5DC
:1028E00000220B46009211460192FFF7DDFF1CBD4E
:1028F0001CB5002100910B46012201911146FFF702
:10290000D3FF1CBD4FF0A04202EB8000D0F800279F
:1029100022F44032C0F80027D0F8002742EA0141F3
:10292000C0F8001770474FF0A04202EB8000D0F8CB
:10293000002722F44032C0F80027D0F8002742EAEE
:102940000141C0F8001770474FF0A04201218140BB
:10295000C2F80815704701224FF0A043824011B120
:10296000C3F808257047C3F80C25704718B5084B05
:102970006C4601441B68009306E000BF54F8203009
:10298000D3F81035401C08C28142F7D818BD0000AA
:1029900054480200034908B508440021016000685A
:1029A000009008BD0060004002494058012800D056
:1029B000002070470060004000487047312A020044
:1029C00030B5184C054689B0207828B1607885422A
:1029D00002D1002009B030BD202213496846FCF71F
:1029E0002FFD00208DF81400062000900820019093
:1029F00005200390072002904FF0EB7006900948E5
:102A0000001DFFF703FF0DB1002200E0074A054853
:102A10006946001DFFF734FE0028DBD1012020703D
:102A20006570D6E7DC210020804802007543020073
:102A30002DE9F04FC1B00D004FF0000140914D98CD
:102A40004B991C46174601EB000B01D00A2000E011
:102A50000020804600F0D4FF00287CD16E46BCB92F
:102A6000409840AA3118284601F05EFA002872D03A
:102A70003846FCF709FDC22800D9C2200546409817
:102A80002A4630443946FCF7DBFC40982844409005
:102A90004FF0200A409901EB080231320DEB01059D
:102AA0000DEB0206002002E005F801AB401C40459A
:102AB000FAD300275C4508D305F801AB05F801AB54
:102AC00005F801AB06F801AB2DE04B98844202D229
:102AD0004A98005D02E0211A4C98405C2B468146E2
:102AE00002460121880022FA00F000F00F000928B8
:102AF00001D9373000E03030C1F1010C491E03F834
:102B00000C00EFD29D1C05F801ABFCF795FC0168A9
:102B100011F8090010F03E0F01D0484600E02E20C9
:102B200006F8010B641C7F1C102FC3D30D203070DE
:102B30000A20707085F800A04099684641444331EE
:102B4000409100F063FF30B100F05AFF18B9002047
:102B500040905C459ED341B02046BDE8F08F2DE902
:102B6000F043C7B000251C46904689464E9F4595C8
:102B700000F046FF00287AD1459805AE311845AAE5
:102B8000484601F0D1F9002835D0072F27D2DFE8D9
:102B900007F004121B35424F5D004046FCF774FC01
:102BA000054645982918FF2919D830442A46414638
:102BB000FCF746FC13E045982368C0F5807130446B
:102BC0004246FCF7BBFF09E0606800904598236827
:102BD000C0F5807130444246FCF7B0FF05462946F7
:102BE00045A8FEF7C3FA459978B3B1F5807F3ED882
:102BF00005A800F00BFF47B0BDE8F083D4E9010160
:102C0000CDE9000145982368C0F580713044424603
:102C1000FCF794FFE2E7201D07C88DE80700459800
:102C20002368C0F5807130444246FCF787FFD5E742
:102C3000201D0FC88DE80F0045982368C0F58071EE
:102C400030444246FCF77AFFC8E710E004F1080080
:102C500001AD0FC885E80F006068009045982368B3
:102C6000C0F5807130444246FCF768FFB6E70020AB
:102C7000C1E70000004870475F2B02000120FFF70A
:102C80009FBE00002DE9F04F87B0FEF7ADFA18B1F6
:102C9000002007B0BDE8F08F454ED6E9014704EAB1
:102CA000070006EB8000A146641CC5680CE000BF6D
:102CB000C5F3891000EB9550044404EA070006EBC5
:102CC0008000A146C568641CA807F1D005F0030088
:102CD0004FF0000B022805D0AA0A01A8C5F3831300
:102CE000002153E004EA070006EB800004F1010A2A
:102CF0000AEA0704C268381B80004FEA9558001D95
:102D0000C5F38913804521D929490C3138B106EB27
:102D1000840400F0FF0CA8EB00000C3404E00C4627
:102D2000002108F0FF0C0846C0B2CDE90210CDE941
:102D3000004CD6F81444C5F3C2005946A04740459C
:102D400011D108F103080AEB98042AE0002106EBF0
:102D500084000C300090CDE901810391C5F3C200DD
:102D6000D6F81444EAE760F38F1509EA070006EB8A
:102D70008000C56016E000BF04EA070C06EB8C0C6F
:102D8000491CDCF80CC040F804CB641C9942F3D316
:102D9000C5F3C2000093D6F8105401AB5946A847BA
:102DA00000B17460FEF720FA80F0010071E70000C6
:102DB000F0270020034AFF23936000231360536031
:102DC00000F054B8F02700202DE9F8430F4F884653
:102DD0000446002569462846BE68FEF7D1F900285A
:102DE00012D00B480021406861F38200009964F31F
:102DF000C50001EA060265F3891007EB820268F359
:102E00009F20491CD0600091BDE8F883F027002086
:102E1000A04802002DE9F843124D884604460127D8
:102E2000914669463846AE68FEF7AAF9002817D0E1
:102E30000D480021806861F38200009964F3C500A9
:102E400001EA060267F3891005EB820268F39F200E
:102E5000491CD0600091314005EB8101C1F80C9014
:102E6000BDE8F883F0270020A0480200024A02F5DE
:102E7000826203C270470000F027002070B506464A
:102E80000020FFF79DFD040008D1FFF795FD0546E2
:102E9000FFF7F0FE32462946FFF78CFF204670BD53
:102EA0004058002800D00120704708B50022425049
:102EB0004058009008BD4058002800D001207047BD
:102EC00008B5002242504058009008BDD0F80403D5
:102ED000084000D0012070474058002800D0012051
:102EE000704708B5002242504058009008BD0000CD
:102EF00010B516480C4649784170A1788170E17888
:102F0000C170227812A10320FFF784FF627819A113
:102F10000320FFF77FFFA27820A10320FFF77AFFAD
:102F2000E2781EA10320FFF775FF227922A103207A
:102F3000FFF770FF627929A10320FFF76BFFA279E9
:102F4000BDE810402FA10320FFF764BF322100200D
:102F50004150503A494E464F3A09547970652072B3
:102F6000656369657665643A090909307825303208
:102F7000780A0D004150503A494E464F3A09416493
:102F800064726573732072656369657665643A0976
:102F9000093078253032780A0D0000004150503A4F
:102FA000494E464F3A096574633A09090909307870
:102FB000253032780A0D00004150503A494E464FB4
:102FC0003A0974656D702072656369657665643A67
:102FD0000909093078253032780A0D004150503AFD
:102FE000494E464F3A0974656D705F64656320729F
:102FF000656369657665643A090930782530327809
:103000000A0D00004150503A494E464F3A0970723D
:10301000696F726974793A09090930782530327814
:103020000A0A0D0010B509282FD2DFE800F01405B8
:103030002E0B2E181E2E280014A10320FFF7C4FE0D
:10304000052000E00220FDF777FF00281DD0BDE835
:103050001040FDF79BB9BDE8104000F077BD13A10B
:103060000320FFF7B1FE11A104E01AA10320FFF72E
:10307000ABFE18A10320FFF7A7FE0320E3E7BDE89E
:1030800010401EA10320FFF79FBE10BD4150503AD3
:10309000494E464F3A424C455F4144565F4556546F
:1030A0005F44495245435445440D0A004150503A4B
:1030B000494E464F3A424C455F4144565F4556544F
:1030C0005F464153545F57484954454C4953540D4A
:1030D0000A0000004150503A494E464F3A424C4592
:1030E0005F4144565F4556545F534C4F575F5748B6
:1030F0004954454C4953540D0A0000004150503A80
:10310000494E464F3A414444525F7265717565734A
:10311000740A0D00F0B54A4D0446011D00880126D1
:10312000AF8889B03B2859D02FDC112839D00FDC6B
:10313000022857D010283DD142A10320FFF744FEBA
:103140000720FDF7F9FE08B1FDF720F9A08830E06F
:10315000132831D01D282DD1A87800282AD0424824
:1031600011F8043F02785208B2EB530F22D1062225
:10317000401C491CFCF78FF900281BD109B03BA16A
:10318000BDE8F0400320FFF71FBE51282ED0522883
:1031900018D0552850D056280CD1A088132176DF9E
:1031A00015E00020FDF7C8FE08B1FDF7EFF84FF677
:1031B000FF70A88009B0F0BD00231A46852138466B
:1031C0007FDF04E000231A4619463846A9DF0028AD
:1031D000F0D009B0BDE8F040FDF7D8B8A0881321C1
:1031E00076DFF4E7A088002167DFF0E71022A11D59
:1031F00004A8FCF725F99DF810100029DAD09DF8F5
:103200001800042803D0062801D00528D2D10229AD
:103210000ED08DF8006000BF4FF4C170ADF804000F
:10322000A0886946A8DF0028C4D0FDF7AFF8C1E741
:1032300002208DF80000EFE7A0881721ADDFC6E778
:10324000282100204150503A494E464F3A09636FB9
:103250006E6E65637465642067617020636F6E6E67
:10326000200A0D2000000000EC4702004150503AB7
:10327000494E464F3A41646472657373206D6174C0
:1032800063682073656E6420636F6E6E6563745F40
:10329000726571756573742E0D0A00000078002840
:1032A00007D104483B21808876DF002801D0FDF754
:1032B0006DB87047282100200389CA1C1A44028176
:1032C0004289511AC91E41817047000008B500218A
:1032D000009101460223024A0248FEF7F7F908BDB1
:1032E000784802000422002008B50020009004481D
:1032F0000223044A01680448FEF7E8F908BD00000B
:10330000D42100207048020004220020044908440F
:1033100090F93000082801DB012070470020704739
:10332000A02400200449084490F93000082801D264
:103330000120704700207047A024002070B503468C
:1033400000791B4901EB40101968027F4FF0FF30F4
:10335000002AD1F80C25D1F81465D1F80855D1F818
:10336000104504D0C1F80C05C1F8140503E0C1F8FC
:103370001405C1F80C051968C1F80805C1F8100555
:10338000501C02D01046FFF7A1FA701C02D0304644
:10339000FFF79CFA601C02D02046FFF797FA681CE2
:1033A00004D02846BDE87040FFF790BA70BD000019
:1033B000F824002070B50C490446486E042811D04A
:1033C0000A6E0244042A00D3121F401C486602EB16
:1033D000420001EBC00005461821FCF74AF8012025
:1033E000256070BD002070BD6C250020194830B4E8
:1033F000016E01EB410100EBC104406E002827D0B3
:10340000207A012802D0022816D10FE0A18AE08A92
:103410004FF48062091A914200DA8AB2E1682369A6
:1034200001EB800103EB800029DF01E0A08928DFA8
:10343000112806D000280BD0204630BC092100F00E
:10344000B9BA0549087820F0020040F0040008707D
:1034500030BC70476C250020C0210020F0B52D4CF9
:10346000002785B0216F41F61D56C1EBC10104EB69
:1034700081052978072919D2DFE801F01804080826
:103480000C0C10002946FEF797FA09E0294601F0D6
:1034900035F905E02946FDF7DDFF01E0FEF756F9B5
:1034A000002831D0B04202D1019710E00F200190E6
:1034B0002878022801D0032809D11648AA7D78303F
:1034C000016C11440164AA7D416C891A416469460A
:1034D0002846FEF75DF86846FEF790F8206F1C213D
:1034E000C0EBC00004EB8000FBF7C3FF606F68B166
:1034F00094F87010491C01F00301401EC4E91C102F
:1035000004D00020FFF7AAFF05B0F0BD0420FEF7AD
:1035100085F8F9E7002600200549087810F0060F25
:1035200004D140F002000870FFF760BF7047000050
:10353000C02100204FF08050D0F80C01800200F133
:10354000005070472DE9F04707461E481C461546B7
:1035500000780E46800702D40220BDE8F08765B1EE
:103560005CB1DFF864804FF00009A088022827D200
:1035700008EB00100078F8B916E00520EDE72068A8
:103580001FB181883A8891420ED11EB101883288DC
:10359000914209D180682860206868600A4820301C
:1035A000008928810020D8E7A088214600F05CF837
:1035B0000028E4D1C4F80090A088401CA080D4E783
:1035C0000A20CAE7C4210020C0260020F8B505461D
:1035D0004068234F0C46002638B322490A688242CD
:1035E00023D84968814220D3FEF774FBE8B12889CB
:1035F0003989884219D1D5E900018A68904214D1ED
:103600000020A7F1200300BF03EB001252688A429A
:1036100005D202F580528A4201D9208011E0401C77
:1036200080B20228F0D30020F8BD268000960AE080
:10363000009829688068884205D1009868603889B8
:1036400028810120F8BD2088694600F00DF8002887
:10365000EED12088401C80B220800228E6D3E2E729
:10366000E02600200422002070B50E460A681049AA
:1036700001EB00151AB1508802EB80040CE06C6875
:1036800008340AE02046FEF77BF910B101203460CF
:1036900070BD608804EB80040C34686800F58050CD
:1036A000A04202D92068401CECD1002070BD00006F
:1036B000C026002008B50021009101460123044ADC
:1036C0000448FEF703F8002800D00E2008BD0000D3
:1036D0006C4802000422002038B504461348002537
:1036E000426C42B1036C00EBC3055B1C03F00703A3
:1036F000521EC0E9103200200090A08AAB8801EB76
:1037000080010B482A68FDF7E1FFA18AAA881144CD
:10371000A182A17D491E11F0FF01A17501D10121F6
:103720002174002800D00E2038BD0000782600202B
:103730000422002070B5012670044FF0E02100251E
:10374000C1F88001084C4010C4F84803C4F80803CD
:1037500066602F20FEF756FDA660044C2F20A56062
:10376000FEF750FDA57070BD00100140A0210020A3
:1037700070B50546C87D0C4600284FF48471284674
:103780000AD0FFF79DFBD5F81805627EE1688854E2
:10379000607E401C607670BDFFF792FBD5F818057F
:1037A00070BD30B58FB00024054607949DF81C000D
:1037B0001C2120F00F00401C20F0F00010308DF88C
:1037C0001C009DF81D0020F00F00401C20F0F000B0
:1037D00010308DF81D009DF81E0020F00600801CA2
:1037E0008DF81E006846FBF744FE9DF8000001942A
:1037F00040F010008DF8000007A8CDE904400394C4
:10380000069428788DF83A000320ADF838000D941E
:103810009DF83400142120F00F00401C20F0F0002F
:1038200010308DF834009DF8350020F00F00401C5A
:1038300020F0F00010308DF835009DF8360020F0B3
:103840000600801C20F0180040F001008DF83600C2
:1038500008A8FBF70EFE0EA808900DA809900120FD
:10386000ADF828001420ADF82A40ADF82C00688887
:1038700005F10C0308AA6946A2DF0FB030BD1FB5E1
:1038800001238DF800308DF808100192D0E9001264
:10389000684690471FBD000010B50446FCF772F95A
:1038A00040B1002C09DA04F00F0000F1E02090F89C
:1038B000140D06E042F2010010BD04F1E02090F882
:1038C00000044109082914D299B1012911D0042911
:1038D0000FD005290DD00B480122816861B1610923
:1038E00050F8213004F01F04A240134340F8213067
:1038F00005E042F2020010BD2046FBF742FF002027
:1039000010BD0000602500201CB514480722017876
:103910008DF8001041788DF8011081788DF8021033
:10392000C1788DF8031001798DF8041041798DF874
:10393000051080798DF8060069460948FDF712F9EF
:10394000020005D007A10320FFF764FA00201CBD88
:1039500010A10320FFF738FA01201CBD32210020FE
:10396000142300204150503A494E464F3A0973659E
:103970006E64696E67206E6F7420636F6D706C6526
:1039800074652C206572726F723A202569200A0DC9
:10399000000000004150503A494E464F3A097365C5
:1039A0006E64696E6720636F6D706C657465200A64
:1039B0000D0000001FB500220092019202920392B6
:1039C000037A012B02D0022B13D107E08DF80020DF
:1039D00002690292828AADF80C200AE001228DF879
:1039E00000208289C389D21AADF808208289ADF8F7
:1039F0000A204268019200688268684690471FBDAD
:103A00000148FEF7F7BE0000E021002070B50D462A
:103A10000A46014601240648FBF712FDEAB20449B2
:103A20000448FEF761FE00B10024204670BD00008E
:103A3000F0260020E02100202DE9F0410746806AB1
:103A400014468846C8B3002531E000BFB96A05EBCB
:103A5000450001EB8006B088801CFE2802D90C20AE
:103A6000BDE8F0812288401C08F802002088162258
:103A7000401C80B2208008F800202088401C80B2C2
:103A8000208000EB0801308800F083FD2188084485
:103A900080B22080B28842B1B16871B14044FBF776
:103AA000CFFC2088B188084420806D1CEDB297F8C7
:103AB0002C00A842CAD80020D2E7FFE70720CFE7B2
:103AC00010B50F490F4C0A8A42818A8A828109788F
:103AD00091B1617981B9E17971B10221017208492D
:103AE00004202031C870064800212030FCF792FDE8
:103AF000002804D1052000E00320A070002010BDA4
:103B00009C2300205821002010B50E490E4C0A8B32
:103B100042818A8B82810A78042182B1627972B9EA
:103B2000E27962B10222027206482030C17000219F
:103B3000FCF770FD002804D10620A07000E0A17001
:103B4000002010BD9C2300205821002010B500202B
:103B5000FDF7F2F908B1FCF719FCFDF733F908B1EC
:103B6000FCF714FC32DF002803D0BDE81040FCF75E
:103B70000DBC10BD18B10349C860002070470E206D
:103B800070470000EC2100201CB50446114801904C
:103B90000246009010A10420FFF73CF96946204638
:103BA00060DF0446DDE9002082420AD01649022087
:103BB000FFF730F9FFF7BEFC0099421A13A102206B
:103BC00003E024B122461EA10120FFF723F920467D
:103BD0001CBD0000282100205344483A444542556A
:103BE000473A73645F626C655F656E61626C653AEB
:103BF0002052414D207374617274206174203078BA
:103C000025780D0A00000000584902005344483A44
:103C10005741524E494E473A52414D2073697A6599
:103C20002073686F756C642062652061646A7573C7
:103C300074656420746F2030782578200D0A0000A8
:103C40005344483A4552524F523A73645F626C652E
:103C50005F656E61626C653A206572726F722030CA
:103C60007825780D0A00000070B50E46054614460A
:103C70001C211046FBF7FDFB012020800021A161E3
:103C800021752672657205B1A072002070BDFCF727
:103C900055BB00002DE9F041074619B188074FF0E8
:103CA000000402D00720BDE8F081114D4FF0E02064
:103CB0000126A9606A806B60D0F8000110F0010F46
:103CC00003D034460020FBF746FD0A49384610DF92
:103CD000070005D014B10020FBF753FD3846E2E79A
:103CE0002E70FEF7F9FABDE8F0411620FFF7D4BDBB
:103CF000EC2100208F3C0200014800787047000052
:103D0000EC21002010B50A4C00202070FFF7FCFDCC
:103D100008A10320FFF758F8E2780BA10320FFF772
:103D200079F8E278BDE8104010A10320FFF772B8DF
:103D3000282100204150503A494E464F3A0932302E
:103D4000207365630A0D00004150503A494E464FBA
:103D50003A09726561645F73656E736F725F646167
:103D600074613A202569200D0A0000004150503A44
:103D7000494E464F3A09726561645F73656E736FB1
:103D8000725F646174613A20307825303278200D9A
:103D90000A0000002DE9F84F204C00256846D4E9C0
:103DA00001B6FDF7D5FB8046FDF7A4FF0746A946FF
:103DB000B8F1000F25D00023009ACC46606819E0C6
:103DC00007680146974202D9BA1A026014E0C1F8A6
:103DD00000C0D1F80C80D21BC8693B448A46B8F1B8
:103DE000000F07D0F71827F07F47C1E90178CAF81C
:103DF0001C500D460028E3D160602846FDF7CEFF39
:103E000004E02846FDF7CAFF00B917B15846FDF790
:103E100057FA84F80390BDE8F88F0000A021002035
:103E20000D4B10B5596831B102680C68A24204D834
:103E3000A21A0A60C161586010BD0B4603E00B4630
:103E4000C969121B21B10C689442F8D3A41A0C6002
:103E50000260C161D86110BDA02100207CB506467A
:103E600000240D468DF800406846FCF739FB01A898
:103E700000F0C4FB70B10570094946609DF804006C
:103E800048709DF80000FCF74FFB1420FBF784FC02
:103E900020467CBD04249DF80000FCF745FBF7E7B5
:103EA000B02100202DE9F0411D4D6C68002C35D06B
:103EB0001C4800270068A968B846401A20F07F46D1
:103EC0002068B04215D82246361A0744E469107CAF
:103ED00068B182F81080EB6833B1D2E905019847E8
:103EE00028B1FCF753FA02E0D2E905108847002C0C
:103EF000E6D129786878814206D1401CC0B268704A
:103F0000022801D185F8018005486978183040F809
:103F10002170BDE8F0411420FBF73EBCBDE8F08104
:103F2000A02100200415014010B5144602004FF0F6
:103F300001000CD00846136806A24FF48071FBF70D
:103F4000FDFD01462046BDE81040FDF70FB90021F8
:103F5000216010BD5B253038645D00002DE9F04123
:103F6000044640F20C602168890001F1A041C1F8CB
:103F700000076168890001F1A041C1F800072068CD
:103F8000FEF7E2FC6068FEF7DFFC216840F20D609E
:103F9000890001F1A041C1F800076168890001F1C1
:103FA000A041C1F800070420FEF7E6F800274FF013
:103FB000A04601252179D6F81005C84010F0010F60
:103FC00002D0002F1DD010E0217805FA01F0C6F8CC
:103FD0000C050420FEF7D0F82068FEF7B5FC04209D
:103FE000FEF7CAF87F1C092FE4DB20798540C6F86C
:103FF0000C550420FEF7C0F86068BDE8F041FEF7FC
:10400000A3BCBDE8F08100000178002909D1017945
:104010000448012903D100F10A02C178117101217C
:1040200041707047282100201FB5094B0FCB8DE848
:104030000F0007480023074A69460838FEF7A4FA2C
:1040400008B1FCF7A3F902480838FEF78DFA1FBD46
:10405000FC470200094002002DE9F05F06461F46BA
:1040600015460C464FF0000A4FF0080B4FF48279CA
:104070005068FEF771FA00287ED04FF0FF30C4F888
:10408000080396F8240028B1B068C4F8040311208E
:10409000BDE8F09F780703D4F80601D4012000E0C2
:1040A000002086F8240095E8070006F10C0383E859
:1040B0000700C7F3001086F825006878C4F8880563
:1040C0004FF482712046FEF7F0FE4FF492712046C5
:1040D000FEF7EBFEF8074FF0010800D04046C4F8A9
:1040E0005005B80701D5404600E00020C4F840055F
:1040F000287800286CD001287DD002284ED00328D3
:1041000014D04FF0070A380704D42878032801D0C8
:1041100044F80B80306800286ED0780702D54FF441
:104120000070B060B068C4F80403B0E0A868FEF79F
:1041300013FA08B34FF48070C4F80002A9786868D5
:10414000C4F84405C4F848154FF4A8712046FEF79A
:10415000ACFE4FF4B0712046FEF7A7FE4FF4A471F9
:104160002046FEF7A2FEC4F82080C4F8088000BFF5
:104170004FF4A871204600E028E0FEF791FE0028E9
:10418000F6D04FF4A8712046FEF78FFEE878A968B4
:10419000C4F84415C4F848053E4815E0A878696895
:1041A000C4F84415C4F84805A868FEF7D5F968B105
:1041B000E878A968C4F83415C4F838054FF4845079
:1041C000C4F8000240F20220B0609CE710205FE7D4
:1041D000A8786968C4F84415C4F84805B8060FD52E
:1041E0004FF48070C4F800022A48B0604FF4A479FC
:1041F0004946204601E00CE01BE0FEF756FE05E0D4
:104200004FF40070C4F80002801CB060C4F8208035
:1042100079E7A8786968C4F83415C4F838054FF40C
:104220008050C4F8000240F20220B0604FF0000B52
:10423000ECE745464FF482774FF492780BE0414625
:104240002046FEF72DFE30B141462046FEF72DFEFA
:1042500025626561B94649462046FEF721FE0028E1
:10426000EDD0D4F8C404C4F8C404002186F82410A6
:1042700068B10321C20701D04FF40241820701D582
:1042800048F20121400701D548F202218A465046F2
:10429000FEE600000002040070B50C4605464FF42F
:1042A0008E71FEF70DFEA18AA068415CA08A401CB9
:1042B000A082C5F81C1570BD30B58FB005461C2115
:1042C0006846FBF7D6F800249DF80000019440F002
:1042D0000C008DF80000039404940594069428784B
:1042E0008DF836000220ADF834000C949DF83000B3
:1042F000142120F00F00401C20F0F00010308DF849
:1043000030009DF8310020F00F00401C20F0F0003C
:1043100010308DF831009DF8320020F00600801C2E
:1043200020F0180040F001008DF8320007A8FBF7DC
:10433000A0F80DA807900CA808900120ADF8240063
:104340001420ADF82640ADF8280068882B1D07AA78
:104350006946A2DF0FB030BD1FB500228DF80020E6
:104360008DF80810816801918275D0E900126846C5
:1043700090471FBD0078012801D10149887070471E
:10438000DC2100202DE9FF470C4605464FF4007163
:10439000FEF79CFD01274FF40178002618B34FF477
:1043A000927949462846FEF786FDE0B149462846FF
:1043B000FEF786FDC5F80883A07E00B96F60022075
:1043C0008DF80000D5F88004C5F880040390E07DE6
:1043D0008DF80800E0680190E6752676D4E90012B1
:1043E0006846904727E004212846FEF76FFD10B38A
:1043F0004FF484712846FEF75EFDE0B12146284661
:10440000FFF7B6F9E07D617E884214D1207E38B195
:10441000617EE268E0752069E0602676667607E0F6
:10442000A07E00B96F60C5F80883E675617EE2681A
:104430002046FFF724FA4FF48E7841462846FEF7CF
:104440003AFD88B1A08AA17D884204D2214628463F
:10445000FFF722FF08E041462846FEF731FDA17D27
:1044600011B12046FFF778FF4FF4A2784146284665
:10447000FEF721FD002812D041462846FEF720FD18
:10448000A07E00B12F60E07D002808D0E675617E37
:10449000E26804B02046BDE8F047FFF7F0B9BDE898
:1044A000FF872DE9FF410C464FF4927705463946C8
:1044B000FEF712FD0026C0B139462846FEF711FD71
:1044C00002208DF80000D5F88004C5F88004039020
:1044D000D5F83C058DF80800E0680190E675267671
:1044E000D4E900126846904724E04FF488773946B3
:1044F0002846FEF7F1FCE8B139462846FEF7F1FC04
:10450000D5F83C05C1B2E07D884213D1207E60B170
:10451000E268D5F8000220F02000C5F80002207EF5
:10452000E0752069E060267601E0E675E2682046E5
:10453000FFF7A5F94FF4A27739462846FEF7CCFCE1
:1045400068B139462846FEF7CCFCE07D38B1E67507
:10455000D5F83C05E268C1B22046FFF790F94FF468
:10456000907631462846FEF7B7FC00280FD031463A
:104570002846FEF7B6FCA07D002808D0D5F84C05EB
:1045800004B0C1B22046BDE8F041FFF7E5BEBDE88A
:10459000FF810870000A48700220704738B515493D
:1045A0004888A0F57F42FF3A23D04A78124C521C2B
:1045B000D2B24A70237B93420AD3091D75DF0028CB
:1045C00017D0A169002914D001B0BDE830400847D8
:1045D00000254D70217C29B13B2176DF10B1A16906
:1045E00001B188476169002903D08DF80050684601
:1045F000884738BD78210020702400200A4A10B571
:1046000053789478591CC9B28C4200D10021147897
:104610008C4201D1002010BD0170506803EB4301B2
:1046200000EBC10010BD0000B02100202DE9FC41CD
:104630001646DDE90854CDE900541F4680460222A3
:1046400000F00CF8002807D1CDE900543B461022B9
:104650003146404600F002F8BDE8FC812DE9FC5FE0
:104660000026DDE90C4B994692468E468046278807
:10467000354630E0D8F80400002200EB850069469A
:104680000068019001A865DF002830D19DF8000086
:1046900050451FD10EB1002100E0022122880844BC
:1046A0001118594522D846B9521C90B2208009F8F9
:1046B00000E02088401C20800126218801A801EB11
:1046C0000902694665DF002811D120889DF8001095
:1046D000084420806D1CB8F80000A842CADC56B11E
:1046E0002088C01B401E80B2FF2802D90C20BDE8E4
:1046F000FC9F09F807000020F9E700002DE9F843C6
:104700000D46498A354A02EB011730B1E98838462F
:10471000FEF7D2FD0120BDE8F883398978680024CE
:1047200000EB81062D48297CEC384FF00E08072954
:1047300051D2DFE801F00D2E192804404D004460ED
:10474000A969016025486946EC38FEF73FFF48B18A
:10475000314601232A1D22480094FCF7B7FF0221AD
:10476000297423E00A20D6E7012305F10C0206F1A3
:1047700008011B480094FCF7A9FFA97D09B1032299
:1047800013E0012211E031462846FEF7A5FF04465A
:1047900017E0012305F10802311D11480094FCF7D0
:1047A00095FF2978032904D006222A7470B1444663
:1047B00008E00522F9E74068FEF77CFF0446062082
:1047C00028741CB1E9883846FEF776FD2046A2E73A
:1047D00041F61D54F6E70F24F4E70000C026002040
:1047E0000422002014220020010000070240B837F4
:1047F000649C4A0000300040000100001B000000E3
:104800001A000000000098010200000011121314A9
:104810000D0E0F1030230020502300207C23002099
:104820000D000300E50D02000E000300E50D02007F
:104830000F000300E50D020010000300E50D02006B
:10484000502400209ECADC240EE5A9E093F3A3B512
:104850000000406E00000050010000000000000059
:104860000000000040250020030000000000FFFFC2
:10487000DEC0ADDEFF011EF1DEC0ADDEFE011EF1C9
:10488000FFFFFFFFFFFFFFFFFFFFFFFFFFFFFFFF38
:1048900000000000000000000000D6010701000039
:1048A00029000000010000000100000001000000DC
:1048B00001000000010000000100000001000000F4
:1048C0000200000000404040404040404040414124
:1048D00041414140404040404040404040404040D5
:1048E000404040404005020202020202020202026F
:1048F000020202020220202020202020202020026C
:1049000002020202020290909090909010101010FB
:104910001010101010101010101010101010101097
:10492000020202020202888888888888080808082B
:1049300008080808080808080808080808080808F7
:104940000202020240000000C54802004F76657274
:10495000666C6F770D0A00005344483A5741524E37
:10496000494E473A73645F626C655F656E61626C65
:10497000653A2052414D2073746172742073686FE0
:10498000756C642062652061646A75737465642067
:10499000746F20307825780D0A000000BC490200B1
:1049A00028210020EC00000064FB0100A84A02005E
:1049B00014220020F429000074FB01000000010013
:1049C000FFFF0100020000000000000000000000E6
:1049D00000000000000000000000000000000000D7
:1049E00000000000000000000000000000000000C7
:1049F00000000000000000000000000000000000B7
:104A000000000000000000000000000000000000A6
:104A10000000000000000000000000000000000096
:104A20000000000000000000000000000000000086
:104A30000000000000000000000000000000000076
:104A40000000000000000000000000000000000066
:104A50000000000000000000000000000000000056
:104A60000000000000000000000000000000000046
:104A70000000000000200040000000004C4902003F
:104A80000000000000000000000000000000000026
:104A9000000000000090D0030000000000000000B3
:084AA000B116020003FF000043
:040000050001F40101
:00000001FF
