:020000021000EC
:10F0000000000120E93D0200113E0200133E020013
:10F01000153E0200173E0200193E020000000000EB
:10F020000000000000000000000000001B3E020085
:10F030001D3E0200000000001F3E0200213E0200B3
:10F04000F50C0200233E0200311B0200233E0200A9
:10F05000233E0200233E020055110200233E02001F
:10F06000233E0200233E0200233E0200233E020014
:10F07000233E0200233E0200233E0200233E020004
:10F08000233E02007DFF0100233E0200233E0200DA
:10F0900041000200233E02004D450200233E0200D3
:10F0A000233E0200233E0200233E0200233E0200D4
:10F0B000233E0200233E020000000000000000008A
:10F0C000233E0200233E0200233E0200233E0200B4
:10F0D000233E0200233E0200233E02000000000007
:10F0E0000000000000000000000000000000000020
:10F0F0000000000000000000000000000000000010
:10F1000000000000000000000000000000000000FF
:10F1100000000000000000000000000000000000EF
:10F4000010B5054C237833B9044B13B10448AFF35E
:10F4100000800123237010BDB821002000000000EF
:10F4200074540200084B10B51BB108480849AFF3EB
:10F4300000800848036803B910BD074B002BFBD0C0
:10F44000BDE81040184700BF0000000074540200DF
:10F45000BC210020B421002000000000154B002B2F
:10F4600008BF134B9D46A3F5803A00218B460F46FB
:10F470001348144A121A00F065F80F4B002B00D005
:10F4800098470E4B002B00D0984700200021040025
:10F490000D000D48002802D00C48AFF3008000F0AA
:10F4A0002BF82000290003F021FB00F011F800BF29
:10F4B0000000080000000120000000000000000023
:10F4C000B8210020982D002000000000000000005E
:10F4D00008B5074B044613B10021AFF30080054B7C
:10F4E0001868836A03B19847204600F033F800BFDC
:10F4F00000000000DC4E020070B50E4B0E4CE41A0A
:10F50000A41000251E46A54204D056F82530984781
:10F510000135F8E705F0D4FC084C094BE41AA410B7
:10F5200000251E46A54204D056F8253098470135DF
:10F53000F8E770BDAC210020AC210020B0210020F4
:10F54000AC21002002440346934202D003F8011B81
:10F55000FAE77047FEE700BF0378012B04BF014ABA
:10F5600013707047D42200202DE9F04FC5B09148A8
:10F570004F9F16461C460D46002914BF4FF00A0B3C
:10F580004FF0000B02F078F9002840F0E280002CE8
:10F5900000F0E38004AB02460193519B4F97FE18A5
:10F5A0002025104600EB0B03019A03933133D31847
:10F5B00002931318BBF1000F60D05A4202F003020D
:10F5C0005A4528BF5A46BBF1060F00F2E5805A465D
:10F5D0000199012A0D5403F1010100F0DB80022A98
:10F5E0005D7003F1020100F0D580032A9D7003F1E4
:10F5F000030100F0CF80042ADD7003F1040100F064
:10F60000C980062A1D7103F1050140F0CB805D71B0
:10F61000991D9446934530D0C2EB0B09A9F1040E15
:10F620000BF1FF3A4FEA9E0EC2EB0A0A0EF1010EF1
:10F63000BAF1020F4FEA8E0814D90244019F4FF02D
:10F640002030BEF1010F07EB020AB85006D0BEF120
:10F65000020FCAF8040001D0CAF80800C8454144A6
:10F66000C4440AD00CF1010293450D7005D90CF188
:10F67000020CE3454D7000D98D705B444E4A0299EF
:10F68000D2F800804F9FDDF84091DA1C481C03F14E
:10F69000330C0CE002F8035C02F8025C02F8015C37
:10F6A0000332624500F8015C00F1010033D0A6424C
:10F6B000F0D9A74295BFE11B4E9919F80110095DD9
:10F6C00002F8015C4FEA211E5FFA8EFABEF1090FC3
:10F6D00001F00F0ED4BF0AF1300A0AF1370ABEF169
:10F6E000090F02F803AC94BF0EF1300E0EF1370E85
:10F6F00008EB010A02F802EC9AF801E003321EF06E
:10F70000970F08BF2E21624500F8011C04F1010487
:10F7100000F10100CBD1039A4F97029F274802F1D5
:10F7200043080A210D223A7479744246019983F8FC
:10F73000305004F08BFF5FFA88F21E481F4901F039
:10F74000E1FF30B91B4802F097F810B9A6423FF626
:10F7500029AF204645B0BDE8F08F35B304A82B682B
:10F76000174A01904FF4807104F07CFF0028F0DB11
:10F770000546304604F0A8FF019BC22828BFC220DE
:10F78000024680463146581904F060FF08EB050335
:10F790001A4602E794463DE7002A7FF419AF19465E
:10F7A000944639E74FF0050C34E704AB2546019346
:10F7B000DFE700BF8C210020A8210020D4210020F9
:10F7C000004F02002DE9F0415C48C6B00C461746D8
:10F7D0001D4602F051F8002831D1002C33D006AE7E
:10F7E0002368574A30464FF4807104F03BFF0028ED
:10F7F00025DB4C9B0446062B00F29E80DFE803F0DD
:10F800007887915B6947050006AE2A1D92E80411CE
:10F8100029692B686D6904950092039130193A4665
:10F82000CDF80480CDF808C0C4F5807104F01AFF4B
:10F830000546002D03DB2C44B4F5807F18D9002049
:10F8400046B0BDE8F0814C9B0024062B10D801A2E5
:10F8500052F823F0F1F801000DF9010021F901003F
:10F86000B5F80100D1F801008DF8010009F8010098
:10F8700006A92246334804F0E9FEE2B22F48314996
:10F8800001F040FFB0FA80F04009D9E706AE6A689F
:10F89000E9682B68D5F808C02D690395009202919C
:10F8A00030193A46CDF804C0C4F5807104F0DAFE90
:10F8B0000546BEE706AE6A68A9682B68009201910A
:10F8C00030193A46C4F5807104F0CCFE0546B0E725
:10F8D00006AE6A68A9682B68ED68029500920191EE
:10F8E00030193A46C4F5807104F0BCFE0546A0E725
:10F8F000384604F0E9FE0319FF2B054699D806ABFC
:10F90000394618192A4604F0A1FE92E706AE2B6884
:10F9100030193A46C4F5807104F0A4FE054688E724
:10F9200006AE6A682B68009230193A46C4F58071B9
:10F9300004F098FE05467CE700257CE78C2100203A
:10F94000004F0200D4210020F0B51A4F3B7889B057
:10F9500006461BB1184B1B78834228D0174D0FCD9C
:10F960006C460FC495E80F004FF0000E84E80F00BE
:10F970000625052107224FF0EB7311480391082457
:10F9800002928DF814E000950194069301F034FE84
:10F99000002E0C4A0A4818BF0022694601F03EFDBD
:10F9A00018B9054A012316703B7009B0F0BD00205C
:10F9B00009B0F0BDD6220020D5220020E04E020082
:10F9C0008C21002059F5010000487047C5F701005F
:10F9D0000048704769F5010038B50020FFF7B4FF13
:10F9E000044668B9FFF7F0FF0546FFF7F1FF054B46
:10F9F000FF22C3F810541C605C60C3F814049A60C2
:10FA0000204638BDD82200200120FFF79DBF00BF4F
:10FA10002DE9F04383B002AB4FF0000903F8019DDC
:10FA2000254C074618460E46A56801F071F8A268F5
:10FA30006368D4F8008013440133C8EB0303012B3F
:10FA400007D80BBB9DF8070001F08AF803B0BDE8AA
:10FA5000F08308F101039DF80700236001F080F8AE
:10FA60000122002362F3010369F3820308EA05051A
:10FA700067F3C50304EB850469F3891366F39F23D9
:10FA8000E36003B0BDE8F08301214B4661F301035D
:10FA900069F38203052161F3C50302EA08020749FD
:10FAA00004EB820269F3891308F1010561F39F23D6
:10FAB0002560D360C6E700BFD8220020084F0200AF
:10FAC0002DE9F04782B002AB4FF0000903F8019D29
:10FAD000DFF8B4800746184615460E46D8F80840A9
:10FAE00001F016F8D8F80820D8F80430D8F800A0AB
:10FAF00013440133CAEB0303022B07D853BB9DF811
:10FB0000070001F02DF802B0BDE8F0870AF102030A
:10FB10009DF80700C8F8003001F022F80122002308
:10FB200062F301030AEB020169F3820367F3C50381
:10FB30000AEA040A0C4008EB8A0A62F3891308EB0C
:10FB4000840866F39F23CAF80C30C8F80C5002B042
:10FB5000BDE8F08701214B4661F3010369F382039D
:10FB6000052161F3C50302EA0A02064808EB820296
:10FB700069F389130AF1010160F39F23C8F80010AB
:10FB8000D360BCE7084F0200D82200202DE9F047DF
:10FB90004C4E96E80C0093428AB070D0B06804E0F6
:10FBA000C4F3891202EB9452134400EA03050235B0
:10FBB00006EB85020133546814F00302F0D0022AE8
:10FBC00028D0C4F38312C4F3952C002A75D00DF10C
:10FBD000100E75469F1803EA000106EB8101013300
:10FBE000C96845F8041BBB42F5D10092C4F3C200BA
:10FBF00062467346D6F81044324D0021A04738B112
:10FC000077603068C01B18BF01200AB0BDE8F087DC
:10FC10006F68F6E703F1010A20EA0A0103400131A7
:10FC200006EB830389004FEA94588845DA68DFF8C9
:10FC300094E0C4F3891326D9A9B30AEA000C5FFA49
:10FC400081F90EEB8C0CC9EB08010CF10C0C0EF1D8
:10FC50000C00C9B202900391CDF800C0CDF8049019
:10FC6000C4F3C2000021D6F81474B847404520D030
:10FC700006EB850560F38F146C607768C1E70020A0
:10FC80000AB0BDE8F08700EA0A000EEB80000C30F5
:10FC90008DE801010021DEF814C402910391C4F340
:10FCA000C200E047E2E70EF10C0C08465FFA88F963
:10FCB000D0E703300AEB9007A2E71F460DF1100EC4
:10FCC00093E700BFD82200202DE9F84F234B1A7884
:10FCD0008AB3DFF88CB0DFF88C80DFF88C900024DA
:10FCE0004FF0010A03E00134E4B2944223D226B279
:10FCF000D8F80050DBF8003015F836000AFA00F1A9
:10FD0000194205EBC607EED0154A23EA010313603A
:10FD100001F016FA15F83650D9F800300AFA05F154
:10FD20000B4000FA05F18B4207D00C4B01341A78D6
:10FD3000E4B29442DBD3BDE8F88F79787B68A1F117
:10FD40000101B1FA81F14909002BEED0091A2846C8
:10FD5000B1FA81F149099847E7E700BFF82600208A
:10FD600020270020F42600201C27002070B506461E
:10FD7000114800F095FD40B9104D01242B68B440A6
:10FD80001C4203D023EA04042C6070BD304601F00D
:10FD9000D7F90B4E326860B122432B6809493260B3
:10FDA0001C432C60044809680022BDE8704000F044
:10FDB0001FBD22EA0402F0E7FC26002020270020D5
:10FDC0001C270020F0260020F0B5042A85B0174635
:10FDD00002D8072005B0F0BD0191054601F07AF880
:10FDE0000199002830D01C4CDFF888E01B481C4AE1
:10FDF0001C4B256000264C1E07608EF80010166014
:10FE00001E60E4B2032709B918E01C4623B205EBD3
:10FE1000C30215F833009378134A8DF80D3003A907
:10FE20008DF80C708DF80E608DF80F6001F05CF8A5
:10FE3000631E0028CED1DBB2002CE6D10B4A0C4861
:10FE4000002100F0C3FCC5E7019101F001F8019920
:10FE50000028C8D0BEE700BFF4260020F02600200E
:10FE60001C270020202700206DFD0100C9FC010097
:10FE7000144F0200F826002070B5084D2B785BB1B6
:10FE8000074E00243368012113F8340001F0F6F81E
:10FE90002B780134A342F5D8002070BDF82600204D
:10FEA000F426002000B585B000230390194644F2E3
:10FEB000010001AAADF80430029300F003F805B088
:10FEC0005DF804FB08B501200A49FFF7A1FDFFF723
:10FED0009BFDFFF75BFE0028FBD1BFF34F8F064968
:10FEE000064BCA6802F4E0621343CB60BFF34F8F46
:10FEF00000BFFDE7184F020000ED00E00400FA0526
:10FF000059B10AB909207047531E1A40FAD18260CC
:10FF100001608380C260104670470E20704700BFAA
:10FF200010B48468C26803468088121B904203D2D2
:10FF300004205DF8044B7047DA681C68024000201A
:10FF4000A154DA680132DA605DF8044B704700BFF3
:10FF500003468068DA6890420DD010B49A68988899
:10FF60001C6802400020A25C0A709A6801329A6004
:10FF70005DF8044B70470520704700BF2DE9F04144
:10FF8000274A284B0025C2F84051C2F84451C2F814
:10FF90004851C2F84C51C2F80051C2F804511B68D4
:10FFA0001BB32149D2F804250C68204F141B1A6892
:10FFB00024F07F44A242A84609D8197CDE69A41A1D
:10FFC0001544A1B91EB133461A68A242F5D9184B9F
:10FFD00018491A780B789A421BD01749174A41F8EA
:10FFE00023504FF48013C2F80031BDE8F081D3F8FC
:10FFF00014C083F810803A689B69604619462AB19C
:020000022000DC
:1000000090470028DED0FFF74DFFDBE71846E047BA
:10001000D8E7531CDBB2022B08BF00230B70DCE7D0
:100020000010014028270020242700202C27002032
:1000300030270020312700203C27002000E100E08D
:100040002DE9F04F894A8A491378097889489942FD
:1000500087B0D0F8009000F016820133DBB2022B9B
:1000600008BF00231370844A52F82370814A07EBBB
:10007000090323F07F4313604FF0010A7F4BCDF853
:100080000C90D3F800807E4B19785B7801931E4664
:100090007B4B5C6893F802E07A4B93F800B0754BA9
:1000A0001B680293424643460020BC46B14217D02B
:1000B00001EB4105013114F83570C9B2714508BF33
:1000C0000021022F04EBC50577D0032FEED1002BC2
:1000D000ECD0DA6918741346002AFAD1B142E7D19C
:1000E000664902980A606349DDF80C90086065492A
:1000F000674681F800B0BAF1000F40F0A481B8EB78
:10010000030218BF01220592039355461E46594B20
:10011000DFF87491D3F800C0584BD3F800A0584BC7
:10012000D3F804B09B780293554B93F800E0554BFD
:100130001B78049300274FF0010835B36968A8685D
:100140002C46ED69CCEB010222F07F424A4556D89D
:10015000131823606760A76084F81080E761002EA1
:100160007FD0316899425CD2304603E011689942F1
:100170005ED21046C2695B1A002AF7D12360E261A1
:100180003346C4611E46002DD8D1019B9E457DD0CB
:100190000EEB4E020BEBC2030EF1010E1BF83220E8
:1001A00002995C685FFA8EFE8E4508BF4FF0000E24
:1001B000012A44D033461E46E5E7D5F80490002BCB
:1001C0003FF474AF4B4500F039811F4600E02F46E5
:1001D000FD69002D3FF46AAFA945F8D1B946A9459C
:1001E0002F4600F02B81FD693F68C9F81C50002D97
:1001F0003FF45CAF2B683B442B60134656E7C1EBE2
:100200000C0121F07F41814202D2431A2360A1E711
:1002100027606760A76084F81080E7610EB33168DB
:100220000023CB1A33602346E661A2461E46AAE7A6
:10023000C91A11602360E2613346C461A2E7227CDF
:10024000002AB7D199686160D868A0601A69E26035
:100250005B69A361049B002B3FF474AF6560294682
:1002600070E72346A2461E468DE700BF30270020D8
:1002700031270020242700203C27002028270020A9
:100280003427002032270020FEFF7F00854B83F8B3
:1002900000E0854BC3F800A0039BB34200F0C4808C
:1002A000002E00F01181814C814BD4F804051B68AD
:1002B000804DD6F800C02978C21A22F07F4203325E
:1002C000002952D17C4FDFF8F491DFF8F4814FF42C
:1002D00080314FF4003E0126C4F84413C4F80413DF
:1002E000C7F880E1C7F800E026602F21D9F8004068
:1002F00000BF00BF00BF00BF00BF00BF00BF00BF06
:1003000044452FD000BF00BF00BF00BF00BF00BFEB
:1003100000BF00BF00BF00BF00BF00BF00BF00BFE5
:1003200000BF00BF00BF00BF00BF00BF00BF00BFD5
:1003300000BF00BF00BF00BF00BF00BF00BF00BFC5
:1003400000BF00BF00BF00BF00BF00BF00BF00BFB5
:1003500000BF00BF00BF00BF00BF00BF00BF00BFA5
:1003600000BF00BF0139C3D12E7062452CBF9A185F
:1003700003EB0C024D4922F07F43C1F84035D1F820
:100380000425121A1B1A22F07F4223F07F43033206
:100390009A424DD9D1F80435484AC1F8403512681F
:1003A00047492F2300BF00BF00BF00BF00BF00BFF1
:1003B00000BF00BF8A422FD000BF00BF00BF00BFF8
:1003C00000BF00BF00BF00BF00BF00BF00BF00BF35
:1003D00000BF00BF00BF00BF00BF00BF00BF00BF25
:1003E00000BF00BF00BF00BF00BF00BF00BF00BF15
:1003F00000BF00BF00BF00BF00BF00BF00BF00BF05
:1004000000BF00BF00BF00BF00BF00BF00BF00BFF4
:1004100000BF00BF00BF00BF013BC3D1264B4FF45C
:100420000032C3F8002103E0059B002B7FF438AFB6
:10043000244A0023137007B0BDE8F08FDA6942B395
:1004400013464F46CFE6002528462C46A3B119682F
:10045000B9421BD8DA681C607F1A0844D9693AB1DE
:1004600000EB090626F07F46DD619A605E601D465E
:100470000B460A46002BEAD10B49039301230A607D
:100480000593039E43E60027BA46F7E5C91B1960AA
:10049000F2E7064B01259D604F4613460292AB469C
:1004A000A1E600BF342700202827002000100140CB
:1004B000242700204427002000E100E0A4210020A0
:1004C0000024F40032270020484A494B494D4A484D
:1004D0004FF480314FF400370124C3F88070C2F824
:1004E00048132F23C2F80813546029681D4600BF23
:1004F00000BF00BF00BF00BF00BF00BF00BF814200
:100500002FD000BF00BF00BF00BF00BF00BF00BFB3
:1005100000BF00BF00BF00BF00BF00BF00BF00BFE3
:1005200000BF00BF00BF00BF00BF00BF00BF00BFD3
:1005300000BF00BF00BF00BF00BF00BF00BF00BFC3
:1005400000BF00BF00BF00BF00BF00BF00BF00BFB3
:1005500000BF00BF00BF00BF00BF00BF00BF00BFA3
:1005600000BF013DC3D19460244A166000BF00BFA4
:1005700000BF00BF00BF00BF00BF00BF81422FD03F
:1005800000BF00BF00BF00BF00BF00BF00BF00BF73
:1005900000BF00BF00BF00BF00BF00BF00BF00BF63
:1005A00000BF00BF00BF00BF00BF00BF00BF00BF53
:1005B00000BF00BF00BF00BF00BF00BF00BF00BF43
:1005C00000BF00BF00BF00BF00BF00BF00BF00BF33
:1005D00000BF00BF00BF00BF00BF00BF00BF00BF23
:1005E000013BC3D1064B1E7022E700BF0010014043
:1005F00000E100E0A42100200024F40024270020D2
:10060000442700202DE9F04F12F0030402D0072008
:10061000BDE8F08F002AFAD0614D624EDFF88CC140
:10062000DFF88C814FF4803E4FF400374FF0010922
:10063000C6F88070C5F848E32F27C5F808E3C5F869
:100640000490DCF800C0BE4600BF00BF00BF00BF82
:1006500000BF00BF00BF00BFC4452FD000BF00BF18
:1006600000BF00BF00BF00BF00BF00BF00BF00BF92
:1006700000BF00BF00BF00BF00BF00BF00BF00BF82
:1006800000BF00BF00BF00BF00BF00BF00BF00BF72
:1006900000BF00BF00BF00BF00BF00BF00BF00BF62
:1006A00000BF00BF00BF00BF00BF00BF00BF00BF52
:1006B00000BF00BF00BF00BF00BF00BFBEF1010E02
:1006C000C2D1DFF8F0E0C5F80890CEF8004000BFD6
:1006D00000BF00BF00BF00BF00BF00BF00BFC445D8
:1006E0002FD000BF00BF00BF00BF00BF00BF00BFD2
:1006F00000BF00BF00BF00BF00BF00BF00BF00BF02
:1007000000BF00BF00BF00BF00BF00BF00BF00BFF1
:1007100000BF00BF00BF00BF00BF00BF00BF00BFE1
:1007200000BF00BF00BF00BF00BF00BF00BF00BFD1
:1007300000BF00BF00BF00BF00BF00BF00BF00BFC1
:1007400000BF013FC3D1DFF870C0DFF870B0164FB3
:10075000DFF86CA0DFF86C90DFF86C808CF800405C
:10076000CBF800304FF4801CE023B9703C707C70F3
:10077000CAF8004089F8004088F80040C6F880C1F7
:1007800086F81433C6F800C0C5F8080586F811339A
:10079000D5F80435CEF800307A602046BDE8F08FF9
:1007A0000010014000E100E034270020A4210020D7
:1007B0000024F40024270020442700202C270020B8
:1007C000282700203027002031270020074B5B68B6
:1007D00023B12AB120B10368187C18B108207047F2
:1007E0000720704759745A61704700BF34270020B2
:1007F0002DE9F043274C636883B033B128B1042955
:1008000007D8072003B0BDE8F083082003B0BDE897
:10081000F0834369002BF8D0054602A86B7C0026C4
:10082000012B00F8016D0CBF8946B14690460F467A
:1008300000F06EF96378A07821785A1CD2B2904209
:1008400008BF324691421FD003EB43036068DB00D0
:10085000C11819D04FF0010E00F803E00E4B4D60A7
:10086000D3F804358B609DF80700CF60C1F8109075
:10087000C1F81480627000F073F9084B4FF48012D5
:100880003046C3F80021C1E79DF8070000F068F981
:100890000420BBE7342700200010014000E100E005
:1008A000F0B51C4D6B6883B053B348B343693BB399
:1008B000044602A8002600F8016D267400F028F90D
:1008C0006B78A87829785A1CD2B2904208BF324679
:1008D000914218D003EB43036968DB00CF1812D0B4
:1008E0000220C8547C609DF807006A7000F038F957
:1008F000094B4FF480123046C3F8002103B0F0BD1D
:10090000082003B0F0BD9DF8070000F029F904208D
:10091000F7E700BF3427002000E100E030B504789D
:10092000012C83B01FD010D3022C0CD1C3682649F0
:100930002648019301228DF8004000F0A9FF244BC6
:1009400068461B68984703B030BD22482249FFF72C
:10095000FFFA28B302A8032300F8083D1C4B1B68CC
:10096000984703B030BD43681C4D19782846FFF7FF
:10097000D7FAD8B9AA68EB689A4206D002AB144AF3
:1009800003F8080D126818469047A968EB68AA8812
:100990005B1A9A4212D2124B01221A7003B030BD78
:1009A0000D490A48012200F0ADFECCE7084B01904A
:1009B0008DF800401B6868469847E6E702490348FF
:1009C000012200F065FFBEE750270020942100209F
:1009D0004C270020542700204827002068270020AB
:1009E000642700202DE9F047314C88B022600C4686
:1009F000002954D0814609682E48A2889846FFF7FE
:100A00007FFA10B108B0BDE8F0872B48A168A28931
:100A1000FFF776FA0028F5D1284C99F810A099F83C
:100A200011C0D9F81460D9F80C500FCC6F460FC71D
:100A300094E80F001AF1000E87E80F0018BF4FF07E
:100A4000010ED9F80070D9F80430D9F808401C48D4
:100A50001C4A8DF81C80BCF1000F14BF4FF00E0C27
:100A60004FF0000C69468DF814E08DF815C006961D
:100A7000029503948DE8880000F0D0FC0028C1D1D5
:100A8000D9F80030104A01331070BBD09DF81D30EA
:100A90004BB10E490A48012200F0FAFEB2E70720E6
:100AA00008B0BDE8F087064801F01CF8F1E700BF88
:100AB0004C2700206827002054270020304F0200D8
:100AC000942100201D0902006427002050270020E7
:100AD00070B50B4C01460B482678FFF739FA0546EE
:100AE0000EB9284670BD002307480849237001222B
:100AF00000F0CEFE0028F4D0FFF7D4F9284670BDF0
:100B0000642700206827002094210020502700201F
:100B1000F0B4EFF3108472B60E4B9A68B2B90E4976
:100B200001259D60D1F880700C4D2E463D401D6022
:100B3000C1F88060D1F884505D604FF0FF33C1F898
:100B40008430027004B962B6F0BC704701230370B0
:100B5000F8E700BF802D002000E100E0FC06FFBCAC
:100B6000094B9A6872B168B910B4EFF3108272B68B
:100B700006491C680C605C684C60986002B962B6FB
:100B80005DF8044B704700BF802D002000E100E0BD
:100B900020B1034B5B6E0360002070470320704759
:100BA000782700204FF0A043044AD3F80435125CA4
:100BB000D34003F0010080F001007047544F020061
:100BC000044B195C4FF0A04201238B40C2F80C3556
:100BD000704700BF544F0200044B195C4FF0A04215
:100BE00001238B40C2F80835704700BF544F020004
:100BF0004FF0A04310B44FF480204FF400344FF472
:100C000000214FF48012C3F80845C3F80805C3F863
:100C10000815C3F808255DF8044B70474FF0A04352
:100C200010B44FF480204FF400344FF400214FF4FF
:100C30008012C3F80C45C3F80C05C3F80C15C3F8B3
:100C40000C255DF8044B7047074B4FF0A041185C32
:100C5000D1F804350122824022EA03001340C1F892
:100C60000805C1F80C357047544F020030B44FF0FE
:100C7000A04303224FF400354FF480244FF40020AA
:100C80004FF48011C3F84427C3F84827C3F84C2712
:100C9000C3F85027C3F80855C3F80845C3F808053A
:100CA000C3F8081530BC70474FF0A043044AD3F88E
:100CB0001035125CD34003F0010080F00100704752
:100CC000504F02000D2809D00E2809D00F2809D056
:100CD000102814BF4FF0FF300320704700207047EA
:100CE0000120704702207047014B185C704700BF1D
:100CF000504F020010B51D4B1A6882B0F2B91C4B60
:100D00001A680AB902B010BD00221A601B6801936C
:100D10004FF080430222174C0199C3F8082323693E
:100D20000122A270002BEDD01A6822615B680120BD
:100D300098472369002BF7D102B010BD00221A603A
:100D40001B6800934FF0804301220A4C0099C3F8BE
:100D50000823A3686270002BD1D01A68A2605B6878
:100D600000209847A368002BF7D1C8E70001004096
:100D700004010040E027002000B1704710B5064C88
:100D8000A3683BB11A68A2605B6800209847A3681B
:100D9000002BF7D110BD00BFE027002010B582B0B6
:100DA00002A80023144C00F8013DFFF7B1FE2378A0
:100DB00093B9124A6360E3601068A36010F0010009
:100DC000236114D003F066FB20B94FF08043012269
:100DD000C3F8182501232370E3689DF80700013349
:100DE0000122E360A270FFF7BBFE02B010BD072135
:100DF00000F006F8E6E700BFE027002000E100E091
:100E0000002810B418DB00F1604303F56143490189
:100E1000C9B283F80013C3B24009800000F16040FA
:100E200000F5614003F01F0201239340C0F88031B8
:100E300003605DF8044B7047C3B2044A03F00F042B
:100E400049012244C9B21176E6E700BFFCEC00E09C
:100E500030B51D4C94F8545083B015B1082003B040
:100E600030BD4FF0FF33FF22062007212363636369
:100E7000A363E36323646364A364E3642360636044
:100E8000A360E36023616361A361E361236284F88B
:100E900050306362A36284F85230E36284F85330C6
:100EA00084F85120FFF7ACFF084B094A1D601B680E
:100EB000019301984FF000430121284684F8541013
:100EC000C2F8043303B030BDF42700207C61004039
:100ED00000600040034B93F85400003018BF01201D
:100EE000704700BFF4270020F0B5634C251895F932
:100EF0003030002B01DB0820F0BD91F803E0944670
:100F0000BEF1000F56D02368013300F0AD800826F3
:100F100000256B1C584F54F82320013251D0AB1CD4
:100F20009E4245D957F8232001324AD0EB1C9E42FD
:100F30003ED957F82320013243D02B1D9E4237D98A
:100F400057F8232001323CD06B1D9E4230D957F810
:100F50002370013735D0AB1D9E4229D954F8232088
:100F6000454F01322DD0EB1D9E4221D957F8232049
:100F7000013226D005F108039E4219D957F82320E3
:100F800001321ED005F109039E4211D957F82320E2
:100F9000013216D005F10A039E4209D957F8237091
:100FA00001370ED00B35AE4202D9E36A013307D0C8
:100FB0000420F0BD236A01334ED00C260825A8E793
:100FC0000B232618DDB244F823C086F83050BEF15A
:100FD000000F02D1234483F848008B78ABB94A78DC
:100FE0004FF0A04600F5E073920046F82320CB783E
:100FF000ABB96AB2083A1444097894F8502042EA2E
:10100000811284F850201846F0BD830003F1A043FC
:10101000D3F8002722F00202C3F80027E7E76BB2FB
:101020009B0003F1804303F5C0430A78D3F8101501
:1010300021F4473121F44071C3F810151204000265
:1010400002F44031D3F8104500F4F8520A43224329
:10105000C3F810250020F0BD082685F8306033461F
:10106000C4F820C03546B5E7002385F83030C4F811
:1010700000C01D46B1E700BFF4270020F0B42E4D9C
:101080002E1882B096F8302053B2072B1CDD2B446B
:1010900093F848309B09032B40D0012B0CBF4FF431
:1010A00000314FF44031800000F1A040D0F800271B
:1010B00022F44032C0F80027D0F800370B43C0F8C4
:1010C000003702B0F0BC7047072AFAD8980000F148
:1010D000804000F5C04003F140029200D0F8104576
:1010E00092B202F18042002744F0010402F5C042AE
:1010F000C0F810450197019817600029E1D096F9D2
:10110000302055F82220002ADBD001220B4902FAB8
:1011100003F3C1F8043302B0F0BC70474FF0A043B2
:10112000D3F81035C34013F0010F14BF4FF4403112
:101130004FF40031B7E700BFF42700200060004003
:101140004FF0A043D3F8103523FA00F000F001006F
:10115000704700BF2DE9F04786B00026A24B0196EC
:101160001A68012A00F03281A04B1A68012A00F0A7
:101170001F819F4B1A68012A00F00C819D4B1A6851
:10118000012A00F0F9809C4B1A68012A00F0E680E1
:101190009A4B1A68012A00F0D380994B1A68012AE9
:1011A00000F0C080974B1A68012A00F0AD80964B82
:1011B0001A68012A00F09B8016F0FF0F1AD0934F97
:1011C00001250024A30003F18043354203F5C04309
:1011D0004FEA45050BD0D3F8100557F82420D3F873
:1011E0001015C0F30420C1F3014102B1904701344E
:1011F000082CE7D1002E02DB06B0BDE8F087844D55
:1012000000224FF0FF33A5F1530702920393814C64
:101210004FF00008012614F8011FFF292BD0C9B296
:1012200021F0C00006AB4FEAD00E03EB0E0201F036
:10123000070312F80CCC06FA03F31CEA030F1AD0CA
:1012400007EB000C89099CF930C057F82CC0BCF1A1
:10125000000F3CD003293CD04FEA800E0EF1A04E87
:1012600012F8149CDEF8002719EA030FC2F30142BA
:1012700011D1032A36D0AC42CDD1B8F1000FBBD08A
:101280004FF0A043019AD3F810359342B4D0029A9C
:1012900001930392BBE7022AEDD1032904D0BCF1EC
:1012A000000FE8D0E047E6E74FF44039DEF80027CA
:1012B00022F44032CEF80027DEF8003708F10108AA
:1012C00049EA03035FFA88F8CEF80037E7E7032915
:1012D000D1D10DF1080A1AF80E9049EA03090AF86B
:1012E0000E90B9E70329DAD14FF40039DEE7002286
:1012F0001A601B6805934FF0A043059AD3F8103588
:10130000019346F0004657E7434AD2F804231206F9
:101310007FF54DAF00221A601B680493049B46F0D2
:10132000800644E73C4AD2F8042351067FF53AAFE1
:1013300000221A601B680493049B46F0400631E7C4
:10134000354AD2F8042390067FF527AF00221A60B1
:101350001B680493049B46F020061EE72E4AD2F831
:101360000423D4067FF514AF00221A601B6804938F
:10137000049B46F010060BE7274AD2F80423150712
:101380007FF501AF00221A601B680493049B46F0AE
:101390000806F8E6204AD2F8042357077FF5EEAE98
:1013A00000221A601B680493049B46F00406E5E6DD
:1013B000194AD2F8042392077FF5DBAE00221A60A7
:1013C0001B680493049B46F00206D2E61249D1F84A
:1013D000041311F0010105D01E601B680493049BE7
:1013E0001646C1E60E46BFE60061004004610040BB
:1013F000086100400C610040106100401461004031
:10140000186100401C6100407C610040F42700200E
:10141000472800204328002000600040F0B50479F0
:10142000724E6401331987B0DD7E183315B1082080
:1014300007B0F0BD4D7F1D710D686B1C0BD04FF0D8
:10144000A0470123AB40C7F808350B6803F5E073EC
:10145000032547F823504B685F1C06D003F5E07363
:101460004FF0A045002745F82370037906EB43139E
:101470001B7F002B4DD003688D69C3F824550F7D69
:101480004B7D05683B43C5F86C3503680F684D68B4
:10149000C3F80C75C3F814550B7D012B00F09B802D
:1014A000331905465A600B6950483351EAB12B791C
:1014B000097F2A6800EB4310037F002B65D1C2F837
:1014C0001C31D2F81C712A680197019FC2F844317F
:1014D000D2F844212B6846480092009AC3F80403CE
:1014E000286840F30730FFF78BFC2B792A6806EB5E
:1014F00043131B7F002B44D00823C2F8003534442B
:1015000000200121E075A0752076A076E17607B075
:10151000F0BD05688F69C5F8247591F814E04D7D1C
:1015200007684EEA0505C7F86C550568D1F800E074
:101530004F68C5F81475C5F80CE50D7D012DAFD1C8
:101540008D686F1C05D005F5E0754FF0A04747F892
:101550002530CB685D1C0DD001254FF0A04705FA62
:1015600003F3C7F80835CB6803F5E073032547F8A4
:101570002350CB6805688F68C5F80835C5F8107525
:101580008EE70423C2F80035B9E70023C2F8103112
:10159000D2F810712A680597059FC2F82031D2F859
:1015A00020712A680497049FC2F82431D2F824716C
:1015B0002A680397039FC2F84431D2F844212B686C
:1015C00002920C48029AC3F80403286840F30730DB
:1015D000FFF716FC89E78B685D1CBAD003F5E07352
:1015E0004FF0A045002745F82370B2E74C280020B3
:1015F0008000020010030200F0B503793D4A046840
:101600005B01D118097F00296DD00021C4F80015B5
:10161000D118384C4968B1B1017904EB4114217FEC
:10162000002963D10168344CC1F808430168334E86
:10163000090B4CB26409203401F01F01012505FAA1
:1016400001F146F824100179076802EB4111D7F83F
:101650000C65097FD7F814554FF0FF3EA9B3D7F8B2
:101660000815D7F81045C7F80CE5C7F814E5006869
:10167000C0F808E5C0F810E5771C06D006F5E0765E
:101680004FF0A040022740F826706E1C06D005F5EA
:10169000E0754FF0A040022640F82560651C06D09A
:1016A00004F5E0744FF0A040022540F82450481C97
:1016B00006D001F5E0714FF0A040022440F821402F
:1016C00013440022DA765A60F0BDD7F80815D7F82F
:1016D0001045C7F814E5C7F80CE50068C0F808E540
:1016E000C0F810E5C8E7C4F8001591E70168044C9C
:1016F0009AE700BF4C2800208402020000E100E0CD
:10170000100302002DE9F04103795A4D5B01EC18FA
:1017100086B0247F44B101F06044B4F1005F03D08F
:10172000102006B0BDE8F0812B44DFF848E19F7D32
:101730001FB1112006B0BDE8F08199609A759F82B3
:10174000067976010EEB06010B7F2BBB0268C2F80F
:101750001C31D2F81C41026805940124059F946055
:101760000468D1F808C0C4F81C31D4F81C310493C3
:10177000049B8F8A8B8AD1F804E0BFB201331CF836
:1017800007709BB28B82C4F81C75BEF1000F33D07A
:10179000002006B0BDE8F08103688A68C3F82071B4
:1017A000D3F8204103680294029CC3F85871D3F81F
:1017B0005841036801948C7D019FC3F84425C3F808
:1017C0004845036801229A604B68002BE0D102680B
:1017D00001E0002B4CD1D2F82011D2F8583100335F
:1017E00018BF01230029F4D0002B0CBF00200F20CC
:1017F000AB1900229A7594E78F7D8B8A01F1100254
:101800009BB2BB4226D2046804E093889BB2B3F536
:10181000807F05D0D4F81C3101F11002002BF4D0E8
:1018200001F1100293889BB2B3F5807FE5D0C4F834
:101830001CE1D4F81C310393039BB2F80480938815
:101840001FFA88F801331CF808809BB29380C4F813
:101850001C85D2E793889BB2B3F5807F08D00268DD
:10186000D2F81C31002BFBD00123D3600020BFE74E
:101870000F20BDE74C2800200279044B03EB4213F4
:10188000987D003018BF0120704700BF4C28002011
:10189000F0B50379924C5B01E51889B02E7F3EB11B
:1018A00001F06046B6F1005F52D0102009B0F0BDE3
:1018B0006F6827B105684FF40176C5F808632344C3
:1018C00003F11006F579DFF818E255BBF271D96023
:1018D0001D765D7606797601A31918331F79002FDE
:1018E00047D19B788BB985B90368C3F82451D3F8E5
:1018F000242103680492049AC3F80851D3F80821FC
:1019000003680392012203991A60A5196B68002BE2
:1019100064D003684FF401720020C3F8042309B0B7
:10192000F0BD1D7E85B1002F00F0AC8003790EEB79
:10193000431E9EF81C30002B49D003684FF40472FC
:10194000C3F804231120B1E719611A760125C1E714
:101950006F68002FB3D00568DFF884E14FF4047698
:101960002344C5F8086303F11006F579002DADD0C6
:10197000D7E703680026C3F81061D3F81071036835
:101980000297029FC3F84461D3F84461036801964B
:10199000019EC3F83415C3F8382585B903680122C0
:1019A0001A6005796D0163195B68002B6CD00368C0
:1019B0004FF404720020C3F8042309B0F0BD02689C
:1019C000D2F8003243F02003C2F80032E9E703689E
:1019D0004FF40172C3F80423112067E70268C2F8CC
:1019E0004431D2F844310593059B0168D1F8242194
:1019F000D1F80871D1F84431003218BF0122003308
:101A000018BF012347B9002B35D1002AEED0A31906
:101A10000022DA75032049E7002AF8D16BBBEA7D82
:101A200002B3C1F80831D1F808310693069A6F7EE7
:101A3000EA68D1F81815D1556A7E0132D2B26A76B9
:101A400005F1180305F110025978D7798F42CCD8E7
:101A50009B780021D171002B3CD0036801220846FD
:101A60001A6023E7C1F80821D1F808310793079BD2
:101A7000D1F81835E4E7002AC9D1A3190022DA7594
:101A80000F2013E7112011E7016801E0D3B9EAB98B
:101A9000D1F81061D1F84431D1F82421003318BFB6
:101AA0000123003218BF0122002EEFD0002A4FF090
:101AB00000012C4414BF032008468B42E17518BF77
:101AC0000F20F3E62C440F20E675EFE62C440320AC
:101AD000E375EBE60268012118465160E6E600BFB7
:101AE0004C280020114A037902EB4313183319796B
:101AF000D9B99B78CBB910B4016883B0C1F824314F
:101B0000D1F8244101680194019CC1F80831D1F851
:101B10000831016800930123009C0B60017902EBFE
:101B20004112937603B05DF8044B70474C280020B7
:101B3000F0B59B4C237F8FB0002B75D1994AD2F81A
:101B40000413890548D4974BD3F80423520704D5CE
:101B5000D3F80821002A40F0CA80924BD3F81C2108
:101B6000C2B1A28AA07D8E4992B282424FF0000299
:101B7000C3F81C2180F0A980D3F81C210692069A94
:101B8000888A8A8A8D6880B20132285C92B28A8201
:101B9000C3F81C05834BD3F84421DAB10022C3F803
:101BA0004421D3F84411A27E04910499002A40F004
:101BB0008980E27D7A4B6AB10022587ED968DA7555
:101BC00001228DF830000B918DF828200AA893E8A7
:101BD000060090470FB0F0BDD2F824110029B2D012
:101BE000C2F82431D2F82411A37E07914FF4017179
:101BF0000798C2F808130BB901235360694A0223FE
:101C00008DF82830D2F88034C2F88034E07DE26864
:101C10000D9300238DF83000E375237621680B9235
:101C200063680AA8984798E75E4BD3F82421002AF6
:101C300040F09380D3F8101161B1C3F81021D3F8AC
:101C4000101103910399D3F83C15E07DC9B2884285
:101C500000F0AA80534BD3F84421B2B10022C3F85C
:101C60004421D3F84411E07D019101994C4960B1C0
:101C7000D3F83C35C8688DF830300123CA750B9015
:101C80008DF828300AA80AC99847464BD3F8202176
:101C9000002A9FD00022C3F82021D3F82011A07D74
:101CA000009100993E49002894D0D3F84C058B68E8
:101CB0008DF830008A750B938DF828200AC90AA880
:101CC000984787E701221A6073E7D3F81C31059320
:101CD000059B00283FF45EAF8B688DF830008A7555
:101CE0000B938DF828200AC90AA8984752E7E17D8E
:101CF0002B4A002970D00021C3F80811D3F808112D
:101D000008910899D068517ED3F818354354537E12
:101D1000D17D0133DBB25376627E214B8A427FF460
:101D20001CAF1A7E002A6DD19B7E13B91D4B012278
:101D30005A601C4AE06863684FF40171C2F80813E6
:101D4000627E8DF83020002501220B902168E57518
:101D50008DF828200AA89847FFE60022C3F824211E
:101D6000D3F82411029102218DF828100299D3F89A
:101D70008014C3F880140D91D3F83C15E368E27524
:101D800022768DF830100B93216863680AA8984773
:101D9000044BD3F84421002A3FF477AF5EE700BF3D
:101DA0004C28002000200040217EF1B1D3F80072C1
:101DB000E17527F02001E6682569C3F800120123C8
:101DC0008DF830008DF82830227621680B96E5607A
:101DD00063680AA898473DE7C3F80811D3F80821BB
:101DE0000992099AD3F8183596E7E268E17501235C
:101DF0008DF830008DF828300B9294E80A000AA87C
:101E0000984727E7DE685D7E1869DA7501210022B0
:101E1000D8601A765A768DF828100B968DF83050C7
:101E200093E806000AA8904797E600BF0220FEF755
:101E30000BBF00BF2DE9F0470D460646FEF742FFF7
:101E4000032804461DD8012D1FD00ED3022D1AD110
:101E50001E4B00EB40041C44657895B11C4B1B687D
:101E60007BB12846BDE8F04718471A48FEF718FD31
:101E70001649194A04EB44030B44155D9B789D42B7
:101E8000EBD0BDE8F087BDE8F087DFF84080470081
:101E90003B1808EB030218F8035053782BB927447A
:101EA00047440D4BBA781A55D7E70C4BDFF8309002
:101EB0001968084801EB810149004A46FEF798FC81
:101EC0000028ECD189F80060E9E700BFE82800208D
:101ED000A0280020A4280020942800209C2800206E
:101EE0006C2800207F4B1B68DB0700D4704770B55F
:101EF0007D4E7E4D33782C789BB9172C10D8DFE8B7
:101F000004F0666B6B879CB0C2AA2415241582313D
:101F10003131313151565ECF0C0CFEF77FFE2C7003
:101F200070BD00233370FEF763FEE6E70123184619
:101F30003370FEF789FE6E4B6E481968002201EB84
:101F40008101BDE87040FEF753BC01231846337091
:101F5000FEF77AFE664B674819680022BDE87040BC
:101F6000FEF746BC6448FEF79BFCD4F11104024620
:101F700000F0A180002840F09E80012C0DD0C825E3
:101F80005E4B5B495C48096805FB04F4A3FB044312
:101F90005B0901FB03F1FEF72BFC0220BDE870405A
:101FA000FEF70EBEFEF724FE12232B7070BDFEF767
:101FB0001FFE0020FEF704FE13232B7070BDFEF7FA
:101FC00017FE0120FEF7FCFD14232B7070BDFEF7F9
:101FD0000FFE00232B7070BD0020FEF7E3FD0028EC
:101FE00079D00020FEF7F8FD022C0CBF1223282325
:101FF0003F4A2C7011683F4801FB03F10022BDE805
:102000007040FEF7F5BBFEF709FE0C232B7070BD88
:102010000020FEF7C7FD002856D00020FEF7DCFDAB
:102020000822334B3348196803232B7001FB02F15C
:10203000BDE870400022FEF7DBBB0020FEF7B2FDDA
:1020400000283DD00020FEF7C7FD2822284B294854
:1020500019680423E9E70020FEF7B2FD07232B707F
:1020600070BD0020FEF79EFD90B30020FEF7B4FD8A
:102070001F4B2048196805232B7049000022BDE83A
:102080007040FEF7B5BB0020FEF7DEFD184B194887
:10209000196806232B700022BDE87040FEF7A8BB2C
:1020A000FEF7A6FD0020FEF78BFD0120FEF788FD60
:1020B00015232B7070BD0220BDE87040FEF78CBD6B
:1020C000FEF77EFD0422C1E7FEF77AFD0222A8E7B3
:1020D000FEF776FDCCE7FEF773FD022C0CBF022362
:1020E000042385E77028002098280020C4280020B9
:1020F0009C28002074280020C82800201F85EB5150
:1021000010B50078FEF7DEFD03280BD8064B00EB78
:1021100040001844407828B1044B1B6813B1BDE857
:102120001040184710BD00BFE8280020A02800205C
:10213000FEF7BABD70B5964B1A6812F0010202D1D3
:102140001646304670BD934D2B780446E3B9172CE4
:1021500000F21C81DFE814F0E600ED00ED00540011
:102160006B008200970046002C001D002C001D0013
:10217000A500AC00AC00AC00AC00AC00CB00D200C1
:10218000DC0039004E004E0000232B70FEF730FDBE
:10219000DDE7012318462B70FEF756FD7E4B7F4886
:1021A0001968002201EB8101BDE87040FEF720BBF9
:1021B000012318462B70FEF747FD774B77481968C7
:1021C0000022BDE87040FEF713BBFEF711FD0020B2
:1021D000FEF7F6FC0120FEF7F3FC714B15221A7096
:1021E0000026AEE70020FEF7EBFC6D4B07221A70CD
:1021F0000026A6E7FEF712FD694B00261C70A0E73B
:102200000020FEF7CFFC002800F0BC800020FEF785
:10221000E3FC08226049624B0968604803241C7093
:1022200001FB02F1BDE870400022FEF7E1BA002098
:10223000FEF7B8FC002800F09E800020FEF7CCFCE2
:1022400028225549564B0968544804241C7001FB48
:1022500002F1BDE870400022FEF7CABA0020FEF786
:10226000A1FC002800F08B800020FEF7B5FC4A4A54
:102270004B4B1168494805241C7049000022BDE8F9
:102280007040FEF7B5BA0020FEF7DEFC444B424A30
:102290004248116806241C700022BDE87040FEF719
:1022A000A7BAFEF7BBFC3E4B0C221A70002648E78B
:1022B0003C48FEF7F5FAD4F11104064650D0002848
:1022C0004ED1012C0FD0C825374B3349354809680A
:1022D00005FB04F4A3FB04235B09324601FB03F175
:1022E000FEF786FA06460220FEF76AFC29E7FEF7AB
:1022F0007FFC2B4B12221A70002622E7FEF778FC97
:102300000020FEF75DFC264B13221A70002618E70A
:10231000FEF76EFC0120FEF753FC214B14221A70CD
:1023200000260EE7FEF764FC1D4B00221A701646CD
:1023300007E70020FEF736FCB0B10020FEF74CFCAA
:10234000022C0CBF122328231349154A0968147064
:10235000124801FB03F10022BDE87040FEF748BAC5
:102360000220FEF739FCECE6FEF72AFC022C0CBF3B
:1023700002230423E8E7FEF723FC042261E7FEF7CB
:102380001FFC74E7FEF71CFC022243E70026D8E698
:1023900070280020982800209C2800207428002005
:1023A000C4280020C82800201F85EB51F0B5224D1D
:1023B000224E234B2860044610F0020083B03160A7
:1023C0001A6014D01F4B20484FF00E0E0F27102616
:1023D00011254A0883F800E00421DF709E715D72C8
:1023E000FDF7F2FCA0B1E3071DD403B0F0BDE20796
:1023F00019D41648164A0021FEF7E8F90028F4D14E
:102400001448154A012103B0BDE8F040FEF7DEB9DB
:10241000FDF732FD0028E6D10146104A1048FEF7CC
:10242000D5F9E10703D50190FEF720FC01980028BB
:10243000DFD003B0F0BD00BF702800209C28002032
:10244000A0280020E8280020604F02005C4F020016
:10245000E51E0200804F02002D1E02000121020035
:10246000584F0200032801D907207047012A12D0D3
:10247000012917D008D30229F6D10D4B00EB4000FB
:10248000034400205A707047094B00EB400003449E
:1024900000209A707047012901D00022E8E700F17E
:1024A0000E02D2B200EB400301490020CA5470472B
:1024B000E828002008B5FEF717FC800000F1A043D3
:1024C0000020D3F8002722F44032C3F80027D3F8C5
:1024D000002742F44032C3F8002708BD08B50020A9
:1024E000FFF7E8FF10B1062800D008BD0120FFF774
:1024F000E1FF0028F9D0062808BF002008BD00BF72
:1025000010B50388102B08D0112B05D1264B186865
:102510000138186038B110BD10BD234C206880B15F
:102520000130206010BD02210122FFF79BFF48B35C
:10253000072827D01D4B1B68002BECD0BDE81040AE
:10254000184701460122FFF78DFF48B1072807D041
:10255000164B1B6803B1984720680130206010BDFE
:10256000012002210722FFF77DFF08B10728EFD1E4
:10257000002002210422FFF775FF0028ECD0072875
:10258000E6D1E9E7012002210722FFF76BFF08B13E
:102590000728CFD1002001460A22FFF763FF002859
:1025A000B9D00728C6D110BDF8280020F428002093
:1025B0001A4B10B50C46186029B10120FFF7B8FD81
:1025C00030B102232370164B186848B1002010BDAB
:1025D000FFF7AEFDF8B9124B207018680028F5D14E
:1025E00002210122FFF73EFF10B1072800D010BDE5
:1025F000012002210722FFF735FF08B10728F6D195
:10260000002001460A22FFF72DFF0028DED0072810
:1026100008BF0020EBE70B232370D4E7F428002049
:10262000F828002076DF70477ADF70477CDF70473C
:102630007FDF7047A8DF7047A9DF7047ADDF7047C5
:1026400067DF704732DF70473EDF7047FDF72ABC17
:1026500008B5082812D8DFE800F01227112111313F
:1026600005113F0003202249FDF7D2F9032020493C
:10267000FDF7CEF90320FFF75DFD58B908BD002036
:10268000FFF758FD70BBFFF729FF70BBFFF7DAFFBC
:102690000028F3D0BDE80840FDF704BC0220FFF796
:1026A00049FD0028F6D108BD03201249FDF7B0F915
:1026B0000520FFF73FFD0028ECD108BD03200E499F
:1026C000FDF7A6F903200C49FDF7A2F90320FFF757
:1026D00031FD0028DED108BD03200849BDE80840CF
:1026E000FDF796B9FDF7DEFBCDE7FDF7DBFBCDE7A8
:1026F000F44F0200AC4F0200CC4F02001C5002000D
:1027000038B50C46164B4878E2788978587099703D
:10271000DA702278134D14490320FDF7D1F962785D
:1027200012490320FDF7CCF9A27829460320FDF7D2
:10273000C7F92946E2780320FDF7C2F922790C494E
:102740000320FDF7BDF962790A490320FDF7B8F9C6
:10275000A27909490320BDE83840FDF7B1B900BFAF
:102760008C2D002084500200345002005C50020086
:10277000A0500200C4500200EC50020008B50378DB
:1027800003B108BD054B3B211888FFF74BFF00281C
:10279000F7D0BDE80840FDF785BB00BF9C210020B5
:1027A00038B50378012B02D007D3022B04D140683F
:1027B000BDE83840FDF776BB38BD0F4D0F4C28788B
:1027C0002044FEF785F92A780132D2B214442A70E7
:1027D00014F8013C0A2B01D0132A0BD908480749E9
:1027E00001F0C2FD30F0080301D0FDF75BFB0023D0
:1027F0002B7038BD38BD00BFFC280020E02B002026
:10280000F42B0020072808B51CD00A280ED0042875
:1028100000D008BD144B13211888FFF703FF30F0D8
:102820000803F6D0BDE80840FDF73CBB0020FFF7E9
:1028300081FCB0B9FFF752FE80B9FFF703FF002813
:10284000F0D108BD084B1A884FF6FF739A42E0D1C9
:1028500001F078F930F00803DBD0E3E7FDF722FB65
:10286000EBE7FDF71FFBE5E79C210020F0B51C4AD4
:102870001C4C1D4983B000232025032013702571B3
:102880006371FDF7C5F8227894F801C094F802E06E
:10289000E77826796579A3798DF8002013488DF8BB
:1028A00001C0694607228DF802E08DF803708DF8AB
:1028B00004608DF805508DF8063001F055FD50B1DB
:1028C00002460B490320FDF7FBF803200949FDF7F9
:1028D0009FF803B0F0BD03200749FDF799F8F4E72E
:1028E000FD2800208C2D00200C510200F42B00202C
:1028F0004C5102007C5102002C510200F0B50446FC
:1029000085B001F011FA21466F4801F007FC2388D9
:10291000023B542B35D8DFE803F09B343434343495
:1029200034343434343434342BA234AD3434343489
:102930003434343434C034343434343434343434CB
:102940003434343434343434343434343434343447
:102950003434346934343434343434343434343402
:10296000343434343434343434728A343494690032
:102970000720FFF7DFFB08B1FDF794FA534BA2885D
:102980001A802046524D01F099F82046FFF7B8FD15
:102990002B780BB105B0F0BD03204E49FDF738F898
:1029A0004D4B49481A7893F801C093F802E0DF785C
:1029B0001E795C798DF800209B798DF801C06946FD
:1029C00007228DF802E08DF803708DF804608DF811
:1029D00005408DF8063001F0C7FC002855D00246AE
:1029E0003E490320FDF76CF805B0F0BDA088132127
:1029F000FFF718FE0028C4D0FDF754FAC1E7A2790A
:102A0000A37B002ABDD0043B022BBAD8022A0CBFFC
:102A1000022201224FF4C173A0888DF8002069467C
:102A2000ADF80430FFF706FE0028AAD0E4E7274BF4
:102A3000002118880A460B46FFF7FEFD0028A0D0AB
:102A4000DAE7A0881721FFF7F9FD002899D0D3E72E
:102A5000A0880021FFF7F4FD002892D0CCE70020E9
:102A6000FFF768FB08B1FDF71DFA184B4FF6FF7230
:102A70001A8086E7154B0022188885211346FFF738
:102A8000D7FD00283FF47DAFB6E703201449FCF7DB
:102A9000BFFF01232B7005B0F0BD1248227A0378E6
:102AA000534013F0FE0F7FF46CAF013004F10901C5
:102AB000062201F0BBFD00287FF463AF03200A4922
:102AC000FCF7A6FF5DE700BFF42B00209C2100204F
:102AD000FD2800200C5102008C2D00204C510200DA
:102AE0002C510200A44F02009051020070B5032047
:102AF000A8B00621894A0023FDF784FD08B1FDF73F
:102B0000D1F98748874A0121FDF760FE08B1FDF73A
:102B1000C9F94FF4203100228348844D844EFDF7DB
:102B200067FE844B0A930FCD19AC0FC495E80300E0
:102B3000814A0C9684E8030007234FF4807419A897
:102B40000AA90B940D94FDF74DFF08B1FDF7AAF902
:102B5000032040F23331794AFFF728FC08B1FDF732
:102B6000A1F9002019A9FFF723FD08B1FDF79AF993
:102B70000020FCF731FF08B1FDF794F9704B714963
:102B800018680A9050220AA8002301F089FC08B1B5
:102B9000FDF788F90020012119AA01F0EFFC08B126
:102BA000FDF780F9172319A8ADF8743001F0FEFC89
:102BB00008B1FDF777F9644801F0BEFC08B1FDF7F4
:102BC00071F99DF828306148012262F3030362F332
:102BD00007138DF8283001F077FD5C4982B20AA80E
:102BE000FFF724FD08B1FDF75DF90021082219A8BF
:102BF000FCF7A8FC10243C2100224FF4C87319A84C
:102C0000ADF86440ADF86610ADF86820ADF86A30F4
:102C1000FFF70AFD08B1FDF745F9002119A80422C4
:102C2000FCF790FC4A4B4B48199319A901F0A8FAFC
:102C300008B1FDF737F900210C463C220AA8FCF741
:102C400081FC0225214605233C2219A88DF82A4043
:102C50008DF828508DF82B300125FCF773FC2146A8
:102C60003D4B1E93202202A8ADF874504026FCF77D
:102C700069FC009402AAB4240AA819A9374B8DF85C
:102C80000B508DF808500696079400F015FD08B11A
:102C9000FDF708F900211C2219A8FCF753FC4FF49A
:102CA000204600234FF4703503242D492D4A1993F3
:102CB00019A8ADF872308DF874301A961B958DF8FE
:102CC00070401E911F9200F0F5FF08B1FDF7EAF881
:102CD000254B2649FF2214240320622644259C719B
:102CE0001E709D705A70DA701A715A71FCF790FE5E
:102CF000032000F0A1FD044650B9FCF747FF00286F
:102D0000FBD1FFF7A1FC0028F7D0FDF7CBF8F4E7E3
:102D1000FDF7C8F82046FDF7C5F8EEE7002A0020C9
:102D2000A04F02006D280200102C0020844F0200EA
:102D3000902A002000290020A12702000528020077
:102D40009C4F0200902B0020FD280200C051020081
:102D500001270200F42B0020A021002051260200B0
:102D60007D2702004D2602008C2D0020CC51020050
:102D70006DDF704772DF704779DF70477DDF704726
:102D800065DF7047F0B50488012C83B007D0148844
:102D900004F1020E9E4505D90C2003B0F0BD0720BA
:102DA00003B0F0BD0578012D04D1457802352544E6
:102DB000AB42F1D3023B0F461C1B02A9A4B205464D
:102DC00021F8024D07EB0E001646FFF7D7FF00284B
:102DD000E3D12B78022B17D0012B11D023460821E9
:102DE000FE2BD9D83288581CB8543288013292B29E
:102DF0003280B95432880132134433800020CCE74A
:102E00006B789C42EBD2E9E7BDF806309C42E5D3F3
:102E10000921E5E72DE9F04F85B083460E9D008836
:102E20002C880194BDF83C9000284ED000278A469B
:102E3000164698463C4604E0BBF800300134A342F5
:102E400026DDDBF8043053F8240003900DF10B016C
:102E500003A80022FFF794FF18BB9DF80B30B34284
:102E6000EAD10FB32A8893194B4519DC424403A8D1
:102E70000DF10B010127FFF783FF90B92B889DF817
:102E80000B2013442B80BBF800300134A342D8DC64
:102E9000DFB12B88019A013B9B1A9BB2FF2B12D901
:102EA0000C2005B0BDE8F08F2B885A1C3344023348
:102EB0004B4592B2F4DC2A8008F802A02A8801323D
:102EC00092B22A80D2E708F80230002005B0BDE8AF
:102ED000F08F00BF2DE9F04700231788138090F88A
:102EE0002D3086B0144605460E46002B40F0C880B3
:102EF000AA78002A40F0F080EA78002A2CD169688C
:102F000099B1DA1CBA42097822D80222F2542388F5
:102F100001339BB20A222380F254238801339BB2EF
:102F20002380F1542388013323802B89002B40F028
:102F3000F7802B8A002B40F00C812B8B002B40F06C
:102F400021812B6A002B5CD02288911DB94218D9AF
:102F50000C2006B0BDE8F087D91CB942F8D8022190
:102F6000F154238801339BB201212380F15423883B
:102F70000B449BB22380F25423880B449BB22380E2
:102F8000BDE71988052940F2C9806FF4486801EB54
:102F9000080080B24FF27D3E704540F2BF805888F5
:102FA000052840F2BB806FF4486C84441FFA8CFC07
:102FB000F44540F2B3804FF6FF7E714504D0704572
:102FC00002D0814200F2AA800521B1542288013248
:102FD00092B212212280B1542288013292B2228010
:102FE0001988B1543244090A51702288023292B2CF
:102FF00022805B88B35432441B0A53702388023307
:1030000023806B6A002B2BD0998820880A1D0244EC
:10301000BA429DD88A1CFE2A9AD80331315422889C
:10302000013292B2FF212280B1542288013292B241
:1030300022801988B1543244090A51702088023024
:1030400080B220809A885AB199680393002965D08C
:10305000304401F0FBFA039B22889B8813442380B1
:1030600095F82C30002B40F0A680287800283FF4FB
:1030700070AF2846314622463B46FFF783FE68E79D
:10308000082F7FF665AF04A8FFF772FE00287FF4D3
:1030900060AF23880822F254238801339BB21B229D
:1030A0002380F2542088013080B2208006223044F0
:1030B0000DF1110101F0CAFA23889DF810200633A2
:1030C0009BB212F0FE0218BF01222380F254238823
:1030D00001339BB223800BE70433BB423FF638AF8A
:1030E00004A8FFF749FE00287FF433AF2388BDF81A
:1030F00010200321F154238801339BB2192123802E
:10310000F154238801339BB2F1182380100AF25442
:103110004870238802339BB22380EDE6072018E72E
:1031200005F1080802218DE8900040460A46334622
:10313000FFF770FE00287FF40CAF8DE8900040464A
:10314000062110223346FFF765FE00287FF401AF09
:10315000EFE605F110088DE89000404603210222B9
:103160003346FFF757FE00287FF4F3AE8DE890005A
:103170004046072110223346FFF74CFE00287FF41B
:10318000E8AEDAE605F118088DE890004046142113
:1031900002223346FFF73EFE00287FF4DAAE8DE8C8
:1031A00090004046152110223346FFF733FE0028D9
:1031B0007FF4CFAEC5E6D5F82880B8F1000FADD0CA
:1031C000B8F804200232FE2A3FF6C2AE23884FF040
:1031D00000094FF0160A0132F254238801339BB2E2
:1031E000238006F803A0238801339BB22380B8F81C
:1031F0000020F2543344120A5A70238802339BB2DF
:103200002380B8F80410F0180A4661B1D8F80830E5
:103210001946002B82D001F019FAB8F80430228840
:1032200013449BB2238009F1010995F82C205FFA21
:1032300089F94A4509EB49087FF617AFAA6A02EBFC
:103240008808B8F804200232FE2AC4D980E600BFFC
:103250002DE9F04794B01F230D46ADF80E3004461B
:1032600000285AD0C278530753D590F82D3000214A
:10327000ADF80C10002B6BD18378002B40F0AB80A5
:103280001846032114AE5F1C0233304416FA87F748
:1032900016FA83F64FF0020E8BB2012100F840ECD3
:1032A000ADF80C3007F8401C06F8402C6268B2B14B
:1032B000D91C1F29167828D814AF581C9A1C17FA45
:1032C00080F03B4417FA82F24FF0020E0A2703F80F
:1032D00040ECADF80C1000F8407C02F8406C2389FB
:1032E000002B40F08581238A002B40F09F81238BA7
:1032F000002B40F0B981236A002B00F0D880BDF884
:103300000C20911D1F2940F28F800C2014B0BDE8C5
:10331000F087072014B0BDE8F087ADF80C00002D51
:1033200000F00481EB78002BF3D128460CA90DF1B5
:103330000E02FFF7CFFD0028ECD19DF80E300CAA4D
:1033400020469DF80C10FFF715FD14B0BDE8F0877E
:103350000CAF3846FFF70CFD0028DBD1BDF80C3070
:1033600014AA03F1010C12FA8CFC03F1020E1344AF
:103370001FFA8EFE04AE4FF008094FF01B0803F849
:10338000409C0DF13101062206EB0E000CF8408C3A
:10339000ADF80CE001F05AF9BDF80C209DF83010A2
:1033A000931D11F0FE019BB240F07C8114A80344F0
:1033B00003F8401CD31DA2789BB2ADF80C30002A54
:1033C00040F01181E278002A3FF470AFD91C1F2928
:1033D00018469AD856E70CAF3846FFF7CDFC0028C0
:1033E00098D1BDF80C30BDF83070E278991C0DF121
:1033F000500E581C89B204AE0EEB03091EFA80F081
:10340000043306EB010E4FF0030A4FF019089BB28C
:103410004FEA172C09F840ACADF80C3000F8408C9E
:1034200077548EF801C0CEE7188805287FF671AF73
:103430006FF4486C00EB0C06B6B24FF27D37BE421B
:103440007FF667AF5E88052E7FF663AF6FF4486E38
:10345000B6441FFA8EFEBE457FF65BAF4FF6FF7790
:10346000B84204D0BE4202D0B0423FF652AF14A8D8
:10347000561C10FA86F600EB020E901C80B2122742
:103480004FF0050C0EF840CCADF80C0006F8407C6F
:103490001F88ADF80C1004AE3118375404323F0ABF
:1034A0004F7092B25B88B35432441B0A5370676A00
:1034B0009FB3B888BDF80C30811C9A1C56181F2E7B
:1034C0003FF623AFFE293FF620AF14AE591C06EBA2
:1034D000030E16FA81F192B20330FF260EF8400C6B
:1034E000ADF80C2001F8406C398804AEB018B15426
:1034F000090A41700433BA8898B2ADF80C0062B181
:10350000B96800293FF405AF304401F09FF8BDF8D9
:103510000C30BA881344ADF80C3094F82C3053B901
:1035200004AE2378002B53D13446F8E62B46ADF891
:103530000E502A4604E7A76A002F3FF4EAAEB98886
:103540000231FE293FF6E1AE9E46BDF80C304FF049
:10355000000804AE4FF0160914AA581C02EB030C25
:1035600012FA80F09A1C92B201310CF8401CADF8AE
:103570000C2000F8409C3988B1543244090A51703B
:103580000433B9889BB20A46F018ADF80C3079B113
:10359000BB681946002B3FF4BCAE01F057F8BDF8EC
:1035A0000C30BA8894F82CE013449BB2ADF80C3080
:1035B00008F101085FFA88F8F04508EB4802B0D23C
:1035C000A76A07EB8207B9880231FE29C4D99CE6B5
:1035D0002046314603AA1F23FFF7D4FB00287FF4BF
:1035E00099AE34469BE604331F2B3FF68EAEF3E6CE
:1035F00003AA04F1080704AE4FF01F0802218DE86A
:103600000401384633460A46FFF704FC00287FF4DD
:1036100081AE03AB8DE808013846334606211022FF
:10362000FFF7F8FB00287FF475AE5CE603AA04F10F
:10363000100704AE4FF01F088DE8040138463346EA
:1036400003210222FFF7E6FB00287FF463AE03AB01
:103650008DE808013846334607211022FFF7DAFBD0
:1036600000287FF457AE42E603AA04F1180704AE1F
:103670004FF01F088DE8040138463346142102221A
:10368000FFF7C8FB00287FF445AE03AB8DE80801C7
:103690003846334615211022FFF7BCFB00287FF483
:1036A00039AE28E614A90B44012103F8401C81E639
:1036B00073DF704774DF70472DE9F84FDDF828C0DD
:1036C000002800F09B80002A00F0988014460546F0
:1036D0001E460F460FCCDFF848E1DFF848B1DFF8AF
:1036E0004891CBF80060AEE80F0094E80F00454E1B
:1036F000DFF838A1DFF83881DFF838B1C8F800C04A
:103700008EE80F00002401224FF6FF73214689F84E
:1037100000203D48ABF8003007228AF80040FBF754
:1037200011FF21463C223046FBF70CFF05F1100348
:1037300093E80300AA78EB7895F800E0B270F37094
:1037400006F1100395F801C086F800E083E8030055
:1037500005F1080393E8030006F1080E05F11803CC
:103760008EE8030093E803006A6A86F801C006F158
:10377000180383E80300B2B1244B7362686A244AD9
:103780009A60B0F804E001881980A3F804E0BEF163
:10379000000F08D0013A23468168C95C02F8011F76
:1037A00001337345F8D1AB6AB3B11A4BB362A86A5F
:1037B000194A9A6084889C800188198044B1013A32
:1037C00000238168C95C02F8011F0133A342F8D1CC
:1037D00095F82C3086F82C302B6A33B10F4B3362BE
:1037E0002A6A5188598012881A806B6803B1736005
:1037F00039460448BDE8F84FFFF72ABD0E20BDE862
:10380000F88F00BF302C0020A42C0020702C00204A
:10381000802C0020FC2C0020D42C0020CC2C00205C
:10382000AC2C00207C2C0020082D0020F82C00203F
:10383000A02C0020F62C00202DE9F043934B1D789E
:1038400085B025B90824204605B0BDE8F083904F27
:10385000064668463E70FDF79BF9009C3CB18D4BD7
:103860000024012220461A7005B0BDE8F083DFF87D
:103870004892894821460722FBF764FE99F80130F7
:103880002BB33B78012B29D099F802200AB1022BE7
:1038900024D0DFF8048298F8013083B998F8023018
:1038A0006BB998F8033053B998F804303BB998F8DD
:1038B000053023B998F80650003518BF0125013EA0
:1038C000032E00F2E080DFE806F0493A144399F84D
:1038D0000230002BDDD03B78012BD8D16F4B704AE2
:1038E0001B68002B00F0B080012108201170984760
:1038F000CFE799F803305BB30322684B3A701B683B
:103900003BB199F8002022B1664A1278002A00F0F3
:103910009D80654B00221A70102268460021FBF73B
:1039200011FE3B7800228DF800208DF80820042B32
:1039300000F28580DFE803F07164533E1B0099F8C4
:103940000230002BD5D0002DD3D002233B70E0E70E
:1039500099F80430002BF9D00422CEE799F8013011
:10396000002BECD0002DC4D001233B70D1E799F897
:103970000030D9F81810D9F81C20ADF80A10ADF8AD
:103980000C2033B1474B197819B9484B1B78002BE1
:1039900064D1474B04221A706846FFF789FE00285D
:1039A00050D13E4B1B68002B3FF44DAF404A10787E
:1039B000984748E799F80030D9F81010D9F8142042
:1039C000ADF80A10ADF80C202BB1364B197811B9AF
:1039D000364B1B782BBB364B03221A70DCE734487E
:1039E000D9F80C20D9F80830CDF80480022501213F
:1039F00005708DF80010ADF80C20ADF80A30CBE75B
:103A00002B49CDF80480012200230A708DF8002094
:103A1000ADF80C30ADF80A30BEE7254B00221A7025
:103A2000BFE7244B042502221846DD708DF80820DC
:103A3000FFF70EFC18BB1E4A3B7805211170002BC6
:103A4000AFD0A9E70446FEE6137022E717481649EF
:103A50000270012207200A7098475DE7154B042584
:103A600002221846DD708DF80820FFF7F1FB30B90F
:103A70000F4A3B7806211170002B92D08CE73B78DF
:103A8000002B8ED088E700233B7042E7082D0020F2
:103A9000F82C0020F92C0020A42C00207C2C0020E5
:103AA000F32C00209F2C0020F42C00206C2C0020F4
:103AB000D02C0020302C0020AC2C002010B5038826
:103AC000112B26D01B2B09D0102B00D010BDC37B8F
:103AD0008288012BFAD1164B1A8010BD037A002B75
:103AE000F4D1144B14481B78013380FB0320DA1700
:103AF000C2EB600000EB8000181AC0B2FFF79CFE1A
:103B00000028E3D00D4B1B68002BDFD0BDE8104030
:103B10001847074A83881288094900209A4208708A
:103B2000D4D10120FFF788FE0028EBD1CEE700BFFB
:103B3000F62C0020F82C002067666666A02C00207A
:103B40009F2C0020F8B5FFF7B5FD0F4A0F4C104D24
:103B5000002306271046012619462370D7702E70C1
:103B6000FFF776FB044600B1F8BD0A4B1878FFF763
:103B700063FE034628B1084B1B6813B198472046E3
:103B8000F8BD1846F8BD00BF302C00206C2C00207A
:103B90009F2C0020F82C0020A02C002075DF7047FF
:103BA00076DF70477ADF70477BDF7047184B1888E5
:103BB0004FF6FF7398422AD010B5164A164C137868
:103BC000217B0133DBB2994282B013700CD2237C8B
:103BD000002111708BB9636923B102A8002200F89B
:103BE000042D984702B010BD0C49FFF7D7FF0028FD
:103BF000F8D0A369002BF4D1F4E73B21FFF7D0FF05
:103C00000028E8D0A369002BE5D09847E3E7704788
:103C1000542D0020142D0020182D0020582D002098
:103C200070B51E4B1E4A5B881188994282B00FD82E
:103C300052889A420CD31B4B5B6923B102A8012224
:103C400000F8042D9847184C0023237002B070BD73
:103C5000154C227862B1134B5B69002BF4D002A89B
:103C6000002200F8042D98470023237002B070BD95
:103C70000C4D0E4869680678AB680D48002E18BFD9
:103C80001946FCF7B5FD0028DED0AB69002BDBD070
:103C900098470023237002B070BD00BF0C2D002098
:103CA000582D0020182D0020092D0020142D002053
:103CB000342D0020F8B505460FCD144C144F0FC419
:103CC000064695E80700002384E807003B70B6B17C
:103CD0003068104B716803C3A3F10800FFF762FF5F
:103CE00090B90D4D0D4C0E480E4A00234FF6FF764D
:103CF0002E8023701946BDE8F840FCF767BD0548E3
:103D0000FFF752FF0028ECD0F8BD00BF182D0020AF
:103D1000092D0020582D0020542D0020142D0020A6
:103D2000E8510200AD3B020070B50388112B27D08B
:103D300012D9122B07D0502B47D1244CC288E389CB
:103D40009A4230D070BD083003C8214B83E803008D
:103D5000BDE87040FFF764BF102B35D11D491B4CE7
:103D60001B4B1D4DE48900F110028088088092E809
:103D70000300002283E803002A70002CE8D070BD05
:103D80001449154B15484FF6FF7400220C801A7029
:103D9000FCF786FD0028D5D00C4B9B69002BD1D0B9
:103DA000BDE870401847038A022BCBD1123000F0D7
:103DB00017F80028CCD10948FCF772FD0028C1D0C3
:103DC000A369002BECD1BDE770BD70BD182D00209C
:103DD0000C2D0020542D0020142D0020342D002007
:103DE000007800F0010070470649074A074B9B1A0C
:103DF00003DD043BC858D050FBDC00F013F8FBF7A0
:103E00002DFB00008054020028210020B821002052
:103E1000FEE7FEE7FEE7FEE7FEE7FEE7FEE7FEE77A
:103E2000FEE7FEE7F0B5A44B1B78062B1AD0A34A99
:103E3000D2F8883043F47003C2F88830BFF34F8F54
:103E4000BFF36F8F4FF01023D3F80022002AC0F287
:103E50000281D3F80432002BC0F2FD80984B994ABE
:103E60001A60F0BD984B1B681E07E0D1974B1B688A
:103E700003F0F003302B62D0944B1B6803F0F00288
:103E8000302A4BD003F0E003402B47D08F4B1B6808
:103E900003F0F003302B00F0CF808C4B1B6803F055
:103EA000F002302A28D003F0E003402B24D0874BC7
:103EB0001B6803F0F003302B00F0B080834B1B68CD
:103EC00003F0F003302B00F09080804B1B6803F070
:103ED000F003502B37D07D4B1B6803F0F002302AE3
:103EE00003D003F0E003402BA1D1794B794A1B6842
:103EF00003F04F0313609AE76F4B1B784FF080423B
:103F00000021062BC2F80C11C2F81011C2F83815A6
:103F10008DD16D4B1B68180789D1C8E76E4B664A77
:103F20001B6812786D49C3F34233062A0B607FF495
:103F30007EAF654B1B681D077FF479AFA6E7684B22
:103F4000684A1A6098E74FF08052674BD2F8041421
:103F5000C3F82015D2F80814C3F82415D2F80C14AD
:103F6000C3F82815D2F81014C3F82C15D2F814147D
:103F7000C3F83015D2F81814C3F83415D2F81C144D
:103F8000C3F84015D2F82014C3F84415D2F824140D
:103F9000C3F84815D2F82814C3F84C15D2F82C14DD
:103FA000C3F85015D2F83014C3F85415D2F83414AD
:103FB000C3F86015D2F83814C3F86415D2F83C146D
:103FC000C3F86815D2F84014C3F86C15D2F844242D
:103FD000C3F87025384B1B78062B7FF428AF3A4B7B
:103FE0001B681B077FF423AF75E7334B3F4F1A78ED
:103FF0003F4D4048404B4FF0050E012600243F2125
:10400000062AC7F800E02E60046019607FF40FAF45
:104010002D4B1B681A077FF40AAF56E7264B374A29
:104020001B780321062B11607FF401AF264B1B6820
:1040300019077FF4FCAE41E7314A1F49D36809787C
:1040400023F080730629D360C4D11F4B1B681C0763
:104050007FF4EDAE21E72B4B0122C3F80425D3F802
:104060000024002AFBD04FF0102315222549C3F865
:104070000022D1F80034002BFBD04FF01023152282
:104080002049C3F80422D1F800241E4B002AFAD09C
:104090000022C3F80425D3F80024002AFBD0BFF384
:1040A0004F8F0649184BCA6802F4E0621343CB6095
:1040B000BFF34F8F00BFFDE7E00F00F000ED00E021
:1040C000A42100200090D003E40F00F0E80F00F0DE
:1040D00058020010E40E0040440200103C0500406D
:1040E00074C007400DF0ADBA00C00040105600404B
:1040F000885600401856004014560040A005004065
:10410000F0ED00E000E001400400FA05A0DF704798
:10411000A2DF7047A6DF704763DF704710B540B17C
:104120000B4631B10A88112A18D0502A02D0102A21
:1041300011D010BDCA88018A914213D08188914262
:10414000F7D18469002CF4D003F112011A8A2346B6
:10415000BDE8104018478B88838210BD4FF6FF736F
:10416000838210BD198A0229E8D10446184612300C
:10417000FFF736FE10B10123A37510BDA07510BD69
:104180002DE9F041774B94B09A6806460D461868C1
:104190005968DB6804AC0FC48EB185B14FF6FF736C
:1041A000B3822B68B361002304A8B3753146FFF7CF
:1041B000B3FF48B10446204614B0BDE8F0810E2498
:1041C000204614B0BDE8F081324614A9012512F84A
:1041D000023B21F8485D28468DF80A30FFF796FF2C
:1041E00004460028ECD1214603226846FBF7AAF9D1
:1041F0009DF800709DF801309DF802E065F303071B
:1042000065F3030365F3071365F3420E214665F377
:1042100007171C220DA88DF800708DF801308DF85D
:1042200002E0FBF78FF99DF8343096F800E00E9429
:10423000032743F0100321463A4601A81094119435
:1042400013948DF834308DF80EE0CDF848D0ADF8E9
:104250000C70FBF777F99DF806309DF804C09DF8C7
:1042600005E065F3420364F3C30364F3041365F3E9
:10427000030C65F3030EDBB22B4365F3071C65F3F8
:10428000071E2146142208A88DF806308DF804C0B8
:104290008DF805E0FBF756F901AB0993ADF82A401C
:1042A0004FF0140803AC0DA908AA7088089406F111
:1042B0000C03ADF82850ADF82C80FFF729FF044619
:1042C00000287FF47DAF21461C220DA8FBF73AF9A8
:1042D0009DF8343096F800E00E943A4643F00C0313
:1042E0002146022701A810941194129413948DF87A
:1042F00034308DF80EE0ADF80C70FBF723F99DF823
:1043000006309DF804E09DF8057065F3420364F300
:10431000C30364F3041365F3030E65F30307DBB211
:104320002B4365F3071E2146424665F3071708A88D
:104330008DF806308DF804E08DF80570FBF702F972
:1043400003AB708808930DA9331D08AA01AEADF820
:104350002A400996ADF82850ADF82C80FFF7D8FE1A
:1043600004462DE7EC51020070B586B0ADF806208A
:1043700048B1828A4FF6FF739A4201D0837D2BB9F0
:10438000082006B070BD0E2006B070BDBDF8063026
:10439000142B02D9072006B070BD04460D4602A8B2
:1043A00000211022FBF7CEF8A689A08A05950DF111
:1043B0000602012302A9ADF8086004928DF80A30C4
:1043C000FFF7A8FEDDE700BF48DF704710DF70474A
:1043D00060DF704761DF7047FBF774BD2DE9F04780
:1043E000DFF8A890264EDFF8A880264FD9F80040C5
:1043F000B4FA84F482B0002564097DB93378DFF81B
:1044000080A063B901A8FFF7DFFF05280AD018B321
:10441000FBF748FD4CB101240025EFE7CCB102B019
:10442000BDE8F087002CFAD101259AF80030002B66
:10443000F5D102A93C68B8F8003021F8043D2046C7
:10444000FFF7C8FF052816D080B1FBF72BFD00242D
:10445000D3E7DFF82CA0E8E70198FCF78DFC0A4BC6
:104460001B68002BD6D001989847D3E72046D9F88F
:1044700000309847EBE7002DCDD002B0BDE8F087C3
:10448000602D0020642D0020682D00206C2D002060
:10449000622D0020014B1878704700BF612D00206D
:1044A00011B111F0030F01D007207047F8B51B4F71
:1044B0001B4E1C4D1C4C396032802B602368DB077F
:1044C00008D50125C4F880501849FFF77FFF30B1A7
:1044D0002560F8BD1549FFF779FF00B1F8BD144B11
:1044E00001221A70FCF75AFC0F4A92F816335B0946
:1044F000991E052909D8043B012B06D90D4B986854
:1045000030B94FF480031360F8BD42F20200F8BDE9
:104510001A6842F480021A600020F8BD642D002061
:10452000622D0020702D002000E100E0D943020040
:10453000612D0020802D0020034618B1024A002082
:10454000136070470E2070476C2D002008B5094B92
:104550001B6833B1984700B908BDBDE80840FBF7B8
:10456000A1BC054B1B78002BF6D0BDE80840FFF737
:1045700035BF00BF702D0020612D002070B514469E
:1045800005460E46104600211C22FAF7DBFF227D6D
:104590002672002363F30002012165722275A36174
:1045A000218005B1A172002070BD00BF30B583B07D
:1045B000194B019302AC019A44F8082D174905469E
:1045C0000420FBF77DFA21462846FFF701FF009AF9
:1045D000019B9A4204460BD110B9204603B030BD6E
:1045E00001200F492246FBF76BFA204603B030BD8D
:1045F00002200C49FBF764FA4FF08052009BD2F87E
:104600000C210949C3EB822202F100520220FBF780
:1046100057FA204603B030BD282100207052020016
:1046200018530200A0520200E452020010B50A44DE
:10463000441E914208D014F8013F0878834201D00B
:10464000181A10BD0131F4E7002010BD10B5431E4B
:104650000A44914204D011F8014B03F8014FF8E7E6
:1046600010BD00000CB430B5164B0C1E9DB01D687B
:1046700004DA8B232B604FF0FF301EE04FF40273FF
:10468000ADF8143014BF04F1FF33234604930793AD
:104690004FF6FF7302900690ADF81630284621AB16
:1046A00002A9209A019300F071F8431CBCBF8B2330
:1046B0002B6014B1029B00221A701DB0BDE830407F
:1046C00002B0704788210020034613F8012B002A0E
:1046D000FBD1181A013870472DE9F0478E68B342B4
:1046E00082460C469046994640D38A8912F4906FD0
:1046F0003AD0256809696F1A6569022305EB4505FB
:1047000095FBF3F57B1C4B449D4238BF1D4653057A
:104710000FD5294600F030FB064698B121693A468C
:10472000FFF794FFA38923F4906343F08003A381F0
:1047300013E02A4600F076FB064670B95046216920
:1047400000F0D6FA0C23CAF80030A38943F04003E6
:10475000A3814FF0FF30BDE8F087266165613E44DC
:10476000ED1B2660A5604E46B14500D24E4632464E
:104770002068414600F0A1FAA3689B1BA360236850
:104780001E4426600020BDE8F08700002DE9F043BC
:104790009DB0064603938B891C060D4690460CD5AA
:1047A0000B6953B9402100F0E7FA2860286110B97D
:1047B0000C233360CCE040236B610023099320235A
:1047C0008DF8293030238DF82A3043461C4613F8E3
:1047D000012B1AB9B4EB08090FD002E0252AF5D154
:1047E000F8E73046294642464B46FFF775FF013051
:1047F00000F0A980099B4B4409932378002B00F01B
:10480000A28000234FF0FF32049307930592069392
:104810008DF853301A9304F101084446DFF84891AB
:1048200021784846052200F039FA08F10108049B76
:1048300030B1C9EB00000122824013430493ECE73E
:10484000D80644BF20228DF85320190744BF2B22DD
:104850008DF8532022782A2A02D0079923460EE0A9
:10486000039A111D12680391002ABBBF524243F004
:10487000020307920792B8BF049301340AE01C4672
:1048800001332278303A092A03D80A2000FB01219B
:10489000F5E7079123782E2B1AD163782A2B0AD1BA
:1048A000039B1A1D1B680392002BB8BF4FF0FF3308
:1048B000023405930CE0611C00220C460131237880
:1048C000303B092B03D80A2000FB0232F5E70592A2
:1048D000DFF8988021784046032200F0DFF938B1F4
:1048E000049AC8EB0000402383401343049301342F
:1048F00021781A488DF82810062204F1010800F0EA
:10490000CDF988B1164B33B9039B073323F0070366
:104910000833039313E003AB0093304604A92A46FF
:10492000104BAFF3008007E003AB0093304604A9BF
:104930002A460C4B00F092F8421C074603D0099B14
:104940003B44099341E7AB895B0601D4099801E038
:104950004FF0FF301DB0BDE8F08300BF4B540200A4
:1049600000000000D94602004154020047540200F2
:104970002DE9F84391461F468A680B69DDF82080CF
:104980009342B8BF1346C9F8003091F84320064659
:104990000C4612B10133C9F800302368990642BFB2
:1049A000D9F800300233C9F80030256815F0060543
:1049B0001CD094F843302268003318BF01239206BC
:1049C0001FD5E1185A1C302081F84300224494F886
:1049D000451082F84310023313E03046394604F1A3
:1049E00019020123C047013007D00135E368D9F827
:1049F00000209B1A9D42F0DBDBE74FF0FF30BDE863
:104A0000F8833046394604F14302C0470130F4D000
:104A10002268D9F80050E36802F00602042A08BFB1
:104A20005D1B2269A3680CBF25EAE575002593424A
:104A3000C4BF9B1AED184FF00009A9450ADA3046A9
:104A4000394604F11A020123C0470130D5D009F1DB
:104A50000109F2E70020BDE8F88300002DE9FF41DD
:104A60000C461746227E6E2A984606460A9B01F19E
:104A7000430100F0AF8012D8632A23D00AD8002A5D
:104A800000F0BC80582A40F0CB8084F84520DFF845
:104A900004E257E0642A1ED0692A1CD0C0E0732AC1
:104AA00000F0B08009D86F2A2ED0702A40F0B8806C
:104AB000226842F0200222603FE0752A24D0782A42
:104AC0003BD0ADE01A68111D1960136884F84230BC
:104AD00004F14205A8E020681A6810F0800F02D0A7
:104AE000101D186008E010F0400F02F1040018607B
:104AF00002D0B2F9003000E01368002B3EDA2D221C
:104B00005B4284F8432039E020681A6810F0800F77
:104B100002D0101D186007E010F0400F02F10400F1
:104B2000186001D0138800E01368227EDFF864E18A
:104B30006F2A0CBF08220A221CE07822DFF858E115
:104B400084F845202268186812F0800F00F10405EF
:104B50001D6003D1550601D5038800E00368D00726
:104B600044BF42F0200222601BB9226822F02002DA
:104B700022601022002084F8430002E0DFF814E1F4
:104B80000A226568A560002DA2BF206820F00400FD
:104B9000206003B965B10D46B3FBF2F002FB1033A0
:104BA0001EF8033005F8013D03460028F4D100E06B
:104BB0000D46082A0BD12368DA0708D523696268F5
:104BC0009A42DEBF302305F8013C05F1FF35491B51
:104BD00021612EE025681A68606915F0800F03D006
:104BE000151D1D60136808E015F0400F02F1040563
:104BF0001D60136801D0188000E018600023236155
:104C00000D4616E01A68111D19601568626828467D
:104C1000002100F043F808B1401B6060636804E0C5
:104C200004F1420584F8422001232361002384F823
:104C30004330CDF800803046214603AA3B46FFF7BB
:104C400097FE013002D14FF0FF301FE03046394669
:104C50002A462369C0470130F5D023689B0705D455
:104C6000E068039B9842B8BF18460FE00025E36850
:104C7000039A9B1A9D42F3DA3046394604F1190231
:104C80000123C0470130DED00135F0E704B0BDE8B4
:104C9000F08100BF525402006354020010B5C9B243
:104CA00002449042034606D01C788C4200F1010079
:104CB000F7D1184610BD002010BD814210B501EBA0
:104CC000020301D3421E0BE09842FBD28118D21A94
:104CD000D34204D013F8014D01F8014DF8E710BD9F
:104CE000994204D011F8014B02F8014FF8E710BDCA
:104CF00030B500293DD051F8042C0B1F1D49002A66
:104D0000B8BF9B180A680C4612B95A600B6030BDD8
:104D100093420DD219685818904201BF5A58521840
:104D20001A6042685A60236030BD994203D80A462F
:104D300051680029F9D1146815199D420AD11B68E0
:104D40002344D0188842136013D1086803441360C9
:104D50004B680DE002D90C23036030BD1C681819A4
:104D6000884204BF08684968596004BF0019186088
:104D7000536030BD782D002070B5CC1C24F00304A6
:104D800008340C2C38BF0C24002C064603DA0C2304
:104D90003360002070BD8C42F9D3204A136810465E
:104DA0001946A1B10A68121B0ED40B2A03D90A6056
